{
  "_format": "hh-sol-artifact-1",
  "contractName": "BlockPledge",
  "sourceName": "app/contracts/BlockPledge.sol",
  "abi": [
    {
      "inputs": [
        {
          "internalType": "uint256",
          "name": "_projectTax",
          "type": "uint256"
        }
      ],
      "stateMutability": "nonpayable",
      "type": "constructor"
    },
    {
      "anonymous": false,
      "inputs": [
        {
          "indexed": false,
          "internalType": "uint256",
          "name": "id",
          "type": "uint256"
        },
        {
          "indexed": false,
          "internalType": "uint256",
          "name": "timestamp",
          "type": "uint256"
        }
      ],
      "name": "ProjectApproved",
      "type": "event"
    },
    {
      "anonymous": false,
      "inputs": [
        {
          "indexed": false,
          "internalType": "uint256",
          "name": "id",
          "type": "uint256"
        },
        {
          "indexed": false,
          "internalType": "address",
          "name": "backer",
          "type": "address"
        },
        {
          "indexed": false,
          "internalType": "string",
          "name": "comment",
          "type": "string"
        },
        {
          "indexed": false,
          "internalType": "uint256",
          "name": "timestamp",
          "type": "uint256"
        }
      ],
      "name": "ProjectBacked",
      "type": "event"
    },
    {
      "anonymous": false,
      "inputs": [
        {
          "indexed": false,
          "internalType": "uint256",
          "name": "id",
          "type": "uint256"
        },
        {
          "indexed": false,
          "internalType": "address",
          "name": "owner",
          "type": "address"
        },
        {
          "indexed": false,
          "internalType": "string",
          "name": "title",
          "type": "string"
        },
        {
          "indexed": false,
          "internalType": "uint256",
          "name": "timestamp",
          "type": "uint256"
        }
      ],
      "name": "ProjectCreated",
      "type": "event"
    },
    {
      "anonymous": false,
      "inputs": [
        {
          "indexed": false,
          "internalType": "uint256",
          "name": "id",
          "type": "uint256"
        },
        {
          "indexed": false,
          "internalType": "uint256",
          "name": "timestamp",
          "type": "uint256"
        }
      ],
      "name": "ProjectDeleted",
      "type": "event"
    },
    {
      "anonymous": false,
      "inputs": [
        {
          "indexed": false,
          "internalType": "uint256",
          "name": "id",
          "type": "uint256"
        },
        {
          "indexed": false,
          "internalType": "address",
          "name": "recipient",
          "type": "address"
        },
        {
          "indexed": false,
          "internalType": "uint256",
          "name": "amount",
          "type": "uint256"
        },
        {
          "indexed": false,
          "internalType": "uint256",
          "name": "timestamp",
          "type": "uint256"
        }
      ],
      "name": "ProjectPaidOut",
      "type": "event"
    },
    {
      "anonymous": false,
      "inputs": [
        {
          "indexed": false,
          "internalType": "uint256",
          "name": "id",
          "type": "uint256"
        },
        {
          "indexed": false,
          "internalType": "uint256",
          "name": "timestamp",
          "type": "uint256"
        }
      ],
      "name": "ProjectRejected",
      "type": "event"
    },
    {
      "anonymous": false,
      "inputs": [
        {
          "indexed": false,
          "internalType": "uint256",
          "name": "id",
          "type": "uint256"
        },
        {
          "indexed": false,
          "internalType": "string",
          "name": "title",
          "type": "string"
        },
        {
          "indexed": false,
          "internalType": "uint256",
          "name": "timestamp",
          "type": "uint256"
        }
      ],
      "name": "ProjectUpdated",
      "type": "event"
    },
    {
      "inputs": [
        {
          "internalType": "uint256",
          "name": "_id",
          "type": "uint256"
        }
      ],
      "name": "acceptProject",
      "outputs": [
        {
          "internalType": "bool",
          "name": "",
          "type": "bool"
        }
      ],
      "stateMutability": "nonpayable",
      "type": "function"
    },
    {
      "inputs": [
        {
          "internalType": "uint256",
          "name": "_id",
          "type": "uint256"
        },
        {
          "internalType": "string",
          "name": "_comment",
          "type": "string"
        }
      ],
      "name": "backProject",
      "outputs": [
        {
          "internalType": "bool",
          "name": "",
          "type": "bool"
        }
      ],
      "stateMutability": "payable",
      "type": "function"
    },
    {
      "inputs": [
        {
          "internalType": "uint256",
          "name": "",
          "type": "uint256"
        },
        {
          "internalType": "uint256",
          "name": "",
          "type": "uint256"
        }
      ],
      "name": "backersOf",
      "outputs": [
        {
          "internalType": "address",
          "name": "backer",
          "type": "address"
        },
        {
          "internalType": "uint256",
          "name": "contribution",
          "type": "uint256"
        },
        {
          "internalType": "uint256",
          "name": "timestamp",
          "type": "uint256"
        },
        {
          "internalType": "string",
          "name": "comment",
          "type": "string"
        },
        {
          "internalType": "bool",
          "name": "refunded",
          "type": "bool"
        }
      ],
      "stateMutability": "view",
      "type": "function"
    },
    {
      "inputs": [
        {
          "internalType": "uint256",
          "name": "",
          "type": "uint256"
        }
      ],
      "name": "categories",
      "outputs": [
        {
          "internalType": "uint256",
          "name": "id",
          "type": "uint256"
        },
        {
          "internalType": "string",
          "name": "name",
          "type": "string"
        }
      ],
      "stateMutability": "view",
      "type": "function"
    },
    {
      "inputs": [
        {
          "internalType": "uint256",
          "name": "_taxPct",
          "type": "uint256"
        }
      ],
      "name": "changeTax",
      "outputs": [],
      "stateMutability": "nonpayable",
      "type": "function"
    },
    {
      "inputs": [
        {
          "internalType": "string",
          "name": "_title",
          "type": "string"
        },
        {
          "internalType": "string",
          "name": "_description",
          "type": "string"
        },
        {
          "internalType": "string[]",
          "name": "_imageUrls",
          "type": "string[]"
        },
        {
          "internalType": "uint256",
          "name": "_category",
          "type": "uint256"
        },
        {
          "internalType": "uint256",
          "name": "_cost",
          "type": "uint256"
        },
        {
          "internalType": "uint256",
          "name": "_expiresAt",
          "type": "uint256"
        }
      ],
      "name": "createProject",
      "outputs": [
        {
          "internalType": "bool",
          "name": "",
          "type": "bool"
        }
      ],
      "stateMutability": "nonpayable",
      "type": "function"
    },
    {
      "inputs": [
        {
          "internalType": "uint256",
          "name": "_id",
          "type": "uint256"
        },
        {
          "internalType": "string",
          "name": "_reason",
          "type": "string"
        }
      ],
      "name": "deleteProject",
      "outputs": [
        {
          "internalType": "bool",
          "name": "",
          "type": "bool"
        }
      ],
      "stateMutability": "nonpayable",
      "type": "function"
    },
    {
      "inputs": [
        {
          "internalType": "uint256",
          "name": "_id",
          "type": "uint256"
        }
      ],
      "name": "getBackers",
      "outputs": [
        {
          "components": [
            {
              "internalType": "address",
              "name": "backer",
              "type": "address"
            },
            {
              "internalType": "uint256",
              "name": "contribution",
              "type": "uint256"
            },
            {
              "internalType": "uint256",
              "name": "timestamp",
              "type": "uint256"
            },
            {
              "internalType": "string",
              "name": "comment",
              "type": "string"
            },
            {
              "internalType": "bool",
              "name": "refunded",
              "type": "bool"
            }
          ],
          "internalType": "struct BlockPledge.BackerStruct[]",
          "name": "",
          "type": "tuple[]"
        }
      ],
      "stateMutability": "view",
      "type": "function"
    },
    {
      "inputs": [],
      "name": "getCategories",
      "outputs": [
        {
          "components": [
            {
              "internalType": "uint256",
              "name": "id",
              "type": "uint256"
            },
            {
              "internalType": "string",
              "name": "name",
              "type": "string"
            }
          ],
          "internalType": "struct BlockPledge.CategoryStruct[]",
          "name": "",
          "type": "tuple[]"
        }
      ],
      "stateMutability": "view",
      "type": "function"
    },
    {
      "inputs": [
        {
          "internalType": "uint256",
          "name": "_id",
          "type": "uint256"
        }
      ],
      "name": "getProject",
      "outputs": [
        {
          "components": [
            {
              "internalType": "uint256",
              "name": "id",
              "type": "uint256"
            },
            {
              "internalType": "address",
              "name": "owner",
              "type": "address"
            },
            {
              "internalType": "string",
              "name": "title",
              "type": "string"
            },
            {
              "internalType": "string",
              "name": "description",
              "type": "string"
            },
            {
              "internalType": "string[]",
              "name": "imageUrls",
              "type": "string[]"
            },
            {
              "internalType": "uint256",
              "name": "cost",
              "type": "uint256"
            },
            {
              "internalType": "uint256",
              "name": "raised",
              "type": "uint256"
            },
            {
              "internalType": "uint256",
              "name": "timestamp",
              "type": "uint256"
            },
            {
              "internalType": "uint256",
              "name": "expiresAt",
              "type": "uint256"
            },
            {
              "internalType": "uint256",
              "name": "backers",
              "type": "uint256"
            },
            {
              "internalType": "uint256",
              "name": "categoryId",
              "type": "uint256"
            },
            {
              "internalType": "enum BlockPledge.StatusEnum",
              "name": "status",
              "type": "uint8"
            },
            {
              "internalType": "string",
              "name": "deletionReason",
              "type": "string"
            }
          ],
          "internalType": "struct BlockPledge.ProjectStruct",
          "name": "",
          "type": "tuple"
        }
      ],
      "stateMutability": "view",
      "type": "function"
    },
    {
      "inputs": [],
      "name": "getProjects",
      "outputs": [
        {
          "components": [
            {
              "internalType": "uint256",
              "name": "id",
              "type": "uint256"
            },
            {
              "internalType": "address",
              "name": "owner",
              "type": "address"
            },
            {
              "internalType": "string",
              "name": "title",
              "type": "string"
            },
            {
              "internalType": "string",
              "name": "description",
              "type": "string"
            },
            {
              "internalType": "string[]",
              "name": "imageUrls",
              "type": "string[]"
            },
            {
              "internalType": "uint256",
              "name": "cost",
              "type": "uint256"
            },
            {
              "internalType": "uint256",
              "name": "raised",
              "type": "uint256"
            },
            {
              "internalType": "uint256",
              "name": "timestamp",
              "type": "uint256"
            },
            {
              "internalType": "uint256",
              "name": "expiresAt",
              "type": "uint256"
            },
            {
              "internalType": "uint256",
              "name": "backers",
              "type": "uint256"
            },
            {
              "internalType": "uint256",
              "name": "categoryId",
              "type": "uint256"
            },
            {
              "internalType": "enum BlockPledge.StatusEnum",
              "name": "status",
              "type": "uint8"
            },
            {
              "internalType": "string",
              "name": "deletionReason",
              "type": "string"
            }
          ],
          "internalType": "struct BlockPledge.ProjectStruct[]",
          "name": "",
          "type": "tuple[]"
        }
      ],
      "stateMutability": "view",
      "type": "function"
    },
    {
      "inputs": [],
      "name": "getStats",
      "outputs": [
        {
          "components": [
            {
              "internalType": "uint256",
              "name": "totalProjects",
              "type": "uint256"
            },
            {
              "internalType": "uint256",
              "name": "totalBackings",
              "type": "uint256"
            },
            {
              "internalType": "uint256",
              "name": "totalDonations",
              "type": "uint256"
            }
          ],
          "internalType": "struct BlockPledge.StatsStruct",
          "name": "",
          "type": "tuple"
        }
      ],
      "stateMutability": "view",
      "type": "function"
    },
    {
      "inputs": [
        {
          "internalType": "address",
          "name": "_user",
          "type": "address"
        }
      ],
      "name": "getUserProjects",
      "outputs": [
        {
          "components": [
            {
              "internalType": "uint256",
              "name": "id",
              "type": "uint256"
            },
            {
              "internalType": "address",
              "name": "owner",
              "type": "address"
            },
            {
              "internalType": "string",
              "name": "title",
              "type": "string"
            },
            {
              "internalType": "string",
              "name": "description",
              "type": "string"
            },
            {
              "internalType": "string[]",
              "name": "imageUrls",
              "type": "string[]"
            },
            {
              "internalType": "uint256",
              "name": "cost",
              "type": "uint256"
            },
            {
              "internalType": "uint256",
              "name": "raised",
              "type": "uint256"
            },
            {
              "internalType": "uint256",
              "name": "timestamp",
              "type": "uint256"
            },
            {
              "internalType": "uint256",
              "name": "expiresAt",
              "type": "uint256"
            },
            {
              "internalType": "uint256",
              "name": "backers",
              "type": "uint256"
            },
            {
              "internalType": "uint256",
              "name": "categoryId",
              "type": "uint256"
            },
            {
              "internalType": "enum BlockPledge.StatusEnum",
              "name": "status",
              "type": "uint8"
            },
            {
              "internalType": "string",
              "name": "deletionReason",
              "type": "string"
            }
          ],
          "internalType": "struct BlockPledge.ProjectStruct[]",
          "name": "",
          "type": "tuple[]"
        }
      ],
      "stateMutability": "view",
      "type": "function"
    },
    {
      "inputs": [],
      "name": "owner",
      "outputs": [
        {
          "internalType": "address",
          "name": "",
          "type": "address"
        }
      ],
      "stateMutability": "view",
      "type": "function"
    },
    {
      "inputs": [
        {
          "internalType": "uint256",
          "name": "_id",
          "type": "uint256"
        }
      ],
      "name": "payOutProject",
      "outputs": [
        {
          "internalType": "bool",
          "name": "",
          "type": "bool"
        }
      ],
      "stateMutability": "nonpayable",
      "type": "function"
    },
    {
      "inputs": [],
      "name": "projectCount",
      "outputs": [
        {
          "internalType": "uint256",
          "name": "",
          "type": "uint256"
        }
      ],
      "stateMutability": "view",
      "type": "function"
    },
    {
      "inputs": [
        {
          "internalType": "uint256",
          "name": "",
          "type": "uint256"
        }
      ],
      "name": "projectExists",
      "outputs": [
        {
          "internalType": "bool",
          "name": "",
          "type": "bool"
        }
      ],
      "stateMutability": "view",
      "type": "function"
    },
    {
      "inputs": [],
      "name": "projectTax",
      "outputs": [
        {
          "internalType": "uint256",
          "name": "",
          "type": "uint256"
        }
      ],
      "stateMutability": "view",
      "type": "function"
    },
    {
      "inputs": [
        {
          "internalType": "uint256",
          "name": "",
          "type": "uint256"
        }
      ],
      "name": "projects",
      "outputs": [
        {
          "internalType": "uint256",
          "name": "id",
          "type": "uint256"
        },
        {
          "internalType": "address",
          "name": "owner",
          "type": "address"
        },
        {
          "internalType": "string",
          "name": "title",
          "type": "string"
        },
        {
          "internalType": "string",
          "name": "description",
          "type": "string"
        },
        {
          "internalType": "uint256",
          "name": "cost",
          "type": "uint256"
        },
        {
          "internalType": "uint256",
          "name": "raised",
          "type": "uint256"
        },
        {
          "internalType": "uint256",
          "name": "timestamp",
          "type": "uint256"
        },
        {
          "internalType": "uint256",
          "name": "expiresAt",
          "type": "uint256"
        },
        {
          "internalType": "uint256",
          "name": "backers",
          "type": "uint256"
        },
        {
          "internalType": "uint256",
          "name": "categoryId",
          "type": "uint256"
        },
        {
          "internalType": "enum BlockPledge.StatusEnum",
          "name": "status",
          "type": "uint8"
        },
        {
          "internalType": "string",
          "name": "deletionReason",
          "type": "string"
        }
      ],
      "stateMutability": "view",
      "type": "function"
    },
    {
      "inputs": [
        {
          "internalType": "address",
          "name": "",
          "type": "address"
        },
        {
          "internalType": "uint256",
          "name": "",
          "type": "uint256"
        }
      ],
      "name": "projectsOf",
      "outputs": [
        {
          "internalType": "uint256",
          "name": "id",
          "type": "uint256"
        },
        {
          "internalType": "address",
          "name": "owner",
          "type": "address"
        },
        {
          "internalType": "string",
          "name": "title",
          "type": "string"
        },
        {
          "internalType": "string",
          "name": "description",
          "type": "string"
        },
        {
          "internalType": "uint256",
          "name": "cost",
          "type": "uint256"
        },
        {
          "internalType": "uint256",
          "name": "raised",
          "type": "uint256"
        },
        {
          "internalType": "uint256",
          "name": "timestamp",
          "type": "uint256"
        },
        {
          "internalType": "uint256",
          "name": "expiresAt",
          "type": "uint256"
        },
        {
          "internalType": "uint256",
          "name": "backers",
          "type": "uint256"
        },
        {
          "internalType": "uint256",
          "name": "categoryId",
          "type": "uint256"
        },
        {
          "internalType": "enum BlockPledge.StatusEnum",
          "name": "status",
          "type": "uint8"
        },
        {
          "internalType": "string",
          "name": "deletionReason",
          "type": "string"
        }
      ],
      "stateMutability": "view",
      "type": "function"
    },
    {
      "inputs": [
        {
          "internalType": "uint256",
          "name": "_id",
          "type": "uint256"
        },
        {
          "internalType": "string",
          "name": "_reason",
          "type": "string"
        }
      ],
      "name": "rejectProject",
      "outputs": [
        {
          "internalType": "bool",
          "name": "",
          "type": "bool"
        }
      ],
      "stateMutability": "nonpayable",
      "type": "function"
    },
    {
      "inputs": [
        {
          "internalType": "uint256",
          "name": "_id",
          "type": "uint256"
        }
      ],
      "name": "requestRefund",
      "outputs": [
        {
          "internalType": "bool",
          "name": "",
          "type": "bool"
        }
      ],
      "stateMutability": "nonpayable",
      "type": "function"
    },
    {
      "inputs": [],
      "name": "stats",
      "outputs": [
        {
          "internalType": "uint256",
          "name": "totalProjects",
          "type": "uint256"
        },
        {
          "internalType": "uint256",
          "name": "totalBackings",
          "type": "uint256"
        },
        {
          "internalType": "uint256",
          "name": "totalDonations",
          "type": "uint256"
        }
      ],
      "stateMutability": "view",
      "type": "function"
    },
    {
      "inputs": [
        {
          "internalType": "uint256",
          "name": "_id",
          "type": "uint256"
        },
        {
          "internalType": "string",
          "name": "_description",
          "type": "string"
        },
        {
          "internalType": "string[]",
          "name": "_imageUrls",
          "type": "string[]"
        }
      ],
      "name": "updateProject",
      "outputs": [
        {
          "internalType": "bool",
          "name": "",
          "type": "bool"
        }
      ],
      "stateMutability": "nonpayable",
      "type": "function"
    }
  ],
  "bytecode": "0x60806040523480156200001157600080fd5b5060405162005ddb38038062005ddb8339818101604052810190620000379190620005db565b336000806101000a81548173ffffffffffffffffffffffffffffffffffffffff021916908373ffffffffffffffffffffffffffffffffffffffff160217905550806001819055506000600c67ffffffffffffffff8111156200009e576200009d6200060d565b5b604051908082528060200260200182016040528015620000d357816020015b6060815260200190600190039081620000bd5790505b5090506040518060400160405280601081526020017f4172742026204372656174697669747900000000000000000000000000000000815250816000815181106200012357620001226200063c565b5b60200260200101819052506040518060400160405280601781526020017f546563686e6f6c6f6779202620496e6e6f766174696f6e000000000000000000815250816001815181106200017b576200017a6200063c565b5b60200260200101819052506040518060400160405280601981526020017f436f6d6d756e697479202620536f6369616c20496d706163740000000000000081525081600281518110620001d357620001d26200063c565b5b60200260200101819052506040518060400160405280601081526020017f46617368696f6e20262044657369676e00000000000000000000000000000000815250816003815181106200022b576200022a6200063c565b5b60200260200101819052506040518060400160405280600f81526020017f466f6f6420262042657665726167650000000000000000000000000000000000815250816004815181106200028357620002826200063c565b5b60200260200101819052506040518060400160405280601681526020017f47616d696e67202620456e7465727461696e6d656e740000000000000000000081525081600581518110620002db57620002da6200063c565b5b60200260200101819052506040518060400160405280601481526020017f54726176656c2026204578706c6f726174696f6e000000000000000000000000815250816006815181106200033357620003326200063c565b5b60200260200101819052506040518060400160405280601481526020017f456475636174696f6e2026204c6561726e696e67000000000000000000000000815250816007815181106200038b576200038a6200063c565b5b60200260200101819052506040518060400160405280601081526020017f4865616c74682026204669746e6573730000000000000000000000000000000081525081600881518110620003e357620003e26200063c565b5b60200260200101819052506040518060400160405280600c81526020017f4372616674732026204449590000000000000000000000000000000000000000815250816009815181106200043b576200043a6200063c565b5b60200260200101819052506040518060400160405280601481526020017f46696e616e6365202620496e766573746d656e7400000000000000000000000081525081600a815181106200049357620004926200063c565b5b60200260200101819052506040518060400160405280600e81526020017f50657473202620416e696d616c7300000000000000000000000000000000000081525081600b81518110620004eb57620004ea6200063c565b5b602002602001018190525060005b81518110156200059257600760405180604001604052808381526020018484815181106200052c576200052b6200063c565b5b60200260200101518152509080600181540180825580915050600190039060005260206000209060020201600090919091909150600082015181600001556020820151816001019081620005819190620008ac565b5050508080600101915050620004f9565b50505062000993565b600080fd5b6000819050919050565b620005b581620005a0565b8114620005c157600080fd5b50565b600081519050620005d581620005aa565b92915050565b600060208284031215620005f457620005f36200059b565b5b60006200060484828501620005c4565b91505092915050565b7f4e487b7100000000000000000000000000000000000000000000000000000000600052604160045260246000fd5b7f4e487b7100000000000000000000000000000000000000000000000000000000600052603260045260246000fd5b600081519050919050565b7f4e487b7100000000000000000000000000000000000000000000000000000000600052602260045260246000fd5b60006002820490506001821680620006be57607f821691505b602082108103620006d457620006d362000676565b5b50919050565b60008190508160005260206000209050919050565b60006020601f8301049050919050565b600082821b905092915050565b6000600883026200073e7fffffffffffffffffffffffffffffffffffffffffffffffffffffffffffffffff82620006ff565b6200074a8683620006ff565b95508019841693508086168417925050509392505050565b6000819050919050565b60006200078d620007876200078184620005a0565b62000762565b620005a0565b9050919050565b6000819050919050565b620007a9836200076c565b620007c1620007b88262000794565b8484546200070c565b825550505050565b600090565b620007d8620007c9565b620007e58184846200079e565b505050565b5b818110156200080d5762000801600082620007ce565b600181019050620007eb565b5050565b601f8211156200085c576200082681620006da565b6200083184620006ef565b8101602085101562000841578190505b620008596200085085620006ef565b830182620007ea565b50505b505050565b600082821c905092915050565b6000620008816000198460080262000861565b1980831691505092915050565b60006200089c83836200086e565b9150826002028217905092915050565b620008b7826200066b565b67ffffffffffffffff811115620008d357620008d26200060d565b5b620008df8254620006a5565b620008ec82828562000811565b600060209050601f8311600181146200092457600084156200090f578287015190505b6200091b85826200088e565b8655506200098b565b601f1984166200093486620006da565b60005b828110156200095e5784890151825560018201915060208501945060208101905062000937565b868310156200097e57848901516200097a601f8916826200086e565b8355505b6001600288020188555050505b505050505050565b61543880620009a36000396000f3fe60806040526004361061014b5760003560e01c8063a4b2409e116100b6578063d80528ae1161006f578063d80528ae14610536578063dcc6012814610563578063e32e723c1461058e578063f0f3f2c8146105cb578063f9285aa014610608578063fd1d5ea9146106495761014b565b8063a4b2409e146103eb578063b531dcba14610428578063c59d484714610465578063c6cdbe5e14610490578063c9168b72146104ce578063d24cd3ec1461050b5761014b565b80634db0412c116101085780634db0412c146102a3578063703d52af146102ce5780637326c7181461030b5780638da5cb5b146103485780638e55563214610373578063944173df146103bb5761014b565b8063013feda914610150578063086a8a871461018d578063107046bd146101ca57806336fbad26146102125780633e45c8af1461023d578063486ee33114610266575b600080fd5b34801561015c57600080fd5b5061017760048036038101906101729190613a12565b610686565b6040516101849190613ab8565b60405180910390f35b34801561019957600080fd5b506101b460048036038101906101af9190613ad3565b61089a565b6040516101c19190613ab8565b60405180910390f35b3480156101d657600080fd5b506101f160048036038101906101ec9190613b2f565b610ae7565b6040516102099c9b9a99989796959493929190613ca2565b60405180910390f35b34801561021e57600080fd5b50610227610d1c565b6040516102349190613d71565b60405180910390f35b34801561024957600080fd5b50610264600480360381019061025f9190613b2f565b610d22565b005b34801561027257600080fd5b5061028d60048036038101906102889190613ad3565b610dba565b60405161029a9190613ab8565b60405180910390f35b3480156102af57600080fd5b506102b8610fd4565b6040516102c59190613ee4565b60405180910390f35b3480156102da57600080fd5b506102f560048036038101906102f09190613b2f565b6110cf565b6040516103029190613ab8565b60405180910390f35b34801561031757600080fd5b50610332600480360381019061032d9190613f06565b6110ef565b60405161033f9190613ab8565b60405180910390f35b34801561035457600080fd5b5061035d611695565b60405161036a9190613fe7565b60405180910390f35b34801561037f57600080fd5b5061039a6004803603810190610395919061402e565b6116b9565b6040516103b29c9b9a99989796959493929190613ca2565b60405180910390f35b6103d560048036038101906103d09190613ad3565b6118fb565b6040516103e29190613ab8565b60405180910390f35b3480156103f757600080fd5b50610412600480360381019061040d9190613b2f565b611d7e565b60405161041f9190613ab8565b60405180910390f35b34801561043457600080fd5b5061044f600480360381019061044a9190613b2f565b611edd565b60405161045c9190613ab8565b60405180910390f35b34801561047157600080fd5b5061047a612093565b60405161048791906140b0565b60405180910390f35b34801561049c57600080fd5b506104b760048036038101906104b29190613b2f565b6120cb565b6040516104c59291906140cb565b60405180910390f35b3480156104da57600080fd5b506104f560048036038101906104f09190613b2f565b612187565b6040516105029190614251565b60405180910390f35b34801561051757600080fd5b50610520612310565b60405161052d9190613d71565b60405180910390f35b34801561054257600080fd5b5061054b612316565b60405161055a93929190614273565b60405180910390f35b34801561056f57600080fd5b5061057861232e565b604051610585919061456b565b60405180910390f35b34801561059a57600080fd5b506105b560048036038101906105b0919061458d565b6126f4565b6040516105c2919061456b565b60405180910390f35b3480156105d757600080fd5b506105f260048036038101906105ed9190613b2f565b612af9565b6040516105ff91906146e8565b60405180910390f35b34801561061457600080fd5b5061062f600480360381019061062a919061470a565b612efc565b60405161064095949392919061474a565b60405180910390f35b34801561065557600080fd5b50610670600480360381019061066b9190613b2f565b613004565b60405161067d9190613ab8565b60405180910390f35b60006006848154811061069c5761069b6147a4565b5b90600052602060002090600d020160010160009054906101000a900473ffffffffffffffffffffffffffffffffffffffff1673ffffffffffffffffffffffffffffffffffffffff163373ffffffffffffffffffffffffffffffffffffffff161461073b576040517f08c379a00000000000000000000000000000000000000000000000000000000081526004016107329061481f565b60405180910390fd5b600083511161077f576040517f08c379a00000000000000000000000000000000000000000000000000000000081526004016107769061488b565b60405180910390fd5b60008251116107c3576040517f08c379a00000000000000000000000000000000000000000000000000000000081526004016107ba906148f7565b60405180910390fd5b82600685815481106107d8576107d76147a4565b5b90600052602060002090600d020160030190816107f59190614b23565b50816006858154811061080b5761080a6147a4565b5b90600052602060002090600d0201600401908051906020019061082f929190613611565b507f2fc51eab37d48def9d8af982f76cb7dd95c39990cbda0942903fc31591da69228460068681548110610866576108656147a4565b5b90600052602060002090600d02016002014260405161088793929190614c79565b60405180910390a1600190509392505050565b60008060009054906101000a900473ffffffffffffffffffffffffffffffffffffffff1673ffffffffffffffffffffffffffffffffffffffff163373ffffffffffffffffffffffffffffffffffffffff161461092b576040517f08c379a000000000000000000000000000000000000000000000000000000000815260040161092290614d03565b60405180910390fd5b600a600084815260200190815260200160002060009054906101000a900460ff1661098b576040517f08c379a000000000000000000000000000000000000000000000000000000000815260040161098290614d6f565b60405180910390fd5b60058081111561099e5761099d613c2b565b5b600684815481106109b2576109b16147a4565b5b90600052602060002090600d0201600b0160009054906101000a900460ff1660058111156109e3576109e2613c2b565b5b14610a23576040517f08c379a0000000000000000000000000000000000000000000000000000000008152600401610a1a90614ddb565b60405180910390fd5b600360068481548110610a3957610a386147a4565b5b90600052602060002090600d0201600b0160006101000a81548160ff02191690836005811115610a6c57610a6b613c2b565b5b02179055508160068481548110610a8657610a856147a4565b5b90600052602060002090600d0201600c019081610aa39190614b23565b507fced42070be441b0c0e37a7030b1979b9d9116f4a19677cedc618153a8aab1a7d8342604051610ad5929190614dfb565b60405180910390a16001905092915050565b60068181548110610af757600080fd5b90600052602060002090600d02016000915090508060000154908060010160009054906101000a900473ffffffffffffffffffffffffffffffffffffffff1690806002018054610b4690614946565b80601f0160208091040260200160405190810160405280929190818152602001828054610b7290614946565b8015610bbf5780601f10610b9457610100808354040283529160200191610bbf565b820191906000526020600020905b815481529060010190602001808311610ba257829003601f168201915b505050505090806003018054610bd490614946565b80601f0160208091040260200160405190810160405280929190818152602001828054610c0090614946565b8015610c4d5780601f10610c2257610100808354040283529160200191610c4d565b820191906000526020600020905b815481529060010190602001808311610c3057829003601f168201915b50505050509080600501549080600601549080600701549080600801549080600901549080600a01549080600b0160009054906101000a900460ff169080600c018054610c9990614946565b80601f0160208091040260200160405190810160405280929190818152602001828054610cc590614946565b8015610d125780601f10610ce757610100808354040283529160200191610d12565b820191906000526020600020905b815481529060010190602001808311610cf557829003601f168201915b505050505090508c565b60025481565b60008054906101000a900473ffffffffffffffffffffffffffffffffffffffff1673ffffffffffffffffffffffffffffffffffffffff163373ffffffffffffffffffffffffffffffffffffffff1614610db0576040517f08c379a0000000000000000000000000000000000000000000000000000000008152600401610da790614d03565b60405180910390fd5b8060018190555050565b6000806005811115610dcf57610dce613c2b565b5b60068481548110610de357610de26147a4565b5b90600052602060002090600d0201600b0160009054906101000a900460ff166005811115610e1457610e13613c2b565b5b14610e54576040517f08c379a0000000000000000000000000000000000000000000000000000000008152600401610e4b90614e70565b60405180910390fd5b60068381548110610e6857610e676147a4565b5b90600052602060002090600d020160010160009054906101000a900473ffffffffffffffffffffffffffffffffffffffff1673ffffffffffffffffffffffffffffffffffffffff163373ffffffffffffffffffffffffffffffffffffffff1614610f07576040517f08c379a0000000000000000000000000000000000000000000000000000000008152600401610efe9061481f565b60405180910390fd5b600360068481548110610f1d57610f1c6147a4565b5b90600052602060002090600d0201600b0160006101000a81548160ff02191690836005811115610f5057610f4f613c2b565b5b02179055508160068481548110610f6a57610f696147a4565b5b90600052602060002090600d0201600c019081610f879190614b23565b50610f918361321d565b7f4484a435bc92a4925b8b18f20baf06d71675934c29cc91d21550d29939098ed08342604051610fc2929190614dfb565b60405180910390a16001905092915050565b60606007805480602002602001604051908101604052809291908181526020016000905b828210156110c657838290600052602060002090600202016040518060400160405290816000820154815260200160018201805461103590614946565b80601f016020809104026020016040519081016040528092919081815260200182805461106190614946565b80156110ae5780601f10611083576101008083540402835291602001916110ae565b820191906000526020600020905b81548152906001019060200180831161109157829003601f168201915b50505050508152505081526020019060010190610ff8565b50505050905090565b600a6020528060005260406000206000915054906101000a900460ff1681565b600080875111611134576040517f08c379a000000000000000000000000000000000000000000000000000000000815260040161112b90614edc565b60405180910390fd5b6000865111611178576040517f08c379a000000000000000000000000000000000000000000000000000000000815260040161116f9061488b565b60405180910390fd5b60008551116111bc576040517f08c379a00000000000000000000000000000000000000000000000000000000081526004016111b3906148f7565b60405180910390fd5b600083116111ff576040517f08c379a00000000000000000000000000000000000000000000000000000000081526004016111f690614f48565b60405180910390fd5b6007805490508410611246576040517f08c379a000000000000000000000000000000000000000000000000000000000815260040161123d90614fb4565b60405180910390fd5b61124e61366a565b60025481600001818152505033816020019073ffffffffffffffffffffffffffffffffffffffff16908173ffffffffffffffffffffffffffffffffffffffff16815250508781604001819052508681606001819052508581608001819052508481610140018181525050838160a0018181525050428160e00181815250508281610100018181525050600581610160019060058111156112f1576112f0613c2b565b5b9081600581111561130557611304613c2b565b5b8152505060068190806001815401808255809150506001900390600052602060002090600d02016000909190919091506000820151816000015560208201518160010160006101000a81548173ffffffffffffffffffffffffffffffffffffffff021916908373ffffffffffffffffffffffffffffffffffffffff160217905550604082015181600201908161139b9190614b23565b5060608201518160030190816113b19190614b23565b5060808201518160040190805190602001906113ce929190613611565b5060a0820151816005015560c0820151816006015560e082015181600701556101008201518160080155610120820151816009015561014082015181600a015561016082015181600b0160006101000a81548160ff0219169083600581111561143a57611439613c2b565b5b021790555061018082015181600c0190816114559190614b23565b5050506001600a6000600254815260200190815260200160002060006101000a81548160ff021916908315150217905550600860003373ffffffffffffffffffffffffffffffffffffffff1673ffffffffffffffffffffffffffffffffffffffff1681526020019081526020016000208190806001815401808255809150506001900390600052602060002090600d02016000909190919091506000820151816000015560208201518160010160006101000a81548173ffffffffffffffffffffffffffffffffffffffff021916908373ffffffffffffffffffffffffffffffffffffffff16021790555060408201518160020190816115559190614b23565b50606082015181600301908161156b9190614b23565b506080820151816004019080519060200190611588929190613611565b5060a0820151816005015560c0820151816006015560e082015181600701556101008201518160080155610120820151816009015561014082015181600a015561016082015181600b0160006101000a81548160ff021916908360058111156115f4576115f3613c2b565b5b021790555061018082015181600c01908161160f9190614b23565b5050506001600360000160008282546116289190615003565b925050819055507f51d08cb6cfa640a387210fb69df925dfb70169ae7373f8ecd40b977b0c800d9a600254338a426040516116669493929190615037565b60405180910390a16002600081548092919061168190615083565b919050555060019150509695505050505050565b60008054906101000a900473ffffffffffffffffffffffffffffffffffffffff1681565b600860205281600052604060002081815481106116d557600080fd5b90600052602060002090600d0201600091509150508060000154908060010160009054906101000a900473ffffffffffffffffffffffffffffffffffffffff169080600201805461172590614946565b80601f016020809104026020016040519081016040528092919081815260200182805461175190614946565b801561179e5780601f106117735761010080835404028352916020019161179e565b820191906000526020600020905b81548152906001019060200180831161178157829003601f168201915b5050505050908060030180546117b390614946565b80601f01602080910402602001604051908101604052809291908181526020018280546117df90614946565b801561182c5780601f106118015761010080835404028352916020019161182c565b820191906000526020600020905b81548152906001019060200180831161180f57829003601f168201915b50505050509080600501549080600601549080600701549080600801549080600901549080600a01549080600b0160009054906101000a900460ff169080600c01805461187890614946565b80601f01602080910402602001604051908101604052809291908181526020018280546118a490614946565b80156118f15780601f106118c6576101008083540402835291602001916118f1565b820191906000526020600020905b8154815290600101906020018083116118d457829003601f168201915b505050505090508c565b600080341161193f576040517f08c379a000000000000000000000000000000000000000000000000000000000815260040161193690615117565b60405180910390fd5b600a600084815260200190815260200160002060009054906101000a900460ff1661199f576040517f08c379a000000000000000000000000000000000000000000000000000000000815260040161199690614d6f565b60405180910390fd5b600060058111156119b3576119b2613c2b565b5b600684815481106119c7576119c66147a4565b5b90600052602060002090600d0201600b0160009054906101000a900460ff1660058111156119f8576119f7613c2b565b5b14611a38576040517f08c379a0000000000000000000000000000000000000000000000000000000008152600401611a2f90614e70565b60405180910390fd5b600160036001016000828254611a4e9190615003565b925050819055503460036002016000828254611a6a9190615003565b925050819055503460068481548110611a8657611a856147a4565b5b90600052602060002090600d02016006016000828254611aa69190615003565b92505081905550600160068481548110611ac357611ac26147a4565b5b90600052602060002090600d02016009016000828254611ae39190615003565b92505081905550600960008481526020019081526020016000206040518060a001604052803373ffffffffffffffffffffffffffffffffffffffff16815260200134815260200142815260200184815260200160001515815250908060018154018082558091505060019003906000526020600020906005020160009091909190915060008201518160000160006101000a81548173ffffffffffffffffffffffffffffffffffffffff021916908373ffffffffffffffffffffffffffffffffffffffff16021790555060208201518160010155604082015181600201556060820151816003019081611bd69190614b23565b5060808201518160040160006101000a81548160ff02191690831515021790555050507f74eda1e7b6ff65775d5ce38ece238bad783c4e12a3a754a6f0a469f248f2cdf883338442604051611c2e9493929190615037565b60405180910390a160068381548110611c4a57611c496147a4565b5b90600052602060002090600d02016005015460068481548110611c7057611c6f6147a4565b5b90600052602060002090600d02016006015410611ce757600160068481548110611c9d57611c9c6147a4565b5b90600052602060002090600d0201600b0160006101000a81548160ff02191690836005811115611cd057611ccf613c2b565b5b0217905550611cde836133b4565b60019050611d78565b60068381548110611cfb57611cfa6147a4565b5b90600052602060002090600d0201600801544210611d7357600260068481548110611d2957611d286147a4565b5b90600052602060002090600d0201600b0160006101000a81548160ff02191690836005811115611d5c57611d5b613c2b565b5b0217905550611d6a8361321d565b60019050611d78565b600190505b92915050565b600060026005811115611d9457611d93613c2b565b5b60068381548110611da857611da76147a4565b5b90600052602060002090600d0201600b0160009054906101000a900460ff166005811115611dd957611dd8613c2b565b5b14158015611e3e575060036005811115611df657611df5613c2b565b5b60068381548110611e0a57611e096147a4565b5b90600052602060002090600d0201600b0160009054906101000a900460ff166005811115611e3b57611e3a613c2b565b5b14155b611e7d576040517f08c379a0000000000000000000000000000000000000000000000000000000008152600401611e74906151a9565b60405180910390fd5b600260068381548110611e9357611e926147a4565b5b90600052602060002090600d0201600b0160006101000a81548160ff02191690836005811115611ec657611ec5613c2b565b5b0217905550611ed48261321d565b60019050919050565b600060016005811115611ef357611ef2613c2b565b5b60068381548110611f0757611f066147a4565b5b90600052602060002090600d0201600b0160009054906101000a900460ff166005811115611f3857611f37613c2b565b5b14611f78576040517f08c379a0000000000000000000000000000000000000000000000000000000008152600401611f6f90615215565b60405180910390fd5b60068281548110611f8c57611f8b6147a4565b5b90600052602060002090600d020160010160009054906101000a900473ffffffffffffffffffffffffffffffffffffffff1673ffffffffffffffffffffffffffffffffffffffff163373ffffffffffffffffffffffffffffffffffffffff161480612042575060008054906101000a900473ffffffffffffffffffffffffffffffffffffffff1673ffffffffffffffffffffffffffffffffffffffff163373ffffffffffffffffffffffffffffffffffffffff16145b612081576040517f08c379a00000000000000000000000000000000000000000000000000000000081526004016120789061481f565b60405180910390fd5b61208a826133b4565b60019050919050565b61209b6136fa565b60036040518060600160405290816000820154815260200160018201548152602001600282015481525050905090565b600781815481106120db57600080fd5b906000526020600020906002020160009150905080600001549080600101805461210490614946565b80601f016020809104026020016040519081016040528092919081815260200182805461213090614946565b801561217d5780601f106121525761010080835404028352916020019161217d565b820191906000526020600020905b81548152906001019060200180831161216057829003601f168201915b5050505050905082565b606060096000838152602001908152602001600020805480602002602001604051908101604052809291908181526020016000905b8282101561230557838290600052602060002090600502016040518060a00160405290816000820160009054906101000a900473ffffffffffffffffffffffffffffffffffffffff1673ffffffffffffffffffffffffffffffffffffffff1673ffffffffffffffffffffffffffffffffffffffff168152602001600182015481526020016002820154815260200160038201805461225990614946565b80601f016020809104026020016040519081016040528092919081815260200182805461228590614946565b80156122d25780601f106122a7576101008083540402835291602001916122d2565b820191906000526020600020905b8154815290600101906020018083116122b557829003601f168201915b505050505081526020016004820160009054906101000a900460ff161515151581525050815260200190600101906121bc565b505050509050919050565b60015481565b60038060000154908060010154908060020154905083565b60606006805480602002602001604051908101604052809291908181526020016000905b828210156126eb57838290600052602060002090600d0201604051806101a0016040529081600082015481526020016001820160009054906101000a900473ffffffffffffffffffffffffffffffffffffffff1673ffffffffffffffffffffffffffffffffffffffff1673ffffffffffffffffffffffffffffffffffffffff1681526020016002820180546123e690614946565b80601f016020809104026020016040519081016040528092919081815260200182805461241290614946565b801561245f5780601f106124345761010080835404028352916020019161245f565b820191906000526020600020905b81548152906001019060200180831161244257829003601f168201915b5050505050815260200160038201805461247890614946565b80601f01602080910402602001604051908101604052809291908181526020018280546124a490614946565b80156124f15780601f106124c6576101008083540402835291602001916124f1565b820191906000526020600020905b8154815290600101906020018083116124d457829003601f168201915b5050505050815260200160048201805480602002602001604051908101604052809291908181526020016000905b828210156125cb57838290600052602060002001805461253e90614946565b80601f016020809104026020016040519081016040528092919081815260200182805461256a90614946565b80156125b75780601f1061258c576101008083540402835291602001916125b7565b820191906000526020600020905b81548152906001019060200180831161259a57829003601f168201915b50505050508152602001906001019061251f565b5050505081526020016005820154815260200160068201548152602001600782015481526020016008820154815260200160098201548152602001600a8201548152602001600b820160009054906101000a900460ff16600581111561263457612633613c2b565b5b600581111561264657612645613c2b565b5b8152602001600c8201805461265a90614946565b80601f016020809104026020016040519081016040528092919081815260200182805461268690614946565b80156126d35780601f106126a8576101008083540402835291602001916126d3565b820191906000526020600020905b8154815290600101906020018083116126b657829003601f168201915b50505050508152505081526020019060010190612352565b50505050905090565b6060600860008373ffffffffffffffffffffffffffffffffffffffff1673ffffffffffffffffffffffffffffffffffffffff168152602001908152602001600020805480602002602001604051908101604052809291908181526020016000905b82821015612aee57838290600052602060002090600d0201604051806101a0016040529081600082015481526020016001820160009054906101000a900473ffffffffffffffffffffffffffffffffffffffff1673ffffffffffffffffffffffffffffffffffffffff1673ffffffffffffffffffffffffffffffffffffffff1681526020016002820180546127e990614946565b80601f016020809104026020016040519081016040528092919081815260200182805461281590614946565b80156128625780601f1061283757610100808354040283529160200191612862565b820191906000526020600020905b81548152906001019060200180831161284557829003601f168201915b5050505050815260200160038201805461287b90614946565b80601f01602080910402602001604051908101604052809291908181526020018280546128a790614946565b80156128f45780601f106128c9576101008083540402835291602001916128f4565b820191906000526020600020905b8154815290600101906020018083116128d757829003601f168201915b5050505050815260200160048201805480602002602001604051908101604052809291908181526020016000905b828210156129ce57838290600052602060002001805461294190614946565b80601f016020809104026020016040519081016040528092919081815260200182805461296d90614946565b80156129ba5780601f1061298f576101008083540402835291602001916129ba565b820191906000526020600020905b81548152906001019060200180831161299d57829003601f168201915b505050505081526020019060010190612922565b5050505081526020016005820154815260200160068201548152602001600782015481526020016008820154815260200160098201548152602001600a8201548152602001600b820160009054906101000a900460ff166005811115612a3757612a36613c2b565b5b6005811115612a4957612a48613c2b565b5b8152602001600c82018054612a5d90614946565b80601f0160208091040260200160405190810160405280929190818152602001828054612a8990614946565b8015612ad65780601f10612aab57610100808354040283529160200191612ad6565b820191906000526020600020905b815481529060010190602001808311612ab957829003601f168201915b50505050508152505081526020019060010190612755565b505050509050919050565b612b0161366a565b600a600083815260200190815260200160002060009054906101000a900460ff16612b61576040517f08c379a0000000000000000000000000000000000000000000000000000000008152600401612b5890614d6f565b60405180910390fd5b60068281548110612b7557612b746147a4565b5b90600052602060002090600d0201604051806101a0016040529081600082015481526020016001820160009054906101000a900473ffffffffffffffffffffffffffffffffffffffff1673ffffffffffffffffffffffffffffffffffffffff1673ffffffffffffffffffffffffffffffffffffffff168152602001600282018054612bff90614946565b80601f0160208091040260200160405190810160405280929190818152602001828054612c2b90614946565b8015612c785780601f10612c4d57610100808354040283529160200191612c78565b820191906000526020600020905b815481529060010190602001808311612c5b57829003601f168201915b50505050508152602001600382018054612c9190614946565b80601f0160208091040260200160405190810160405280929190818152602001828054612cbd90614946565b8015612d0a5780601f10612cdf57610100808354040283529160200191612d0a565b820191906000526020600020905b815481529060010190602001808311612ced57829003601f168201915b5050505050815260200160048201805480602002602001604051908101604052809291908181526020016000905b82821015612de4578382906000526020600020018054612d5790614946565b80601f0160208091040260200160405190810160405280929190818152602001828054612d8390614946565b8015612dd05780601f10612da557610100808354040283529160200191612dd0565b820191906000526020600020905b815481529060010190602001808311612db357829003601f168201915b505050505081526020019060010190612d38565b5050505081526020016005820154815260200160068201548152602001600782015481526020016008820154815260200160098201548152602001600a8201548152602001600b820160009054906101000a900460ff166005811115612e4d57612e4c613c2b565b5b6005811115612e5f57612e5e613c2b565b5b8152602001600c82018054612e7390614946565b80601f0160208091040260200160405190810160405280929190818152602001828054612e9f90614946565b8015612eec5780601f10612ec157610100808354040283529160200191612eec565b820191906000526020600020905b815481529060010190602001808311612ecf57829003601f168201915b5050505050815250509050919050565b60096020528160005260406000208181548110612f1857600080fd5b9060005260206000209060050201600091509150508060000160009054906101000a900473ffffffffffffffffffffffffffffffffffffffff1690806001015490806002015490806003018054612f6e90614946565b80601f0160208091040260200160405190810160405280929190818152602001828054612f9a90614946565b8015612fe75780601f10612fbc57610100808354040283529160200191612fe7565b820191906000526020600020905b815481529060010190602001808311612fca57829003601f168201915b5050505050908060040160009054906101000a900460ff16905085565b60008060009054906101000a900473ffffffffffffffffffffffffffffffffffffffff1673ffffffffffffffffffffffffffffffffffffffff163373ffffffffffffffffffffffffffffffffffffffff1614613095576040517f08c379a000000000000000000000000000000000000000000000000000000000815260040161308c90614d03565b60405180910390fd5b600a600083815260200190815260200160002060009054906101000a900460ff166130f5576040517f08c379a00000000000000000000000000000000000000000000000000000000081526004016130ec90614d6f565b60405180910390fd5b60058081111561310857613107613c2b565b5b6006838154811061311c5761311b6147a4565b5b90600052602060002090600d0201600b0160009054906101000a900460ff16600581111561314d5761314c613c2b565b5b1461318d576040517f08c379a000000000000000000000000000000000000000000000000000000000815260040161318490614ddb565b60405180910390fd5b6000600683815481106131a3576131a26147a4565b5b90600052602060002090600d0201600b0160006101000a81548160ff021916908360058111156131d6576131d5613c2b565b5b02179055507fd253ffdff2c15c0fc0f805a6a2f2a45ae8dae3bebea5b01fd1e706df8798da20824260405161320c929190614dfb565b60405180910390a160019050919050565b60005b60096000838152602001908152602001600020805490508110156133b0576000600960008481526020019081526020016000208281548110613265576132646147a4565b5b906000526020600020906005020160000160009054906101000a900473ffffffffffffffffffffffffffffffffffffffff16905060006009600085815260200190815260200160002083815481106132c0576132bf6147a4565b5b906000526020600020906005020160010154905060016009600086815260200190815260200160002084815481106132fb576132fa6147a4565b5b906000526020600020906005020160040160006101000a81548160ff02191690831515021790555042600960008681526020019081526020016000208481548110613349576133486147a4565b5b9060005260206000209060050201600201819055506133688282613560565b60016003600101600082825461337e9190615235565b92505081905550806003600201600082825461339a9190615235565b9250508190555050508080600101915050613220565b5050565b6000600682815481106133ca576133c96147a4565b5b90600052602060002090600d020160060154905060006064600154836133f09190615269565b6133fa91906152da565b9050600460068481548110613412576134116147a4565b5b90600052602060002090600d0201600b0160006101000a81548160ff0219169083600581111561344557613444613c2b565b5b02179055506134a460068481548110613461576134606147a4565b5b90600052602060002090600d020160010160009054906101000a900473ffffffffffffffffffffffffffffffffffffffff16828461349f9190615235565b613560565b6134ce60008054906101000a900473ffffffffffffffffffffffffffffffffffffffff1682613560565b7fea92b548a4f5c76c7714148900ec90179b8b1d1bc117c625021352b7e03936948360068581548110613504576135036147a4565b5b90600052602060002090600d020160010160009054906101000a900473ffffffffffffffffffffffffffffffffffffffff1683856135429190615235565b42604051613553949392919061530b565b60405180910390a1505050565b60008273ffffffffffffffffffffffffffffffffffffffff168260405161358690615381565b60006040518083038185875af1925050503d80600081146135c3576040519150601f19603f3d011682016040523d82523d6000602084013e6135c8565b606091505b505090508061360c576040517f08c379a0000000000000000000000000000000000000000000000000000000008152600401613603906153e2565b60405180910390fd5b505050565b828054828255906000526020600020908101928215613659579160200282015b828111156136585782518290816136489190614b23565b5091602001919060010190613631565b5b509050613666919061371b565b5090565b604051806101a0016040528060008152602001600073ffffffffffffffffffffffffffffffffffffffff168152602001606081526020016060815260200160608152602001600081526020016000815260200160008152602001600081526020016000815260200160008152602001600060058111156136ed576136ec613c2b565b5b8152602001606081525090565b60405180606001604052806000815260200160008152602001600081525090565b5b8082111561373b5760008181613732919061373f565b5060010161371c565b5090565b50805461374b90614946565b6000825580601f1061375d575061377c565b601f01602090049060005260206000209081019061377b919061377f565b5b50565b5b80821115613798576000816000905550600101613780565b5090565b6000604051905090565b600080fd5b600080fd5b6000819050919050565b6137c3816137b0565b81146137ce57600080fd5b50565b6000813590506137e0816137ba565b92915050565b600080fd5b600080fd5b6000601f19601f8301169050919050565b7f4e487b7100000000000000000000000000000000000000000000000000000000600052604160045260246000fd5b613839826137f0565b810181811067ffffffffffffffff8211171561385857613857613801565b5b80604052505050565b600061386b61379c565b90506138778282613830565b919050565b600067ffffffffffffffff82111561389757613896613801565b5b6138a0826137f0565b9050602081019050919050565b82818337600083830152505050565b60006138cf6138ca8461387c565b613861565b9050828152602081018484840111156138eb576138ea6137eb565b5b6138f68482856138ad565b509392505050565b600082601f830112613913576139126137e6565b5b81356139238482602086016138bc565b91505092915050565b600067ffffffffffffffff82111561394757613946613801565b5b602082029050602081019050919050565b600080fd5b600061397061396b8461392c565b613861565b9050808382526020820190506020840283018581111561399357613992613958565b5b835b818110156139da57803567ffffffffffffffff8111156139b8576139b76137e6565b5b8086016139c589826138fe565b85526020850194505050602081019050613995565b5050509392505050565b600082601f8301126139f9576139f86137e6565b5b8135613a0984826020860161395d565b91505092915050565b600080600060608486031215613a2b57613a2a6137a6565b5b6000613a39868287016137d1565b935050602084013567ffffffffffffffff811115613a5a57613a596137ab565b5b613a66868287016138fe565b925050604084013567ffffffffffffffff811115613a8757613a866137ab565b5b613a93868287016139e4565b9150509250925092565b60008115159050919050565b613ab281613a9d565b82525050565b6000602082019050613acd6000830184613aa9565b92915050565b60008060408385031215613aea57613ae96137a6565b5b6000613af8858286016137d1565b925050602083013567ffffffffffffffff811115613b1957613b186137ab565b5b613b25858286016138fe565b9150509250929050565b600060208284031215613b4557613b446137a6565b5b6000613b53848285016137d1565b91505092915050565b613b65816137b0565b82525050565b600073ffffffffffffffffffffffffffffffffffffffff82169050919050565b6000613b9682613b6b565b9050919050565b613ba681613b8b565b82525050565b600081519050919050565b600082825260208201905092915050565b60005b83811015613be6578082015181840152602081019050613bcb565b60008484015250505050565b6000613bfd82613bac565b613c078185613bb7565b9350613c17818560208601613bc8565b613c20816137f0565b840191505092915050565b7f4e487b7100000000000000000000000000000000000000000000000000000000600052602160045260246000fd5b60068110613c6b57613c6a613c2b565b5b50565b6000819050613c7c82613c5a565b919050565b6000613c8c82613c6e565b9050919050565b613c9c81613c81565b82525050565b600061018082019050613cb8600083018f613b5c565b613cc5602083018e613b9d565b8181036040830152613cd7818d613bf2565b90508181036060830152613ceb818c613bf2565b9050613cfa608083018b613b5c565b613d0760a083018a613b5c565b613d1460c0830189613b5c565b613d2160e0830188613b5c565b613d2f610100830187613b5c565b613d3d610120830186613b5c565b613d4b610140830185613c93565b818103610160830152613d5e8184613bf2565b90509d9c50505050505050505050505050565b6000602082019050613d866000830184613b5c565b92915050565b600081519050919050565b600082825260208201905092915050565b6000819050602082019050919050565b613dc1816137b0565b82525050565b600082825260208201905092915050565b6000613de382613bac565b613ded8185613dc7565b9350613dfd818560208601613bc8565b613e06816137f0565b840191505092915050565b6000604083016000830151613e296000860182613db8565b5060208301518482036020860152613e418282613dd8565b9150508091505092915050565b6000613e5a8383613e11565b905092915050565b6000602082019050919050565b6000613e7a82613d8c565b613e848185613d97565b935083602082028501613e9685613da8565b8060005b85811015613ed25784840389528151613eb38582613e4e565b9450613ebe83613e62565b925060208a01995050600181019050613e9a565b50829750879550505050505092915050565b60006020820190508181036000830152613efe8184613e6f565b905092915050565b60008060008060008060c08789031215613f2357613f226137a6565b5b600087013567ffffffffffffffff811115613f4157613f406137ab565b5b613f4d89828a016138fe565b965050602087013567ffffffffffffffff811115613f6e57613f6d6137ab565b5b613f7a89828a016138fe565b955050604087013567ffffffffffffffff811115613f9b57613f9a6137ab565b5b613fa789828a016139e4565b9450506060613fb889828a016137d1565b9350506080613fc989828a016137d1565b92505060a0613fda89828a016137d1565b9150509295509295509295565b6000602082019050613ffc6000830184613b9d565b92915050565b61400b81613b8b565b811461401657600080fd5b50565b60008135905061402881614002565b92915050565b60008060408385031215614045576140446137a6565b5b600061405385828601614019565b9250506020614064858286016137d1565b9150509250929050565b6060820160008201516140846000850182613db8565b5060208201516140976020850182613db8565b5060408201516140aa6040850182613db8565b50505050565b60006060820190506140c5600083018461406e565b92915050565b60006040820190506140e06000830185613b5c565b81810360208301526140f28184613bf2565b90509392505050565b600081519050919050565b600082825260208201905092915050565b6000819050602082019050919050565b61413081613b8b565b82525050565b61413f81613a9d565b82525050565b600060a08301600083015161415d6000860182614127565b5060208301516141706020860182613db8565b5060408301516141836040860182613db8565b506060830151848203606086015261419b8282613dd8565b91505060808301516141b06080860182614136565b508091505092915050565b60006141c78383614145565b905092915050565b6000602082019050919050565b60006141e7826140fb565b6141f18185614106565b93508360208202850161420385614117565b8060005b8581101561423f578484038952815161422085826141bb565b945061422b836141cf565b925060208a01995050600181019050614207565b50829750879550505050505092915050565b6000602082019050818103600083015261426b81846141dc565b905092915050565b60006060820190506142886000830186613b5c565b6142956020830185613b5c565b6142a26040830184613b5c565b949350505050565b600081519050919050565b600082825260208201905092915050565b6000819050602082019050919050565b600081519050919050565b600082825260208201905092915050565b6000819050602082019050919050565b600061430e8383613dd8565b905092915050565b6000602082019050919050565b600061432e826142d6565b61433881856142e1565b93508360208202850161434a856142f2565b8060005b8581101561438657848403895281516143678582614302565b945061437283614316565b925060208a0199505060018101905061434e565b50829750879550505050505092915050565b6143a181613c81565b82525050565b60006101a0830160008301516143c06000860182613db8565b5060208301516143d36020860182614127565b50604083015184820360408601526143eb8282613dd8565b915050606083015184820360608601526144058282613dd8565b9150506080830151848203608086015261441f8282614323565b91505060a083015161443460a0860182613db8565b5060c083015161444760c0860182613db8565b5060e083015161445a60e0860182613db8565b5061010083015161446f610100860182613db8565b50610120830151614484610120860182613db8565b50610140830151614499610140860182613db8565b506101608301516144ae610160860182614398565b506101808301518482036101808601526144c88282613dd8565b9150508091505092915050565b60006144e183836143a7565b905092915050565b6000602082019050919050565b6000614501826142aa565b61450b81856142b5565b93508360208202850161451d856142c6565b8060005b85811015614559578484038952815161453a85826144d5565b9450614545836144e9565b925060208a01995050600181019050614521565b50829750879550505050505092915050565b6000602082019050818103600083015261458581846144f6565b905092915050565b6000602082840312156145a3576145a26137a6565b5b60006145b184828501614019565b91505092915050565b60006101a0830160008301516145d36000860182613db8565b5060208301516145e66020860182614127565b50604083015184820360408601526145fe8282613dd8565b915050606083015184820360608601526146188282613dd8565b915050608083015184820360808601526146328282614323565b91505060a083015161464760a0860182613db8565b5060c083015161465a60c0860182613db8565b5060e083015161466d60e0860182613db8565b50610100830151614682610100860182613db8565b50610120830151614697610120860182613db8565b506101408301516146ac610140860182613db8565b506101608301516146c1610160860182614398565b506101808301518482036101808601526146db8282613dd8565b9150508091505092915050565b6000602082019050818103600083015261470281846145ba565b905092915050565b60008060408385031215614721576147206137a6565b5b600061472f858286016137d1565b9250506020614740858286016137d1565b9150509250929050565b600060a08201905061475f6000830188613b9d565b61476c6020830187613b5c565b6147796040830186613b5c565b818103606083015261478b8185613bf2565b905061479a6080830184613aa9565b9695505050505050565b7f4e487b7100000000000000000000000000000000000000000000000000000000600052603260045260246000fd5b7f556e617574686f72697a656420456e7469747900000000000000000000000000600082015250565b6000614809601383613bb7565b9150614814826147d3565b602082019050919050565b60006020820190508181036000830152614838816147fc565b9050919050565b7f4465736372697074696f6e2063616e6e6f7420626520656d7074790000000000600082015250565b6000614875601b83613bb7565b91506148808261483f565b602082019050919050565b600060208201905081810360008301526148a481614868565b9050919050565b7f496d61676555726c732063616e6e6f7420626520656d70747900000000000000600082015250565b60006148e1601983613bb7565b91506148ec826148ab565b602082019050919050565b60006020820190508181036000830152614910816148d4565b9050919050565b7f4e487b7100000000000000000000000000000000000000000000000000000000600052602260045260246000fd5b6000600282049050600182168061495e57607f821691505b60208210810361497157614970614917565b5b50919050565b60008190508160005260206000209050919050565b60006020601f8301049050919050565b600082821b905092915050565b6000600883026149d97fffffffffffffffffffffffffffffffffffffffffffffffffffffffffffffffff8261499c565b6149e3868361499c565b95508019841693508086168417925050509392505050565b6000819050919050565b6000614a20614a1b614a16846137b0565b6149fb565b6137b0565b9050919050565b6000819050919050565b614a3a83614a05565b614a4e614a4682614a27565b8484546149a9565b825550505050565b600090565b614a63614a56565b614a6e818484614a31565b505050565b5b81811015614a9257614a87600082614a5b565b600181019050614a74565b5050565b601f821115614ad757614aa881614977565b614ab18461498c565b81016020851015614ac0578190505b614ad4614acc8561498c565b830182614a73565b50505b505050565b600082821c905092915050565b6000614afa60001984600802614adc565b1980831691505092915050565b6000614b138383614ae9565b9150826002028217905092915050565b614b2c82613bac565b67ffffffffffffffff811115614b4557614b44613801565b5b614b4f8254614946565b614b5a828285614a96565b600060209050601f831160018114614b8d5760008415614b7b578287015190505b614b858582614b07565b865550614bed565b601f198416614b9b86614977565b60005b82811015614bc357848901518255600182019150602085019450602081019050614b9e565b86831015614be05784890151614bdc601f891682614ae9565b8355505b6001600288020188555050505b505050505050565b60008154614c0281614946565b614c0c8186613bb7565b94506001821660008114614c275760018114614c3d57614c70565b60ff198316865281151560200286019350614c70565b614c4685614977565b60005b83811015614c6857815481890152600182019150602081019050614c49565b808801955050505b50505092915050565b6000606082019050614c8e6000830186613b5c565b8181036020830152614ca08185614bf5565b9050614caf6040830184613b5c565b949350505050565b7f41636365737320526573657276656420746f204f776e65720000000000000000600082015250565b6000614ced601883613bb7565b9150614cf882614cb7565b602082019050919050565b60006020820190508181036000830152614d1c81614ce0565b9050919050565b7f50726f6a656374206e6f7420666f756e64000000000000000000000000000000600082015250565b6000614d59601183613bb7565b9150614d6482614d23565b602082019050919050565b60006020820190508181036000830152614d8881614d4c565b9050919050565b7f50726f6a656374206e6f742070656e64696e6720617070726f76616c00000000600082015250565b6000614dc5601c83613bb7565b9150614dd082614d8f565b602082019050919050565b60006020820190508181036000830152614df481614db8565b9050919050565b6000604082019050614e106000830185613b5c565b614e1d6020830184613b5c565b9392505050565b7f50726f6a656374206e6f206c6f6e676572206f70656e65640000000000000000600082015250565b6000614e5a601883613bb7565b9150614e6582614e24565b602082019050919050565b60006020820190508181036000830152614e8981614e4d565b9050919050565b7f5469746c652063616e6e6f7420626520656d7074790000000000000000000000600082015250565b6000614ec6601583613bb7565b9150614ed182614e90565b602082019050919050565b60006020820190508181036000830152614ef581614eb9565b9050919050565b7f436f73742063616e6e6f74206265207a65726f00000000000000000000000000600082015250565b6000614f32601383613bb7565b9150614f3d82614efc565b602082019050919050565b60006020820190508181036000830152614f6181614f25565b9050919050565b7f496e76616c69642063617465676f727920494400000000000000000000000000600082015250565b6000614f9e601383613bb7565b9150614fa982614f68565b602082019050919050565b60006020820190508181036000830152614fcd81614f91565b9050919050565b7f4e487b7100000000000000000000000000000000000000000000000000000000600052601160045260246000fd5b600061500e826137b0565b9150615019836137b0565b925082820190508082111561503157615030614fd4565b5b92915050565b600060808201905061504c6000830187613b5c565b6150596020830186613b9d565b818103604083015261506b8185613bf2565b905061507a6060830184613b5c565b95945050505050565b600061508e826137b0565b91507fffffffffffffffffffffffffffffffffffffffffffffffffffffffffffffffff82036150c0576150bf614fd4565b5b600182019050919050565b7f4574686572206d7573742062652067726561746572207468616e207a65726f00600082015250565b6000615101601f83613bb7565b915061510c826150cb565b602082019050919050565b60006020820190508181036000830152615130816150f4565b9050919050565b7f50726f6a65637420616c7265616479206d61726b65642061732072657665727460008201527f65642f64656c6574656400000000000000000000000000000000000000000000602082015250565b6000615193602a83613bb7565b915061519e82615137565b604082019050919050565b600060208201905081810360008301526151c281615186565b9050919050565b7f50726f6a656374206e6f7420415050524f564544000000000000000000000000600082015250565b60006151ff601483613bb7565b915061520a826151c9565b602082019050919050565b6000602082019050818103600083015261522e816151f2565b9050919050565b6000615240826137b0565b915061524b836137b0565b925082820390508181111561526357615262614fd4565b5b92915050565b6000615274826137b0565b915061527f836137b0565b925082820261528d816137b0565b915082820484148315176152a4576152a3614fd4565b5b5092915050565b7f4e487b7100000000000000000000000000000000000000000000000000000000600052601260045260246000fd5b60006152e5826137b0565b91506152f0836137b0565b925082615300576152ff6152ab565b5b828204905092915050565b60006080820190506153206000830187613b5c565b61532d6020830186613b9d565b61533a6040830185613b5c565b6153476060830184613b5c565b95945050505050565b600081905092915050565b50565b600061536b600083615350565b91506153768261535b565b600082019050919050565b600061538c8261535e565b9150819050919050565b7f5061796d656e74206661696c6564000000000000000000000000000000000000600082015250565b60006153cc600e83613bb7565b91506153d782615396565b602082019050919050565b600060208201905081810360008301526153fb816153bf565b905091905056fea26469706673582212202c0b7514613a7aed669af70ec9a22d307732067e89d18be0fa73bd177bf29fa864736f6c63430008180033",
  "linkReferences": {},
  "deployedLinkReferences": {}
}