{
  "_format": "hh-sol-artifact-1",
  "contractName": "BlockPledge",
  "sourceName": "app/contracts/BlockPledge.sol",
  "abi": [
    {
      "inputs": [
        {
          "internalType": "uint256",
          "name": "_projectTax",
          "type": "uint256"
        }
      ],
      "stateMutability": "nonpayable",
      "type": "constructor"
    },
    {
      "anonymous": false,
      "inputs": [
        {
          "indexed": false,
          "internalType": "uint256",
          "name": "id",
          "type": "uint256"
        },
        {
          "indexed": false,
          "internalType": "uint256",
          "name": "timestamp",
          "type": "uint256"
        }
      ],
      "name": "ProjectApproved",
      "type": "event"
    },
    {
      "anonymous": false,
      "inputs": [
        {
          "indexed": false,
          "internalType": "uint256",
          "name": "id",
          "type": "uint256"
        },
        {
          "indexed": false,
          "internalType": "address",
          "name": "backer",
          "type": "address"
        },
        {
          "indexed": false,
          "internalType": "string",
          "name": "comment",
          "type": "string"
        },
        {
          "indexed": false,
          "internalType": "uint256",
          "name": "timestamp",
          "type": "uint256"
        }
      ],
      "name": "ProjectBacked",
      "type": "event"
    },
    {
      "anonymous": false,
      "inputs": [
        {
          "indexed": false,
          "internalType": "uint256",
          "name": "id",
          "type": "uint256"
        },
        {
          "indexed": false,
          "internalType": "address",
          "name": "owner",
          "type": "address"
        },
        {
          "indexed": false,
          "internalType": "string",
          "name": "title",
          "type": "string"
        },
        {
          "indexed": false,
          "internalType": "uint256",
          "name": "timestamp",
          "type": "uint256"
        }
      ],
      "name": "ProjectCreated",
      "type": "event"
    },
    {
      "anonymous": false,
      "inputs": [
        {
          "indexed": false,
          "internalType": "uint256",
          "name": "id",
          "type": "uint256"
        },
        {
          "indexed": false,
          "internalType": "uint256",
          "name": "timestamp",
          "type": "uint256"
        }
      ],
      "name": "ProjectDeleted",
      "type": "event"
    },
    {
      "anonymous": false,
      "inputs": [
        {
          "indexed": false,
          "internalType": "uint256",
          "name": "id",
          "type": "uint256"
        },
        {
          "indexed": false,
          "internalType": "address",
          "name": "recipient",
          "type": "address"
        },
        {
          "indexed": false,
          "internalType": "uint256",
          "name": "amount",
          "type": "uint256"
        },
        {
          "indexed": false,
          "internalType": "uint256",
          "name": "timestamp",
          "type": "uint256"
        }
      ],
      "name": "ProjectPaidOut",
      "type": "event"
    },
    {
      "anonymous": false,
      "inputs": [
        {
          "indexed": false,
          "internalType": "uint256",
          "name": "id",
          "type": "uint256"
        },
        {
          "indexed": false,
          "internalType": "uint256",
          "name": "timestamp",
          "type": "uint256"
        }
      ],
      "name": "ProjectRejected",
      "type": "event"
    },
    {
      "anonymous": false,
      "inputs": [
        {
          "indexed": false,
          "internalType": "uint256",
          "name": "id",
          "type": "uint256"
        },
        {
          "indexed": false,
          "internalType": "string",
          "name": "title",
          "type": "string"
        },
        {
          "indexed": false,
          "internalType": "uint256",
          "name": "timestamp",
          "type": "uint256"
        }
      ],
      "name": "ProjectUpdated",
      "type": "event"
    },
    {
      "inputs": [
        {
          "internalType": "uint256",
          "name": "_id",
          "type": "uint256"
        }
      ],
      "name": "acceptProject",
      "outputs": [
        {
          "internalType": "bool",
          "name": "",
          "type": "bool"
        }
      ],
      "stateMutability": "nonpayable",
      "type": "function"
    },
    {
      "inputs": [
        {
          "internalType": "uint256",
          "name": "_id",
          "type": "uint256"
        },
        {
          "internalType": "string",
          "name": "_comment",
          "type": "string"
        }
      ],
      "name": "backProject",
      "outputs": [
        {
          "internalType": "bool",
          "name": "",
          "type": "bool"
        }
      ],
      "stateMutability": "payable",
      "type": "function"
    },
    {
      "inputs": [
        {
          "internalType": "uint256",
          "name": "",
          "type": "uint256"
        },
        {
          "internalType": "uint256",
          "name": "",
          "type": "uint256"
        }
      ],
      "name": "backersOf",
      "outputs": [
        {
          "internalType": "address",
          "name": "backer",
          "type": "address"
        },
        {
          "internalType": "uint256",
          "name": "contribution",
          "type": "uint256"
        },
        {
          "internalType": "uint256",
          "name": "timestamp",
          "type": "uint256"
        },
        {
          "internalType": "string",
          "name": "comment",
          "type": "string"
        },
        {
          "internalType": "bool",
          "name": "refunded",
          "type": "bool"
        }
      ],
      "stateMutability": "view",
      "type": "function"
    },
    {
      "inputs": [
        {
          "internalType": "uint256",
          "name": "",
          "type": "uint256"
        }
      ],
      "name": "categories",
      "outputs": [
        {
          "internalType": "uint256",
          "name": "id",
          "type": "uint256"
        },
        {
          "internalType": "string",
          "name": "name",
          "type": "string"
        }
      ],
      "stateMutability": "view",
      "type": "function"
    },
    {
      "inputs": [
        {
          "internalType": "uint256",
          "name": "_taxPct",
          "type": "uint256"
        }
      ],
      "name": "changeTax",
      "outputs": [],
      "stateMutability": "nonpayable",
      "type": "function"
    },
    {
      "inputs": [
        {
          "internalType": "string",
          "name": "_title",
          "type": "string"
        },
        {
          "internalType": "string",
          "name": "_description",
          "type": "string"
        },
        {
          "internalType": "string[]",
          "name": "_imageURLs",
          "type": "string[]"
        },
        {
          "internalType": "uint256",
          "name": "_category",
          "type": "uint256"
        },
        {
          "internalType": "uint256",
          "name": "_cost",
          "type": "uint256"
        },
        {
          "internalType": "uint256",
          "name": "_expiresAt",
          "type": "uint256"
        }
      ],
      "name": "createProject",
      "outputs": [
        {
          "internalType": "bool",
          "name": "",
          "type": "bool"
        }
      ],
      "stateMutability": "nonpayable",
      "type": "function"
    },
    {
      "inputs": [
        {
          "internalType": "uint256",
          "name": "_id",
          "type": "uint256"
        },
        {
          "internalType": "string",
          "name": "_reason",
          "type": "string"
        }
      ],
      "name": "deleteProject",
      "outputs": [
        {
          "internalType": "bool",
          "name": "",
          "type": "bool"
        }
      ],
      "stateMutability": "nonpayable",
      "type": "function"
    },
    {
      "inputs": [
        {
          "internalType": "uint256",
          "name": "_id",
          "type": "uint256"
        }
      ],
      "name": "getBackers",
      "outputs": [
        {
          "components": [
            {
              "internalType": "address",
              "name": "backer",
              "type": "address"
            },
            {
              "internalType": "uint256",
              "name": "contribution",
              "type": "uint256"
            },
            {
              "internalType": "uint256",
              "name": "timestamp",
              "type": "uint256"
            },
            {
              "internalType": "string",
              "name": "comment",
              "type": "string"
            },
            {
              "internalType": "bool",
              "name": "refunded",
              "type": "bool"
            }
          ],
          "internalType": "struct BlockPledge.BackerStruct[]",
          "name": "",
          "type": "tuple[]"
        }
      ],
      "stateMutability": "view",
      "type": "function"
    },
    {
      "inputs": [],
      "name": "getCategories",
      "outputs": [
        {
          "components": [
            {
              "internalType": "uint256",
              "name": "id",
              "type": "uint256"
            },
            {
              "internalType": "string",
              "name": "name",
              "type": "string"
            }
          ],
          "internalType": "struct BlockPledge.CategoryStruct[]",
          "name": "",
          "type": "tuple[]"
        }
      ],
      "stateMutability": "view",
      "type": "function"
    },
    {
      "inputs": [
        {
          "internalType": "uint256",
          "name": "_id",
          "type": "uint256"
        }
      ],
      "name": "getProject",
      "outputs": [
        {
          "components": [
            {
              "internalType": "uint256",
              "name": "id",
              "type": "uint256"
            },
            {
              "internalType": "address",
              "name": "owner",
              "type": "address"
            },
            {
              "internalType": "string",
              "name": "title",
              "type": "string"
            },
            {
              "internalType": "string",
              "name": "description",
              "type": "string"
            },
            {
              "internalType": "string[]",
              "name": "imageURLs",
              "type": "string[]"
            },
            {
              "internalType": "uint256",
              "name": "cost",
              "type": "uint256"
            },
            {
              "internalType": "uint256",
              "name": "raised",
              "type": "uint256"
            },
            {
              "internalType": "uint256",
              "name": "timestamp",
              "type": "uint256"
            },
            {
              "internalType": "uint256",
              "name": "expiresAt",
              "type": "uint256"
            },
            {
              "internalType": "uint256",
              "name": "backers",
              "type": "uint256"
            },
            {
              "internalType": "uint256",
              "name": "categoryId",
              "type": "uint256"
            },
            {
              "internalType": "enum BlockPledge.StatusEnum",
              "name": "status",
              "type": "uint8"
            },
            {
              "internalType": "string",
              "name": "deletionReason",
              "type": "string"
            }
          ],
          "internalType": "struct BlockPledge.ProjectStruct",
          "name": "",
          "type": "tuple"
        }
      ],
      "stateMutability": "view",
      "type": "function"
    },
    {
      "inputs": [],
      "name": "getProjects",
      "outputs": [
        {
          "components": [
            {
              "internalType": "uint256",
              "name": "id",
              "type": "uint256"
            },
            {
              "internalType": "address",
              "name": "owner",
              "type": "address"
            },
            {
              "internalType": "string",
              "name": "title",
              "type": "string"
            },
            {
              "internalType": "string",
              "name": "description",
              "type": "string"
            },
            {
              "internalType": "string[]",
              "name": "imageURLs",
              "type": "string[]"
            },
            {
              "internalType": "uint256",
              "name": "cost",
              "type": "uint256"
            },
            {
              "internalType": "uint256",
              "name": "raised",
              "type": "uint256"
            },
            {
              "internalType": "uint256",
              "name": "timestamp",
              "type": "uint256"
            },
            {
              "internalType": "uint256",
              "name": "expiresAt",
              "type": "uint256"
            },
            {
              "internalType": "uint256",
              "name": "backers",
              "type": "uint256"
            },
            {
              "internalType": "uint256",
              "name": "categoryId",
              "type": "uint256"
            },
            {
              "internalType": "enum BlockPledge.StatusEnum",
              "name": "status",
              "type": "uint8"
            },
            {
              "internalType": "string",
              "name": "deletionReason",
              "type": "string"
            }
          ],
          "internalType": "struct BlockPledge.ProjectStruct[]",
          "name": "",
          "type": "tuple[]"
        }
      ],
      "stateMutability": "view",
      "type": "function"
    },
    {
      "inputs": [
        {
          "internalType": "address",
          "name": "_user",
          "type": "address"
        }
      ],
      "name": "getUserProjects",
      "outputs": [
        {
          "components": [
            {
              "internalType": "uint256",
              "name": "id",
              "type": "uint256"
            },
            {
              "internalType": "address",
              "name": "owner",
              "type": "address"
            },
            {
              "internalType": "string",
              "name": "title",
              "type": "string"
            },
            {
              "internalType": "string",
              "name": "description",
              "type": "string"
            },
            {
              "internalType": "string[]",
              "name": "imageURLs",
              "type": "string[]"
            },
            {
              "internalType": "uint256",
              "name": "cost",
              "type": "uint256"
            },
            {
              "internalType": "uint256",
              "name": "raised",
              "type": "uint256"
            },
            {
              "internalType": "uint256",
              "name": "timestamp",
              "type": "uint256"
            },
            {
              "internalType": "uint256",
              "name": "expiresAt",
              "type": "uint256"
            },
            {
              "internalType": "uint256",
              "name": "backers",
              "type": "uint256"
            },
            {
              "internalType": "uint256",
              "name": "categoryId",
              "type": "uint256"
            },
            {
              "internalType": "enum BlockPledge.StatusEnum",
              "name": "status",
              "type": "uint8"
            },
            {
              "internalType": "string",
              "name": "deletionReason",
              "type": "string"
            }
          ],
          "internalType": "struct BlockPledge.ProjectStruct[]",
          "name": "",
          "type": "tuple[]"
        }
      ],
      "stateMutability": "view",
      "type": "function"
    },
    {
      "inputs": [],
      "name": "owner",
      "outputs": [
        {
          "internalType": "address",
          "name": "",
          "type": "address"
        }
      ],
      "stateMutability": "view",
      "type": "function"
    },
    {
      "inputs": [
        {
          "internalType": "uint256",
          "name": "_id",
          "type": "uint256"
        }
      ],
      "name": "payOutProject",
      "outputs": [
        {
          "internalType": "bool",
          "name": "",
          "type": "bool"
        }
      ],
      "stateMutability": "nonpayable",
      "type": "function"
    },
    {
      "inputs": [],
      "name": "projectCount",
      "outputs": [
        {
          "internalType": "uint256",
          "name": "",
          "type": "uint256"
        }
      ],
      "stateMutability": "view",
      "type": "function"
    },
    {
      "inputs": [
        {
          "internalType": "uint256",
          "name": "",
          "type": "uint256"
        }
      ],
      "name": "projectExists",
      "outputs": [
        {
          "internalType": "bool",
          "name": "",
          "type": "bool"
        }
      ],
      "stateMutability": "view",
      "type": "function"
    },
    {
      "inputs": [],
      "name": "projectTax",
      "outputs": [
        {
          "internalType": "uint256",
          "name": "",
          "type": "uint256"
        }
      ],
      "stateMutability": "view",
      "type": "function"
    },
    {
      "inputs": [
        {
          "internalType": "uint256",
          "name": "",
          "type": "uint256"
        }
      ],
      "name": "projects",
      "outputs": [
        {
          "internalType": "uint256",
          "name": "id",
          "type": "uint256"
        },
        {
          "internalType": "address",
          "name": "owner",
          "type": "address"
        },
        {
          "internalType": "string",
          "name": "title",
          "type": "string"
        },
        {
          "internalType": "string",
          "name": "description",
          "type": "string"
        },
        {
          "internalType": "uint256",
          "name": "cost",
          "type": "uint256"
        },
        {
          "internalType": "uint256",
          "name": "raised",
          "type": "uint256"
        },
        {
          "internalType": "uint256",
          "name": "timestamp",
          "type": "uint256"
        },
        {
          "internalType": "uint256",
          "name": "expiresAt",
          "type": "uint256"
        },
        {
          "internalType": "uint256",
          "name": "backers",
          "type": "uint256"
        },
        {
          "internalType": "uint256",
          "name": "categoryId",
          "type": "uint256"
        },
        {
          "internalType": "enum BlockPledge.StatusEnum",
          "name": "status",
          "type": "uint8"
        },
        {
          "internalType": "string",
          "name": "deletionReason",
          "type": "string"
        }
      ],
      "stateMutability": "view",
      "type": "function"
    },
    {
      "inputs": [
        {
          "internalType": "address",
          "name": "",
          "type": "address"
        },
        {
          "internalType": "uint256",
          "name": "",
          "type": "uint256"
        }
      ],
      "name": "projectsOf",
      "outputs": [
        {
          "internalType": "uint256",
          "name": "id",
          "type": "uint256"
        },
        {
          "internalType": "address",
          "name": "owner",
          "type": "address"
        },
        {
          "internalType": "string",
          "name": "title",
          "type": "string"
        },
        {
          "internalType": "string",
          "name": "description",
          "type": "string"
        },
        {
          "internalType": "uint256",
          "name": "cost",
          "type": "uint256"
        },
        {
          "internalType": "uint256",
          "name": "raised",
          "type": "uint256"
        },
        {
          "internalType": "uint256",
          "name": "timestamp",
          "type": "uint256"
        },
        {
          "internalType": "uint256",
          "name": "expiresAt",
          "type": "uint256"
        },
        {
          "internalType": "uint256",
          "name": "backers",
          "type": "uint256"
        },
        {
          "internalType": "uint256",
          "name": "categoryId",
          "type": "uint256"
        },
        {
          "internalType": "enum BlockPledge.StatusEnum",
          "name": "status",
          "type": "uint8"
        },
        {
          "internalType": "string",
          "name": "deletionReason",
          "type": "string"
        }
      ],
      "stateMutability": "view",
      "type": "function"
    },
    {
      "inputs": [
        {
          "internalType": "uint256",
          "name": "_id",
          "type": "uint256"
        },
        {
          "internalType": "string",
          "name": "_reason",
          "type": "string"
        }
      ],
      "name": "rejectProject",
      "outputs": [
        {
          "internalType": "bool",
          "name": "",
          "type": "bool"
        }
      ],
      "stateMutability": "nonpayable",
      "type": "function"
    },
    {
      "inputs": [
        {
          "internalType": "uint256",
          "name": "_id",
          "type": "uint256"
        }
      ],
      "name": "requestRefund",
      "outputs": [
        {
          "internalType": "bool",
          "name": "",
          "type": "bool"
        }
      ],
      "stateMutability": "nonpayable",
      "type": "function"
    },
    {
      "inputs": [],
      "name": "stats",
      "outputs": [
        {
          "internalType": "uint256",
          "name": "totalProjects",
          "type": "uint256"
        },
        {
          "internalType": "uint256",
          "name": "totalBackings",
          "type": "uint256"
        },
        {
          "internalType": "uint256",
          "name": "totalDonations",
          "type": "uint256"
        }
      ],
      "stateMutability": "view",
      "type": "function"
    },
    {
      "inputs": [
        {
          "internalType": "uint256",
          "name": "_id",
          "type": "uint256"
        },
        {
          "internalType": "string",
          "name": "_description",
          "type": "string"
        },
        {
          "internalType": "string[]",
          "name": "_imageURLs",
          "type": "string[]"
        }
      ],
      "name": "updateProject",
      "outputs": [
        {
          "internalType": "bool",
          "name": "",
          "type": "bool"
        }
      ],
      "stateMutability": "nonpayable",
      "type": "function"
    }
  ],
  "bytecode": "0x60806040523480156200001157600080fd5b5060405162005cef38038062005cef8339818101604052810190620000379190620005db565b336000806101000a81548173ffffffffffffffffffffffffffffffffffffffff021916908373ffffffffffffffffffffffffffffffffffffffff160217905550806001819055506000600c67ffffffffffffffff8111156200009e576200009d6200060d565b5b604051908082528060200260200182016040528015620000d357816020015b6060815260200190600190039081620000bd5790505b5090506040518060400160405280601081526020017f4172742026204372656174697669747900000000000000000000000000000000815250816000815181106200012357620001226200063c565b5b60200260200101819052506040518060400160405280601781526020017f546563686e6f6c6f6779202620496e6e6f766174696f6e000000000000000000815250816001815181106200017b576200017a6200063c565b5b60200260200101819052506040518060400160405280601981526020017f436f6d6d756e697479202620536f6369616c20496d706163740000000000000081525081600281518110620001d357620001d26200063c565b5b60200260200101819052506040518060400160405280601081526020017f46617368696f6e20262044657369676e00000000000000000000000000000000815250816003815181106200022b576200022a6200063c565b5b60200260200101819052506040518060400160405280600f81526020017f466f6f6420262042657665726167650000000000000000000000000000000000815250816004815181106200028357620002826200063c565b5b60200260200101819052506040518060400160405280601681526020017f47616d696e67202620456e7465727461696e6d656e740000000000000000000081525081600581518110620002db57620002da6200063c565b5b60200260200101819052506040518060400160405280601481526020017f54726176656c2026204578706c6f726174696f6e000000000000000000000000815250816006815181106200033357620003326200063c565b5b60200260200101819052506040518060400160405280601481526020017f456475636174696f6e2026204c6561726e696e67000000000000000000000000815250816007815181106200038b576200038a6200063c565b5b60200260200101819052506040518060400160405280601081526020017f4865616c74682026204669746e6573730000000000000000000000000000000081525081600881518110620003e357620003e26200063c565b5b60200260200101819052506040518060400160405280600c81526020017f4372616674732026204449590000000000000000000000000000000000000000815250816009815181106200043b576200043a6200063c565b5b60200260200101819052506040518060400160405280601481526020017f46696e616e6365202620496e766573746d656e7400000000000000000000000081525081600a815181106200049357620004926200063c565b5b60200260200101819052506040518060400160405280600e81526020017f50657473202620416e696d616c7300000000000000000000000000000000000081525081600b81518110620004eb57620004ea6200063c565b5b602002602001018190525060005b81518110156200059257600760405180604001604052808381526020018484815181106200052c576200052b6200063c565b5b60200260200101518152509080600181540180825580915050600190039060005260206000209060020201600090919091909150600082015181600001556020820151816001019081620005819190620008ac565b5050508080600101915050620004f9565b50505062000993565b600080fd5b6000819050919050565b620005b581620005a0565b8114620005c157600080fd5b50565b600081519050620005d581620005aa565b92915050565b600060208284031215620005f457620005f36200059b565b5b60006200060484828501620005c4565b91505092915050565b7f4e487b7100000000000000000000000000000000000000000000000000000000600052604160045260246000fd5b7f4e487b7100000000000000000000000000000000000000000000000000000000600052603260045260246000fd5b600081519050919050565b7f4e487b7100000000000000000000000000000000000000000000000000000000600052602260045260246000fd5b60006002820490506001821680620006be57607f821691505b602082108103620006d457620006d362000676565b5b50919050565b60008190508160005260206000209050919050565b60006020601f8301049050919050565b600082821b905092915050565b6000600883026200073e7fffffffffffffffffffffffffffffffffffffffffffffffffffffffffffffffff82620006ff565b6200074a8683620006ff565b95508019841693508086168417925050509392505050565b6000819050919050565b60006200078d620007876200078184620005a0565b62000762565b620005a0565b9050919050565b6000819050919050565b620007a9836200076c565b620007c1620007b88262000794565b8484546200070c565b825550505050565b600090565b620007d8620007c9565b620007e58184846200079e565b505050565b5b818110156200080d5762000801600082620007ce565b600181019050620007eb565b5050565b601f8211156200085c576200082681620006da565b6200083184620006ef565b8101602085101562000841578190505b620008596200085085620006ef565b830182620007ea565b50505b505050565b600082821c905092915050565b6000620008816000198460080262000861565b1980831691505092915050565b60006200089c83836200086e565b9150826002028217905092915050565b620008b7826200066b565b67ffffffffffffffff811115620008d357620008d26200060d565b5b620008df8254620006a5565b620008ec82828562000811565b600060209050601f8311600181146200092457600084156200090f578287015190505b6200091b85826200088e565b8655506200098b565b601f1984166200093486620006da565b60005b828110156200095e5784890151825560018201915060208501945060208101905062000937565b868310156200097e57848901516200097a601f8916826200086e565b8355505b6001600288020188555050505b505050505050565b61534c80620009a36000396000f3fe6080604052600436106101405760003560e01c8063944173df116100b6578063d80528ae1161006f578063d80528ae14610500578063dcc601281461052d578063e32e723c14610558578063f0f3f2c814610595578063f9285aa0146105d2578063fd1d5ea91461061357610140565b8063944173df146103b0578063a4b2409e146103e0578063b531dcba1461041d578063c6cdbe5e1461045a578063c9168b7214610498578063d24cd3ec146104d557610140565b8063486ee33111610108578063486ee3311461025b5780634db0412c14610298578063703d52af146102c35780637326c718146103005780638da5cb5b1461033d5780638e5556321461036857610140565b8063013feda914610145578063086a8a8714610182578063107046bd146101bf57806336fbad26146102075780633e45c8af14610232575b600080fd5b34801561015157600080fd5b5061016c60048036038101906101679190613983565b610650565b6040516101799190613a29565b60405180910390f35b34801561018e57600080fd5b506101a960048036038101906101a49190613a44565b610864565b6040516101b69190613a29565b60405180910390f35b3480156101cb57600080fd5b506101e660048036038101906101e19190613aa0565b610ab1565b6040516101fe9c9b9a99989796959493929190613c13565b60405180910390f35b34801561021357600080fd5b5061021c610ce6565b6040516102299190613ce2565b60405180910390f35b34801561023e57600080fd5b5061025960048036038101906102549190613aa0565b610cec565b005b34801561026757600080fd5b50610282600480360381019061027d9190613a44565b610d84565b60405161028f9190613a29565b60405180910390f35b3480156102a457600080fd5b506102ad610f9e565b6040516102ba9190613e55565b60405180910390f35b3480156102cf57600080fd5b506102ea60048036038101906102e59190613aa0565b611099565b6040516102f79190613a29565b60405180910390f35b34801561030c57600080fd5b5061032760048036038101906103229190613e77565b6110b9565b6040516103349190613a29565b60405180910390f35b34801561034957600080fd5b5061035261165f565b60405161035f9190613f58565b60405180910390f35b34801561037457600080fd5b5061038f600480360381019061038a9190613f9f565b611683565b6040516103a79c9b9a99989796959493929190613c13565b60405180910390f35b6103ca60048036038101906103c59190613a44565b6118c5565b6040516103d79190613a29565b60405180910390f35b3480156103ec57600080fd5b5061040760048036038101906104029190613aa0565b611d48565b6040516104149190613a29565b60405180910390f35b34801561042957600080fd5b50610444600480360381019061043f9190613aa0565b611ea7565b6040516104519190613a29565b60405180910390f35b34801561046657600080fd5b50610481600480360381019061047c9190613aa0565b61205d565b60405161048f929190613fdf565b60405180910390f35b3480156104a457600080fd5b506104bf60048036038101906104ba9190613aa0565b612119565b6040516104cc9190614165565b60405180910390f35b3480156104e157600080fd5b506104ea6122a2565b6040516104f79190613ce2565b60405180910390f35b34801561050c57600080fd5b506105156122a8565b60405161052493929190614187565b60405180910390f35b34801561053957600080fd5b506105426122c0565b60405161054f919061447f565b60405180910390f35b34801561056457600080fd5b5061057f600480360381019061057a91906144a1565b612686565b60405161058c919061447f565b60405180910390f35b3480156105a157600080fd5b506105bc60048036038101906105b79190613aa0565b612a8b565b6040516105c991906145fc565b60405180910390f35b3480156105de57600080fd5b506105f960048036038101906105f4919061461e565b612e8e565b60405161060a95949392919061465e565b60405180910390f35b34801561061f57600080fd5b5061063a60048036038101906106359190613aa0565b612f96565b6040516106479190613a29565b60405180910390f35b600060068481548110610666576106656146b8565b5b90600052602060002090600d020160010160009054906101000a900473ffffffffffffffffffffffffffffffffffffffff1673ffffffffffffffffffffffffffffffffffffffff163373ffffffffffffffffffffffffffffffffffffffff1614610705576040517f08c379a00000000000000000000000000000000000000000000000000000000081526004016106fc90614733565b60405180910390fd5b6000835111610749576040517f08c379a00000000000000000000000000000000000000000000000000000000081526004016107409061479f565b60405180910390fd5b600082511161078d576040517f08c379a00000000000000000000000000000000000000000000000000000000081526004016107849061480b565b60405180910390fd5b82600685815481106107a2576107a16146b8565b5b90600052602060002090600d020160030190816107bf9190614a37565b5081600685815481106107d5576107d46146b8565b5b90600052602060002090600d020160040190805190602001906107f99291906135a3565b507f2fc51eab37d48def9d8af982f76cb7dd95c39990cbda0942903fc31591da692284600686815481106108305761082f6146b8565b5b90600052602060002090600d02016002014260405161085193929190614b8d565b60405180910390a1600190509392505050565b60008060009054906101000a900473ffffffffffffffffffffffffffffffffffffffff1673ffffffffffffffffffffffffffffffffffffffff163373ffffffffffffffffffffffffffffffffffffffff16146108f5576040517f08c379a00000000000000000000000000000000000000000000000000000000081526004016108ec90614c17565b60405180910390fd5b600a600084815260200190815260200160002060009054906101000a900460ff16610955576040517f08c379a000000000000000000000000000000000000000000000000000000000815260040161094c90614c83565b60405180910390fd5b60058081111561096857610967613b9c565b5b6006848154811061097c5761097b6146b8565b5b90600052602060002090600d0201600b0160009054906101000a900460ff1660058111156109ad576109ac613b9c565b5b146109ed576040517f08c379a00000000000000000000000000000000000000000000000000000000081526004016109e490614cef565b60405180910390fd5b600360068481548110610a0357610a026146b8565b5b90600052602060002090600d0201600b0160006101000a81548160ff02191690836005811115610a3657610a35613b9c565b5b02179055508160068481548110610a5057610a4f6146b8565b5b90600052602060002090600d0201600c019081610a6d9190614a37565b507fced42070be441b0c0e37a7030b1979b9d9116f4a19677cedc618153a8aab1a7d8342604051610a9f929190614d0f565b60405180910390a16001905092915050565b60068181548110610ac157600080fd5b90600052602060002090600d02016000915090508060000154908060010160009054906101000a900473ffffffffffffffffffffffffffffffffffffffff1690806002018054610b109061485a565b80601f0160208091040260200160405190810160405280929190818152602001828054610b3c9061485a565b8015610b895780601f10610b5e57610100808354040283529160200191610b89565b820191906000526020600020905b815481529060010190602001808311610b6c57829003601f168201915b505050505090806003018054610b9e9061485a565b80601f0160208091040260200160405190810160405280929190818152602001828054610bca9061485a565b8015610c175780601f10610bec57610100808354040283529160200191610c17565b820191906000526020600020905b815481529060010190602001808311610bfa57829003601f168201915b50505050509080600501549080600601549080600701549080600801549080600901549080600a01549080600b0160009054906101000a900460ff169080600c018054610c639061485a565b80601f0160208091040260200160405190810160405280929190818152602001828054610c8f9061485a565b8015610cdc5780601f10610cb157610100808354040283529160200191610cdc565b820191906000526020600020905b815481529060010190602001808311610cbf57829003601f168201915b505050505090508c565b60025481565b60008054906101000a900473ffffffffffffffffffffffffffffffffffffffff1673ffffffffffffffffffffffffffffffffffffffff163373ffffffffffffffffffffffffffffffffffffffff1614610d7a576040517f08c379a0000000000000000000000000000000000000000000000000000000008152600401610d7190614c17565b60405180910390fd5b8060018190555050565b6000806005811115610d9957610d98613b9c565b5b60068481548110610dad57610dac6146b8565b5b90600052602060002090600d0201600b0160009054906101000a900460ff166005811115610dde57610ddd613b9c565b5b14610e1e576040517f08c379a0000000000000000000000000000000000000000000000000000000008152600401610e1590614d84565b60405180910390fd5b60068381548110610e3257610e316146b8565b5b90600052602060002090600d020160010160009054906101000a900473ffffffffffffffffffffffffffffffffffffffff1673ffffffffffffffffffffffffffffffffffffffff163373ffffffffffffffffffffffffffffffffffffffff1614610ed1576040517f08c379a0000000000000000000000000000000000000000000000000000000008152600401610ec890614733565b60405180910390fd5b600360068481548110610ee757610ee66146b8565b5b90600052602060002090600d0201600b0160006101000a81548160ff02191690836005811115610f1a57610f19613b9c565b5b02179055508160068481548110610f3457610f336146b8565b5b90600052602060002090600d0201600c019081610f519190614a37565b50610f5b836131af565b7f4484a435bc92a4925b8b18f20baf06d71675934c29cc91d21550d29939098ed08342604051610f8c929190614d0f565b60405180910390a16001905092915050565b60606007805480602002602001604051908101604052809291908181526020016000905b82821015611090578382906000526020600020906002020160405180604001604052908160008201548152602001600182018054610fff9061485a565b80601f016020809104026020016040519081016040528092919081815260200182805461102b9061485a565b80156110785780601f1061104d57610100808354040283529160200191611078565b820191906000526020600020905b81548152906001019060200180831161105b57829003601f168201915b50505050508152505081526020019060010190610fc2565b50505050905090565b600a6020528060005260406000206000915054906101000a900460ff1681565b6000808751116110fe576040517f08c379a00000000000000000000000000000000000000000000000000000000081526004016110f590614df0565b60405180910390fd5b6000865111611142576040517f08c379a00000000000000000000000000000000000000000000000000000000081526004016111399061479f565b60405180910390fd5b6000855111611186576040517f08c379a000000000000000000000000000000000000000000000000000000000815260040161117d9061480b565b60405180910390fd5b600083116111c9576040517f08c379a00000000000000000000000000000000000000000000000000000000081526004016111c090614e5c565b60405180910390fd5b6007805490508410611210576040517f08c379a000000000000000000000000000000000000000000000000000000000815260040161120790614ec8565b60405180910390fd5b6112186135fc565b60025481600001818152505033816020019073ffffffffffffffffffffffffffffffffffffffff16908173ffffffffffffffffffffffffffffffffffffffff16815250508781604001819052508681606001819052508581608001819052508481610140018181525050838160a0018181525050428160e00181815250508281610100018181525050600581610160019060058111156112bb576112ba613b9c565b5b908160058111156112cf576112ce613b9c565b5b8152505060068190806001815401808255809150506001900390600052602060002090600d02016000909190919091506000820151816000015560208201518160010160006101000a81548173ffffffffffffffffffffffffffffffffffffffff021916908373ffffffffffffffffffffffffffffffffffffffff16021790555060408201518160020190816113659190614a37565b50606082015181600301908161137b9190614a37565b5060808201518160040190805190602001906113989291906135a3565b5060a0820151816005015560c0820151816006015560e082015181600701556101008201518160080155610120820151816009015561014082015181600a015561016082015181600b0160006101000a81548160ff0219169083600581111561140457611403613b9c565b5b021790555061018082015181600c01908161141f9190614a37565b5050506001600a6000600254815260200190815260200160002060006101000a81548160ff021916908315150217905550600860003373ffffffffffffffffffffffffffffffffffffffff1673ffffffffffffffffffffffffffffffffffffffff1681526020019081526020016000208190806001815401808255809150506001900390600052602060002090600d02016000909190919091506000820151816000015560208201518160010160006101000a81548173ffffffffffffffffffffffffffffffffffffffff021916908373ffffffffffffffffffffffffffffffffffffffff160217905550604082015181600201908161151f9190614a37565b5060608201518160030190816115359190614a37565b5060808201518160040190805190602001906115529291906135a3565b5060a0820151816005015560c0820151816006015560e082015181600701556101008201518160080155610120820151816009015561014082015181600a015561016082015181600b0160006101000a81548160ff021916908360058111156115be576115bd613b9c565b5b021790555061018082015181600c0190816115d99190614a37565b5050506001600360000160008282546115f29190614f17565b925050819055507f51d08cb6cfa640a387210fb69df925dfb70169ae7373f8ecd40b977b0c800d9a600254338a426040516116309493929190614f4b565b60405180910390a16002600081548092919061164b90614f97565b919050555060019150509695505050505050565b60008054906101000a900473ffffffffffffffffffffffffffffffffffffffff1681565b6008602052816000526040600020818154811061169f57600080fd5b90600052602060002090600d0201600091509150508060000154908060010160009054906101000a900473ffffffffffffffffffffffffffffffffffffffff16908060020180546116ef9061485a565b80601f016020809104026020016040519081016040528092919081815260200182805461171b9061485a565b80156117685780601f1061173d57610100808354040283529160200191611768565b820191906000526020600020905b81548152906001019060200180831161174b57829003601f168201915b50505050509080600301805461177d9061485a565b80601f01602080910402602001604051908101604052809291908181526020018280546117a99061485a565b80156117f65780601f106117cb576101008083540402835291602001916117f6565b820191906000526020600020905b8154815290600101906020018083116117d957829003601f168201915b50505050509080600501549080600601549080600701549080600801549080600901549080600a01549080600b0160009054906101000a900460ff169080600c0180546118429061485a565b80601f016020809104026020016040519081016040528092919081815260200182805461186e9061485a565b80156118bb5780601f10611890576101008083540402835291602001916118bb565b820191906000526020600020905b81548152906001019060200180831161189e57829003601f168201915b505050505090508c565b6000803411611909576040517f08c379a00000000000000000000000000000000000000000000000000000000081526004016119009061502b565b60405180910390fd5b600a600084815260200190815260200160002060009054906101000a900460ff16611969576040517f08c379a000000000000000000000000000000000000000000000000000000000815260040161196090614c83565b60405180910390fd5b6000600581111561197d5761197c613b9c565b5b60068481548110611991576119906146b8565b5b90600052602060002090600d0201600b0160009054906101000a900460ff1660058111156119c2576119c1613b9c565b5b14611a02576040517f08c379a00000000000000000000000000000000000000000000000000000000081526004016119f990614d84565b60405180910390fd5b600160036001016000828254611a189190614f17565b925050819055503460036002016000828254611a349190614f17565b925050819055503460068481548110611a5057611a4f6146b8565b5b90600052602060002090600d02016006016000828254611a709190614f17565b92505081905550600160068481548110611a8d57611a8c6146b8565b5b90600052602060002090600d02016009016000828254611aad9190614f17565b92505081905550600960008481526020019081526020016000206040518060a001604052803373ffffffffffffffffffffffffffffffffffffffff16815260200134815260200142815260200184815260200160001515815250908060018154018082558091505060019003906000526020600020906005020160009091909190915060008201518160000160006101000a81548173ffffffffffffffffffffffffffffffffffffffff021916908373ffffffffffffffffffffffffffffffffffffffff16021790555060208201518160010155604082015181600201556060820151816003019081611ba09190614a37565b5060808201518160040160006101000a81548160ff02191690831515021790555050507f74eda1e7b6ff65775d5ce38ece238bad783c4e12a3a754a6f0a469f248f2cdf883338442604051611bf89493929190614f4b565b60405180910390a160068381548110611c1457611c136146b8565b5b90600052602060002090600d02016005015460068481548110611c3a57611c396146b8565b5b90600052602060002090600d02016006015410611cb157600160068481548110611c6757611c666146b8565b5b90600052602060002090600d0201600b0160006101000a81548160ff02191690836005811115611c9a57611c99613b9c565b5b0217905550611ca883613346565b60019050611d42565b60068381548110611cc557611cc46146b8565b5b90600052602060002090600d0201600801544210611d3d57600260068481548110611cf357611cf26146b8565b5b90600052602060002090600d0201600b0160006101000a81548160ff02191690836005811115611d2657611d25613b9c565b5b0217905550611d34836131af565b60019050611d42565b600190505b92915050565b600060026005811115611d5e57611d5d613b9c565b5b60068381548110611d7257611d716146b8565b5b90600052602060002090600d0201600b0160009054906101000a900460ff166005811115611da357611da2613b9c565b5b14158015611e08575060036005811115611dc057611dbf613b9c565b5b60068381548110611dd457611dd36146b8565b5b90600052602060002090600d0201600b0160009054906101000a900460ff166005811115611e0557611e04613b9c565b5b14155b611e47576040517f08c379a0000000000000000000000000000000000000000000000000000000008152600401611e3e906150bd565b60405180910390fd5b600260068381548110611e5d57611e5c6146b8565b5b90600052602060002090600d0201600b0160006101000a81548160ff02191690836005811115611e9057611e8f613b9c565b5b0217905550611e9e826131af565b60019050919050565b600060016005811115611ebd57611ebc613b9c565b5b60068381548110611ed157611ed06146b8565b5b90600052602060002090600d0201600b0160009054906101000a900460ff166005811115611f0257611f01613b9c565b5b14611f42576040517f08c379a0000000000000000000000000000000000000000000000000000000008152600401611f3990615129565b60405180910390fd5b60068281548110611f5657611f556146b8565b5b90600052602060002090600d020160010160009054906101000a900473ffffffffffffffffffffffffffffffffffffffff1673ffffffffffffffffffffffffffffffffffffffff163373ffffffffffffffffffffffffffffffffffffffff16148061200c575060008054906101000a900473ffffffffffffffffffffffffffffffffffffffff1673ffffffffffffffffffffffffffffffffffffffff163373ffffffffffffffffffffffffffffffffffffffff16145b61204b576040517f08c379a000000000000000000000000000000000000000000000000000000000815260040161204290614733565b60405180910390fd5b61205482613346565b60019050919050565b6007818154811061206d57600080fd5b90600052602060002090600202016000915090508060000154908060010180546120969061485a565b80601f01602080910402602001604051908101604052809291908181526020018280546120c29061485a565b801561210f5780601f106120e45761010080835404028352916020019161210f565b820191906000526020600020905b8154815290600101906020018083116120f257829003601f168201915b5050505050905082565b606060096000838152602001908152602001600020805480602002602001604051908101604052809291908181526020016000905b8282101561229757838290600052602060002090600502016040518060a00160405290816000820160009054906101000a900473ffffffffffffffffffffffffffffffffffffffff1673ffffffffffffffffffffffffffffffffffffffff1673ffffffffffffffffffffffffffffffffffffffff16815260200160018201548152602001600282015481526020016003820180546121eb9061485a565b80601f01602080910402602001604051908101604052809291908181526020018280546122179061485a565b80156122645780601f1061223957610100808354040283529160200191612264565b820191906000526020600020905b81548152906001019060200180831161224757829003601f168201915b505050505081526020016004820160009054906101000a900460ff1615151515815250508152602001906001019061214e565b505050509050919050565b60015481565b60038060000154908060010154908060020154905083565b60606006805480602002602001604051908101604052809291908181526020016000905b8282101561267d57838290600052602060002090600d0201604051806101a0016040529081600082015481526020016001820160009054906101000a900473ffffffffffffffffffffffffffffffffffffffff1673ffffffffffffffffffffffffffffffffffffffff1673ffffffffffffffffffffffffffffffffffffffff1681526020016002820180546123789061485a565b80601f01602080910402602001604051908101604052809291908181526020018280546123a49061485a565b80156123f15780601f106123c6576101008083540402835291602001916123f1565b820191906000526020600020905b8154815290600101906020018083116123d457829003601f168201915b5050505050815260200160038201805461240a9061485a565b80601f01602080910402602001604051908101604052809291908181526020018280546124369061485a565b80156124835780601f1061245857610100808354040283529160200191612483565b820191906000526020600020905b81548152906001019060200180831161246657829003601f168201915b5050505050815260200160048201805480602002602001604051908101604052809291908181526020016000905b8282101561255d5783829060005260206000200180546124d09061485a565b80601f01602080910402602001604051908101604052809291908181526020018280546124fc9061485a565b80156125495780601f1061251e57610100808354040283529160200191612549565b820191906000526020600020905b81548152906001019060200180831161252c57829003601f168201915b5050505050815260200190600101906124b1565b5050505081526020016005820154815260200160068201548152602001600782015481526020016008820154815260200160098201548152602001600a8201548152602001600b820160009054906101000a900460ff1660058111156125c6576125c5613b9c565b5b60058111156125d8576125d7613b9c565b5b8152602001600c820180546125ec9061485a565b80601f01602080910402602001604051908101604052809291908181526020018280546126189061485a565b80156126655780601f1061263a57610100808354040283529160200191612665565b820191906000526020600020905b81548152906001019060200180831161264857829003601f168201915b505050505081525050815260200190600101906122e4565b50505050905090565b6060600860008373ffffffffffffffffffffffffffffffffffffffff1673ffffffffffffffffffffffffffffffffffffffff168152602001908152602001600020805480602002602001604051908101604052809291908181526020016000905b82821015612a8057838290600052602060002090600d0201604051806101a0016040529081600082015481526020016001820160009054906101000a900473ffffffffffffffffffffffffffffffffffffffff1673ffffffffffffffffffffffffffffffffffffffff1673ffffffffffffffffffffffffffffffffffffffff16815260200160028201805461277b9061485a565b80601f01602080910402602001604051908101604052809291908181526020018280546127a79061485a565b80156127f45780601f106127c9576101008083540402835291602001916127f4565b820191906000526020600020905b8154815290600101906020018083116127d757829003601f168201915b5050505050815260200160038201805461280d9061485a565b80601f01602080910402602001604051908101604052809291908181526020018280546128399061485a565b80156128865780601f1061285b57610100808354040283529160200191612886565b820191906000526020600020905b81548152906001019060200180831161286957829003601f168201915b5050505050815260200160048201805480602002602001604051908101604052809291908181526020016000905b828210156129605783829060005260206000200180546128d39061485a565b80601f01602080910402602001604051908101604052809291908181526020018280546128ff9061485a565b801561294c5780601f106129215761010080835404028352916020019161294c565b820191906000526020600020905b81548152906001019060200180831161292f57829003601f168201915b5050505050815260200190600101906128b4565b5050505081526020016005820154815260200160068201548152602001600782015481526020016008820154815260200160098201548152602001600a8201548152602001600b820160009054906101000a900460ff1660058111156129c9576129c8613b9c565b5b60058111156129db576129da613b9c565b5b8152602001600c820180546129ef9061485a565b80601f0160208091040260200160405190810160405280929190818152602001828054612a1b9061485a565b8015612a685780601f10612a3d57610100808354040283529160200191612a68565b820191906000526020600020905b815481529060010190602001808311612a4b57829003601f168201915b505050505081525050815260200190600101906126e7565b505050509050919050565b612a936135fc565b600a600083815260200190815260200160002060009054906101000a900460ff16612af3576040517f08c379a0000000000000000000000000000000000000000000000000000000008152600401612aea90614c83565b60405180910390fd5b60068281548110612b0757612b066146b8565b5b90600052602060002090600d0201604051806101a0016040529081600082015481526020016001820160009054906101000a900473ffffffffffffffffffffffffffffffffffffffff1673ffffffffffffffffffffffffffffffffffffffff1673ffffffffffffffffffffffffffffffffffffffff168152602001600282018054612b919061485a565b80601f0160208091040260200160405190810160405280929190818152602001828054612bbd9061485a565b8015612c0a5780601f10612bdf57610100808354040283529160200191612c0a565b820191906000526020600020905b815481529060010190602001808311612bed57829003601f168201915b50505050508152602001600382018054612c239061485a565b80601f0160208091040260200160405190810160405280929190818152602001828054612c4f9061485a565b8015612c9c5780601f10612c7157610100808354040283529160200191612c9c565b820191906000526020600020905b815481529060010190602001808311612c7f57829003601f168201915b5050505050815260200160048201805480602002602001604051908101604052809291908181526020016000905b82821015612d76578382906000526020600020018054612ce99061485a565b80601f0160208091040260200160405190810160405280929190818152602001828054612d159061485a565b8015612d625780601f10612d3757610100808354040283529160200191612d62565b820191906000526020600020905b815481529060010190602001808311612d4557829003601f168201915b505050505081526020019060010190612cca565b5050505081526020016005820154815260200160068201548152602001600782015481526020016008820154815260200160098201548152602001600a8201548152602001600b820160009054906101000a900460ff166005811115612ddf57612dde613b9c565b5b6005811115612df157612df0613b9c565b5b8152602001600c82018054612e059061485a565b80601f0160208091040260200160405190810160405280929190818152602001828054612e319061485a565b8015612e7e5780601f10612e5357610100808354040283529160200191612e7e565b820191906000526020600020905b815481529060010190602001808311612e6157829003601f168201915b5050505050815250509050919050565b60096020528160005260406000208181548110612eaa57600080fd5b9060005260206000209060050201600091509150508060000160009054906101000a900473ffffffffffffffffffffffffffffffffffffffff1690806001015490806002015490806003018054612f009061485a565b80601f0160208091040260200160405190810160405280929190818152602001828054612f2c9061485a565b8015612f795780601f10612f4e57610100808354040283529160200191612f79565b820191906000526020600020905b815481529060010190602001808311612f5c57829003601f168201915b5050505050908060040160009054906101000a900460ff16905085565b60008060009054906101000a900473ffffffffffffffffffffffffffffffffffffffff1673ffffffffffffffffffffffffffffffffffffffff163373ffffffffffffffffffffffffffffffffffffffff1614613027576040517f08c379a000000000000000000000000000000000000000000000000000000000815260040161301e90614c17565b60405180910390fd5b600a600083815260200190815260200160002060009054906101000a900460ff16613087576040517f08c379a000000000000000000000000000000000000000000000000000000000815260040161307e90614c83565b60405180910390fd5b60058081111561309a57613099613b9c565b5b600683815481106130ae576130ad6146b8565b5b90600052602060002090600d0201600b0160009054906101000a900460ff1660058111156130df576130de613b9c565b5b1461311f576040517f08c379a000000000000000000000000000000000000000000000000000000000815260040161311690614cef565b60405180910390fd5b600060068381548110613135576131346146b8565b5b90600052602060002090600d0201600b0160006101000a81548160ff0219169083600581111561316857613167613b9c565b5b02179055507fd253ffdff2c15c0fc0f805a6a2f2a45ae8dae3bebea5b01fd1e706df8798da20824260405161319e929190614d0f565b60405180910390a160019050919050565b60005b60096000838152602001908152602001600020805490508110156133425760006009600084815260200190815260200160002082815481106131f7576131f66146b8565b5b906000526020600020906005020160000160009054906101000a900473ffffffffffffffffffffffffffffffffffffffff1690506000600960008581526020019081526020016000208381548110613252576132516146b8565b5b9060005260206000209060050201600101549050600160096000868152602001908152602001600020848154811061328d5761328c6146b8565b5b906000526020600020906005020160040160006101000a81548160ff021916908315150217905550426009600086815260200190815260200160002084815481106132db576132da6146b8565b5b9060005260206000209060050201600201819055506132fa82826134f2565b6001600360010160008282546133109190615149565b92505081905550806003600201600082825461332c9190615149565b92505081905550505080806001019150506131b2565b5050565b60006006828154811061335c5761335b6146b8565b5b90600052602060002090600d02016006015490506000606460015483613382919061517d565b61338c91906151ee565b90506004600684815481106133a4576133a36146b8565b5b90600052602060002090600d0201600b0160006101000a81548160ff021916908360058111156133d7576133d6613b9c565b5b0217905550613436600684815481106133f3576133f26146b8565b5b90600052602060002090600d020160010160009054906101000a900473ffffffffffffffffffffffffffffffffffffffff1682846134319190615149565b6134f2565b61346060008054906101000a900473ffffffffffffffffffffffffffffffffffffffff16826134f2565b7fea92b548a4f5c76c7714148900ec90179b8b1d1bc117c625021352b7e03936948360068581548110613496576134956146b8565b5b90600052602060002090600d020160010160009054906101000a900473ffffffffffffffffffffffffffffffffffffffff1683856134d49190615149565b426040516134e5949392919061521f565b60405180910390a1505050565b60008273ffffffffffffffffffffffffffffffffffffffff168260405161351890615295565b60006040518083038185875af1925050503d8060008114613555576040519150601f19603f3d011682016040523d82523d6000602084013e61355a565b606091505b505090508061359e576040517f08c379a0000000000000000000000000000000000000000000000000000000008152600401613595906152f6565b60405180910390fd5b505050565b8280548282559060005260206000209081019282156135eb579160200282015b828111156135ea5782518290816135da9190614a37565b50916020019190600101906135c3565b5b5090506135f8919061368c565b5090565b604051806101a0016040528060008152602001600073ffffffffffffffffffffffffffffffffffffffff1681526020016060815260200160608152602001606081526020016000815260200160008152602001600081526020016000815260200160008152602001600081526020016000600581111561367f5761367e613b9c565b5b8152602001606081525090565b5b808211156136ac57600081816136a391906136b0565b5060010161368d565b5090565b5080546136bc9061485a565b6000825580601f106136ce57506136ed565b601f0160209004906000526020600020908101906136ec91906136f0565b5b50565b5b808211156137095760008160009055506001016136f1565b5090565b6000604051905090565b600080fd5b600080fd5b6000819050919050565b61373481613721565b811461373f57600080fd5b50565b6000813590506137518161372b565b92915050565b600080fd5b600080fd5b6000601f19601f8301169050919050565b7f4e487b7100000000000000000000000000000000000000000000000000000000600052604160045260246000fd5b6137aa82613761565b810181811067ffffffffffffffff821117156137c9576137c8613772565b5b80604052505050565b60006137dc61370d565b90506137e882826137a1565b919050565b600067ffffffffffffffff82111561380857613807613772565b5b61381182613761565b9050602081019050919050565b82818337600083830152505050565b600061384061383b846137ed565b6137d2565b90508281526020810184848401111561385c5761385b61375c565b5b61386784828561381e565b509392505050565b600082601f83011261388457613883613757565b5b813561389484826020860161382d565b91505092915050565b600067ffffffffffffffff8211156138b8576138b7613772565b5b602082029050602081019050919050565b600080fd5b60006138e16138dc8461389d565b6137d2565b90508083825260208201905060208402830185811115613904576139036138c9565b5b835b8181101561394b57803567ffffffffffffffff81111561392957613928613757565b5b808601613936898261386f565b85526020850194505050602081019050613906565b5050509392505050565b600082601f83011261396a57613969613757565b5b813561397a8482602086016138ce565b91505092915050565b60008060006060848603121561399c5761399b613717565b5b60006139aa86828701613742565b935050602084013567ffffffffffffffff8111156139cb576139ca61371c565b5b6139d78682870161386f565b925050604084013567ffffffffffffffff8111156139f8576139f761371c565b5b613a0486828701613955565b9150509250925092565b60008115159050919050565b613a2381613a0e565b82525050565b6000602082019050613a3e6000830184613a1a565b92915050565b60008060408385031215613a5b57613a5a613717565b5b6000613a6985828601613742565b925050602083013567ffffffffffffffff811115613a8a57613a8961371c565b5b613a968582860161386f565b9150509250929050565b600060208284031215613ab657613ab5613717565b5b6000613ac484828501613742565b91505092915050565b613ad681613721565b82525050565b600073ffffffffffffffffffffffffffffffffffffffff82169050919050565b6000613b0782613adc565b9050919050565b613b1781613afc565b82525050565b600081519050919050565b600082825260208201905092915050565b60005b83811015613b57578082015181840152602081019050613b3c565b60008484015250505050565b6000613b6e82613b1d565b613b788185613b28565b9350613b88818560208601613b39565b613b9181613761565b840191505092915050565b7f4e487b7100000000000000000000000000000000000000000000000000000000600052602160045260246000fd5b60068110613bdc57613bdb613b9c565b5b50565b6000819050613bed82613bcb565b919050565b6000613bfd82613bdf565b9050919050565b613c0d81613bf2565b82525050565b600061018082019050613c29600083018f613acd565b613c36602083018e613b0e565b8181036040830152613c48818d613b63565b90508181036060830152613c5c818c613b63565b9050613c6b608083018b613acd565b613c7860a083018a613acd565b613c8560c0830189613acd565b613c9260e0830188613acd565b613ca0610100830187613acd565b613cae610120830186613acd565b613cbc610140830185613c04565b818103610160830152613ccf8184613b63565b90509d9c50505050505050505050505050565b6000602082019050613cf76000830184613acd565b92915050565b600081519050919050565b600082825260208201905092915050565b6000819050602082019050919050565b613d3281613721565b82525050565b600082825260208201905092915050565b6000613d5482613b1d565b613d5e8185613d38565b9350613d6e818560208601613b39565b613d7781613761565b840191505092915050565b6000604083016000830151613d9a6000860182613d29565b5060208301518482036020860152613db28282613d49565b9150508091505092915050565b6000613dcb8383613d82565b905092915050565b6000602082019050919050565b6000613deb82613cfd565b613df58185613d08565b935083602082028501613e0785613d19565b8060005b85811015613e435784840389528151613e248582613dbf565b9450613e2f83613dd3565b925060208a01995050600181019050613e0b565b50829750879550505050505092915050565b60006020820190508181036000830152613e6f8184613de0565b905092915050565b60008060008060008060c08789031215613e9457613e93613717565b5b600087013567ffffffffffffffff811115613eb257613eb161371c565b5b613ebe89828a0161386f565b965050602087013567ffffffffffffffff811115613edf57613ede61371c565b5b613eeb89828a0161386f565b955050604087013567ffffffffffffffff811115613f0c57613f0b61371c565b5b613f1889828a01613955565b9450506060613f2989828a01613742565b9350506080613f3a89828a01613742565b92505060a0613f4b89828a01613742565b9150509295509295509295565b6000602082019050613f6d6000830184613b0e565b92915050565b613f7c81613afc565b8114613f8757600080fd5b50565b600081359050613f9981613f73565b92915050565b60008060408385031215613fb657613fb5613717565b5b6000613fc485828601613f8a565b9250506020613fd585828601613742565b9150509250929050565b6000604082019050613ff46000830185613acd565b81810360208301526140068184613b63565b90509392505050565b600081519050919050565b600082825260208201905092915050565b6000819050602082019050919050565b61404481613afc565b82525050565b61405381613a0e565b82525050565b600060a083016000830151614071600086018261403b565b5060208301516140846020860182613d29565b5060408301516140976040860182613d29565b50606083015184820360608601526140af8282613d49565b91505060808301516140c4608086018261404a565b508091505092915050565b60006140db8383614059565b905092915050565b6000602082019050919050565b60006140fb8261400f565b614105818561401a565b9350836020820285016141178561402b565b8060005b85811015614153578484038952815161413485826140cf565b945061413f836140e3565b925060208a0199505060018101905061411b565b50829750879550505050505092915050565b6000602082019050818103600083015261417f81846140f0565b905092915050565b600060608201905061419c6000830186613acd565b6141a96020830185613acd565b6141b66040830184613acd565b949350505050565b600081519050919050565b600082825260208201905092915050565b6000819050602082019050919050565b600081519050919050565b600082825260208201905092915050565b6000819050602082019050919050565b60006142228383613d49565b905092915050565b6000602082019050919050565b6000614242826141ea565b61424c81856141f5565b93508360208202850161425e85614206565b8060005b8581101561429a578484038952815161427b8582614216565b94506142868361422a565b925060208a01995050600181019050614262565b50829750879550505050505092915050565b6142b581613bf2565b82525050565b60006101a0830160008301516142d46000860182613d29565b5060208301516142e7602086018261403b565b50604083015184820360408601526142ff8282613d49565b915050606083015184820360608601526143198282613d49565b915050608083015184820360808601526143338282614237565b91505060a083015161434860a0860182613d29565b5060c083015161435b60c0860182613d29565b5060e083015161436e60e0860182613d29565b50610100830151614383610100860182613d29565b50610120830151614398610120860182613d29565b506101408301516143ad610140860182613d29565b506101608301516143c26101608601826142ac565b506101808301518482036101808601526143dc8282613d49565b9150508091505092915050565b60006143f583836142bb565b905092915050565b6000602082019050919050565b6000614415826141be565b61441f81856141c9565b935083602082028501614431856141da565b8060005b8581101561446d578484038952815161444e85826143e9565b9450614459836143fd565b925060208a01995050600181019050614435565b50829750879550505050505092915050565b60006020820190508181036000830152614499818461440a565b905092915050565b6000602082840312156144b7576144b6613717565b5b60006144c584828501613f8a565b91505092915050565b60006101a0830160008301516144e76000860182613d29565b5060208301516144fa602086018261403b565b50604083015184820360408601526145128282613d49565b9150506060830151848203606086015261452c8282613d49565b915050608083015184820360808601526145468282614237565b91505060a083015161455b60a0860182613d29565b5060c083015161456e60c0860182613d29565b5060e083015161458160e0860182613d29565b50610100830151614596610100860182613d29565b506101208301516145ab610120860182613d29565b506101408301516145c0610140860182613d29565b506101608301516145d56101608601826142ac565b506101808301518482036101808601526145ef8282613d49565b9150508091505092915050565b6000602082019050818103600083015261461681846144ce565b905092915050565b6000806040838503121561463557614634613717565b5b600061464385828601613742565b925050602061465485828601613742565b9150509250929050565b600060a0820190506146736000830188613b0e565b6146806020830187613acd565b61468d6040830186613acd565b818103606083015261469f8185613b63565b90506146ae6080830184613a1a565b9695505050505050565b7f4e487b7100000000000000000000000000000000000000000000000000000000600052603260045260246000fd5b7f556e617574686f72697a656420456e7469747900000000000000000000000000600082015250565b600061471d601383613b28565b9150614728826146e7565b602082019050919050565b6000602082019050818103600083015261474c81614710565b9050919050565b7f4465736372697074696f6e2063616e6e6f7420626520656d7074790000000000600082015250565b6000614789601b83613b28565b915061479482614753565b602082019050919050565b600060208201905081810360008301526147b88161477c565b9050919050565b7f496d61676555524c732063616e6e6f7420626520656d70747900000000000000600082015250565b60006147f5601983613b28565b9150614800826147bf565b602082019050919050565b60006020820190508181036000830152614824816147e8565b9050919050565b7f4e487b7100000000000000000000000000000000000000000000000000000000600052602260045260246000fd5b6000600282049050600182168061487257607f821691505b6020821081036148855761488461482b565b5b50919050565b60008190508160005260206000209050919050565b60006020601f8301049050919050565b600082821b905092915050565b6000600883026148ed7fffffffffffffffffffffffffffffffffffffffffffffffffffffffffffffffff826148b0565b6148f786836148b0565b95508019841693508086168417925050509392505050565b6000819050919050565b600061493461492f61492a84613721565b61490f565b613721565b9050919050565b6000819050919050565b61494e83614919565b61496261495a8261493b565b8484546148bd565b825550505050565b600090565b61497761496a565b614982818484614945565b505050565b5b818110156149a65761499b60008261496f565b600181019050614988565b5050565b601f8211156149eb576149bc8161488b565b6149c5846148a0565b810160208510156149d4578190505b6149e86149e0856148a0565b830182614987565b50505b505050565b600082821c905092915050565b6000614a0e600019846008026149f0565b1980831691505092915050565b6000614a2783836149fd565b9150826002028217905092915050565b614a4082613b1d565b67ffffffffffffffff811115614a5957614a58613772565b5b614a63825461485a565b614a6e8282856149aa565b600060209050601f831160018114614aa15760008415614a8f578287015190505b614a998582614a1b565b865550614b01565b601f198416614aaf8661488b565b60005b82811015614ad757848901518255600182019150602085019450602081019050614ab2565b86831015614af45784890151614af0601f8916826149fd565b8355505b6001600288020188555050505b505050505050565b60008154614b168161485a565b614b208186613b28565b94506001821660008114614b3b5760018114614b5157614b84565b60ff198316865281151560200286019350614b84565b614b5a8561488b565b60005b83811015614b7c57815481890152600182019150602081019050614b5d565b808801955050505b50505092915050565b6000606082019050614ba26000830186613acd565b8181036020830152614bb48185614b09565b9050614bc36040830184613acd565b949350505050565b7f41636365737320526573657276656420746f204f776e65720000000000000000600082015250565b6000614c01601883613b28565b9150614c0c82614bcb565b602082019050919050565b60006020820190508181036000830152614c3081614bf4565b9050919050565b7f50726f6a656374206e6f7420666f756e64000000000000000000000000000000600082015250565b6000614c6d601183613b28565b9150614c7882614c37565b602082019050919050565b60006020820190508181036000830152614c9c81614c60565b9050919050565b7f50726f6a656374206e6f742070656e64696e6720617070726f76616c00000000600082015250565b6000614cd9601c83613b28565b9150614ce482614ca3565b602082019050919050565b60006020820190508181036000830152614d0881614ccc565b9050919050565b6000604082019050614d246000830185613acd565b614d316020830184613acd565b9392505050565b7f50726f6a656374206e6f206c6f6e676572206f70656e65640000000000000000600082015250565b6000614d6e601883613b28565b9150614d7982614d38565b602082019050919050565b60006020820190508181036000830152614d9d81614d61565b9050919050565b7f5469746c652063616e6e6f7420626520656d7074790000000000000000000000600082015250565b6000614dda601583613b28565b9150614de582614da4565b602082019050919050565b60006020820190508181036000830152614e0981614dcd565b9050919050565b7f436f73742063616e6e6f74206265207a65726f00000000000000000000000000600082015250565b6000614e46601383613b28565b9150614e5182614e10565b602082019050919050565b60006020820190508181036000830152614e7581614e39565b9050919050565b7f496e76616c69642063617465676f727920494400000000000000000000000000600082015250565b6000614eb2601383613b28565b9150614ebd82614e7c565b602082019050919050565b60006020820190508181036000830152614ee181614ea5565b9050919050565b7f4e487b7100000000000000000000000000000000000000000000000000000000600052601160045260246000fd5b6000614f2282613721565b9150614f2d83613721565b9250828201905080821115614f4557614f44614ee8565b5b92915050565b6000608082019050614f606000830187613acd565b614f6d6020830186613b0e565b8181036040830152614f7f8185613b63565b9050614f8e6060830184613acd565b95945050505050565b6000614fa282613721565b91507fffffffffffffffffffffffffffffffffffffffffffffffffffffffffffffffff8203614fd457614fd3614ee8565b5b600182019050919050565b7f4574686572206d7573742062652067726561746572207468616e207a65726f00600082015250565b6000615015601f83613b28565b915061502082614fdf565b602082019050919050565b6000602082019050818103600083015261504481615008565b9050919050565b7f50726f6a65637420616c7265616479206d61726b65642061732072657665727460008201527f65642f64656c6574656400000000000000000000000000000000000000000000602082015250565b60006150a7602a83613b28565b91506150b28261504b565b604082019050919050565b600060208201905081810360008301526150d68161509a565b9050919050565b7f50726f6a656374206e6f7420415050524f564544000000000000000000000000600082015250565b6000615113601483613b28565b915061511e826150dd565b602082019050919050565b6000602082019050818103600083015261514281615106565b9050919050565b600061515482613721565b915061515f83613721565b925082820390508181111561517757615176614ee8565b5b92915050565b600061518882613721565b915061519383613721565b92508282026151a181613721565b915082820484148315176151b8576151b7614ee8565b5b5092915050565b7f4e487b7100000000000000000000000000000000000000000000000000000000600052601260045260246000fd5b60006151f982613721565b915061520483613721565b925082615214576152136151bf565b5b828204905092915050565b60006080820190506152346000830187613acd565b6152416020830186613b0e565b61524e6040830185613acd565b61525b6060830184613acd565b95945050505050565b600081905092915050565b50565b600061527f600083615264565b915061528a8261526f565b600082019050919050565b60006152a082615272565b9150819050919050565b7f5061796d656e74206661696c6564000000000000000000000000000000000000600082015250565b60006152e0600e83613b28565b91506152eb826152aa565b602082019050919050565b6000602082019050818103600083015261530f816152d3565b905091905056fea2646970667358221220fd0775c35c54d6bc79fc06a2294640558b7a5aa2df791f38d7a7051c62734aec64736f6c63430008180033",
  "linkReferences": {},
  "deployedLinkReferences": {}
}