{
  "_format": "hh-sol-artifact-1",
  "contractName": "BlockPledge",
  "sourceName": "app/contracts/BlockPledge.sol",
  "abi": [
    {
      "inputs": [
        {
          "internalType": "uint256",
          "name": "_projectTax",
          "type": "uint256"
        }
      ],
      "stateMutability": "nonpayable",
      "type": "constructor"
    },
    {
      "anonymous": false,
      "inputs": [
        {
          "indexed": false,
          "internalType": "uint256",
          "name": "id",
          "type": "uint256"
        },
        {
          "indexed": false,
          "internalType": "address",
          "name": "backer",
          "type": "address"
        },
        {
          "indexed": false,
          "internalType": "uint256",
          "name": "timestamp",
          "type": "uint256"
        }
      ],
      "name": "ProjectBacked",
      "type": "event"
    },
    {
      "anonymous": false,
      "inputs": [
        {
          "indexed": false,
          "internalType": "uint256",
          "name": "id",
          "type": "uint256"
        },
        {
          "indexed": false,
          "internalType": "address",
          "name": "owner",
          "type": "address"
        },
        {
          "indexed": false,
          "internalType": "string",
          "name": "title",
          "type": "string"
        },
        {
          "indexed": false,
          "internalType": "uint256",
          "name": "timestamp",
          "type": "uint256"
        }
      ],
      "name": "ProjectCreated",
      "type": "event"
    },
    {
      "anonymous": false,
      "inputs": [
        {
          "indexed": false,
          "internalType": "uint256",
          "name": "id",
          "type": "uint256"
        },
        {
          "indexed": false,
          "internalType": "uint256",
          "name": "timestamp",
          "type": "uint256"
        }
      ],
      "name": "ProjectDeleted",
      "type": "event"
    },
    {
      "anonymous": false,
      "inputs": [
        {
          "indexed": false,
          "internalType": "uint256",
          "name": "id",
          "type": "uint256"
        },
        {
          "indexed": false,
          "internalType": "address",
          "name": "recipient",
          "type": "address"
        },
        {
          "indexed": false,
          "internalType": "uint256",
          "name": "amount",
          "type": "uint256"
        },
        {
          "indexed": false,
          "internalType": "uint256",
          "name": "timestamp",
          "type": "uint256"
        }
      ],
      "name": "ProjectPaidOut",
      "type": "event"
    },
    {
      "anonymous": false,
      "inputs": [
        {
          "indexed": false,
          "internalType": "uint256",
          "name": "id",
          "type": "uint256"
        },
        {
          "indexed": false,
          "internalType": "string",
          "name": "title",
          "type": "string"
        },
        {
          "indexed": false,
          "internalType": "uint256",
          "name": "timestamp",
          "type": "uint256"
        }
      ],
      "name": "ProjectUpdated",
      "type": "event"
    },
    {
      "inputs": [
        {
          "internalType": "uint256",
          "name": "_id",
          "type": "uint256"
        }
      ],
      "name": "backProject",
      "outputs": [
        {
          "internalType": "bool",
          "name": "",
          "type": "bool"
        }
      ],
      "stateMutability": "payable",
      "type": "function"
    },
    {
      "inputs": [
        {
          "internalType": "uint256",
          "name": "",
          "type": "uint256"
        },
        {
          "internalType": "uint256",
          "name": "",
          "type": "uint256"
        }
      ],
      "name": "backersOf",
      "outputs": [
        {
          "internalType": "address",
          "name": "backer",
          "type": "address"
        },
        {
          "internalType": "uint256",
          "name": "contribution",
          "type": "uint256"
        },
        {
          "internalType": "uint256",
          "name": "timestamp",
          "type": "uint256"
        },
        {
          "internalType": "bool",
          "name": "refunded",
          "type": "bool"
        }
      ],
      "stateMutability": "view",
      "type": "function"
    },
    {
      "inputs": [
        {
          "internalType": "uint256",
          "name": "_taxPct",
          "type": "uint256"
        }
      ],
      "name": "changeTax",
      "outputs": [],
      "stateMutability": "nonpayable",
      "type": "function"
    },
    {
      "inputs": [
        {
          "internalType": "string",
          "name": "_title",
          "type": "string"
        },
        {
          "internalType": "string",
          "name": "_description",
          "type": "string"
        },
        {
          "internalType": "string[]",
          "name": "_imageURLs",
          "type": "string[]"
        },
        {
          "internalType": "uint256",
          "name": "_cost",
          "type": "uint256"
        },
        {
          "internalType": "uint256",
          "name": "_expiresAt",
          "type": "uint256"
        }
      ],
      "name": "createProject",
      "outputs": [
        {
          "internalType": "bool",
          "name": "",
          "type": "bool"
        }
      ],
      "stateMutability": "nonpayable",
      "type": "function"
    },
    {
      "inputs": [
        {
          "internalType": "uint256",
          "name": "_id",
          "type": "uint256"
        }
      ],
      "name": "deleteProject",
      "outputs": [
        {
          "internalType": "bool",
          "name": "",
          "type": "bool"
        }
      ],
      "stateMutability": "nonpayable",
      "type": "function"
    },
    {
      "inputs": [
        {
          "internalType": "uint256",
          "name": "_id",
          "type": "uint256"
        }
      ],
      "name": "getBackers",
      "outputs": [
        {
          "components": [
            {
              "internalType": "address",
              "name": "backer",
              "type": "address"
            },
            {
              "internalType": "uint256",
              "name": "contribution",
              "type": "uint256"
            },
            {
              "internalType": "uint256",
              "name": "timestamp",
              "type": "uint256"
            },
            {
              "internalType": "bool",
              "name": "refunded",
              "type": "bool"
            }
          ],
          "internalType": "struct BlockPledge.BackerStruct[]",
          "name": "",
          "type": "tuple[]"
        }
      ],
      "stateMutability": "view",
      "type": "function"
    },
    {
      "inputs": [
        {
          "internalType": "uint256",
          "name": "_id",
          "type": "uint256"
        }
      ],
      "name": "getProject",
      "outputs": [
        {
          "components": [
            {
              "internalType": "uint256",
              "name": "id",
              "type": "uint256"
            },
            {
              "internalType": "address",
              "name": "owner",
              "type": "address"
            },
            {
              "internalType": "string",
              "name": "title",
              "type": "string"
            },
            {
              "internalType": "string",
              "name": "description",
              "type": "string"
            },
            {
              "internalType": "string[]",
              "name": "imageURLs",
              "type": "string[]"
            },
            {
              "internalType": "uint256",
              "name": "cost",
              "type": "uint256"
            },
            {
              "internalType": "uint256",
              "name": "raised",
              "type": "uint256"
            },
            {
              "internalType": "uint256",
              "name": "timestamp",
              "type": "uint256"
            },
            {
              "internalType": "uint256",
              "name": "expiresAt",
              "type": "uint256"
            },
            {
              "internalType": "uint256",
              "name": "backers",
              "type": "uint256"
            },
            {
              "internalType": "enum BlockPledge.StatusEnum",
              "name": "status",
              "type": "uint8"
            }
          ],
          "internalType": "struct BlockPledge.ProjectStruct",
          "name": "",
          "type": "tuple"
        }
      ],
      "stateMutability": "view",
      "type": "function"
    },
    {
      "inputs": [],
      "name": "getProjects",
      "outputs": [
        {
          "components": [
            {
              "internalType": "uint256",
              "name": "id",
              "type": "uint256"
            },
            {
              "internalType": "address",
              "name": "owner",
              "type": "address"
            },
            {
              "internalType": "string",
              "name": "title",
              "type": "string"
            },
            {
              "internalType": "string",
              "name": "description",
              "type": "string"
            },
            {
              "internalType": "string[]",
              "name": "imageURLs",
              "type": "string[]"
            },
            {
              "internalType": "uint256",
              "name": "cost",
              "type": "uint256"
            },
            {
              "internalType": "uint256",
              "name": "raised",
              "type": "uint256"
            },
            {
              "internalType": "uint256",
              "name": "timestamp",
              "type": "uint256"
            },
            {
              "internalType": "uint256",
              "name": "expiresAt",
              "type": "uint256"
            },
            {
              "internalType": "uint256",
              "name": "backers",
              "type": "uint256"
            },
            {
              "internalType": "enum BlockPledge.StatusEnum",
              "name": "status",
              "type": "uint8"
            }
          ],
          "internalType": "struct BlockPledge.ProjectStruct[]",
          "name": "",
          "type": "tuple[]"
        }
      ],
      "stateMutability": "view",
      "type": "function"
    },
    {
      "inputs": [],
      "name": "owner",
      "outputs": [
        {
          "internalType": "address",
          "name": "",
          "type": "address"
        }
      ],
      "stateMutability": "view",
      "type": "function"
    },
    {
      "inputs": [
        {
          "internalType": "uint256",
          "name": "_id",
          "type": "uint256"
        }
      ],
      "name": "payOutProject",
      "outputs": [
        {
          "internalType": "bool",
          "name": "",
          "type": "bool"
        }
      ],
      "stateMutability": "nonpayable",
      "type": "function"
    },
    {
      "inputs": [],
      "name": "projectCount",
      "outputs": [
        {
          "internalType": "uint256",
          "name": "",
          "type": "uint256"
        }
      ],
      "stateMutability": "view",
      "type": "function"
    },
    {
      "inputs": [
        {
          "internalType": "uint256",
          "name": "",
          "type": "uint256"
        }
      ],
      "name": "projectExists",
      "outputs": [
        {
          "internalType": "bool",
          "name": "",
          "type": "bool"
        }
      ],
      "stateMutability": "view",
      "type": "function"
    },
    {
      "inputs": [],
      "name": "projectTax",
      "outputs": [
        {
          "internalType": "uint256",
          "name": "",
          "type": "uint256"
        }
      ],
      "stateMutability": "view",
      "type": "function"
    },
    {
      "inputs": [
        {
          "internalType": "uint256",
          "name": "",
          "type": "uint256"
        }
      ],
      "name": "projects",
      "outputs": [
        {
          "internalType": "uint256",
          "name": "id",
          "type": "uint256"
        },
        {
          "internalType": "address",
          "name": "owner",
          "type": "address"
        },
        {
          "internalType": "string",
          "name": "title",
          "type": "string"
        },
        {
          "internalType": "string",
          "name": "description",
          "type": "string"
        },
        {
          "internalType": "uint256",
          "name": "cost",
          "type": "uint256"
        },
        {
          "internalType": "uint256",
          "name": "raised",
          "type": "uint256"
        },
        {
          "internalType": "uint256",
          "name": "timestamp",
          "type": "uint256"
        },
        {
          "internalType": "uint256",
          "name": "expiresAt",
          "type": "uint256"
        },
        {
          "internalType": "uint256",
          "name": "backers",
          "type": "uint256"
        },
        {
          "internalType": "enum BlockPledge.StatusEnum",
          "name": "status",
          "type": "uint8"
        }
      ],
      "stateMutability": "view",
      "type": "function"
    },
    {
      "inputs": [
        {
          "internalType": "address",
          "name": "",
          "type": "address"
        },
        {
          "internalType": "uint256",
          "name": "",
          "type": "uint256"
        }
      ],
      "name": "projectsOf",
      "outputs": [
        {
          "internalType": "uint256",
          "name": "id",
          "type": "uint256"
        },
        {
          "internalType": "address",
          "name": "owner",
          "type": "address"
        },
        {
          "internalType": "string",
          "name": "title",
          "type": "string"
        },
        {
          "internalType": "string",
          "name": "description",
          "type": "string"
        },
        {
          "internalType": "uint256",
          "name": "cost",
          "type": "uint256"
        },
        {
          "internalType": "uint256",
          "name": "raised",
          "type": "uint256"
        },
        {
          "internalType": "uint256",
          "name": "timestamp",
          "type": "uint256"
        },
        {
          "internalType": "uint256",
          "name": "expiresAt",
          "type": "uint256"
        },
        {
          "internalType": "uint256",
          "name": "backers",
          "type": "uint256"
        },
        {
          "internalType": "enum BlockPledge.StatusEnum",
          "name": "status",
          "type": "uint8"
        }
      ],
      "stateMutability": "view",
      "type": "function"
    },
    {
      "inputs": [
        {
          "internalType": "uint256",
          "name": "_id",
          "type": "uint256"
        }
      ],
      "name": "requestRefund",
      "outputs": [
        {
          "internalType": "bool",
          "name": "",
          "type": "bool"
        }
      ],
      "stateMutability": "nonpayable",
      "type": "function"
    },
    {
      "inputs": [],
      "name": "stats",
      "outputs": [
        {
          "internalType": "uint256",
          "name": "totalProjects",
          "type": "uint256"
        },
        {
          "internalType": "uint256",
          "name": "totalBacking",
          "type": "uint256"
        },
        {
          "internalType": "uint256",
          "name": "totalDonations",
          "type": "uint256"
        }
      ],
      "stateMutability": "view",
      "type": "function"
    },
    {
      "inputs": [
        {
          "internalType": "uint256",
          "name": "_id",
          "type": "uint256"
        },
        {
          "internalType": "string",
          "name": "_title",
          "type": "string"
        },
        {
          "internalType": "string",
          "name": "_description",
          "type": "string"
        },
        {
          "internalType": "string[]",
          "name": "_imageURLs",
          "type": "string[]"
        },
        {
          "internalType": "uint256",
          "name": "_expiresAt",
          "type": "uint256"
        }
      ],
      "name": "updateProject",
      "outputs": [
        {
          "internalType": "bool",
          "name": "",
          "type": "bool"
        }
      ],
      "stateMutability": "nonpayable",
      "type": "function"
    }
  ],
  "bytecode": "0x60806040523480156200001157600080fd5b506040516200410d3803806200410d8339818101604052810190620000379190620000c5565b336000806101000a81548173ffffffffffffffffffffffffffffffffffffffff021916908373ffffffffffffffffffffffffffffffffffffffff1602179055508060018190555050620000f7565b600080fd5b6000819050919050565b6200009f816200008a565b8114620000ab57600080fd5b50565b600081519050620000bf8162000094565b92915050565b600060208284031215620000de57620000dd62000085565b5b6000620000ee84828501620000ae565b91505092915050565b61400680620001076000396000f3fe6080604052600436106101095760003560e01c80639f39a19411610095578063d24cd3ec11610064578063d24cd3ec146103f4578063d80528ae1461041f578063dcc601281461044c578063f0f3f2c814610477578063f9285aa0146104b457610109565b80639f39a1941461030d578063a4b2409e1461033d578063b531dcba1461037a578063c9168b72146103b757610109565b80635ad5c89d116100dc5780635ad5c89d146101e557806361952cd414610222578063703d52af1461025f5780638da5cb5b1461029c5780638e555632146102c757610109565b8063107046bd1461010e57806336fbad26146101545780633e45c8af1461017f5780634cd0cb28146101a8575b600080fd5b34801561011a57600080fd5b50610135600480360381019061013091906127ae565b6104f4565b60405161014b9a99989796959493929190612932565b60405180910390f35b34801561016057600080fd5b50610169610695565b60405161017691906129dc565b60405180910390f35b34801561018b57600080fd5b506101a660048036038101906101a191906127ae565b61069b565b005b3480156101b457600080fd5b506101cf60048036038101906101ca91906127ae565b610733565b6040516101dc9190612a12565b60405180910390f35b3480156101f157600080fd5b5061020c60048036038101906102079190612c48565b610919565b6040516102199190612a12565b60405180910390f35b34801561022e57600080fd5b5061024960048036038101906102449190612d17565b610bac565b6040516102569190612a12565b60405180910390f35b34801561026b57600080fd5b50610286600480360381019061028191906127ae565b611089565b6040516102939190612a12565b60405180910390f35b3480156102a857600080fd5b506102b16110a9565b6040516102be9190612de6565b60405180910390f35b3480156102d357600080fd5b506102ee60048036038101906102e99190612e2d565b6110cd565b6040516103049a99989796959493929190612932565b60405180910390f35b610327600480360381019061032291906127ae565b61127b565b6040516103349190612a12565b60405180910390f35b34801561034957600080fd5b50610364600480360381019061035f91906127ae565b6116df565b6040516103719190612a12565b60405180910390f35b34801561038657600080fd5b506103a1600480360381019061039c91906127ae565b61183e565b6040516103ae9190612a12565b60405180910390f35b3480156103c357600080fd5b506103de60048036038101906103d991906127ae565b6119f4565b6040516103eb9190612f9e565b60405180910390f35b34801561040057600080fd5b50610409611aeb565b60405161041691906129dc565b60405180910390f35b34801561042b57600080fd5b50610434611af1565b60405161044393929190612fc0565b60405180910390f35b34801561045857600080fd5b50610461611b09565b60405161046e91906132d1565b60405180910390f35b34801561048357600080fd5b5061049e600480360381019061049991906127ae565b611e33565b6040516104ab91906133f0565b60405180910390f35b3480156104c057600080fd5b506104db60048036038101906104d69190613412565b61219a565b6040516104eb9493929190613452565b60405180910390f35b6006818154811061050457600080fd5b90600052602060002090600b02016000915090508060000154908060010160009054906101000a900473ffffffffffffffffffffffffffffffffffffffff1690806002018054610553906134c6565b80601f016020809104026020016040519081016040528092919081815260200182805461057f906134c6565b80156105cc5780601f106105a1576101008083540402835291602001916105cc565b820191906000526020600020905b8154815290600101906020018083116105af57829003601f168201915b5050505050908060030180546105e1906134c6565b80601f016020809104026020016040519081016040528092919081815260200182805461060d906134c6565b801561065a5780601f1061062f5761010080835404028352916020019161065a565b820191906000526020600020905b81548152906001019060200180831161063d57829003601f168201915b50505050509080600501549080600601549080600701549080600801549080600901549080600a0160009054906101000a900460ff1690508a565b60025481565b60008054906101000a900473ffffffffffffffffffffffffffffffffffffffff1673ffffffffffffffffffffffffffffffffffffffff163373ffffffffffffffffffffffffffffffffffffffff1614610729576040517f08c379a000000000000000000000000000000000000000000000000000000000815260040161072090613543565b60405180910390fd5b8060018190555050565b6000806004811115610748576107476128bb565b5b6006838154811061075c5761075b613563565b5b90600052602060002090600b0201600a0160009054906101000a900460ff16600481111561078d5761078c6128bb565b5b146107cd576040517f08c379a00000000000000000000000000000000000000000000000000000000081526004016107c4906135de565b60405180910390fd5b600682815481106107e1576107e0613563565b5b90600052602060002090600b020160010160009054906101000a900473ffffffffffffffffffffffffffffffffffffffff1673ffffffffffffffffffffffffffffffffffffffff163373ffffffffffffffffffffffffffffffffffffffff1614610880576040517f08c379a00000000000000000000000000000000000000000000000000000000081526004016108779061364a565b60405180910390fd5b60036006838154811061089657610895613563565b5b90600052602060002090600b0201600a0160006101000a81548160ff021916908360048111156108c9576108c86128bb565b5b02179055506108d782612214565b7f4484a435bc92a4925b8b18f20baf06d71675934c29cc91d21550d29939098ed0824260405161090892919061366a565b60405180910390a160019050919050565b60006006868154811061092f5761092e613563565b5b90600052602060002090600b020160010160009054906101000a900473ffffffffffffffffffffffffffffffffffffffff1673ffffffffffffffffffffffffffffffffffffffff163373ffffffffffffffffffffffffffffffffffffffff16146109ce576040517f08c379a00000000000000000000000000000000000000000000000000000000081526004016109c59061364a565b60405180910390fd5b6000855111610a12576040517f08c379a0000000000000000000000000000000000000000000000000000000008152600401610a09906136df565b60405180910390fd5b6000845111610a56576040517f08c379a0000000000000000000000000000000000000000000000000000000008152600401610a4d9061374b565b60405180910390fd5b6000835111610a9a576040517f08c379a0000000000000000000000000000000000000000000000000000000008152600401610a91906137b7565b60405180910390fd5b8460068781548110610aaf57610aae613563565b5b90600052602060002090600b02016002019081610acc9190613983565b508360068781548110610ae257610ae1613563565b5b90600052602060002090600b02016003019081610aff9190613983565b508260068781548110610b1557610b14613563565b5b90600052602060002090600b02016004019080519060200190610b39929190612608565b508160068781548110610b4f57610b4e613563565b5b90600052602060002090600b0201600801819055507f2fc51eab37d48def9d8af982f76cb7dd95c39990cbda0942903fc31591da6922868642604051610b9793929190613a55565b60405180910390a16001905095945050505050565b600080865111610bf1576040517f08c379a0000000000000000000000000000000000000000000000000000000008152600401610be8906136df565b60405180910390fd5b6000855111610c35576040517f08c379a0000000000000000000000000000000000000000000000000000000008152600401610c2c9061374b565b60405180910390fd5b6000845111610c79576040517f08c379a0000000000000000000000000000000000000000000000000000000008152600401610c70906137b7565b60405180910390fd5b60008311610cbc576040517f08c379a0000000000000000000000000000000000000000000000000000000008152600401610cb390613adf565b60405180910390fd5b610cc4612661565b60025481600001818152505033816020019073ffffffffffffffffffffffffffffffffffffffff16908173ffffffffffffffffffffffffffffffffffffffff1681525050868160400181905250858160600181905250848160800181905250838160a0018181525050428160e0018181525050828161010001818152505060068190806001815401808255809150506001900390600052602060002090600b02016000909190919091506000820151816000015560208201518160010160006101000a81548173ffffffffffffffffffffffffffffffffffffffff021916908373ffffffffffffffffffffffffffffffffffffffff1602179055506040820151816002019081610dd49190613983565b506060820151816003019081610dea9190613983565b506080820151816004019080519060200190610e07929190612608565b5060a0820151816005015560c0820151816006015560e082015181600701556101008201518160080155610120820151816009015561014082015181600a0160006101000a81548160ff02191690836004811115610e6857610e676128bb565b5b02179055505050600160096000600254815260200190815260200160002060006101000a81548160ff021916908315150217905550600760003373ffffffffffffffffffffffffffffffffffffffff1673ffffffffffffffffffffffffffffffffffffffff1681526020019081526020016000208190806001815401808255809150506001900390600052602060002090600b02016000909190919091506000820151816000015560208201518160010160006101000a81548173ffffffffffffffffffffffffffffffffffffffff021916908373ffffffffffffffffffffffffffffffffffffffff1602179055506040820151816002019081610f6c9190613983565b506060820151816003019081610f829190613983565b506080820151816004019080519060200190610f9f929190612608565b5060a0820151816005015560c0820151816006015560e082015181600701556101008201518160080155610120820151816009015561014082015181600a0160006101000a81548160ff0219169083600481111561100057610fff6128bb565b5b0217905550505060016003600001600082825461101d9190613b2e565b925050819055507f51d08cb6cfa640a387210fb69df925dfb70169ae7373f8ecd40b977b0c800d9a60025433894260405161105b9493929190613b62565b60405180910390a16002600081548092919061107690613bae565b9190505550600191505095945050505050565b60096020528060005260406000206000915054906101000a900460ff1681565b60008054906101000a900473ffffffffffffffffffffffffffffffffffffffff1681565b600760205281600052604060002081815481106110e957600080fd5b90600052602060002090600b0201600091509150508060000154908060010160009054906101000a900473ffffffffffffffffffffffffffffffffffffffff1690806002018054611139906134c6565b80601f0160208091040260200160405190810160405280929190818152602001828054611165906134c6565b80156111b25780601f10611187576101008083540402835291602001916111b2565b820191906000526020600020905b81548152906001019060200180831161119557829003601f168201915b5050505050908060030180546111c7906134c6565b80601f01602080910402602001604051908101604052809291908181526020018280546111f3906134c6565b80156112405780601f1061121557610100808354040283529160200191611240565b820191906000526020600020905b81548152906001019060200180831161122357829003601f168201915b50505050509080600501549080600601549080600701549080600801549080600901549080600a0160009054906101000a900460ff1690508a565b60008034116112bf576040517f08c379a00000000000000000000000000000000000000000000000000000000081526004016112b690613c42565b60405180910390fd5b6009600083815260200190815260200160002060009054906101000a900460ff1661131f576040517f08c379a000000000000000000000000000000000000000000000000000000000815260040161131690613cae565b60405180910390fd5b60006004811115611333576113326128bb565b5b6006838154811061134757611346613563565b5b90600052602060002090600b0201600a0160009054906101000a900460ff166004811115611378576113776128bb565b5b146113b8576040517f08c379a00000000000000000000000000000000000000000000000000000000081526004016113af906135de565b60405180910390fd5b6001600360010160008282546113ce9190613b2e565b9250508190555034600360020160008282546113ea9190613b2e565b92505081905550346006838154811061140657611405613563565b5b90600052602060002090600b020160060160008282546114269190613b2e565b9250508190555060016006838154811061144357611442613563565b5b90600052602060002090600b020160090160008282546114639190613b2e565b925050819055506008600083815260200190815260200160002060405180608001604052803373ffffffffffffffffffffffffffffffffffffffff16815260200134815260200142815260200160001515815250908060018154018082558091505060019003906000526020600020906004020160009091909190915060008201518160000160006101000a81548173ffffffffffffffffffffffffffffffffffffffff021916908373ffffffffffffffffffffffffffffffffffffffff160217905550602082015181600101556040820151816002015560608201518160030160006101000a81548160ff02191690831515021790555050507fe8213139448ae88df06f4bbd25f13213a4c252a193ed0f03ef617c5d70ecf01282334260405161159093929190613cce565b60405180910390a1600682815481106115ac576115ab613563565b5b90600052602060002090600b020160050154600683815481106115d2576115d1613563565b5b90600052602060002090600b02016006015410611649576001600683815481106115ff576115fe613563565b5b90600052602060002090600b0201600a0160006101000a81548160ff02191690836004811115611632576116316128bb565b5b0217905550611640826123ab565b600190506116da565b6006828154811061165d5761165c613563565b5b90600052602060002090600b02016008015442106116d55760026006838154811061168b5761168a613563565b5b90600052602060002090600b0201600a0160006101000a81548160ff021916908360048111156116be576116bd6128bb565b5b02179055506116cc82612214565b600190506116da565b600190505b919050565b6000600260048111156116f5576116f46128bb565b5b6006838154811061170957611708613563565b5b90600052602060002090600b0201600a0160009054906101000a900460ff16600481111561173a576117396128bb565b5b1415801561179f575060036004811115611757576117566128bb565b5b6006838154811061176b5761176a613563565b5b90600052602060002090600b0201600a0160009054906101000a900460ff16600481111561179c5761179b6128bb565b5b14155b6117de576040517f08c379a00000000000000000000000000000000000000000000000000000000081526004016117d590613d77565b60405180910390fd5b6002600683815481106117f4576117f3613563565b5b90600052602060002090600b0201600a0160006101000a81548160ff02191690836004811115611827576118266128bb565b5b021790555061183582612214565b60019050919050565b600060016004811115611854576118536128bb565b5b6006838154811061186857611867613563565b5b90600052602060002090600b0201600a0160009054906101000a900460ff166004811115611899576118986128bb565b5b146118d9576040517f08c379a00000000000000000000000000000000000000000000000000000000081526004016118d090613de3565b60405180910390fd5b600682815481106118ed576118ec613563565b5b90600052602060002090600b020160010160009054906101000a900473ffffffffffffffffffffffffffffffffffffffff1673ffffffffffffffffffffffffffffffffffffffff163373ffffffffffffffffffffffffffffffffffffffff1614806119a3575060008054906101000a900473ffffffffffffffffffffffffffffffffffffffff1673ffffffffffffffffffffffffffffffffffffffff163373ffffffffffffffffffffffffffffffffffffffff16145b6119e2576040517f08c379a00000000000000000000000000000000000000000000000000000000081526004016119d99061364a565b60405180910390fd5b6119eb826123ab565b60019050919050565b606060086000838152602001908152602001600020805480602002602001604051908101604052809291908181526020016000905b82821015611ae057838290600052602060002090600402016040518060800160405290816000820160009054906101000a900473ffffffffffffffffffffffffffffffffffffffff1673ffffffffffffffffffffffffffffffffffffffff1673ffffffffffffffffffffffffffffffffffffffff16815260200160018201548152602001600282015481526020016003820160009054906101000a900460ff16151515158152505081526020019060010190611a29565b505050509050919050565b60015481565b60038060000154908060010154908060020154905083565b60606006805480602002602001604051908101604052809291908181526020016000905b82821015611e2a57838290600052602060002090600b020160405180610160016040529081600082015481526020016001820160009054906101000a900473ffffffffffffffffffffffffffffffffffffffff1673ffffffffffffffffffffffffffffffffffffffff1673ffffffffffffffffffffffffffffffffffffffff168152602001600282018054611bc1906134c6565b80601f0160208091040260200160405190810160405280929190818152602001828054611bed906134c6565b8015611c3a5780601f10611c0f57610100808354040283529160200191611c3a565b820191906000526020600020905b815481529060010190602001808311611c1d57829003601f168201915b50505050508152602001600382018054611c53906134c6565b80601f0160208091040260200160405190810160405280929190818152602001828054611c7f906134c6565b8015611ccc5780601f10611ca157610100808354040283529160200191611ccc565b820191906000526020600020905b815481529060010190602001808311611caf57829003601f168201915b5050505050815260200160048201805480602002602001604051908101604052809291908181526020016000905b82821015611da6578382906000526020600020018054611d19906134c6565b80601f0160208091040260200160405190810160405280929190818152602001828054611d45906134c6565b8015611d925780601f10611d6757610100808354040283529160200191611d92565b820191906000526020600020905b815481529060010190602001808311611d7557829003601f168201915b505050505081526020019060010190611cfa565b5050505081526020016005820154815260200160068201548152602001600782015481526020016008820154815260200160098201548152602001600a820160009054906101000a900460ff166004811115611e0557611e046128bb565b5b6004811115611e1757611e166128bb565b5b8152505081526020019060010190611b2d565b50505050905090565b611e3b612661565b6009600083815260200190815260200160002060009054906101000a900460ff16611e9b576040517f08c379a0000000000000000000000000000000000000000000000000000000008152600401611e9290613cae565b60405180910390fd5b60068281548110611eaf57611eae613563565b5b90600052602060002090600b020160405180610160016040529081600082015481526020016001820160009054906101000a900473ffffffffffffffffffffffffffffffffffffffff1673ffffffffffffffffffffffffffffffffffffffff1673ffffffffffffffffffffffffffffffffffffffff168152602001600282018054611f39906134c6565b80601f0160208091040260200160405190810160405280929190818152602001828054611f65906134c6565b8015611fb25780601f10611f8757610100808354040283529160200191611fb2565b820191906000526020600020905b815481529060010190602001808311611f9557829003601f168201915b50505050508152602001600382018054611fcb906134c6565b80601f0160208091040260200160405190810160405280929190818152602001828054611ff7906134c6565b80156120445780601f1061201957610100808354040283529160200191612044565b820191906000526020600020905b81548152906001019060200180831161202757829003601f168201915b5050505050815260200160048201805480602002602001604051908101604052809291908181526020016000905b8282101561211e578382906000526020600020018054612091906134c6565b80601f01602080910402602001604051908101604052809291908181526020018280546120bd906134c6565b801561210a5780601f106120df5761010080835404028352916020019161210a565b820191906000526020600020905b8154815290600101906020018083116120ed57829003601f168201915b505050505081526020019060010190612072565b5050505081526020016005820154815260200160068201548152602001600782015481526020016008820154815260200160098201548152602001600a820160009054906101000a900460ff16600481111561217d5761217c6128bb565b5b600481111561218f5761218e6128bb565b5b815250509050919050565b600860205281600052604060002081815481106121b657600080fd5b9060005260206000209060040201600091509150508060000160009054906101000a900473ffffffffffffffffffffffffffffffffffffffff16908060010154908060020154908060030160009054906101000a900460ff16905084565b60005b60086000838152602001908152602001600020805490508110156123a757600060086000848152602001908152602001600020828154811061225c5761225b613563565b5b906000526020600020906004020160000160009054906101000a900473ffffffffffffffffffffffffffffffffffffffff16905060006008600085815260200190815260200160002083815481106122b7576122b6613563565b5b906000526020600020906004020160010154905060016008600086815260200190815260200160002084815481106122f2576122f1613563565b5b906000526020600020906004020160030160006101000a81548160ff021916908315150217905550426008600086815260200190815260200160002084815481106123405761233f613563565b5b90600052602060002090600402016002018190555061235f8282612557565b6001600360010160008282546123759190613e03565b9250508190555080600360020160008282546123919190613e03565b9250508190555050508080600101915050612217565b5050565b6000600682815481106123c1576123c0613563565b5b90600052602060002090600b020160060154905060006064600154836123e79190613e37565b6123f19190613ea8565b905060046006848154811061240957612408613563565b5b90600052602060002090600b0201600a0160006101000a81548160ff0219169083600481111561243c5761243b6128bb565b5b021790555061249b6006848154811061245857612457613563565b5b90600052602060002090600b020160010160009054906101000a900473ffffffffffffffffffffffffffffffffffffffff1682846124969190613e03565b612557565b6124c560008054906101000a900473ffffffffffffffffffffffffffffffffffffffff1682612557565b7fea92b548a4f5c76c7714148900ec90179b8b1d1bc117c625021352b7e039369483600685815481106124fb576124fa613563565b5b90600052602060002090600b020160010160009054906101000a900473ffffffffffffffffffffffffffffffffffffffff1683856125399190613e03565b4260405161254a9493929190613ed9565b60405180910390a1505050565b60008273ffffffffffffffffffffffffffffffffffffffff168260405161257d90613f4f565b60006040518083038185875af1925050503d80600081146125ba576040519150601f19603f3d011682016040523d82523d6000602084013e6125bf565b606091505b5050905080612603576040517f08c379a00000000000000000000000000000000000000000000000000000000081526004016125fa90613fb0565b60405180910390fd5b505050565b828054828255906000526020600020908101928215612650579160200282015b8281111561264f57825182908161263f9190613983565b5091602001919060010190612628565b5b50905061265d91906126e3565b5090565b60405180610160016040528060008152602001600073ffffffffffffffffffffffffffffffffffffffff1681526020016060815260200160608152602001606081526020016000815260200160008152602001600081526020016000815260200160008152602001600060048111156126dd576126dc6128bb565b5b81525090565b5b8082111561270357600081816126fa9190612707565b506001016126e4565b5090565b508054612713906134c6565b6000825580601f106127255750612744565b601f0160209004906000526020600020908101906127439190612747565b5b50565b5b80821115612760576000816000905550600101612748565b5090565b6000604051905090565b600080fd5b600080fd5b6000819050919050565b61278b81612778565b811461279657600080fd5b50565b6000813590506127a881612782565b92915050565b6000602082840312156127c4576127c361276e565b5b60006127d284828501612799565b91505092915050565b6127e481612778565b82525050565b600073ffffffffffffffffffffffffffffffffffffffff82169050919050565b6000612815826127ea565b9050919050565b6128258161280a565b82525050565b600081519050919050565b600082825260208201905092915050565b60005b8381101561286557808201518184015260208101905061284a565b60008484015250505050565b6000601f19601f8301169050919050565b600061288d8261282b565b6128978185612836565b93506128a7818560208601612847565b6128b081612871565b840191505092915050565b7f4e487b7100000000000000000000000000000000000000000000000000000000600052602160045260246000fd5b600581106128fb576128fa6128bb565b5b50565b600081905061290c826128ea565b919050565b600061291c826128fe565b9050919050565b61292c81612911565b82525050565b600061014082019050612948600083018d6127db565b612955602083018c61281c565b8181036040830152612967818b612882565b9050818103606083015261297b818a612882565b905061298a60808301896127db565b61299760a08301886127db565b6129a460c08301876127db565b6129b160e08301866127db565b6129bf6101008301856127db565b6129cd610120830184612923565b9b9a5050505050505050505050565b60006020820190506129f160008301846127db565b92915050565b60008115159050919050565b612a0c816129f7565b82525050565b6000602082019050612a276000830184612a03565b92915050565b600080fd5b600080fd5b7f4e487b7100000000000000000000000000000000000000000000000000000000600052604160045260246000fd5b612a6f82612871565b810181811067ffffffffffffffff82111715612a8e57612a8d612a37565b5b80604052505050565b6000612aa1612764565b9050612aad8282612a66565b919050565b600067ffffffffffffffff821115612acd57612acc612a37565b5b612ad682612871565b9050602081019050919050565b82818337600083830152505050565b6000612b05612b0084612ab2565b612a97565b905082815260208101848484011115612b2157612b20612a32565b5b612b2c848285612ae3565b509392505050565b600082601f830112612b4957612b48612a2d565b5b8135612b59848260208601612af2565b91505092915050565b600067ffffffffffffffff821115612b7d57612b7c612a37565b5b602082029050602081019050919050565b600080fd5b6000612ba6612ba184612b62565b612a97565b90508083825260208201905060208402830185811115612bc957612bc8612b8e565b5b835b81811015612c1057803567ffffffffffffffff811115612bee57612bed612a2d565b5b808601612bfb8982612b34565b85526020850194505050602081019050612bcb565b5050509392505050565b600082601f830112612c2f57612c2e612a2d565b5b8135612c3f848260208601612b93565b91505092915050565b600080600080600060a08688031215612c6457612c6361276e565b5b6000612c7288828901612799565b955050602086013567ffffffffffffffff811115612c9357612c92612773565b5b612c9f88828901612b34565b945050604086013567ffffffffffffffff811115612cc057612cbf612773565b5b612ccc88828901612b34565b935050606086013567ffffffffffffffff811115612ced57612cec612773565b5b612cf988828901612c1a565b9250506080612d0a88828901612799565b9150509295509295909350565b600080600080600060a08688031215612d3357612d3261276e565b5b600086013567ffffffffffffffff811115612d5157612d50612773565b5b612d5d88828901612b34565b955050602086013567ffffffffffffffff811115612d7e57612d7d612773565b5b612d8a88828901612b34565b945050604086013567ffffffffffffffff811115612dab57612daa612773565b5b612db788828901612c1a565b9350506060612dc888828901612799565b9250506080612dd988828901612799565b9150509295509295909350565b6000602082019050612dfb600083018461281c565b92915050565b612e0a8161280a565b8114612e1557600080fd5b50565b600081359050612e2781612e01565b92915050565b60008060408385031215612e4457612e4361276e565b5b6000612e5285828601612e18565b9250506020612e6385828601612799565b9150509250929050565b600081519050919050565b600082825260208201905092915050565b6000819050602082019050919050565b612ea28161280a565b82525050565b612eb181612778565b82525050565b612ec0816129f7565b82525050565b608082016000820151612edc6000850182612e99565b506020820151612eef6020850182612ea8565b506040820151612f026040850182612ea8565b506060820151612f156060850182612eb7565b50505050565b6000612f278383612ec6565b60808301905092915050565b6000602082019050919050565b6000612f4b82612e6d565b612f558185612e78565b9350612f6083612e89565b8060005b83811015612f91578151612f788882612f1b565b9750612f8383612f33565b925050600181019050612f64565b5085935050505092915050565b60006020820190508181036000830152612fb88184612f40565b905092915050565b6000606082019050612fd560008301866127db565b612fe260208301856127db565b612fef60408301846127db565b949350505050565b600081519050919050565b600082825260208201905092915050565b6000819050602082019050919050565b600082825260208201905092915050565b600061303f8261282b565b6130498185613023565b9350613059818560208601612847565b61306281612871565b840191505092915050565b600081519050919050565b600082825260208201905092915050565b6000819050602082019050919050565b60006130a58383613034565b905092915050565b6000602082019050919050565b60006130c58261306d565b6130cf8185613078565b9350836020820285016130e185613089565b8060005b8581101561311d57848403895281516130fe8582613099565b9450613109836130ad565b925060208a019950506001810190506130e5565b50829750879550505050505092915050565b61313881612911565b82525050565b6000610160830160008301516131576000860182612ea8565b50602083015161316a6020860182612e99565b50604083015184820360408601526131828282613034565b9150506060830151848203606086015261319c8282613034565b915050608083015184820360808601526131b682826130ba565b91505060a08301516131cb60a0860182612ea8565b5060c08301516131de60c0860182612ea8565b5060e08301516131f160e0860182612ea8565b50610100830151613206610100860182612ea8565b5061012083015161321b610120860182612ea8565b5061014083015161323061014086018261312f565b508091505092915050565b6000613247838361313e565b905092915050565b6000602082019050919050565b600061326782612ff7565b6132718185613002565b93508360208202850161328385613013565b8060005b858110156132bf57848403895281516132a0858261323b565b94506132ab8361324f565b925060208a01995050600181019050613287565b50829750879550505050505092915050565b600060208201905081810360008301526132eb818461325c565b905092915050565b60006101608301600083015161330c6000860182612ea8565b50602083015161331f6020860182612e99565b50604083015184820360408601526133378282613034565b915050606083015184820360608601526133518282613034565b9150506080830151848203608086015261336b82826130ba565b91505060a083015161338060a0860182612ea8565b5060c083015161339360c0860182612ea8565b5060e08301516133a660e0860182612ea8565b506101008301516133bb610100860182612ea8565b506101208301516133d0610120860182612ea8565b506101408301516133e561014086018261312f565b508091505092915050565b6000602082019050818103600083015261340a81846132f3565b905092915050565b600080604083850312156134295761342861276e565b5b600061343785828601612799565b925050602061344885828601612799565b9150509250929050565b6000608082019050613467600083018761281c565b61347460208301866127db565b61348160408301856127db565b61348e6060830184612a03565b95945050505050565b7f4e487b7100000000000000000000000000000000000000000000000000000000600052602260045260246000fd5b600060028204905060018216806134de57607f821691505b6020821081036134f1576134f0613497565b5b50919050565b7f41636365737320526573657276656420746f204f776e65720000000000000000600082015250565b600061352d601883612836565b9150613538826134f7565b602082019050919050565b6000602082019050818103600083015261355c81613520565b9050919050565b7f4e487b7100000000000000000000000000000000000000000000000000000000600052603260045260246000fd5b7f50726f6a656374206e6f206c6f6e676572206f70656e65640000000000000000600082015250565b60006135c8601883612836565b91506135d382613592565b602082019050919050565b600060208201905081810360008301526135f7816135bb565b9050919050565b7f556e617574686f72697a656420456e7469747900000000000000000000000000600082015250565b6000613634601383612836565b915061363f826135fe565b602082019050919050565b6000602082019050818103600083015261366381613627565b9050919050565b600060408201905061367f60008301856127db565b61368c60208301846127db565b9392505050565b7f5469746c652063616e6e6f7420626520656d7074790000000000000000000000600082015250565b60006136c9601583612836565b91506136d482613693565b602082019050919050565b600060208201905081810360008301526136f8816136bc565b9050919050565b7f4465736372697074696f6e2063616e6e6f7420626520656d7074790000000000600082015250565b6000613735601b83612836565b9150613740826136ff565b602082019050919050565b6000602082019050818103600083015261376481613728565b9050919050565b7f496d61676555524c732063616e6e6f7420626520656d70747900000000000000600082015250565b60006137a1601983612836565b91506137ac8261376b565b602082019050919050565b600060208201905081810360008301526137d081613794565b9050919050565b60008190508160005260206000209050919050565b60006020601f8301049050919050565b600082821b905092915050565b6000600883026138397fffffffffffffffffffffffffffffffffffffffffffffffffffffffffffffffff826137fc565b61384386836137fc565b95508019841693508086168417925050509392505050565b6000819050919050565b600061388061387b61387684612778565b61385b565b612778565b9050919050565b6000819050919050565b61389a83613865565b6138ae6138a682613887565b848454613809565b825550505050565b600090565b6138c36138b6565b6138ce818484613891565b505050565b5b818110156138f2576138e76000826138bb565b6001810190506138d4565b5050565b601f82111561393757613908816137d7565b613911846137ec565b81016020851015613920578190505b61393461392c856137ec565b8301826138d3565b50505b505050565b600082821c905092915050565b600061395a6000198460080261393c565b1980831691505092915050565b60006139738383613949565b9150826002028217905092915050565b61398c8261282b565b67ffffffffffffffff8111156139a5576139a4612a37565b5b6139af82546134c6565b6139ba8282856138f6565b600060209050601f8311600181146139ed57600084156139db578287015190505b6139e58582613967565b865550613a4d565b601f1984166139fb866137d7565b60005b82811015613a23578489015182556001820191506020850194506020810190506139fe565b86831015613a405784890151613a3c601f891682613949565b8355505b6001600288020188555050505b505050505050565b6000606082019050613a6a60008301866127db565b8181036020830152613a7c8185612882565b9050613a8b60408301846127db565b949350505050565b7f436f73742063616e6e6f74206265207a65726f00000000000000000000000000600082015250565b6000613ac9601383612836565b9150613ad482613a93565b602082019050919050565b60006020820190508181036000830152613af881613abc565b9050919050565b7f4e487b7100000000000000000000000000000000000000000000000000000000600052601160045260246000fd5b6000613b3982612778565b9150613b4483612778565b9250828201905080821115613b5c57613b5b613aff565b5b92915050565b6000608082019050613b7760008301876127db565b613b84602083018661281c565b8181036040830152613b968185612882565b9050613ba560608301846127db565b95945050505050565b6000613bb982612778565b91507fffffffffffffffffffffffffffffffffffffffffffffffffffffffffffffffff8203613beb57613bea613aff565b5b600182019050919050565b7f4574686572206d7573742062652067726561746572207468616e207a65726f00600082015250565b6000613c2c601f83612836565b9150613c3782613bf6565b602082019050919050565b60006020820190508181036000830152613c5b81613c1f565b9050919050565b7f50726f6a656374206e6f7420666f756e64000000000000000000000000000000600082015250565b6000613c98601183612836565b9150613ca382613c62565b602082019050919050565b60006020820190508181036000830152613cc781613c8b565b9050919050565b6000606082019050613ce360008301866127db565b613cf0602083018561281c565b613cfd60408301846127db565b949350505050565b7f50726f6a65637420616c7265616479206d61726b65642061732072657665727460008201527f65642f64656c6574656400000000000000000000000000000000000000000000602082015250565b6000613d61602a83612836565b9150613d6c82613d05565b604082019050919050565b60006020820190508181036000830152613d9081613d54565b9050919050565b7f50726f6a656374206e6f7420415050524f564544000000000000000000000000600082015250565b6000613dcd601483612836565b9150613dd882613d97565b602082019050919050565b60006020820190508181036000830152613dfc81613dc0565b9050919050565b6000613e0e82612778565b9150613e1983612778565b9250828203905081811115613e3157613e30613aff565b5b92915050565b6000613e4282612778565b9150613e4d83612778565b9250828202613e5b81612778565b91508282048414831517613e7257613e71613aff565b5b5092915050565b7f4e487b7100000000000000000000000000000000000000000000000000000000600052601260045260246000fd5b6000613eb382612778565b9150613ebe83612778565b925082613ece57613ecd613e79565b5b828204905092915050565b6000608082019050613eee60008301876127db565b613efb602083018661281c565b613f0860408301856127db565b613f1560608301846127db565b95945050505050565b600081905092915050565b50565b6000613f39600083613f1e565b9150613f4482613f29565b600082019050919050565b6000613f5a82613f2c565b9150819050919050565b7f5061796d656e74206661696c6564000000000000000000000000000000000000600082015250565b6000613f9a600e83612836565b9150613fa582613f64565b602082019050919050565b60006020820190508181036000830152613fc981613f8d565b905091905056fea2646970667358221220f05e9968737d4d5c83ab46ff0841fce62235999c3604302351c976113ac27d0e64736f6c63430008180033",
  "linkReferences": {},
  "deployedLinkReferences": {}
}