{
  "_format": "hh-sol-artifact-1",
  "contractName": "BlockPledge",
  "sourceName": "app/contracts/BlockPledge.sol",
  "abi": [
    {
      "inputs": [
        {
          "internalType": "uint256",
          "name": "_projectTax",
          "type": "uint256"
        }
      ],
      "stateMutability": "nonpayable",
      "type": "constructor"
    },
    {
      "anonymous": false,
      "inputs": [
        {
          "indexed": false,
          "internalType": "uint256",
          "name": "id",
          "type": "uint256"
        },
        {
          "indexed": false,
          "internalType": "address",
          "name": "backer",
          "type": "address"
        },
        {
          "indexed": false,
          "internalType": "string",
          "name": "comment",
          "type": "string"
        },
        {
          "indexed": false,
          "internalType": "uint256",
          "name": "timestamp",
          "type": "uint256"
        }
      ],
      "name": "ProjectBacked",
      "type": "event"
    },
    {
      "anonymous": false,
      "inputs": [
        {
          "indexed": false,
          "internalType": "uint256",
          "name": "id",
          "type": "uint256"
        },
        {
          "indexed": false,
          "internalType": "address",
          "name": "owner",
          "type": "address"
        },
        {
          "indexed": false,
          "internalType": "string",
          "name": "title",
          "type": "string"
        },
        {
          "indexed": false,
          "internalType": "uint256",
          "name": "timestamp",
          "type": "uint256"
        }
      ],
      "name": "ProjectCreated",
      "type": "event"
    },
    {
      "anonymous": false,
      "inputs": [
        {
          "indexed": false,
          "internalType": "uint256",
          "name": "id",
          "type": "uint256"
        },
        {
          "indexed": false,
          "internalType": "uint256",
          "name": "timestamp",
          "type": "uint256"
        }
      ],
      "name": "ProjectDeleted",
      "type": "event"
    },
    {
      "anonymous": false,
      "inputs": [
        {
          "indexed": false,
          "internalType": "uint256",
          "name": "id",
          "type": "uint256"
        },
        {
          "indexed": false,
          "internalType": "address",
          "name": "recipient",
          "type": "address"
        },
        {
          "indexed": false,
          "internalType": "uint256",
          "name": "amount",
          "type": "uint256"
        },
        {
          "indexed": false,
          "internalType": "uint256",
          "name": "timestamp",
          "type": "uint256"
        }
      ],
      "name": "ProjectPaidOut",
      "type": "event"
    },
    {
      "anonymous": false,
      "inputs": [
        {
          "indexed": false,
          "internalType": "uint256",
          "name": "id",
          "type": "uint256"
        },
        {
          "indexed": false,
          "internalType": "string",
          "name": "title",
          "type": "string"
        },
        {
          "indexed": false,
          "internalType": "uint256",
          "name": "timestamp",
          "type": "uint256"
        }
      ],
      "name": "ProjectUpdated",
      "type": "event"
    },
    {
      "inputs": [
        {
          "internalType": "uint256",
          "name": "_id",
          "type": "uint256"
        },
        {
          "internalType": "string",
          "name": "_comment",
          "type": "string"
        }
      ],
      "name": "backProject",
      "outputs": [
        {
          "internalType": "bool",
          "name": "",
          "type": "bool"
        }
      ],
      "stateMutability": "payable",
      "type": "function"
    },
    {
      "inputs": [
        {
          "internalType": "uint256",
          "name": "",
          "type": "uint256"
        },
        {
          "internalType": "uint256",
          "name": "",
          "type": "uint256"
        }
      ],
      "name": "backersOf",
      "outputs": [
        {
          "internalType": "address",
          "name": "backer",
          "type": "address"
        },
        {
          "internalType": "uint256",
          "name": "contribution",
          "type": "uint256"
        },
        {
          "internalType": "uint256",
          "name": "timestamp",
          "type": "uint256"
        },
        {
          "internalType": "string",
          "name": "comment",
          "type": "string"
        },
        {
          "internalType": "bool",
          "name": "refunded",
          "type": "bool"
        }
      ],
      "stateMutability": "view",
      "type": "function"
    },
    {
      "inputs": [
        {
          "internalType": "uint256",
          "name": "",
          "type": "uint256"
        }
      ],
      "name": "categories",
      "outputs": [
        {
          "internalType": "uint256",
          "name": "id",
          "type": "uint256"
        },
        {
          "internalType": "string",
          "name": "name",
          "type": "string"
        }
      ],
      "stateMutability": "view",
      "type": "function"
    },
    {
      "inputs": [
        {
          "internalType": "uint256",
          "name": "_taxPct",
          "type": "uint256"
        }
      ],
      "name": "changeTax",
      "outputs": [],
      "stateMutability": "nonpayable",
      "type": "function"
    },
    {
      "inputs": [
        {
          "internalType": "string",
          "name": "_title",
          "type": "string"
        },
        {
          "internalType": "string",
          "name": "_description",
          "type": "string"
        },
        {
          "internalType": "string[]",
          "name": "_imageURLs",
          "type": "string[]"
        },
        {
          "internalType": "uint256",
          "name": "_category",
          "type": "uint256"
        },
        {
          "internalType": "uint256",
          "name": "_cost",
          "type": "uint256"
        },
        {
          "internalType": "uint256",
          "name": "_expiresAt",
          "type": "uint256"
        }
      ],
      "name": "createProject",
      "outputs": [
        {
          "internalType": "bool",
          "name": "",
          "type": "bool"
        }
      ],
      "stateMutability": "nonpayable",
      "type": "function"
    },
    {
      "inputs": [
        {
          "internalType": "uint256",
          "name": "_id",
          "type": "uint256"
        }
      ],
      "name": "deleteProject",
      "outputs": [
        {
          "internalType": "bool",
          "name": "",
          "type": "bool"
        }
      ],
      "stateMutability": "nonpayable",
      "type": "function"
    },
    {
      "inputs": [
        {
          "internalType": "uint256",
          "name": "_id",
          "type": "uint256"
        }
      ],
      "name": "getBackers",
      "outputs": [
        {
          "components": [
            {
              "internalType": "address",
              "name": "backer",
              "type": "address"
            },
            {
              "internalType": "uint256",
              "name": "contribution",
              "type": "uint256"
            },
            {
              "internalType": "uint256",
              "name": "timestamp",
              "type": "uint256"
            },
            {
              "internalType": "string",
              "name": "comment",
              "type": "string"
            },
            {
              "internalType": "bool",
              "name": "refunded",
              "type": "bool"
            }
          ],
          "internalType": "struct BlockPledge.BackerStruct[]",
          "name": "",
          "type": "tuple[]"
        }
      ],
      "stateMutability": "view",
      "type": "function"
    },
    {
      "inputs": [],
      "name": "getCategories",
      "outputs": [
        {
          "components": [
            {
              "internalType": "uint256",
              "name": "id",
              "type": "uint256"
            },
            {
              "internalType": "string",
              "name": "name",
              "type": "string"
            }
          ],
          "internalType": "struct BlockPledge.CategoryStruct[]",
          "name": "",
          "type": "tuple[]"
        }
      ],
      "stateMutability": "view",
      "type": "function"
    },
    {
      "inputs": [
        {
          "internalType": "uint256",
          "name": "_id",
          "type": "uint256"
        }
      ],
      "name": "getProject",
      "outputs": [
        {
          "components": [
            {
              "internalType": "uint256",
              "name": "id",
              "type": "uint256"
            },
            {
              "internalType": "address",
              "name": "owner",
              "type": "address"
            },
            {
              "internalType": "string",
              "name": "title",
              "type": "string"
            },
            {
              "internalType": "string",
              "name": "description",
              "type": "string"
            },
            {
              "internalType": "string[]",
              "name": "imageURLs",
              "type": "string[]"
            },
            {
              "internalType": "uint256",
              "name": "cost",
              "type": "uint256"
            },
            {
              "internalType": "uint256",
              "name": "raised",
              "type": "uint256"
            },
            {
              "internalType": "uint256",
              "name": "timestamp",
              "type": "uint256"
            },
            {
              "internalType": "uint256",
              "name": "expiresAt",
              "type": "uint256"
            },
            {
              "internalType": "uint256",
              "name": "backers",
              "type": "uint256"
            },
            {
              "internalType": "uint256",
              "name": "categoryId",
              "type": "uint256"
            },
            {
              "internalType": "enum BlockPledge.StatusEnum",
              "name": "status",
              "type": "uint8"
            }
          ],
          "internalType": "struct BlockPledge.ProjectStruct",
          "name": "",
          "type": "tuple"
        }
      ],
      "stateMutability": "view",
      "type": "function"
    },
    {
      "inputs": [],
      "name": "getProjects",
      "outputs": [
        {
          "components": [
            {
              "internalType": "uint256",
              "name": "id",
              "type": "uint256"
            },
            {
              "internalType": "address",
              "name": "owner",
              "type": "address"
            },
            {
              "internalType": "string",
              "name": "title",
              "type": "string"
            },
            {
              "internalType": "string",
              "name": "description",
              "type": "string"
            },
            {
              "internalType": "string[]",
              "name": "imageURLs",
              "type": "string[]"
            },
            {
              "internalType": "uint256",
              "name": "cost",
              "type": "uint256"
            },
            {
              "internalType": "uint256",
              "name": "raised",
              "type": "uint256"
            },
            {
              "internalType": "uint256",
              "name": "timestamp",
              "type": "uint256"
            },
            {
              "internalType": "uint256",
              "name": "expiresAt",
              "type": "uint256"
            },
            {
              "internalType": "uint256",
              "name": "backers",
              "type": "uint256"
            },
            {
              "internalType": "uint256",
              "name": "categoryId",
              "type": "uint256"
            },
            {
              "internalType": "enum BlockPledge.StatusEnum",
              "name": "status",
              "type": "uint8"
            }
          ],
          "internalType": "struct BlockPledge.ProjectStruct[]",
          "name": "",
          "type": "tuple[]"
        }
      ],
      "stateMutability": "view",
      "type": "function"
    },
    {
      "inputs": [],
      "name": "owner",
      "outputs": [
        {
          "internalType": "address",
          "name": "",
          "type": "address"
        }
      ],
      "stateMutability": "view",
      "type": "function"
    },
    {
      "inputs": [
        {
          "internalType": "uint256",
          "name": "_id",
          "type": "uint256"
        }
      ],
      "name": "payOutProject",
      "outputs": [
        {
          "internalType": "bool",
          "name": "",
          "type": "bool"
        }
      ],
      "stateMutability": "nonpayable",
      "type": "function"
    },
    {
      "inputs": [],
      "name": "projectCount",
      "outputs": [
        {
          "internalType": "uint256",
          "name": "",
          "type": "uint256"
        }
      ],
      "stateMutability": "view",
      "type": "function"
    },
    {
      "inputs": [
        {
          "internalType": "uint256",
          "name": "",
          "type": "uint256"
        }
      ],
      "name": "projectExists",
      "outputs": [
        {
          "internalType": "bool",
          "name": "",
          "type": "bool"
        }
      ],
      "stateMutability": "view",
      "type": "function"
    },
    {
      "inputs": [],
      "name": "projectTax",
      "outputs": [
        {
          "internalType": "uint256",
          "name": "",
          "type": "uint256"
        }
      ],
      "stateMutability": "view",
      "type": "function"
    },
    {
      "inputs": [
        {
          "internalType": "uint256",
          "name": "",
          "type": "uint256"
        }
      ],
      "name": "projects",
      "outputs": [
        {
          "internalType": "uint256",
          "name": "id",
          "type": "uint256"
        },
        {
          "internalType": "address",
          "name": "owner",
          "type": "address"
        },
        {
          "internalType": "string",
          "name": "title",
          "type": "string"
        },
        {
          "internalType": "string",
          "name": "description",
          "type": "string"
        },
        {
          "internalType": "uint256",
          "name": "cost",
          "type": "uint256"
        },
        {
          "internalType": "uint256",
          "name": "raised",
          "type": "uint256"
        },
        {
          "internalType": "uint256",
          "name": "timestamp",
          "type": "uint256"
        },
        {
          "internalType": "uint256",
          "name": "expiresAt",
          "type": "uint256"
        },
        {
          "internalType": "uint256",
          "name": "backers",
          "type": "uint256"
        },
        {
          "internalType": "uint256",
          "name": "categoryId",
          "type": "uint256"
        },
        {
          "internalType": "enum BlockPledge.StatusEnum",
          "name": "status",
          "type": "uint8"
        }
      ],
      "stateMutability": "view",
      "type": "function"
    },
    {
      "inputs": [
        {
          "internalType": "address",
          "name": "",
          "type": "address"
        },
        {
          "internalType": "uint256",
          "name": "",
          "type": "uint256"
        }
      ],
      "name": "projectsOf",
      "outputs": [
        {
          "internalType": "uint256",
          "name": "id",
          "type": "uint256"
        },
        {
          "internalType": "address",
          "name": "owner",
          "type": "address"
        },
        {
          "internalType": "string",
          "name": "title",
          "type": "string"
        },
        {
          "internalType": "string",
          "name": "description",
          "type": "string"
        },
        {
          "internalType": "uint256",
          "name": "cost",
          "type": "uint256"
        },
        {
          "internalType": "uint256",
          "name": "raised",
          "type": "uint256"
        },
        {
          "internalType": "uint256",
          "name": "timestamp",
          "type": "uint256"
        },
        {
          "internalType": "uint256",
          "name": "expiresAt",
          "type": "uint256"
        },
        {
          "internalType": "uint256",
          "name": "backers",
          "type": "uint256"
        },
        {
          "internalType": "uint256",
          "name": "categoryId",
          "type": "uint256"
        },
        {
          "internalType": "enum BlockPledge.StatusEnum",
          "name": "status",
          "type": "uint8"
        }
      ],
      "stateMutability": "view",
      "type": "function"
    },
    {
      "inputs": [
        {
          "internalType": "uint256",
          "name": "_id",
          "type": "uint256"
        }
      ],
      "name": "requestRefund",
      "outputs": [
        {
          "internalType": "bool",
          "name": "",
          "type": "bool"
        }
      ],
      "stateMutability": "nonpayable",
      "type": "function"
    },
    {
      "inputs": [],
      "name": "stats",
      "outputs": [
        {
          "internalType": "uint256",
          "name": "totalProjects",
          "type": "uint256"
        },
        {
          "internalType": "uint256",
          "name": "totalBackings",
          "type": "uint256"
        },
        {
          "internalType": "uint256",
          "name": "totalDonations",
          "type": "uint256"
        }
      ],
      "stateMutability": "view",
      "type": "function"
    },
    {
      "inputs": [
        {
          "internalType": "uint256",
          "name": "_id",
          "type": "uint256"
        },
        {
          "internalType": "string",
          "name": "_description",
          "type": "string"
        },
        {
          "internalType": "string[]",
          "name": "_imageURLs",
          "type": "string[]"
        }
      ],
      "name": "updateProject",
      "outputs": [
        {
          "internalType": "bool",
          "name": "",
          "type": "bool"
        }
      ],
      "stateMutability": "nonpayable",
      "type": "function"
    }
  ],
  "bytecode": "0x60806040523480156200001157600080fd5b5060405162004fe838038062004fe88339818101604052810190620000379190620005db565b336000806101000a81548173ffffffffffffffffffffffffffffffffffffffff021916908373ffffffffffffffffffffffffffffffffffffffff160217905550806001819055506000600c67ffffffffffffffff8111156200009e576200009d6200060d565b5b604051908082528060200260200182016040528015620000d357816020015b6060815260200190600190039081620000bd5790505b5090506040518060400160405280601081526020017f4172742026204372656174697669747900000000000000000000000000000000815250816000815181106200012357620001226200063c565b5b60200260200101819052506040518060400160405280601781526020017f546563686e6f6c6f6779202620496e6e6f766174696f6e000000000000000000815250816001815181106200017b576200017a6200063c565b5b60200260200101819052506040518060400160405280601981526020017f436f6d6d756e697479202620536f6369616c20496d706163740000000000000081525081600281518110620001d357620001d26200063c565b5b60200260200101819052506040518060400160405280601081526020017f46617368696f6e20262044657369676e00000000000000000000000000000000815250816003815181106200022b576200022a6200063c565b5b60200260200101819052506040518060400160405280600f81526020017f466f6f6420262042657665726167650000000000000000000000000000000000815250816004815181106200028357620002826200063c565b5b60200260200101819052506040518060400160405280601681526020017f47616d696e67202620456e7465727461696e6d656e740000000000000000000081525081600581518110620002db57620002da6200063c565b5b60200260200101819052506040518060400160405280601481526020017f54726176656c2026204578706c6f726174696f6e000000000000000000000000815250816006815181106200033357620003326200063c565b5b60200260200101819052506040518060400160405280601481526020017f456475636174696f6e2026204c6561726e696e67000000000000000000000000815250816007815181106200038b576200038a6200063c565b5b60200260200101819052506040518060400160405280601081526020017f4865616c74682026204669746e6573730000000000000000000000000000000081525081600881518110620003e357620003e26200063c565b5b60200260200101819052506040518060400160405280600c81526020017f4372616674732026204449590000000000000000000000000000000000000000815250816009815181106200043b576200043a6200063c565b5b60200260200101819052506040518060400160405280601481526020017f46696e616e6365202620496e766573746d656e7400000000000000000000000081525081600a815181106200049357620004926200063c565b5b60200260200101819052506040518060400160405280600e81526020017f50657473202620416e696d616c7300000000000000000000000000000000000081525081600b81518110620004eb57620004ea6200063c565b5b602002602001018190525060005b81518110156200059257600760405180604001604052808381526020018484815181106200052c576200052b6200063c565b5b60200260200101518152509080600181540180825580915050600190039060005260206000209060020201600090919091909150600082015181600001556020820151816001019081620005819190620008ac565b5050508080600101915050620004f9565b50505062000993565b600080fd5b6000819050919050565b620005b581620005a0565b8114620005c157600080fd5b50565b600081519050620005d581620005aa565b92915050565b600060208284031215620005f457620005f36200059b565b5b60006200060484828501620005c4565b91505092915050565b7f4e487b7100000000000000000000000000000000000000000000000000000000600052604160045260246000fd5b7f4e487b7100000000000000000000000000000000000000000000000000000000600052603260045260246000fd5b600081519050919050565b7f4e487b7100000000000000000000000000000000000000000000000000000000600052602260045260246000fd5b60006002820490506001821680620006be57607f821691505b602082108103620006d457620006d362000676565b5b50919050565b60008190508160005260206000209050919050565b60006020601f8301049050919050565b600082821b905092915050565b6000600883026200073e7fffffffffffffffffffffffffffffffffffffffffffffffffffffffffffffffff82620006ff565b6200074a8683620006ff565b95508019841693508086168417925050509392505050565b6000819050919050565b60006200078d620007876200078184620005a0565b62000762565b620005a0565b9050919050565b6000819050919050565b620007a9836200076c565b620007c1620007b88262000794565b8484546200070c565b825550505050565b600090565b620007d8620007c9565b620007e58184846200079e565b505050565b5b818110156200080d5762000801600082620007ce565b600181019050620007eb565b5050565b601f8211156200085c576200082681620006da565b6200083184620006ef565b8101602085101562000841578190505b620008596200085085620006ef565b830182620007ea565b50505b505050565b600082821c905092915050565b6000620008816000198460080262000861565b1980831691505092915050565b60006200089c83836200086e565b9150826002028217905092915050565b620008b7826200066b565b67ffffffffffffffff811115620008d357620008d26200060d565b5b620008df8254620006a5565b620008ec82828562000811565b600060209050601f8311600181146200092457600084156200090f578287015190505b6200091b85826200088e565b8655506200098b565b601f1984166200093486620006da565b60005b828110156200095e5784890151825560018201915060208501945060208101905062000937565b868310156200097e57848901516200097a601f8916826200086e565b8355505b6001600288020188555050505b505050505050565b61464580620009a36000396000f3fe60806040526004361061011f5760003560e01c8063944173df116100a0578063d24cd3ec11610064578063d24cd3ec14610475578063d80528ae146104a0578063dcc60128146104cd578063f0f3f2c8146104f8578063f9285aa0146105355761011f565b8063944173df14610350578063a4b2409e14610380578063b531dcba146103bd578063c6cdbe5e146103fa578063c9168b72146104385761011f565b80634db0412c116100e75780634db0412c14610239578063703d52af146102645780637326c718146102a15780638da5cb5b146102de5780638e555632146103095761011f565b8063013feda914610124578063107046bd1461016157806336fbad26146101a85780633e45c8af146101d35780634cd0cb28146101fc575b600080fd5b34801561013057600080fd5b5061014b60048036038101906101469190612d63565b610576565b6040516101589190612e09565b60405180910390f35b34801561016d57600080fd5b5061018860048036038101906101839190612e24565b61078a565b60405161019f9b9a99989796959493929190612f97565b60405180910390f35b3480156101b457600080fd5b506101bd610931565b6040516101ca9190613050565b60405180910390f35b3480156101df57600080fd5b506101fa60048036038101906101f59190612e24565b610937565b005b34801561020857600080fd5b50610223600480360381019061021e9190612e24565b6109cf565b6040516102309190612e09565b60405180910390f35b34801561024557600080fd5b5061024e610bb5565b60405161025b91906131c3565b60405180910390f35b34801561027057600080fd5b5061028b60048036038101906102869190612e24565b610cb0565b6040516102989190612e09565b60405180910390f35b3480156102ad57600080fd5b506102c860048036038101906102c391906131e5565b610cd0565b6040516102d59190612e09565b60405180910390f35b3480156102ea57600080fd5b506102f3611216565b60405161030091906132c6565b60405180910390f35b34801561031557600080fd5b50610330600480360381019061032b919061330d565b61123a565b6040516103479b9a99989796959493929190612f97565b60405180910390f35b61036a6004803603810190610365919061334d565b6113ee565b6040516103779190612e09565b60405180910390f35b34801561038c57600080fd5b506103a760048036038101906103a29190612e24565b611871565b6040516103b49190612e09565b60405180910390f35b3480156103c957600080fd5b506103e460048036038101906103df9190612e24565b6119d0565b6040516103f19190612e09565b60405180910390f35b34801561040657600080fd5b50610421600480360381019061041c9190612e24565b611b86565b60405161042f9291906133a9565b60405180910390f35b34801561044457600080fd5b5061045f600480360381019061045a9190612e24565b611c42565b60405161046c919061352f565b60405180910390f35b34801561048157600080fd5b5061048a611dcb565b6040516104979190613050565b60405180910390f35b3480156104ac57600080fd5b506104b5611dd1565b6040516104c493929190613551565b60405180910390f35b3480156104d957600080fd5b506104e2611de9565b6040516104ef919061382d565b60405180910390f35b34801561050457600080fd5b5061051f600480360381019061051a9190612e24565b61211d565b60405161052c9190613961565b60405180910390f35b34801561054157600080fd5b5061055c60048036038101906105579190613983565b61248e565b60405161056d9594939291906139c3565b60405180910390f35b60006006848154811061058c5761058b613a1d565b5b90600052602060002090600c020160010160009054906101000a900473ffffffffffffffffffffffffffffffffffffffff1673ffffffffffffffffffffffffffffffffffffffff163373ffffffffffffffffffffffffffffffffffffffff161461062b576040517f08c379a000000000000000000000000000000000000000000000000000000000815260040161062290613a98565b60405180910390fd5b600083511161066f576040517f08c379a000000000000000000000000000000000000000000000000000000000815260040161066690613b04565b60405180910390fd5b60008251116106b3576040517f08c379a00000000000000000000000000000000000000000000000000000000081526004016106aa90613b70565b60405180910390fd5b82600685815481106106c8576106c7613a1d565b5b90600052602060002090600c020160030190816106e59190613d9c565b5081600685815481106106fb576106fa613a1d565b5b90600052602060002090600c0201600401908051906020019061071f92919061298a565b507f2fc51eab37d48def9d8af982f76cb7dd95c39990cbda0942903fc31591da6922846006868154811061075657610755613a1d565b5b90600052602060002090600c02016002014260405161077793929190613ef2565b60405180910390a1600190509392505050565b6006818154811061079a57600080fd5b90600052602060002090600c02016000915090508060000154908060010160009054906101000a900473ffffffffffffffffffffffffffffffffffffffff16908060020180546107e990613bbf565b80601f016020809104026020016040519081016040528092919081815260200182805461081590613bbf565b80156108625780601f1061083757610100808354040283529160200191610862565b820191906000526020600020905b81548152906001019060200180831161084557829003601f168201915b50505050509080600301805461087790613bbf565b80601f01602080910402602001604051908101604052809291908181526020018280546108a390613bbf565b80156108f05780601f106108c5576101008083540402835291602001916108f0565b820191906000526020600020905b8154815290600101906020018083116108d357829003601f168201915b50505050509080600501549080600601549080600701549080600801549080600901549080600a01549080600b0160009054906101000a900460ff1690508b565b60025481565b60008054906101000a900473ffffffffffffffffffffffffffffffffffffffff1673ffffffffffffffffffffffffffffffffffffffff163373ffffffffffffffffffffffffffffffffffffffff16146109c5576040517f08c379a00000000000000000000000000000000000000000000000000000000081526004016109bc90613f7c565b60405180910390fd5b8060018190555050565b60008060048111156109e4576109e3612f20565b5b600683815481106109f8576109f7613a1d565b5b90600052602060002090600c0201600b0160009054906101000a900460ff166004811115610a2957610a28612f20565b5b14610a69576040517f08c379a0000000000000000000000000000000000000000000000000000000008152600401610a6090613fe8565b60405180910390fd5b60068281548110610a7d57610a7c613a1d565b5b90600052602060002090600c020160010160009054906101000a900473ffffffffffffffffffffffffffffffffffffffff1673ffffffffffffffffffffffffffffffffffffffff163373ffffffffffffffffffffffffffffffffffffffff1614610b1c576040517f08c379a0000000000000000000000000000000000000000000000000000000008152600401610b1390613a98565b60405180910390fd5b600360068381548110610b3257610b31613a1d565b5b90600052602060002090600c0201600b0160006101000a81548160ff02191690836004811115610b6557610b64612f20565b5b0217905550610b7382612596565b7f4484a435bc92a4925b8b18f20baf06d71675934c29cc91d21550d29939098ed08242604051610ba4929190614008565b60405180910390a160019050919050565b60606007805480602002602001604051908101604052809291908181526020016000905b82821015610ca7578382906000526020600020906002020160405180604001604052908160008201548152602001600182018054610c1690613bbf565b80601f0160208091040260200160405190810160405280929190818152602001828054610c4290613bbf565b8015610c8f5780601f10610c6457610100808354040283529160200191610c8f565b820191906000526020600020905b815481529060010190602001808311610c7257829003601f168201915b50505050508152505081526020019060010190610bd9565b50505050905090565b600a6020528060005260406000206000915054906101000a900460ff1681565b600080875111610d15576040517f08c379a0000000000000000000000000000000000000000000000000000000008152600401610d0c9061407d565b60405180910390fd5b6000865111610d59576040517f08c379a0000000000000000000000000000000000000000000000000000000008152600401610d5090613b04565b60405180910390fd5b6000855111610d9d576040517f08c379a0000000000000000000000000000000000000000000000000000000008152600401610d9490613b70565b60405180910390fd5b60008311610de0576040517f08c379a0000000000000000000000000000000000000000000000000000000008152600401610dd7906140e9565b60405180910390fd5b6007805490508410610e27576040517f08c379a0000000000000000000000000000000000000000000000000000000008152600401610e1e90614155565b60405180910390fd5b610e2f6129e3565b60025481600001818152505033816020019073ffffffffffffffffffffffffffffffffffffffff16908173ffffffffffffffffffffffffffffffffffffffff16815250508781604001819052508681606001819052508581608001819052508481610140018181525050838160a0018181525050428160e0018181525050828161010001818152505060068190806001815401808255809150506001900390600052602060002090600c02016000909190919091506000820151816000015560208201518160010160006101000a81548173ffffffffffffffffffffffffffffffffffffffff021916908373ffffffffffffffffffffffffffffffffffffffff1602179055506040820151816002019081610f4a9190613d9c565b506060820151816003019081610f609190613d9c565b506080820151816004019080519060200190610f7d92919061298a565b5060a0820151816005015560c0820151816006015560e082015181600701556101008201518160080155610120820151816009015561014082015181600a015561016082015181600b0160006101000a81548160ff02191690836004811115610fe957610fe8612f20565b5b021790555050506001600a6000600254815260200190815260200160002060006101000a81548160ff021916908315150217905550600860003373ffffffffffffffffffffffffffffffffffffffff1673ffffffffffffffffffffffffffffffffffffffff1681526020019081526020016000208190806001815401808255809150506001900390600052602060002090600c02016000909190919091506000820151816000015560208201518160010160006101000a81548173ffffffffffffffffffffffffffffffffffffffff021916908373ffffffffffffffffffffffffffffffffffffffff16021790555060408201518160020190816110ed9190613d9c565b5060608201518160030190816111039190613d9c565b50608082015181600401908051906020019061112092919061298a565b5060a0820151816005015560c0820151816006015560e082015181600701556101008201518160080155610120820151816009015561014082015181600a015561016082015181600b0160006101000a81548160ff0219169083600481111561118c5761118b612f20565b5b021790555050506001600360000160008282546111a991906141a4565b925050819055507f51d08cb6cfa640a387210fb69df925dfb70169ae7373f8ecd40b977b0c800d9a600254338a426040516111e794939291906141d8565b60405180910390a16002600081548092919061120290614224565b919050555060019150509695505050505050565b60008054906101000a900473ffffffffffffffffffffffffffffffffffffffff1681565b6008602052816000526040600020818154811061125657600080fd5b90600052602060002090600c0201600091509150508060000154908060010160009054906101000a900473ffffffffffffffffffffffffffffffffffffffff16908060020180546112a690613bbf565b80601f01602080910402602001604051908101604052809291908181526020018280546112d290613bbf565b801561131f5780601f106112f45761010080835404028352916020019161131f565b820191906000526020600020905b81548152906001019060200180831161130257829003601f168201915b50505050509080600301805461133490613bbf565b80601f016020809104026020016040519081016040528092919081815260200182805461136090613bbf565b80156113ad5780601f10611382576101008083540402835291602001916113ad565b820191906000526020600020905b81548152906001019060200180831161139057829003601f168201915b50505050509080600501549080600601549080600701549080600801549080600901549080600a01549080600b0160009054906101000a900460ff1690508b565b6000803411611432576040517f08c379a0000000000000000000000000000000000000000000000000000000008152600401611429906142b8565b60405180910390fd5b600a600084815260200190815260200160002060009054906101000a900460ff16611492576040517f08c379a000000000000000000000000000000000000000000000000000000000815260040161148990614324565b60405180910390fd5b600060048111156114a6576114a5612f20565b5b600684815481106114ba576114b9613a1d565b5b90600052602060002090600c0201600b0160009054906101000a900460ff1660048111156114eb576114ea612f20565b5b1461152b576040517f08c379a000000000000000000000000000000000000000000000000000000000815260040161152290613fe8565b60405180910390fd5b60016003600101600082825461154191906141a4565b92505081905550346003600201600082825461155d91906141a4565b92505081905550346006848154811061157957611578613a1d565b5b90600052602060002090600c0201600601600082825461159991906141a4565b925050819055506001600684815481106115b6576115b5613a1d565b5b90600052602060002090600c020160090160008282546115d691906141a4565b92505081905550600960008481526020019081526020016000206040518060a001604052803373ffffffffffffffffffffffffffffffffffffffff16815260200134815260200142815260200184815260200160001515815250908060018154018082558091505060019003906000526020600020906005020160009091909190915060008201518160000160006101000a81548173ffffffffffffffffffffffffffffffffffffffff021916908373ffffffffffffffffffffffffffffffffffffffff160217905550602082015181600101556040820151816002015560608201518160030190816116c99190613d9c565b5060808201518160040160006101000a81548160ff02191690831515021790555050507f74eda1e7b6ff65775d5ce38ece238bad783c4e12a3a754a6f0a469f248f2cdf88333844260405161172194939291906141d8565b60405180910390a16006838154811061173d5761173c613a1d565b5b90600052602060002090600c0201600501546006848154811061176357611762613a1d565b5b90600052602060002090600c020160060154106117da576001600684815481106117905761178f613a1d565b5b90600052602060002090600c0201600b0160006101000a81548160ff021916908360048111156117c3576117c2612f20565b5b02179055506117d18361272d565b6001905061186b565b600683815481106117ee576117ed613a1d565b5b90600052602060002090600c02016008015442106118665760026006848154811061181c5761181b613a1d565b5b90600052602060002090600c0201600b0160006101000a81548160ff0219169083600481111561184f5761184e612f20565b5b021790555061185d83612596565b6001905061186b565b600190505b92915050565b60006002600481111561188757611886612f20565b5b6006838154811061189b5761189a613a1d565b5b90600052602060002090600c0201600b0160009054906101000a900460ff1660048111156118cc576118cb612f20565b5b141580156119315750600360048111156118e9576118e8612f20565b5b600683815481106118fd576118fc613a1d565b5b90600052602060002090600c0201600b0160009054906101000a900460ff16600481111561192e5761192d612f20565b5b14155b611970576040517f08c379a0000000000000000000000000000000000000000000000000000000008152600401611967906143b6565b60405180910390fd5b60026006838154811061198657611985613a1d565b5b90600052602060002090600c0201600b0160006101000a81548160ff021916908360048111156119b9576119b8612f20565b5b02179055506119c782612596565b60019050919050565b6000600160048111156119e6576119e5612f20565b5b600683815481106119fa576119f9613a1d565b5b90600052602060002090600c0201600b0160009054906101000a900460ff166004811115611a2b57611a2a612f20565b5b14611a6b576040517f08c379a0000000000000000000000000000000000000000000000000000000008152600401611a6290614422565b60405180910390fd5b60068281548110611a7f57611a7e613a1d565b5b90600052602060002090600c020160010160009054906101000a900473ffffffffffffffffffffffffffffffffffffffff1673ffffffffffffffffffffffffffffffffffffffff163373ffffffffffffffffffffffffffffffffffffffff161480611b35575060008054906101000a900473ffffffffffffffffffffffffffffffffffffffff1673ffffffffffffffffffffffffffffffffffffffff163373ffffffffffffffffffffffffffffffffffffffff16145b611b74576040517f08c379a0000000000000000000000000000000000000000000000000000000008152600401611b6b90613a98565b60405180910390fd5b611b7d8261272d565b60019050919050565b60078181548110611b9657600080fd5b9060005260206000209060020201600091509050806000015490806001018054611bbf90613bbf565b80601f0160208091040260200160405190810160405280929190818152602001828054611beb90613bbf565b8015611c385780601f10611c0d57610100808354040283529160200191611c38565b820191906000526020600020905b815481529060010190602001808311611c1b57829003601f168201915b5050505050905082565b606060096000838152602001908152602001600020805480602002602001604051908101604052809291908181526020016000905b82821015611dc057838290600052602060002090600502016040518060a00160405290816000820160009054906101000a900473ffffffffffffffffffffffffffffffffffffffff1673ffffffffffffffffffffffffffffffffffffffff1673ffffffffffffffffffffffffffffffffffffffff1681526020016001820154815260200160028201548152602001600382018054611d1490613bbf565b80601f0160208091040260200160405190810160405280929190818152602001828054611d4090613bbf565b8015611d8d5780601f10611d6257610100808354040283529160200191611d8d565b820191906000526020600020905b815481529060010190602001808311611d7057829003601f168201915b505050505081526020016004820160009054906101000a900460ff16151515158152505081526020019060010190611c77565b505050509050919050565b60015481565b60038060000154908060010154908060020154905083565b60606006805480602002602001604051908101604052809291908181526020016000905b8282101561211457838290600052602060002090600c020160405180610180016040529081600082015481526020016001820160009054906101000a900473ffffffffffffffffffffffffffffffffffffffff1673ffffffffffffffffffffffffffffffffffffffff1673ffffffffffffffffffffffffffffffffffffffff168152602001600282018054611ea190613bbf565b80601f0160208091040260200160405190810160405280929190818152602001828054611ecd90613bbf565b8015611f1a5780601f10611eef57610100808354040283529160200191611f1a565b820191906000526020600020905b815481529060010190602001808311611efd57829003601f168201915b50505050508152602001600382018054611f3390613bbf565b80601f0160208091040260200160405190810160405280929190818152602001828054611f5f90613bbf565b8015611fac5780601f10611f8157610100808354040283529160200191611fac565b820191906000526020600020905b815481529060010190602001808311611f8f57829003601f168201915b5050505050815260200160048201805480602002602001604051908101604052809291908181526020016000905b82821015612086578382906000526020600020018054611ff990613bbf565b80601f016020809104026020016040519081016040528092919081815260200182805461202590613bbf565b80156120725780601f1061204757610100808354040283529160200191612072565b820191906000526020600020905b81548152906001019060200180831161205557829003601f168201915b505050505081526020019060010190611fda565b5050505081526020016005820154815260200160068201548152602001600782015481526020016008820154815260200160098201548152602001600a8201548152602001600b820160009054906101000a900460ff1660048111156120ef576120ee612f20565b5b600481111561210157612100612f20565b5b8152505081526020019060010190611e0d565b50505050905090565b6121256129e3565b600a600083815260200190815260200160002060009054906101000a900460ff16612185576040517f08c379a000000000000000000000000000000000000000000000000000000000815260040161217c90614324565b60405180910390fd5b6006828154811061219957612198613a1d565b5b90600052602060002090600c020160405180610180016040529081600082015481526020016001820160009054906101000a900473ffffffffffffffffffffffffffffffffffffffff1673ffffffffffffffffffffffffffffffffffffffff1673ffffffffffffffffffffffffffffffffffffffff16815260200160028201805461222390613bbf565b80601f016020809104026020016040519081016040528092919081815260200182805461224f90613bbf565b801561229c5780601f106122715761010080835404028352916020019161229c565b820191906000526020600020905b81548152906001019060200180831161227f57829003601f168201915b505050505081526020016003820180546122b590613bbf565b80601f01602080910402602001604051908101604052809291908181526020018280546122e190613bbf565b801561232e5780601f106123035761010080835404028352916020019161232e565b820191906000526020600020905b81548152906001019060200180831161231157829003601f168201915b5050505050815260200160048201805480602002602001604051908101604052809291908181526020016000905b8282101561240857838290600052602060002001805461237b90613bbf565b80601f01602080910402602001604051908101604052809291908181526020018280546123a790613bbf565b80156123f45780601f106123c9576101008083540402835291602001916123f4565b820191906000526020600020905b8154815290600101906020018083116123d757829003601f168201915b50505050508152602001906001019061235c565b5050505081526020016005820154815260200160068201548152602001600782015481526020016008820154815260200160098201548152602001600a8201548152602001600b820160009054906101000a900460ff16600481111561247157612470612f20565b5b600481111561248357612482612f20565b5b815250509050919050565b600960205281600052604060002081815481106124aa57600080fd5b9060005260206000209060050201600091509150508060000160009054906101000a900473ffffffffffffffffffffffffffffffffffffffff169080600101549080600201549080600301805461250090613bbf565b80601f016020809104026020016040519081016040528092919081815260200182805461252c90613bbf565b80156125795780601f1061254e57610100808354040283529160200191612579565b820191906000526020600020905b81548152906001019060200180831161255c57829003601f168201915b5050505050908060040160009054906101000a900460ff16905085565b60005b60096000838152602001908152602001600020805490508110156127295760006009600084815260200190815260200160002082815481106125de576125dd613a1d565b5b906000526020600020906005020160000160009054906101000a900473ffffffffffffffffffffffffffffffffffffffff169050600060096000858152602001908152602001600020838154811061263957612638613a1d565b5b9060005260206000209060050201600101549050600160096000868152602001908152602001600020848154811061267457612673613a1d565b5b906000526020600020906005020160040160006101000a81548160ff021916908315150217905550426009600086815260200190815260200160002084815481106126c2576126c1613a1d565b5b9060005260206000209060050201600201819055506126e182826128d9565b6001600360010160008282546126f79190614442565b9250508190555080600360020160008282546127139190614442565b9250508190555050508080600101915050612599565b5050565b60006006828154811061274357612742613a1d565b5b90600052602060002090600c020160060154905060006064600154836127699190614476565b61277391906144e7565b905060046006848154811061278b5761278a613a1d565b5b90600052602060002090600c0201600b0160006101000a81548160ff021916908360048111156127be576127bd612f20565b5b021790555061281d600684815481106127da576127d9613a1d565b5b90600052602060002090600c020160010160009054906101000a900473ffffffffffffffffffffffffffffffffffffffff1682846128189190614442565b6128d9565b61284760008054906101000a900473ffffffffffffffffffffffffffffffffffffffff16826128d9565b7fea92b548a4f5c76c7714148900ec90179b8b1d1bc117c625021352b7e0393694836006858154811061287d5761287c613a1d565b5b90600052602060002090600c020160010160009054906101000a900473ffffffffffffffffffffffffffffffffffffffff1683856128bb9190614442565b426040516128cc9493929190614518565b60405180910390a1505050565b60008273ffffffffffffffffffffffffffffffffffffffff16826040516128ff9061458e565b60006040518083038185875af1925050503d806000811461293c576040519150601f19603f3d011682016040523d82523d6000602084013e612941565b606091505b5050905080612985576040517f08c379a000000000000000000000000000000000000000000000000000000000815260040161297c906145ef565b60405180910390fd5b505050565b8280548282559060005260206000209081019282156129d2579160200282015b828111156129d15782518290816129c19190613d9c565b50916020019190600101906129aa565b5b5090506129df9190612a6c565b5090565b60405180610180016040528060008152602001600073ffffffffffffffffffffffffffffffffffffffff16815260200160608152602001606081526020016060815260200160008152602001600081526020016000815260200160008152602001600081526020016000815260200160006004811115612a6657612a65612f20565b5b81525090565b5b80821115612a8c5760008181612a839190612a90565b50600101612a6d565b5090565b508054612a9c90613bbf565b6000825580601f10612aae5750612acd565b601f016020900490600052602060002090810190612acc9190612ad0565b5b50565b5b80821115612ae9576000816000905550600101612ad1565b5090565b6000604051905090565b600080fd5b600080fd5b6000819050919050565b612b1481612b01565b8114612b1f57600080fd5b50565b600081359050612b3181612b0b565b92915050565b600080fd5b600080fd5b6000601f19601f8301169050919050565b7f4e487b7100000000000000000000000000000000000000000000000000000000600052604160045260246000fd5b612b8a82612b41565b810181811067ffffffffffffffff82111715612ba957612ba8612b52565b5b80604052505050565b6000612bbc612aed565b9050612bc88282612b81565b919050565b600067ffffffffffffffff821115612be857612be7612b52565b5b612bf182612b41565b9050602081019050919050565b82818337600083830152505050565b6000612c20612c1b84612bcd565b612bb2565b905082815260208101848484011115612c3c57612c3b612b3c565b5b612c47848285612bfe565b509392505050565b600082601f830112612c6457612c63612b37565b5b8135612c74848260208601612c0d565b91505092915050565b600067ffffffffffffffff821115612c9857612c97612b52565b5b602082029050602081019050919050565b600080fd5b6000612cc1612cbc84612c7d565b612bb2565b90508083825260208201905060208402830185811115612ce457612ce3612ca9565b5b835b81811015612d2b57803567ffffffffffffffff811115612d0957612d08612b37565b5b808601612d168982612c4f565b85526020850194505050602081019050612ce6565b5050509392505050565b600082601f830112612d4a57612d49612b37565b5b8135612d5a848260208601612cae565b91505092915050565b600080600060608486031215612d7c57612d7b612af7565b5b6000612d8a86828701612b22565b935050602084013567ffffffffffffffff811115612dab57612daa612afc565b5b612db786828701612c4f565b925050604084013567ffffffffffffffff811115612dd857612dd7612afc565b5b612de486828701612d35565b9150509250925092565b60008115159050919050565b612e0381612dee565b82525050565b6000602082019050612e1e6000830184612dfa565b92915050565b600060208284031215612e3a57612e39612af7565b5b6000612e4884828501612b22565b91505092915050565b612e5a81612b01565b82525050565b600073ffffffffffffffffffffffffffffffffffffffff82169050919050565b6000612e8b82612e60565b9050919050565b612e9b81612e80565b82525050565b600081519050919050565b600082825260208201905092915050565b60005b83811015612edb578082015181840152602081019050612ec0565b60008484015250505050565b6000612ef282612ea1565b612efc8185612eac565b9350612f0c818560208601612ebd565b612f1581612b41565b840191505092915050565b7f4e487b7100000000000000000000000000000000000000000000000000000000600052602160045260246000fd5b60058110612f6057612f5f612f20565b5b50565b6000819050612f7182612f4f565b919050565b6000612f8182612f63565b9050919050565b612f9181612f76565b82525050565b600061016082019050612fad600083018e612e51565b612fba602083018d612e92565b8181036040830152612fcc818c612ee7565b90508181036060830152612fe0818b612ee7565b9050612fef608083018a612e51565b612ffc60a0830189612e51565b61300960c0830188612e51565b61301660e0830187612e51565b613024610100830186612e51565b613032610120830185612e51565b613040610140830184612f88565b9c9b505050505050505050505050565b60006020820190506130656000830184612e51565b92915050565b600081519050919050565b600082825260208201905092915050565b6000819050602082019050919050565b6130a081612b01565b82525050565b600082825260208201905092915050565b60006130c282612ea1565b6130cc81856130a6565b93506130dc818560208601612ebd565b6130e581612b41565b840191505092915050565b60006040830160008301516131086000860182613097565b506020830151848203602086015261312082826130b7565b9150508091505092915050565b600061313983836130f0565b905092915050565b6000602082019050919050565b60006131598261306b565b6131638185613076565b93508360208202850161317585613087565b8060005b858110156131b15784840389528151613192858261312d565b945061319d83613141565b925060208a01995050600181019050613179565b50829750879550505050505092915050565b600060208201905081810360008301526131dd818461314e565b905092915050565b60008060008060008060c0878903121561320257613201612af7565b5b600087013567ffffffffffffffff8111156132205761321f612afc565b5b61322c89828a01612c4f565b965050602087013567ffffffffffffffff81111561324d5761324c612afc565b5b61325989828a01612c4f565b955050604087013567ffffffffffffffff81111561327a57613279612afc565b5b61328689828a01612d35565b945050606061329789828a01612b22565b93505060806132a889828a01612b22565b92505060a06132b989828a01612b22565b9150509295509295509295565b60006020820190506132db6000830184612e92565b92915050565b6132ea81612e80565b81146132f557600080fd5b50565b600081359050613307816132e1565b92915050565b6000806040838503121561332457613323612af7565b5b6000613332858286016132f8565b925050602061334385828601612b22565b9150509250929050565b6000806040838503121561336457613363612af7565b5b600061337285828601612b22565b925050602083013567ffffffffffffffff81111561339357613392612afc565b5b61339f85828601612c4f565b9150509250929050565b60006040820190506133be6000830185612e51565b81810360208301526133d08184612ee7565b90509392505050565b600081519050919050565b600082825260208201905092915050565b6000819050602082019050919050565b61340e81612e80565b82525050565b61341d81612dee565b82525050565b600060a08301600083015161343b6000860182613405565b50602083015161344e6020860182613097565b5060408301516134616040860182613097565b506060830151848203606086015261347982826130b7565b915050608083015161348e6080860182613414565b508091505092915050565b60006134a58383613423565b905092915050565b6000602082019050919050565b60006134c5826133d9565b6134cf81856133e4565b9350836020820285016134e1856133f5565b8060005b8581101561351d57848403895281516134fe8582613499565b9450613509836134ad565b925060208a019950506001810190506134e5565b50829750879550505050505092915050565b6000602082019050818103600083015261354981846134ba565b905092915050565b60006060820190506135666000830186612e51565b6135736020830185612e51565b6135806040830184612e51565b949350505050565b600081519050919050565b600082825260208201905092915050565b6000819050602082019050919050565b600081519050919050565b600082825260208201905092915050565b6000819050602082019050919050565b60006135ec83836130b7565b905092915050565b6000602082019050919050565b600061360c826135b4565b61361681856135bf565b935083602082028501613628856135d0565b8060005b85811015613664578484038952815161364585826135e0565b9450613650836135f4565b925060208a0199505060018101905061362c565b50829750879550505050505092915050565b61367f81612f76565b82525050565b60006101808301600083015161369e6000860182613097565b5060208301516136b16020860182613405565b50604083015184820360408601526136c982826130b7565b915050606083015184820360608601526136e382826130b7565b915050608083015184820360808601526136fd8282613601565b91505060a083015161371260a0860182613097565b5060c083015161372560c0860182613097565b5060e083015161373860e0860182613097565b5061010083015161374d610100860182613097565b50610120830151613762610120860182613097565b50610140830151613777610140860182613097565b5061016083015161378c610160860182613676565b508091505092915050565b60006137a38383613685565b905092915050565b6000602082019050919050565b60006137c382613588565b6137cd8185613593565b9350836020820285016137df856135a4565b8060005b8581101561381b57848403895281516137fc8582613797565b9450613807836137ab565b925060208a019950506001810190506137e3565b50829750879550505050505092915050565b6000602082019050818103600083015261384781846137b8565b905092915050565b6000610180830160008301516138686000860182613097565b50602083015161387b6020860182613405565b506040830151848203604086015261389382826130b7565b915050606083015184820360608601526138ad82826130b7565b915050608083015184820360808601526138c78282613601565b91505060a08301516138dc60a0860182613097565b5060c08301516138ef60c0860182613097565b5060e083015161390260e0860182613097565b50610100830151613917610100860182613097565b5061012083015161392c610120860182613097565b50610140830151613941610140860182613097565b50610160830151613956610160860182613676565b508091505092915050565b6000602082019050818103600083015261397b818461384f565b905092915050565b6000806040838503121561399a57613999612af7565b5b60006139a885828601612b22565b92505060206139b985828601612b22565b9150509250929050565b600060a0820190506139d86000830188612e92565b6139e56020830187612e51565b6139f26040830186612e51565b8181036060830152613a048185612ee7565b9050613a136080830184612dfa565b9695505050505050565b7f4e487b7100000000000000000000000000000000000000000000000000000000600052603260045260246000fd5b7f556e617574686f72697a656420456e7469747900000000000000000000000000600082015250565b6000613a82601383612eac565b9150613a8d82613a4c565b602082019050919050565b60006020820190508181036000830152613ab181613a75565b9050919050565b7f4465736372697074696f6e2063616e6e6f7420626520656d7074790000000000600082015250565b6000613aee601b83612eac565b9150613af982613ab8565b602082019050919050565b60006020820190508181036000830152613b1d81613ae1565b9050919050565b7f496d61676555524c732063616e6e6f7420626520656d70747900000000000000600082015250565b6000613b5a601983612eac565b9150613b6582613b24565b602082019050919050565b60006020820190508181036000830152613b8981613b4d565b9050919050565b7f4e487b7100000000000000000000000000000000000000000000000000000000600052602260045260246000fd5b60006002820490506001821680613bd757607f821691505b602082108103613bea57613be9613b90565b5b50919050565b60008190508160005260206000209050919050565b60006020601f8301049050919050565b600082821b905092915050565b600060088302613c527fffffffffffffffffffffffffffffffffffffffffffffffffffffffffffffffff82613c15565b613c5c8683613c15565b95508019841693508086168417925050509392505050565b6000819050919050565b6000613c99613c94613c8f84612b01565b613c74565b612b01565b9050919050565b6000819050919050565b613cb383613c7e565b613cc7613cbf82613ca0565b848454613c22565b825550505050565b600090565b613cdc613ccf565b613ce7818484613caa565b505050565b5b81811015613d0b57613d00600082613cd4565b600181019050613ced565b5050565b601f821115613d5057613d2181613bf0565b613d2a84613c05565b81016020851015613d39578190505b613d4d613d4585613c05565b830182613cec565b50505b505050565b600082821c905092915050565b6000613d7360001984600802613d55565b1980831691505092915050565b6000613d8c8383613d62565b9150826002028217905092915050565b613da582612ea1565b67ffffffffffffffff811115613dbe57613dbd612b52565b5b613dc88254613bbf565b613dd3828285613d0f565b600060209050601f831160018114613e065760008415613df4578287015190505b613dfe8582613d80565b865550613e66565b601f198416613e1486613bf0565b60005b82811015613e3c57848901518255600182019150602085019450602081019050613e17565b86831015613e595784890151613e55601f891682613d62565b8355505b6001600288020188555050505b505050505050565b60008154613e7b81613bbf565b613e858186612eac565b94506001821660008114613ea05760018114613eb657613ee9565b60ff198316865281151560200286019350613ee9565b613ebf85613bf0565b60005b83811015613ee157815481890152600182019150602081019050613ec2565b808801955050505b50505092915050565b6000606082019050613f076000830186612e51565b8181036020830152613f198185613e6e565b9050613f286040830184612e51565b949350505050565b7f41636365737320526573657276656420746f204f776e65720000000000000000600082015250565b6000613f66601883612eac565b9150613f7182613f30565b602082019050919050565b60006020820190508181036000830152613f9581613f59565b9050919050565b7f50726f6a656374206e6f206c6f6e676572206f70656e65640000000000000000600082015250565b6000613fd2601883612eac565b9150613fdd82613f9c565b602082019050919050565b6000602082019050818103600083015261400181613fc5565b9050919050565b600060408201905061401d6000830185612e51565b61402a6020830184612e51565b9392505050565b7f5469746c652063616e6e6f7420626520656d7074790000000000000000000000600082015250565b6000614067601583612eac565b915061407282614031565b602082019050919050565b600060208201905081810360008301526140968161405a565b9050919050565b7f436f73742063616e6e6f74206265207a65726f00000000000000000000000000600082015250565b60006140d3601383612eac565b91506140de8261409d565b602082019050919050565b60006020820190508181036000830152614102816140c6565b9050919050565b7f496e76616c69642063617465676f727920494400000000000000000000000000600082015250565b600061413f601383612eac565b915061414a82614109565b602082019050919050565b6000602082019050818103600083015261416e81614132565b9050919050565b7f4e487b7100000000000000000000000000000000000000000000000000000000600052601160045260246000fd5b60006141af82612b01565b91506141ba83612b01565b92508282019050808211156141d2576141d1614175565b5b92915050565b60006080820190506141ed6000830187612e51565b6141fa6020830186612e92565b818103604083015261420c8185612ee7565b905061421b6060830184612e51565b95945050505050565b600061422f82612b01565b91507fffffffffffffffffffffffffffffffffffffffffffffffffffffffffffffffff820361426157614260614175565b5b600182019050919050565b7f4574686572206d7573742062652067726561746572207468616e207a65726f00600082015250565b60006142a2601f83612eac565b91506142ad8261426c565b602082019050919050565b600060208201905081810360008301526142d181614295565b9050919050565b7f50726f6a656374206e6f7420666f756e64000000000000000000000000000000600082015250565b600061430e601183612eac565b9150614319826142d8565b602082019050919050565b6000602082019050818103600083015261433d81614301565b9050919050565b7f50726f6a65637420616c7265616479206d61726b65642061732072657665727460008201527f65642f64656c6574656400000000000000000000000000000000000000000000602082015250565b60006143a0602a83612eac565b91506143ab82614344565b604082019050919050565b600060208201905081810360008301526143cf81614393565b9050919050565b7f50726f6a656374206e6f7420415050524f564544000000000000000000000000600082015250565b600061440c601483612eac565b9150614417826143d6565b602082019050919050565b6000602082019050818103600083015261443b816143ff565b9050919050565b600061444d82612b01565b915061445883612b01565b92508282039050818111156144705761446f614175565b5b92915050565b600061448182612b01565b915061448c83612b01565b925082820261449a81612b01565b915082820484148315176144b1576144b0614175565b5b5092915050565b7f4e487b7100000000000000000000000000000000000000000000000000000000600052601260045260246000fd5b60006144f282612b01565b91506144fd83612b01565b92508261450d5761450c6144b8565b5b828204905092915050565b600060808201905061452d6000830187612e51565b61453a6020830186612e92565b6145476040830185612e51565b6145546060830184612e51565b95945050505050565b600081905092915050565b50565b600061457860008361455d565b915061458382614568565b600082019050919050565b60006145998261456b565b9150819050919050565b7f5061796d656e74206661696c6564000000000000000000000000000000000000600082015250565b60006145d9600e83612eac565b91506145e4826145a3565b602082019050919050565b60006020820190508181036000830152614608816145cc565b905091905056fea2646970667358221220d211528177b7828f609342dec20415db66315c6c20c42baaba04abb3cf52d70964736f6c63430008180033",
  "linkReferences": {},
  "deployedLinkReferences": {}
}