{
  "_format": "hh-sol-artifact-1",
  "contractName": "BlockPledge",
  "sourceName": "app/contracts/BlockPledge.sol",
  "abi": [
    {
      "inputs": [
        {
          "internalType": "uint256",
          "name": "_projectTax",
          "type": "uint256"
        }
      ],
      "stateMutability": "nonpayable",
      "type": "constructor"
    },
    {
      "anonymous": false,
      "inputs": [
        {
          "indexed": false,
          "internalType": "uint256",
          "name": "id",
          "type": "uint256"
        },
        {
          "indexed": false,
          "internalType": "uint256",
          "name": "timestamp",
          "type": "uint256"
        }
      ],
      "name": "ProjectApproved",
      "type": "event"
    },
    {
      "anonymous": false,
      "inputs": [
        {
          "indexed": false,
          "internalType": "uint256",
          "name": "id",
          "type": "uint256"
        },
        {
          "indexed": false,
          "internalType": "address",
          "name": "backer",
          "type": "address"
        },
        {
          "indexed": false,
          "internalType": "string",
          "name": "comment",
          "type": "string"
        },
        {
          "indexed": false,
          "internalType": "uint256",
          "name": "timestamp",
          "type": "uint256"
        }
      ],
      "name": "ProjectBacked",
      "type": "event"
    },
    {
      "anonymous": false,
      "inputs": [
        {
          "indexed": false,
          "internalType": "uint256",
          "name": "id",
          "type": "uint256"
        },
        {
          "indexed": false,
          "internalType": "address",
          "name": "owner",
          "type": "address"
        },
        {
          "indexed": false,
          "internalType": "string",
          "name": "title",
          "type": "string"
        },
        {
          "indexed": false,
          "internalType": "uint256",
          "name": "timestamp",
          "type": "uint256"
        }
      ],
      "name": "ProjectCreated",
      "type": "event"
    },
    {
      "anonymous": false,
      "inputs": [
        {
          "indexed": false,
          "internalType": "uint256",
          "name": "id",
          "type": "uint256"
        },
        {
          "indexed": false,
          "internalType": "uint256",
          "name": "timestamp",
          "type": "uint256"
        }
      ],
      "name": "ProjectDeleted",
      "type": "event"
    },
    {
      "anonymous": false,
      "inputs": [
        {
          "indexed": false,
          "internalType": "uint256",
          "name": "id",
          "type": "uint256"
        },
        {
          "indexed": false,
          "internalType": "address",
          "name": "recipient",
          "type": "address"
        },
        {
          "indexed": false,
          "internalType": "uint256",
          "name": "amount",
          "type": "uint256"
        },
        {
          "indexed": false,
          "internalType": "uint256",
          "name": "timestamp",
          "type": "uint256"
        }
      ],
      "name": "ProjectPaidOut",
      "type": "event"
    },
    {
      "anonymous": false,
      "inputs": [
        {
          "indexed": false,
          "internalType": "uint256",
          "name": "id",
          "type": "uint256"
        },
        {
          "indexed": false,
          "internalType": "uint256",
          "name": "timestamp",
          "type": "uint256"
        }
      ],
      "name": "ProjectRejected",
      "type": "event"
    },
    {
      "anonymous": false,
      "inputs": [
        {
          "indexed": false,
          "internalType": "uint256",
          "name": "id",
          "type": "uint256"
        },
        {
          "indexed": false,
          "internalType": "string",
          "name": "title",
          "type": "string"
        },
        {
          "indexed": false,
          "internalType": "uint256",
          "name": "timestamp",
          "type": "uint256"
        }
      ],
      "name": "ProjectUpdated",
      "type": "event"
    },
    {
      "inputs": [
        {
          "internalType": "uint256",
          "name": "_id",
          "type": "uint256"
        }
      ],
      "name": "acceptProject",
      "outputs": [
        {
          "internalType": "bool",
          "name": "",
          "type": "bool"
        }
      ],
      "stateMutability": "nonpayable",
      "type": "function"
    },
    {
      "inputs": [
        {
          "internalType": "uint256",
          "name": "_id",
          "type": "uint256"
        },
        {
          "internalType": "string",
          "name": "_comment",
          "type": "string"
        }
      ],
      "name": "backProject",
      "outputs": [
        {
          "internalType": "bool",
          "name": "",
          "type": "bool"
        }
      ],
      "stateMutability": "payable",
      "type": "function"
    },
    {
      "inputs": [
        {
          "internalType": "uint256",
          "name": "",
          "type": "uint256"
        },
        {
          "internalType": "uint256",
          "name": "",
          "type": "uint256"
        }
      ],
      "name": "backersOf",
      "outputs": [
        {
          "internalType": "address",
          "name": "backer",
          "type": "address"
        },
        {
          "internalType": "uint256",
          "name": "contribution",
          "type": "uint256"
        },
        {
          "internalType": "uint256",
          "name": "timestamp",
          "type": "uint256"
        },
        {
          "internalType": "string",
          "name": "comment",
          "type": "string"
        },
        {
          "internalType": "bool",
          "name": "refunded",
          "type": "bool"
        }
      ],
      "stateMutability": "view",
      "type": "function"
    },
    {
      "inputs": [
        {
          "internalType": "uint256",
          "name": "",
          "type": "uint256"
        }
      ],
      "name": "categories",
      "outputs": [
        {
          "internalType": "uint256",
          "name": "id",
          "type": "uint256"
        },
        {
          "internalType": "string",
          "name": "name",
          "type": "string"
        }
      ],
      "stateMutability": "view",
      "type": "function"
    },
    {
      "inputs": [
        {
          "internalType": "uint256",
          "name": "_taxPct",
          "type": "uint256"
        }
      ],
      "name": "changeTax",
      "outputs": [],
      "stateMutability": "nonpayable",
      "type": "function"
    },
    {
      "inputs": [
        {
          "internalType": "string",
          "name": "_title",
          "type": "string"
        },
        {
          "internalType": "string",
          "name": "_description",
          "type": "string"
        },
        {
          "internalType": "string[]",
          "name": "_imageURLs",
          "type": "string[]"
        },
        {
          "internalType": "uint256",
          "name": "_category",
          "type": "uint256"
        },
        {
          "internalType": "uint256",
          "name": "_cost",
          "type": "uint256"
        },
        {
          "internalType": "uint256",
          "name": "_expiresAt",
          "type": "uint256"
        }
      ],
      "name": "createProject",
      "outputs": [
        {
          "internalType": "bool",
          "name": "",
          "type": "bool"
        }
      ],
      "stateMutability": "nonpayable",
      "type": "function"
    },
    {
      "inputs": [
        {
          "internalType": "uint256",
          "name": "_id",
          "type": "uint256"
        }
      ],
      "name": "deleteProject",
      "outputs": [
        {
          "internalType": "bool",
          "name": "",
          "type": "bool"
        }
      ],
      "stateMutability": "nonpayable",
      "type": "function"
    },
    {
      "inputs": [
        {
          "internalType": "uint256",
          "name": "_id",
          "type": "uint256"
        }
      ],
      "name": "getBackers",
      "outputs": [
        {
          "components": [
            {
              "internalType": "address",
              "name": "backer",
              "type": "address"
            },
            {
              "internalType": "uint256",
              "name": "contribution",
              "type": "uint256"
            },
            {
              "internalType": "uint256",
              "name": "timestamp",
              "type": "uint256"
            },
            {
              "internalType": "string",
              "name": "comment",
              "type": "string"
            },
            {
              "internalType": "bool",
              "name": "refunded",
              "type": "bool"
            }
          ],
          "internalType": "struct BlockPledge.BackerStruct[]",
          "name": "",
          "type": "tuple[]"
        }
      ],
      "stateMutability": "view",
      "type": "function"
    },
    {
      "inputs": [],
      "name": "getCategories",
      "outputs": [
        {
          "components": [
            {
              "internalType": "uint256",
              "name": "id",
              "type": "uint256"
            },
            {
              "internalType": "string",
              "name": "name",
              "type": "string"
            }
          ],
          "internalType": "struct BlockPledge.CategoryStruct[]",
          "name": "",
          "type": "tuple[]"
        }
      ],
      "stateMutability": "view",
      "type": "function"
    },
    {
      "inputs": [
        {
          "internalType": "uint256",
          "name": "_id",
          "type": "uint256"
        }
      ],
      "name": "getProject",
      "outputs": [
        {
          "components": [
            {
              "internalType": "uint256",
              "name": "id",
              "type": "uint256"
            },
            {
              "internalType": "address",
              "name": "owner",
              "type": "address"
            },
            {
              "internalType": "string",
              "name": "title",
              "type": "string"
            },
            {
              "internalType": "string",
              "name": "description",
              "type": "string"
            },
            {
              "internalType": "string[]",
              "name": "imageURLs",
              "type": "string[]"
            },
            {
              "internalType": "uint256",
              "name": "cost",
              "type": "uint256"
            },
            {
              "internalType": "uint256",
              "name": "raised",
              "type": "uint256"
            },
            {
              "internalType": "uint256",
              "name": "timestamp",
              "type": "uint256"
            },
            {
              "internalType": "uint256",
              "name": "expiresAt",
              "type": "uint256"
            },
            {
              "internalType": "uint256",
              "name": "backers",
              "type": "uint256"
            },
            {
              "internalType": "uint256",
              "name": "categoryId",
              "type": "uint256"
            },
            {
              "internalType": "enum BlockPledge.StatusEnum",
              "name": "status",
              "type": "uint8"
            }
          ],
          "internalType": "struct BlockPledge.ProjectStruct",
          "name": "",
          "type": "tuple"
        }
      ],
      "stateMutability": "view",
      "type": "function"
    },
    {
      "inputs": [],
      "name": "getProjects",
      "outputs": [
        {
          "components": [
            {
              "internalType": "uint256",
              "name": "id",
              "type": "uint256"
            },
            {
              "internalType": "address",
              "name": "owner",
              "type": "address"
            },
            {
              "internalType": "string",
              "name": "title",
              "type": "string"
            },
            {
              "internalType": "string",
              "name": "description",
              "type": "string"
            },
            {
              "internalType": "string[]",
              "name": "imageURLs",
              "type": "string[]"
            },
            {
              "internalType": "uint256",
              "name": "cost",
              "type": "uint256"
            },
            {
              "internalType": "uint256",
              "name": "raised",
              "type": "uint256"
            },
            {
              "internalType": "uint256",
              "name": "timestamp",
              "type": "uint256"
            },
            {
              "internalType": "uint256",
              "name": "expiresAt",
              "type": "uint256"
            },
            {
              "internalType": "uint256",
              "name": "backers",
              "type": "uint256"
            },
            {
              "internalType": "uint256",
              "name": "categoryId",
              "type": "uint256"
            },
            {
              "internalType": "enum BlockPledge.StatusEnum",
              "name": "status",
              "type": "uint8"
            }
          ],
          "internalType": "struct BlockPledge.ProjectStruct[]",
          "name": "",
          "type": "tuple[]"
        }
      ],
      "stateMutability": "view",
      "type": "function"
    },
    {
      "inputs": [],
      "name": "owner",
      "outputs": [
        {
          "internalType": "address",
          "name": "",
          "type": "address"
        }
      ],
      "stateMutability": "view",
      "type": "function"
    },
    {
      "inputs": [
        {
          "internalType": "uint256",
          "name": "_id",
          "type": "uint256"
        }
      ],
      "name": "payOutProject",
      "outputs": [
        {
          "internalType": "bool",
          "name": "",
          "type": "bool"
        }
      ],
      "stateMutability": "nonpayable",
      "type": "function"
    },
    {
      "inputs": [],
      "name": "projectCount",
      "outputs": [
        {
          "internalType": "uint256",
          "name": "",
          "type": "uint256"
        }
      ],
      "stateMutability": "view",
      "type": "function"
    },
    {
      "inputs": [
        {
          "internalType": "uint256",
          "name": "",
          "type": "uint256"
        }
      ],
      "name": "projectExists",
      "outputs": [
        {
          "internalType": "bool",
          "name": "",
          "type": "bool"
        }
      ],
      "stateMutability": "view",
      "type": "function"
    },
    {
      "inputs": [],
      "name": "projectTax",
      "outputs": [
        {
          "internalType": "uint256",
          "name": "",
          "type": "uint256"
        }
      ],
      "stateMutability": "view",
      "type": "function"
    },
    {
      "inputs": [
        {
          "internalType": "uint256",
          "name": "",
          "type": "uint256"
        }
      ],
      "name": "projects",
      "outputs": [
        {
          "internalType": "uint256",
          "name": "id",
          "type": "uint256"
        },
        {
          "internalType": "address",
          "name": "owner",
          "type": "address"
        },
        {
          "internalType": "string",
          "name": "title",
          "type": "string"
        },
        {
          "internalType": "string",
          "name": "description",
          "type": "string"
        },
        {
          "internalType": "uint256",
          "name": "cost",
          "type": "uint256"
        },
        {
          "internalType": "uint256",
          "name": "raised",
          "type": "uint256"
        },
        {
          "internalType": "uint256",
          "name": "timestamp",
          "type": "uint256"
        },
        {
          "internalType": "uint256",
          "name": "expiresAt",
          "type": "uint256"
        },
        {
          "internalType": "uint256",
          "name": "backers",
          "type": "uint256"
        },
        {
          "internalType": "uint256",
          "name": "categoryId",
          "type": "uint256"
        },
        {
          "internalType": "enum BlockPledge.StatusEnum",
          "name": "status",
          "type": "uint8"
        }
      ],
      "stateMutability": "view",
      "type": "function"
    },
    {
      "inputs": [
        {
          "internalType": "address",
          "name": "",
          "type": "address"
        },
        {
          "internalType": "uint256",
          "name": "",
          "type": "uint256"
        }
      ],
      "name": "projectsOf",
      "outputs": [
        {
          "internalType": "uint256",
          "name": "id",
          "type": "uint256"
        },
        {
          "internalType": "address",
          "name": "owner",
          "type": "address"
        },
        {
          "internalType": "string",
          "name": "title",
          "type": "string"
        },
        {
          "internalType": "string",
          "name": "description",
          "type": "string"
        },
        {
          "internalType": "uint256",
          "name": "cost",
          "type": "uint256"
        },
        {
          "internalType": "uint256",
          "name": "raised",
          "type": "uint256"
        },
        {
          "internalType": "uint256",
          "name": "timestamp",
          "type": "uint256"
        },
        {
          "internalType": "uint256",
          "name": "expiresAt",
          "type": "uint256"
        },
        {
          "internalType": "uint256",
          "name": "backers",
          "type": "uint256"
        },
        {
          "internalType": "uint256",
          "name": "categoryId",
          "type": "uint256"
        },
        {
          "internalType": "enum BlockPledge.StatusEnum",
          "name": "status",
          "type": "uint8"
        }
      ],
      "stateMutability": "view",
      "type": "function"
    },
    {
      "inputs": [
        {
          "internalType": "uint256",
          "name": "_id",
          "type": "uint256"
        }
      ],
      "name": "rejectProject",
      "outputs": [
        {
          "internalType": "bool",
          "name": "",
          "type": "bool"
        }
      ],
      "stateMutability": "nonpayable",
      "type": "function"
    },
    {
      "inputs": [
        {
          "internalType": "uint256",
          "name": "_id",
          "type": "uint256"
        }
      ],
      "name": "requestRefund",
      "outputs": [
        {
          "internalType": "bool",
          "name": "",
          "type": "bool"
        }
      ],
      "stateMutability": "nonpayable",
      "type": "function"
    },
    {
      "inputs": [],
      "name": "stats",
      "outputs": [
        {
          "internalType": "uint256",
          "name": "totalProjects",
          "type": "uint256"
        },
        {
          "internalType": "uint256",
          "name": "totalBackings",
          "type": "uint256"
        },
        {
          "internalType": "uint256",
          "name": "totalDonations",
          "type": "uint256"
        }
      ],
      "stateMutability": "view",
      "type": "function"
    },
    {
      "inputs": [
        {
          "internalType": "uint256",
          "name": "_id",
          "type": "uint256"
        },
        {
          "internalType": "string",
          "name": "_description",
          "type": "string"
        },
        {
          "internalType": "string[]",
          "name": "_imageURLs",
          "type": "string[]"
        }
      ],
      "name": "updateProject",
      "outputs": [
        {
          "internalType": "bool",
          "name": "",
          "type": "bool"
        }
      ],
      "stateMutability": "nonpayable",
      "type": "function"
    }
  ],
  "bytecode": "0x60806040523480156200001157600080fd5b5060405162005548380380620055488339818101604052810190620000379190620005db565b336000806101000a81548173ffffffffffffffffffffffffffffffffffffffff021916908373ffffffffffffffffffffffffffffffffffffffff160217905550806001819055506000600c67ffffffffffffffff8111156200009e576200009d6200060d565b5b604051908082528060200260200182016040528015620000d357816020015b6060815260200190600190039081620000bd5790505b5090506040518060400160405280601081526020017f4172742026204372656174697669747900000000000000000000000000000000815250816000815181106200012357620001226200063c565b5b60200260200101819052506040518060400160405280601781526020017f546563686e6f6c6f6779202620496e6e6f766174696f6e000000000000000000815250816001815181106200017b576200017a6200063c565b5b60200260200101819052506040518060400160405280601981526020017f436f6d6d756e697479202620536f6369616c20496d706163740000000000000081525081600281518110620001d357620001d26200063c565b5b60200260200101819052506040518060400160405280601081526020017f46617368696f6e20262044657369676e00000000000000000000000000000000815250816003815181106200022b576200022a6200063c565b5b60200260200101819052506040518060400160405280600f81526020017f466f6f6420262042657665726167650000000000000000000000000000000000815250816004815181106200028357620002826200063c565b5b60200260200101819052506040518060400160405280601681526020017f47616d696e67202620456e7465727461696e6d656e740000000000000000000081525081600581518110620002db57620002da6200063c565b5b60200260200101819052506040518060400160405280601481526020017f54726176656c2026204578706c6f726174696f6e000000000000000000000000815250816006815181106200033357620003326200063c565b5b60200260200101819052506040518060400160405280601481526020017f456475636174696f6e2026204c6561726e696e67000000000000000000000000815250816007815181106200038b576200038a6200063c565b5b60200260200101819052506040518060400160405280601081526020017f4865616c74682026204669746e6573730000000000000000000000000000000081525081600881518110620003e357620003e26200063c565b5b60200260200101819052506040518060400160405280600c81526020017f4372616674732026204449590000000000000000000000000000000000000000815250816009815181106200043b576200043a6200063c565b5b60200260200101819052506040518060400160405280601481526020017f46696e616e6365202620496e766573746d656e7400000000000000000000000081525081600a815181106200049357620004926200063c565b5b60200260200101819052506040518060400160405280600e81526020017f50657473202620416e696d616c7300000000000000000000000000000000000081525081600b81518110620004eb57620004ea6200063c565b5b602002602001018190525060005b81518110156200059257600760405180604001604052808381526020018484815181106200052c576200052b6200063c565b5b60200260200101518152509080600181540180825580915050600190039060005260206000209060020201600090919091909150600082015181600001556020820151816001019081620005819190620008ac565b5050508080600101915050620004f9565b50505062000993565b600080fd5b6000819050919050565b620005b581620005a0565b8114620005c157600080fd5b50565b600081519050620005d581620005aa565b92915050565b600060208284031215620005f457620005f36200059b565b5b60006200060484828501620005c4565b91505092915050565b7f4e487b7100000000000000000000000000000000000000000000000000000000600052604160045260246000fd5b7f4e487b7100000000000000000000000000000000000000000000000000000000600052603260045260246000fd5b600081519050919050565b7f4e487b7100000000000000000000000000000000000000000000000000000000600052602260045260246000fd5b60006002820490506001821680620006be57607f821691505b602082108103620006d457620006d362000676565b5b50919050565b60008190508160005260206000209050919050565b60006020601f8301049050919050565b600082821b905092915050565b6000600883026200073e7fffffffffffffffffffffffffffffffffffffffffffffffffffffffffffffffff82620006ff565b6200074a8683620006ff565b95508019841693508086168417925050509392505050565b6000819050919050565b60006200078d620007876200078184620005a0565b62000762565b620005a0565b9050919050565b6000819050919050565b620007a9836200076c565b620007c1620007b88262000794565b8484546200070c565b825550505050565b600090565b620007d8620007c9565b620007e58184846200079e565b505050565b5b818110156200080d5762000801600082620007ce565b600181019050620007eb565b5050565b601f8211156200085c576200082681620006da565b6200083184620006ef565b8101602085101562000841578190505b620008596200085085620006ef565b830182620007ea565b50505b505050565b600082821c905092915050565b6000620008816000198460080262000861565b1980831691505092915050565b60006200089c83836200086e565b9150826002028217905092915050565b620008b7826200066b565b67ffffffffffffffff811115620008d357620008d26200060d565b5b620008df8254620006a5565b620008ec82828562000811565b600060209050601f8311600181146200092457600084156200090f578287015190505b6200091b85826200088e565b8655506200098b565b601f1984166200093486620006da565b60005b828110156200095e5784890151825560018201915060208501945060208101905062000937565b868310156200097e57848901516200097a601f8916826200086e565b8355505b6001600288020188555050505b505050505050565b614ba580620009a36000396000f3fe6080604052600436106101355760003560e01c8063944173df116100ab578063d24cd3ec1161006f578063d24cd3ec146104c8578063d80528ae146104f3578063dcc6012814610520578063f0f3f2c81461054b578063f9285aa014610588578063fd1d5ea9146105c957610135565b8063944173df146103a3578063a4b2409e146103d3578063b531dcba14610410578063c6cdbe5e1461044d578063c9168b721461048b57610135565b80634db0412c116100fd5780634db0412c1461024f57806369b04f191461027a578063703d52af146102b75780637326c718146102f45780638da5cb5b146103315780638e5556321461035c57610135565b8063013feda91461013a578063107046bd1461017757806336fbad26146101be5780633e45c8af146101e95780634cd0cb2814610212575b600080fd5b34801561014657600080fd5b50610161600480360381019061015c9190613257565b610606565b60405161016e91906132fd565b60405180910390f35b34801561018357600080fd5b5061019e60048036038101906101999190613318565b61081a565b6040516101b59b9a9998979695949392919061348b565b60405180910390f35b3480156101ca57600080fd5b506101d36109c1565b6040516101e09190613544565b60405180910390f35b3480156101f557600080fd5b50610210600480360381019061020b9190613318565b6109c7565b005b34801561021e57600080fd5b5061023960048036038101906102349190613318565b610a5f565b60405161024691906132fd565b60405180910390f35b34801561025b57600080fd5b50610264610c45565b60405161027191906136b7565b60405180910390f35b34801561028657600080fd5b506102a1600480360381019061029c9190613318565b610d40565b6040516102ae91906132fd565b60405180910390f35b3480156102c357600080fd5b506102de60048036038101906102d99190613318565b610f59565b6040516102eb91906132fd565b60405180910390f35b34801561030057600080fd5b5061031b600480360381019061031691906136d9565b610f79565b60405161032891906132fd565b60405180910390f35b34801561033d57600080fd5b506103466114f1565b60405161035391906137ba565b60405180910390f35b34801561036857600080fd5b50610383600480360381019061037e9190613801565b611515565b60405161039a9b9a9998979695949392919061348b565b60405180910390f35b6103bd60048036038101906103b89190613841565b6116c9565b6040516103ca91906132fd565b60405180910390f35b3480156103df57600080fd5b506103fa60048036038101906103f59190613318565b611b4c565b60405161040791906132fd565b60405180910390f35b34801561041c57600080fd5b5061043760048036038101906104329190613318565b611cab565b60405161044491906132fd565b60405180910390f35b34801561045957600080fd5b50610474600480360381019061046f9190613318565b611e61565b60405161048292919061389d565b60405180910390f35b34801561049757600080fd5b506104b260048036038101906104ad9190613318565b611f1d565b6040516104bf9190613a23565b60405180910390f35b3480156104d457600080fd5b506104dd6120a6565b6040516104ea9190613544565b60405180910390f35b3480156104ff57600080fd5b506105086120ac565b60405161051793929190613a45565b60405180910390f35b34801561052c57600080fd5b506105356120c4565b6040516105429190613d21565b60405180910390f35b34801561055757600080fd5b50610572600480360381019061056d9190613318565b6123f8565b60405161057f9190613e55565b60405180910390f35b34801561059457600080fd5b506105af60048036038101906105aa9190613e77565b612769565b6040516105c0959493929190613eb7565b60405180910390f35b3480156105d557600080fd5b506105f060048036038101906105eb9190613318565b612871565b6040516105fd91906132fd565b60405180910390f35b60006006848154811061061c5761061b613f11565b5b90600052602060002090600c020160010160009054906101000a900473ffffffffffffffffffffffffffffffffffffffff1673ffffffffffffffffffffffffffffffffffffffff163373ffffffffffffffffffffffffffffffffffffffff16146106bb576040517f08c379a00000000000000000000000000000000000000000000000000000000081526004016106b290613f8c565b60405180910390fd5b60008351116106ff576040517f08c379a00000000000000000000000000000000000000000000000000000000081526004016106f690613ff8565b60405180910390fd5b6000825111610743576040517f08c379a000000000000000000000000000000000000000000000000000000000815260040161073a90614064565b60405180910390fd5b826006858154811061075857610757613f11565b5b90600052602060002090600c020160030190816107759190614290565b50816006858154811061078b5761078a613f11565b5b90600052602060002090600c020160040190805190602001906107af929190612e7e565b507f2fc51eab37d48def9d8af982f76cb7dd95c39990cbda0942903fc31591da692284600686815481106107e6576107e5613f11565b5b90600052602060002090600c020160020142604051610807939291906143e6565b60405180910390a1600190509392505050565b6006818154811061082a57600080fd5b90600052602060002090600c02016000915090508060000154908060010160009054906101000a900473ffffffffffffffffffffffffffffffffffffffff1690806002018054610879906140b3565b80601f01602080910402602001604051908101604052809291908181526020018280546108a5906140b3565b80156108f25780601f106108c7576101008083540402835291602001916108f2565b820191906000526020600020905b8154815290600101906020018083116108d557829003601f168201915b505050505090806003018054610907906140b3565b80601f0160208091040260200160405190810160405280929190818152602001828054610933906140b3565b80156109805780601f1061095557610100808354040283529160200191610980565b820191906000526020600020905b81548152906001019060200180831161096357829003601f168201915b50505050509080600501549080600601549080600701549080600801549080600901549080600a01549080600b0160009054906101000a900460ff1690508b565b60025481565b60008054906101000a900473ffffffffffffffffffffffffffffffffffffffff1673ffffffffffffffffffffffffffffffffffffffff163373ffffffffffffffffffffffffffffffffffffffff1614610a55576040517f08c379a0000000000000000000000000000000000000000000000000000000008152600401610a4c90614470565b60405180910390fd5b8060018190555050565b6000806005811115610a7457610a73613414565b5b60068381548110610a8857610a87613f11565b5b90600052602060002090600c0201600b0160009054906101000a900460ff166005811115610ab957610ab8613414565b5b14610af9576040517f08c379a0000000000000000000000000000000000000000000000000000000008152600401610af0906144dc565b60405180910390fd5b60068281548110610b0d57610b0c613f11565b5b90600052602060002090600c020160010160009054906101000a900473ffffffffffffffffffffffffffffffffffffffff1673ffffffffffffffffffffffffffffffffffffffff163373ffffffffffffffffffffffffffffffffffffffff1614610bac576040517f08c379a0000000000000000000000000000000000000000000000000000000008152600401610ba390613f8c565b60405180910390fd5b600360068381548110610bc257610bc1613f11565b5b90600052602060002090600c0201600b0160006101000a81548160ff02191690836005811115610bf557610bf4613414565b5b0217905550610c0382612a8a565b7f4484a435bc92a4925b8b18f20baf06d71675934c29cc91d21550d29939098ed08242604051610c349291906144fc565b60405180910390a160019050919050565b60606007805480602002602001604051908101604052809291908181526020016000905b82821015610d37578382906000526020600020906002020160405180604001604052908160008201548152602001600182018054610ca6906140b3565b80601f0160208091040260200160405190810160405280929190818152602001828054610cd2906140b3565b8015610d1f5780601f10610cf457610100808354040283529160200191610d1f565b820191906000526020600020905b815481529060010190602001808311610d0257829003601f168201915b50505050508152505081526020019060010190610c69565b50505050905090565b60008060009054906101000a900473ffffffffffffffffffffffffffffffffffffffff1673ffffffffffffffffffffffffffffffffffffffff163373ffffffffffffffffffffffffffffffffffffffff1614610dd1576040517f08c379a0000000000000000000000000000000000000000000000000000000008152600401610dc890614470565b60405180910390fd5b600a600083815260200190815260200160002060009054906101000a900460ff16610e31576040517f08c379a0000000000000000000000000000000000000000000000000000000008152600401610e2890614571565b60405180910390fd5b600580811115610e4457610e43613414565b5b60068381548110610e5857610e57613f11565b5b90600052602060002090600c0201600b0160009054906101000a900460ff166005811115610e8957610e88613414565b5b14610ec9576040517f08c379a0000000000000000000000000000000000000000000000000000000008152600401610ec0906145dd565b60405180910390fd5b600360068381548110610edf57610ede613f11565b5b90600052602060002090600c0201600b0160006101000a81548160ff02191690836005811115610f1257610f11613414565b5b02179055507fced42070be441b0c0e37a7030b1979b9d9116f4a19677cedc618153a8aab1a7d8242604051610f489291906144fc565b60405180910390a160019050919050565b600a6020528060005260406000206000915054906101000a900460ff1681565b600080875111610fbe576040517f08c379a0000000000000000000000000000000000000000000000000000000008152600401610fb590614649565b60405180910390fd5b6000865111611002576040517f08c379a0000000000000000000000000000000000000000000000000000000008152600401610ff990613ff8565b60405180910390fd5b6000855111611046576040517f08c379a000000000000000000000000000000000000000000000000000000000815260040161103d90614064565b60405180910390fd5b60008311611089576040517f08c379a0000000000000000000000000000000000000000000000000000000008152600401611080906146b5565b60405180910390fd5b60078054905084106110d0576040517f08c379a00000000000000000000000000000000000000000000000000000000081526004016110c790614721565b60405180910390fd5b6110d8612ed7565b60025481600001818152505033816020019073ffffffffffffffffffffffffffffffffffffffff16908173ffffffffffffffffffffffffffffffffffffffff16815250508781604001819052508681606001819052508581608001819052508481610140018181525050838160a0018181525050428160e001818152505082816101000181815250506005816101600190600581111561117b5761117a613414565b5b9081600581111561118f5761118e613414565b5b8152505060068190806001815401808255809150506001900390600052602060002090600c02016000909190919091506000820151816000015560208201518160010160006101000a81548173ffffffffffffffffffffffffffffffffffffffff021916908373ffffffffffffffffffffffffffffffffffffffff16021790555060408201518160020190816112259190614290565b50606082015181600301908161123b9190614290565b506080820151816004019080519060200190611258929190612e7e565b5060a0820151816005015560c0820151816006015560e082015181600701556101008201518160080155610120820151816009015561014082015181600a015561016082015181600b0160006101000a81548160ff021916908360058111156112c4576112c3613414565b5b021790555050506001600a6000600254815260200190815260200160002060006101000a81548160ff021916908315150217905550600860003373ffffffffffffffffffffffffffffffffffffffff1673ffffffffffffffffffffffffffffffffffffffff1681526020019081526020016000208190806001815401808255809150506001900390600052602060002090600c02016000909190919091506000820151816000015560208201518160010160006101000a81548173ffffffffffffffffffffffffffffffffffffffff021916908373ffffffffffffffffffffffffffffffffffffffff16021790555060408201518160020190816113c89190614290565b5060608201518160030190816113de9190614290565b5060808201518160040190805190602001906113fb929190612e7e565b5060a0820151816005015560c0820151816006015560e082015181600701556101008201518160080155610120820151816009015561014082015181600a015561016082015181600b0160006101000a81548160ff0219169083600581111561146757611466613414565b5b021790555050506001600360000160008282546114849190614770565b925050819055507f51d08cb6cfa640a387210fb69df925dfb70169ae7373f8ecd40b977b0c800d9a600254338a426040516114c294939291906147a4565b60405180910390a1600260008154809291906114dd906147f0565b919050555060019150509695505050505050565b60008054906101000a900473ffffffffffffffffffffffffffffffffffffffff1681565b6008602052816000526040600020818154811061153157600080fd5b90600052602060002090600c0201600091509150508060000154908060010160009054906101000a900473ffffffffffffffffffffffffffffffffffffffff1690806002018054611581906140b3565b80601f01602080910402602001604051908101604052809291908181526020018280546115ad906140b3565b80156115fa5780601f106115cf576101008083540402835291602001916115fa565b820191906000526020600020905b8154815290600101906020018083116115dd57829003601f168201915b50505050509080600301805461160f906140b3565b80601f016020809104026020016040519081016040528092919081815260200182805461163b906140b3565b80156116885780601f1061165d57610100808354040283529160200191611688565b820191906000526020600020905b81548152906001019060200180831161166b57829003601f168201915b50505050509080600501549080600601549080600701549080600801549080600901549080600a01549080600b0160009054906101000a900460ff1690508b565b600080341161170d576040517f08c379a000000000000000000000000000000000000000000000000000000000815260040161170490614884565b60405180910390fd5b600a600084815260200190815260200160002060009054906101000a900460ff1661176d576040517f08c379a000000000000000000000000000000000000000000000000000000000815260040161176490614571565b60405180910390fd5b6000600581111561178157611780613414565b5b6006848154811061179557611794613f11565b5b90600052602060002090600c0201600b0160009054906101000a900460ff1660058111156117c6576117c5613414565b5b14611806576040517f08c379a00000000000000000000000000000000000000000000000000000000081526004016117fd906144dc565b60405180910390fd5b60016003600101600082825461181c9190614770565b9250508190555034600360020160008282546118389190614770565b92505081905550346006848154811061185457611853613f11565b5b90600052602060002090600c020160060160008282546118749190614770565b9250508190555060016006848154811061189157611890613f11565b5b90600052602060002090600c020160090160008282546118b19190614770565b92505081905550600960008481526020019081526020016000206040518060a001604052803373ffffffffffffffffffffffffffffffffffffffff16815260200134815260200142815260200184815260200160001515815250908060018154018082558091505060019003906000526020600020906005020160009091909190915060008201518160000160006101000a81548173ffffffffffffffffffffffffffffffffffffffff021916908373ffffffffffffffffffffffffffffffffffffffff160217905550602082015181600101556040820151816002015560608201518160030190816119a49190614290565b5060808201518160040160006101000a81548160ff02191690831515021790555050507f74eda1e7b6ff65775d5ce38ece238bad783c4e12a3a754a6f0a469f248f2cdf8833384426040516119fc94939291906147a4565b60405180910390a160068381548110611a1857611a17613f11565b5b90600052602060002090600c02016005015460068481548110611a3e57611a3d613f11565b5b90600052602060002090600c02016006015410611ab557600160068481548110611a6b57611a6a613f11565b5b90600052602060002090600c0201600b0160006101000a81548160ff02191690836005811115611a9e57611a9d613414565b5b0217905550611aac83612c21565b60019050611b46565b60068381548110611ac957611ac8613f11565b5b90600052602060002090600c0201600801544210611b4157600260068481548110611af757611af6613f11565b5b90600052602060002090600c0201600b0160006101000a81548160ff02191690836005811115611b2a57611b29613414565b5b0217905550611b3883612a8a565b60019050611b46565b600190505b92915050565b600060026005811115611b6257611b61613414565b5b60068381548110611b7657611b75613f11565b5b90600052602060002090600c0201600b0160009054906101000a900460ff166005811115611ba757611ba6613414565b5b14158015611c0c575060036005811115611bc457611bc3613414565b5b60068381548110611bd857611bd7613f11565b5b90600052602060002090600c0201600b0160009054906101000a900460ff166005811115611c0957611c08613414565b5b14155b611c4b576040517f08c379a0000000000000000000000000000000000000000000000000000000008152600401611c4290614916565b60405180910390fd5b600260068381548110611c6157611c60613f11565b5b90600052602060002090600c0201600b0160006101000a81548160ff02191690836005811115611c9457611c93613414565b5b0217905550611ca282612a8a565b60019050919050565b600060016005811115611cc157611cc0613414565b5b60068381548110611cd557611cd4613f11565b5b90600052602060002090600c0201600b0160009054906101000a900460ff166005811115611d0657611d05613414565b5b14611d46576040517f08c379a0000000000000000000000000000000000000000000000000000000008152600401611d3d90614982565b60405180910390fd5b60068281548110611d5a57611d59613f11565b5b90600052602060002090600c020160010160009054906101000a900473ffffffffffffffffffffffffffffffffffffffff1673ffffffffffffffffffffffffffffffffffffffff163373ffffffffffffffffffffffffffffffffffffffff161480611e10575060008054906101000a900473ffffffffffffffffffffffffffffffffffffffff1673ffffffffffffffffffffffffffffffffffffffff163373ffffffffffffffffffffffffffffffffffffffff16145b611e4f576040517f08c379a0000000000000000000000000000000000000000000000000000000008152600401611e4690613f8c565b60405180910390fd5b611e5882612c21565b60019050919050565b60078181548110611e7157600080fd5b9060005260206000209060020201600091509050806000015490806001018054611e9a906140b3565b80601f0160208091040260200160405190810160405280929190818152602001828054611ec6906140b3565b8015611f135780601f10611ee857610100808354040283529160200191611f13565b820191906000526020600020905b815481529060010190602001808311611ef657829003601f168201915b5050505050905082565b606060096000838152602001908152602001600020805480602002602001604051908101604052809291908181526020016000905b8282101561209b57838290600052602060002090600502016040518060a00160405290816000820160009054906101000a900473ffffffffffffffffffffffffffffffffffffffff1673ffffffffffffffffffffffffffffffffffffffff1673ffffffffffffffffffffffffffffffffffffffff1681526020016001820154815260200160028201548152602001600382018054611fef906140b3565b80601f016020809104026020016040519081016040528092919081815260200182805461201b906140b3565b80156120685780601f1061203d57610100808354040283529160200191612068565b820191906000526020600020905b81548152906001019060200180831161204b57829003601f168201915b505050505081526020016004820160009054906101000a900460ff16151515158152505081526020019060010190611f52565b505050509050919050565b60015481565b60038060000154908060010154908060020154905083565b60606006805480602002602001604051908101604052809291908181526020016000905b828210156123ef57838290600052602060002090600c020160405180610180016040529081600082015481526020016001820160009054906101000a900473ffffffffffffffffffffffffffffffffffffffff1673ffffffffffffffffffffffffffffffffffffffff1673ffffffffffffffffffffffffffffffffffffffff16815260200160028201805461217c906140b3565b80601f01602080910402602001604051908101604052809291908181526020018280546121a8906140b3565b80156121f55780601f106121ca576101008083540402835291602001916121f5565b820191906000526020600020905b8154815290600101906020018083116121d857829003601f168201915b5050505050815260200160038201805461220e906140b3565b80601f016020809104026020016040519081016040528092919081815260200182805461223a906140b3565b80156122875780601f1061225c57610100808354040283529160200191612287565b820191906000526020600020905b81548152906001019060200180831161226a57829003601f168201915b5050505050815260200160048201805480602002602001604051908101604052809291908181526020016000905b828210156123615783829060005260206000200180546122d4906140b3565b80601f0160208091040260200160405190810160405280929190818152602001828054612300906140b3565b801561234d5780601f106123225761010080835404028352916020019161234d565b820191906000526020600020905b81548152906001019060200180831161233057829003601f168201915b5050505050815260200190600101906122b5565b5050505081526020016005820154815260200160068201548152602001600782015481526020016008820154815260200160098201548152602001600a8201548152602001600b820160009054906101000a900460ff1660058111156123ca576123c9613414565b5b60058111156123dc576123db613414565b5b81525050815260200190600101906120e8565b50505050905090565b612400612ed7565b600a600083815260200190815260200160002060009054906101000a900460ff16612460576040517f08c379a000000000000000000000000000000000000000000000000000000000815260040161245790614571565b60405180910390fd5b6006828154811061247457612473613f11565b5b90600052602060002090600c020160405180610180016040529081600082015481526020016001820160009054906101000a900473ffffffffffffffffffffffffffffffffffffffff1673ffffffffffffffffffffffffffffffffffffffff1673ffffffffffffffffffffffffffffffffffffffff1681526020016002820180546124fe906140b3565b80601f016020809104026020016040519081016040528092919081815260200182805461252a906140b3565b80156125775780601f1061254c57610100808354040283529160200191612577565b820191906000526020600020905b81548152906001019060200180831161255a57829003601f168201915b50505050508152602001600382018054612590906140b3565b80601f01602080910402602001604051908101604052809291908181526020018280546125bc906140b3565b80156126095780601f106125de57610100808354040283529160200191612609565b820191906000526020600020905b8154815290600101906020018083116125ec57829003601f168201915b5050505050815260200160048201805480602002602001604051908101604052809291908181526020016000905b828210156126e3578382906000526020600020018054612656906140b3565b80601f0160208091040260200160405190810160405280929190818152602001828054612682906140b3565b80156126cf5780601f106126a4576101008083540402835291602001916126cf565b820191906000526020600020905b8154815290600101906020018083116126b257829003601f168201915b505050505081526020019060010190612637565b5050505081526020016005820154815260200160068201548152602001600782015481526020016008820154815260200160098201548152602001600a8201548152602001600b820160009054906101000a900460ff16600581111561274c5761274b613414565b5b600581111561275e5761275d613414565b5b815250509050919050565b6009602052816000526040600020818154811061278557600080fd5b9060005260206000209060050201600091509150508060000160009054906101000a900473ffffffffffffffffffffffffffffffffffffffff16908060010154908060020154908060030180546127db906140b3565b80601f0160208091040260200160405190810160405280929190818152602001828054612807906140b3565b80156128545780601f1061282957610100808354040283529160200191612854565b820191906000526020600020905b81548152906001019060200180831161283757829003601f168201915b5050505050908060040160009054906101000a900460ff16905085565b60008060009054906101000a900473ffffffffffffffffffffffffffffffffffffffff1673ffffffffffffffffffffffffffffffffffffffff163373ffffffffffffffffffffffffffffffffffffffff1614612902576040517f08c379a00000000000000000000000000000000000000000000000000000000081526004016128f990614470565b60405180910390fd5b600a600083815260200190815260200160002060009054906101000a900460ff16612962576040517f08c379a000000000000000000000000000000000000000000000000000000000815260040161295990614571565b60405180910390fd5b60058081111561297557612974613414565b5b6006838154811061298957612988613f11565b5b90600052602060002090600c0201600b0160009054906101000a900460ff1660058111156129ba576129b9613414565b5b146129fa576040517f08c379a00000000000000000000000000000000000000000000000000000000081526004016129f1906145dd565b60405180910390fd5b600060068381548110612a1057612a0f613f11565b5b90600052602060002090600c0201600b0160006101000a81548160ff02191690836005811115612a4357612a42613414565b5b02179055507fd253ffdff2c15c0fc0f805a6a2f2a45ae8dae3bebea5b01fd1e706df8798da208242604051612a799291906144fc565b60405180910390a160019050919050565b60005b6009600083815260200190815260200160002080549050811015612c1d576000600960008481526020019081526020016000208281548110612ad257612ad1613f11565b5b906000526020600020906005020160000160009054906101000a900473ffffffffffffffffffffffffffffffffffffffff1690506000600960008581526020019081526020016000208381548110612b2d57612b2c613f11565b5b90600052602060002090600502016001015490506001600960008681526020019081526020016000208481548110612b6857612b67613f11565b5b906000526020600020906005020160040160006101000a81548160ff02191690831515021790555042600960008681526020019081526020016000208481548110612bb657612bb5613f11565b5b906000526020600020906005020160020181905550612bd58282612dcd565b600160036001016000828254612beb91906149a2565b925050819055508060036002016000828254612c0791906149a2565b9250508190555050508080600101915050612a8d565b5050565b600060068281548110612c3757612c36613f11565b5b90600052602060002090600c02016006015490506000606460015483612c5d91906149d6565b612c679190614a47565b9050600460068481548110612c7f57612c7e613f11565b5b90600052602060002090600c0201600b0160006101000a81548160ff02191690836005811115612cb257612cb1613414565b5b0217905550612d1160068481548110612cce57612ccd613f11565b5b90600052602060002090600c020160010160009054906101000a900473ffffffffffffffffffffffffffffffffffffffff168284612d0c91906149a2565b612dcd565b612d3b60008054906101000a900473ffffffffffffffffffffffffffffffffffffffff1682612dcd565b7fea92b548a4f5c76c7714148900ec90179b8b1d1bc117c625021352b7e03936948360068581548110612d7157612d70613f11565b5b90600052602060002090600c020160010160009054906101000a900473ffffffffffffffffffffffffffffffffffffffff168385612daf91906149a2565b42604051612dc09493929190614a78565b60405180910390a1505050565b60008273ffffffffffffffffffffffffffffffffffffffff1682604051612df390614aee565b60006040518083038185875af1925050503d8060008114612e30576040519150601f19603f3d011682016040523d82523d6000602084013e612e35565b606091505b5050905080612e79576040517f08c379a0000000000000000000000000000000000000000000000000000000008152600401612e7090614b4f565b60405180910390fd5b505050565b828054828255906000526020600020908101928215612ec6579160200282015b82811115612ec5578251829081612eb59190614290565b5091602001919060010190612e9e565b5b509050612ed39190612f60565b5090565b60405180610180016040528060008152602001600073ffffffffffffffffffffffffffffffffffffffff16815260200160608152602001606081526020016060815260200160008152602001600081526020016000815260200160008152602001600081526020016000815260200160006005811115612f5a57612f59613414565b5b81525090565b5b80821115612f805760008181612f779190612f84565b50600101612f61565b5090565b508054612f90906140b3565b6000825580601f10612fa25750612fc1565b601f016020900490600052602060002090810190612fc09190612fc4565b5b50565b5b80821115612fdd576000816000905550600101612fc5565b5090565b6000604051905090565b600080fd5b600080fd5b6000819050919050565b61300881612ff5565b811461301357600080fd5b50565b60008135905061302581612fff565b92915050565b600080fd5b600080fd5b6000601f19601f8301169050919050565b7f4e487b7100000000000000000000000000000000000000000000000000000000600052604160045260246000fd5b61307e82613035565b810181811067ffffffffffffffff8211171561309d5761309c613046565b5b80604052505050565b60006130b0612fe1565b90506130bc8282613075565b919050565b600067ffffffffffffffff8211156130dc576130db613046565b5b6130e582613035565b9050602081019050919050565b82818337600083830152505050565b600061311461310f846130c1565b6130a6565b9050828152602081018484840111156131305761312f613030565b5b61313b8482856130f2565b509392505050565b600082601f8301126131585761315761302b565b5b8135613168848260208601613101565b91505092915050565b600067ffffffffffffffff82111561318c5761318b613046565b5b602082029050602081019050919050565b600080fd5b60006131b56131b084613171565b6130a6565b905080838252602082019050602084028301858111156131d8576131d761319d565b5b835b8181101561321f57803567ffffffffffffffff8111156131fd576131fc61302b565b5b80860161320a8982613143565b855260208501945050506020810190506131da565b5050509392505050565b600082601f83011261323e5761323d61302b565b5b813561324e8482602086016131a2565b91505092915050565b6000806000606084860312156132705761326f612feb565b5b600061327e86828701613016565b935050602084013567ffffffffffffffff81111561329f5761329e612ff0565b5b6132ab86828701613143565b925050604084013567ffffffffffffffff8111156132cc576132cb612ff0565b5b6132d886828701613229565b9150509250925092565b60008115159050919050565b6132f7816132e2565b82525050565b600060208201905061331260008301846132ee565b92915050565b60006020828403121561332e5761332d612feb565b5b600061333c84828501613016565b91505092915050565b61334e81612ff5565b82525050565b600073ffffffffffffffffffffffffffffffffffffffff82169050919050565b600061337f82613354565b9050919050565b61338f81613374565b82525050565b600081519050919050565b600082825260208201905092915050565b60005b838110156133cf5780820151818401526020810190506133b4565b60008484015250505050565b60006133e682613395565b6133f081856133a0565b93506134008185602086016133b1565b61340981613035565b840191505092915050565b7f4e487b7100000000000000000000000000000000000000000000000000000000600052602160045260246000fd5b6006811061345457613453613414565b5b50565b600081905061346582613443565b919050565b600061347582613457565b9050919050565b6134858161346a565b82525050565b6000610160820190506134a1600083018e613345565b6134ae602083018d613386565b81810360408301526134c0818c6133db565b905081810360608301526134d4818b6133db565b90506134e3608083018a613345565b6134f060a0830189613345565b6134fd60c0830188613345565b61350a60e0830187613345565b613518610100830186613345565b613526610120830185613345565b61353461014083018461347c565b9c9b505050505050505050505050565b60006020820190506135596000830184613345565b92915050565b600081519050919050565b600082825260208201905092915050565b6000819050602082019050919050565b61359481612ff5565b82525050565b600082825260208201905092915050565b60006135b682613395565b6135c0818561359a565b93506135d08185602086016133b1565b6135d981613035565b840191505092915050565b60006040830160008301516135fc600086018261358b565b506020830151848203602086015261361482826135ab565b9150508091505092915050565b600061362d83836135e4565b905092915050565b6000602082019050919050565b600061364d8261355f565b613657818561356a565b9350836020820285016136698561357b565b8060005b858110156136a557848403895281516136868582613621565b945061369183613635565b925060208a0199505060018101905061366d565b50829750879550505050505092915050565b600060208201905081810360008301526136d18184613642565b905092915050565b60008060008060008060c087890312156136f6576136f5612feb565b5b600087013567ffffffffffffffff81111561371457613713612ff0565b5b61372089828a01613143565b965050602087013567ffffffffffffffff81111561374157613740612ff0565b5b61374d89828a01613143565b955050604087013567ffffffffffffffff81111561376e5761376d612ff0565b5b61377a89828a01613229565b945050606061378b89828a01613016565b935050608061379c89828a01613016565b92505060a06137ad89828a01613016565b9150509295509295509295565b60006020820190506137cf6000830184613386565b92915050565b6137de81613374565b81146137e957600080fd5b50565b6000813590506137fb816137d5565b92915050565b6000806040838503121561381857613817612feb565b5b6000613826858286016137ec565b925050602061383785828601613016565b9150509250929050565b6000806040838503121561385857613857612feb565b5b600061386685828601613016565b925050602083013567ffffffffffffffff81111561388757613886612ff0565b5b61389385828601613143565b9150509250929050565b60006040820190506138b26000830185613345565b81810360208301526138c481846133db565b90509392505050565b600081519050919050565b600082825260208201905092915050565b6000819050602082019050919050565b61390281613374565b82525050565b613911816132e2565b82525050565b600060a08301600083015161392f60008601826138f9565b506020830151613942602086018261358b565b506040830151613955604086018261358b565b506060830151848203606086015261396d82826135ab565b91505060808301516139826080860182613908565b508091505092915050565b60006139998383613917565b905092915050565b6000602082019050919050565b60006139b9826138cd565b6139c381856138d8565b9350836020820285016139d5856138e9565b8060005b85811015613a1157848403895281516139f2858261398d565b94506139fd836139a1565b925060208a019950506001810190506139d9565b50829750879550505050505092915050565b60006020820190508181036000830152613a3d81846139ae565b905092915050565b6000606082019050613a5a6000830186613345565b613a676020830185613345565b613a746040830184613345565b949350505050565b600081519050919050565b600082825260208201905092915050565b6000819050602082019050919050565b600081519050919050565b600082825260208201905092915050565b6000819050602082019050919050565b6000613ae083836135ab565b905092915050565b6000602082019050919050565b6000613b0082613aa8565b613b0a8185613ab3565b935083602082028501613b1c85613ac4565b8060005b85811015613b585784840389528151613b398582613ad4565b9450613b4483613ae8565b925060208a01995050600181019050613b20565b50829750879550505050505092915050565b613b738161346a565b82525050565b600061018083016000830151613b92600086018261358b565b506020830151613ba560208601826138f9565b5060408301518482036040860152613bbd82826135ab565b91505060608301518482036060860152613bd782826135ab565b91505060808301518482036080860152613bf18282613af5565b91505060a0830151613c0660a086018261358b565b5060c0830151613c1960c086018261358b565b5060e0830151613c2c60e086018261358b565b50610100830151613c4161010086018261358b565b50610120830151613c5661012086018261358b565b50610140830151613c6b61014086018261358b565b50610160830151613c80610160860182613b6a565b508091505092915050565b6000613c978383613b79565b905092915050565b6000602082019050919050565b6000613cb782613a7c565b613cc18185613a87565b935083602082028501613cd385613a98565b8060005b85811015613d0f5784840389528151613cf08582613c8b565b9450613cfb83613c9f565b925060208a01995050600181019050613cd7565b50829750879550505050505092915050565b60006020820190508181036000830152613d3b8184613cac565b905092915050565b600061018083016000830151613d5c600086018261358b565b506020830151613d6f60208601826138f9565b5060408301518482036040860152613d8782826135ab565b91505060608301518482036060860152613da182826135ab565b91505060808301518482036080860152613dbb8282613af5565b91505060a0830151613dd060a086018261358b565b5060c0830151613de360c086018261358b565b5060e0830151613df660e086018261358b565b50610100830151613e0b61010086018261358b565b50610120830151613e2061012086018261358b565b50610140830151613e3561014086018261358b565b50610160830151613e4a610160860182613b6a565b508091505092915050565b60006020820190508181036000830152613e6f8184613d43565b905092915050565b60008060408385031215613e8e57613e8d612feb565b5b6000613e9c85828601613016565b9250506020613ead85828601613016565b9150509250929050565b600060a082019050613ecc6000830188613386565b613ed96020830187613345565b613ee66040830186613345565b8181036060830152613ef881856133db565b9050613f0760808301846132ee565b9695505050505050565b7f4e487b7100000000000000000000000000000000000000000000000000000000600052603260045260246000fd5b7f556e617574686f72697a656420456e7469747900000000000000000000000000600082015250565b6000613f766013836133a0565b9150613f8182613f40565b602082019050919050565b60006020820190508181036000830152613fa581613f69565b9050919050565b7f4465736372697074696f6e2063616e6e6f7420626520656d7074790000000000600082015250565b6000613fe2601b836133a0565b9150613fed82613fac565b602082019050919050565b6000602082019050818103600083015261401181613fd5565b9050919050565b7f496d61676555524c732063616e6e6f7420626520656d70747900000000000000600082015250565b600061404e6019836133a0565b915061405982614018565b602082019050919050565b6000602082019050818103600083015261407d81614041565b9050919050565b7f4e487b7100000000000000000000000000000000000000000000000000000000600052602260045260246000fd5b600060028204905060018216806140cb57607f821691505b6020821081036140de576140dd614084565b5b50919050565b60008190508160005260206000209050919050565b60006020601f8301049050919050565b600082821b905092915050565b6000600883026141467fffffffffffffffffffffffffffffffffffffffffffffffffffffffffffffffff82614109565b6141508683614109565b95508019841693508086168417925050509392505050565b6000819050919050565b600061418d61418861418384612ff5565b614168565b612ff5565b9050919050565b6000819050919050565b6141a783614172565b6141bb6141b382614194565b848454614116565b825550505050565b600090565b6141d06141c3565b6141db81848461419e565b505050565b5b818110156141ff576141f46000826141c8565b6001810190506141e1565b5050565b601f82111561424457614215816140e4565b61421e846140f9565b8101602085101561422d578190505b614241614239856140f9565b8301826141e0565b50505b505050565b600082821c905092915050565b600061426760001984600802614249565b1980831691505092915050565b60006142808383614256565b9150826002028217905092915050565b61429982613395565b67ffffffffffffffff8111156142b2576142b1613046565b5b6142bc82546140b3565b6142c7828285614203565b600060209050601f8311600181146142fa57600084156142e8578287015190505b6142f28582614274565b86555061435a565b601f198416614308866140e4565b60005b828110156143305784890151825560018201915060208501945060208101905061430b565b8683101561434d5784890151614349601f891682614256565b8355505b6001600288020188555050505b505050505050565b6000815461436f816140b3565b61437981866133a0565b9450600182166000811461439457600181146143aa576143dd565b60ff1983168652811515602002860193506143dd565b6143b3856140e4565b60005b838110156143d5578154818901526001820191506020810190506143b6565b808801955050505b50505092915050565b60006060820190506143fb6000830186613345565b818103602083015261440d8185614362565b905061441c6040830184613345565b949350505050565b7f41636365737320526573657276656420746f204f776e65720000000000000000600082015250565b600061445a6018836133a0565b915061446582614424565b602082019050919050565b600060208201905081810360008301526144898161444d565b9050919050565b7f50726f6a656374206e6f206c6f6e676572206f70656e65640000000000000000600082015250565b60006144c66018836133a0565b91506144d182614490565b602082019050919050565b600060208201905081810360008301526144f5816144b9565b9050919050565b60006040820190506145116000830185613345565b61451e6020830184613345565b9392505050565b7f50726f6a656374206e6f7420666f756e64000000000000000000000000000000600082015250565b600061455b6011836133a0565b915061456682614525565b602082019050919050565b6000602082019050818103600083015261458a8161454e565b9050919050565b7f50726f6a656374206e6f742070656e64696e6720617070726f76616c00000000600082015250565b60006145c7601c836133a0565b91506145d282614591565b602082019050919050565b600060208201905081810360008301526145f6816145ba565b9050919050565b7f5469746c652063616e6e6f7420626520656d7074790000000000000000000000600082015250565b60006146336015836133a0565b915061463e826145fd565b602082019050919050565b6000602082019050818103600083015261466281614626565b9050919050565b7f436f73742063616e6e6f74206265207a65726f00000000000000000000000000600082015250565b600061469f6013836133a0565b91506146aa82614669565b602082019050919050565b600060208201905081810360008301526146ce81614692565b9050919050565b7f496e76616c69642063617465676f727920494400000000000000000000000000600082015250565b600061470b6013836133a0565b9150614716826146d5565b602082019050919050565b6000602082019050818103600083015261473a816146fe565b9050919050565b7f4e487b7100000000000000000000000000000000000000000000000000000000600052601160045260246000fd5b600061477b82612ff5565b915061478683612ff5565b925082820190508082111561479e5761479d614741565b5b92915050565b60006080820190506147b96000830187613345565b6147c66020830186613386565b81810360408301526147d881856133db565b90506147e76060830184613345565b95945050505050565b60006147fb82612ff5565b91507fffffffffffffffffffffffffffffffffffffffffffffffffffffffffffffffff820361482d5761482c614741565b5b600182019050919050565b7f4574686572206d7573742062652067726561746572207468616e207a65726f00600082015250565b600061486e601f836133a0565b915061487982614838565b602082019050919050565b6000602082019050818103600083015261489d81614861565b9050919050565b7f50726f6a65637420616c7265616479206d61726b65642061732072657665727460008201527f65642f64656c6574656400000000000000000000000000000000000000000000602082015250565b6000614900602a836133a0565b915061490b826148a4565b604082019050919050565b6000602082019050818103600083015261492f816148f3565b9050919050565b7f50726f6a656374206e6f7420415050524f564544000000000000000000000000600082015250565b600061496c6014836133a0565b915061497782614936565b602082019050919050565b6000602082019050818103600083015261499b8161495f565b9050919050565b60006149ad82612ff5565b91506149b883612ff5565b92508282039050818111156149d0576149cf614741565b5b92915050565b60006149e182612ff5565b91506149ec83612ff5565b92508282026149fa81612ff5565b91508282048414831517614a1157614a10614741565b5b5092915050565b7f4e487b7100000000000000000000000000000000000000000000000000000000600052601260045260246000fd5b6000614a5282612ff5565b9150614a5d83612ff5565b925082614a6d57614a6c614a18565b5b828204905092915050565b6000608082019050614a8d6000830187613345565b614a9a6020830186613386565b614aa76040830185613345565b614ab46060830184613345565b95945050505050565b600081905092915050565b50565b6000614ad8600083614abd565b9150614ae382614ac8565b600082019050919050565b6000614af982614acb565b9150819050919050565b7f5061796d656e74206661696c6564000000000000000000000000000000000000600082015250565b6000614b39600e836133a0565b9150614b4482614b03565b602082019050919050565b60006020820190508181036000830152614b6881614b2c565b905091905056fea2646970667358221220b021032623178fd2f7ac34f540a677704b80df5794054306ca973fc12045aa8064736f6c63430008180033",
  "linkReferences": {},
  "deployedLinkReferences": {}
}