{
  "_format": "hh-sol-artifact-1",
  "contractName": "BlockPledge",
  "sourceName": "app/contracts/BlockPledge.sol",
  "abi": [
    {
      "inputs": [
        {
          "internalType": "uint256",
          "name": "_projectTax",
          "type": "uint256"
        }
      ],
      "stateMutability": "nonpayable",
      "type": "constructor"
    },
    {
      "anonymous": false,
      "inputs": [
        {
          "indexed": false,
          "internalType": "uint256",
          "name": "id",
          "type": "uint256"
        },
        {
          "indexed": false,
          "internalType": "uint256",
          "name": "timestamp",
          "type": "uint256"
        }
      ],
      "name": "ProjectApproved",
      "type": "event"
    },
    {
      "anonymous": false,
      "inputs": [
        {
          "indexed": false,
          "internalType": "uint256",
          "name": "id",
          "type": "uint256"
        },
        {
          "indexed": false,
          "internalType": "address",
          "name": "backer",
          "type": "address"
        },
        {
          "indexed": false,
          "internalType": "uint256",
          "name": "amount",
          "type": "uint256"
        },
        {
          "indexed": false,
          "internalType": "string",
          "name": "comment",
          "type": "string"
        },
        {
          "indexed": false,
          "internalType": "uint256",
          "name": "timestamp",
          "type": "uint256"
        }
      ],
      "name": "ProjectBacked",
      "type": "event"
    },
    {
      "anonymous": false,
      "inputs": [
        {
          "indexed": false,
          "internalType": "uint256",
          "name": "id",
          "type": "uint256"
        },
        {
          "indexed": false,
          "internalType": "address",
          "name": "owner",
          "type": "address"
        },
        {
          "indexed": false,
          "internalType": "string",
          "name": "title",
          "type": "string"
        },
        {
          "indexed": false,
          "internalType": "string",
          "name": "description",
          "type": "string"
        },
        {
          "indexed": false,
          "internalType": "string[]",
          "name": "imageUrls",
          "type": "string[]"
        },
        {
          "indexed": false,
          "internalType": "uint256",
          "name": "categoryId",
          "type": "uint256"
        },
        {
          "indexed": false,
          "internalType": "uint256",
          "name": "cost",
          "type": "uint256"
        },
        {
          "indexed": false,
          "internalType": "uint256",
          "name": "raised",
          "type": "uint256"
        },
        {
          "indexed": false,
          "internalType": "uint256",
          "name": "createdAt",
          "type": "uint256"
        },
        {
          "indexed": false,
          "internalType": "uint256",
          "name": "expiresAt",
          "type": "uint256"
        },
        {
          "indexed": false,
          "internalType": "uint256",
          "name": "backers",
          "type": "uint256"
        },
        {
          "indexed": false,
          "internalType": "enum BlockPledge.StatusEnum",
          "name": "status",
          "type": "uint8"
        }
      ],
      "name": "ProjectCreated",
      "type": "event"
    },
    {
      "anonymous": false,
      "inputs": [
        {
          "indexed": false,
          "internalType": "uint256",
          "name": "id",
          "type": "uint256"
        },
        {
          "indexed": false,
          "internalType": "uint256",
          "name": "timestamp",
          "type": "uint256"
        }
      ],
      "name": "ProjectDeleted",
      "type": "event"
    },
    {
      "anonymous": false,
      "inputs": [
        {
          "indexed": false,
          "internalType": "uint256",
          "name": "id",
          "type": "uint256"
        },
        {
          "indexed": false,
          "internalType": "string",
          "name": "title",
          "type": "string"
        },
        {
          "indexed": false,
          "internalType": "address",
          "name": "recipient",
          "type": "address"
        },
        {
          "indexed": false,
          "internalType": "uint256",
          "name": "amount",
          "type": "uint256"
        },
        {
          "indexed": false,
          "internalType": "uint256",
          "name": "timestamp",
          "type": "uint256"
        }
      ],
      "name": "ProjectPaidOut",
      "type": "event"
    },
    {
      "anonymous": false,
      "inputs": [
        {
          "indexed": false,
          "internalType": "uint256",
          "name": "id",
          "type": "uint256"
        },
        {
          "indexed": false,
          "internalType": "uint256",
          "name": "timestamp",
          "type": "uint256"
        }
      ],
      "name": "ProjectRejected",
      "type": "event"
    },
    {
      "anonymous": false,
      "inputs": [
        {
          "indexed": false,
          "internalType": "uint256",
          "name": "id",
          "type": "uint256"
        },
        {
          "indexed": false,
          "internalType": "string",
          "name": "description",
          "type": "string"
        },
        {
          "indexed": false,
          "internalType": "string[]",
          "name": "imageUrls",
          "type": "string[]"
        },
        {
          "indexed": false,
          "internalType": "uint256",
          "name": "timestamp",
          "type": "uint256"
        }
      ],
      "name": "ProjectUpdated",
      "type": "event"
    },
    {
      "inputs": [
        {
          "internalType": "uint256",
          "name": "_id",
          "type": "uint256"
        }
      ],
      "name": "acceptProject",
      "outputs": [
        {
          "internalType": "bool",
          "name": "",
          "type": "bool"
        }
      ],
      "stateMutability": "nonpayable",
      "type": "function"
    },
    {
      "inputs": [
        {
          "internalType": "uint256",
          "name": "_id",
          "type": "uint256"
        },
        {
          "internalType": "string",
          "name": "_comment",
          "type": "string"
        }
      ],
      "name": "backProject",
      "outputs": [
        {
          "internalType": "bool",
          "name": "",
          "type": "bool"
        }
      ],
      "stateMutability": "payable",
      "type": "function"
    },
    {
      "inputs": [
        {
          "internalType": "uint256",
          "name": "",
          "type": "uint256"
        },
        {
          "internalType": "uint256",
          "name": "",
          "type": "uint256"
        }
      ],
      "name": "backersOf",
      "outputs": [
        {
          "internalType": "address",
          "name": "backer",
          "type": "address"
        },
        {
          "internalType": "uint256",
          "name": "contribution",
          "type": "uint256"
        },
        {
          "internalType": "uint256",
          "name": "timestamp",
          "type": "uint256"
        },
        {
          "internalType": "string",
          "name": "comment",
          "type": "string"
        },
        {
          "internalType": "bool",
          "name": "refunded",
          "type": "bool"
        }
      ],
      "stateMutability": "view",
      "type": "function"
    },
    {
      "inputs": [
        {
          "internalType": "uint256",
          "name": "",
          "type": "uint256"
        }
      ],
      "name": "categories",
      "outputs": [
        {
          "internalType": "uint256",
          "name": "id",
          "type": "uint256"
        },
        {
          "internalType": "string",
          "name": "name",
          "type": "string"
        }
      ],
      "stateMutability": "view",
      "type": "function"
    },
    {
      "inputs": [
        {
          "internalType": "uint256",
          "name": "_taxPct",
          "type": "uint256"
        }
      ],
      "name": "changeTax",
      "outputs": [],
      "stateMutability": "nonpayable",
      "type": "function"
    },
    {
      "inputs": [
        {
          "internalType": "string",
          "name": "_title",
          "type": "string"
        },
        {
          "internalType": "string",
          "name": "_description",
          "type": "string"
        },
        {
          "internalType": "string[]",
          "name": "_imageUrls",
          "type": "string[]"
        },
        {
          "internalType": "uint256",
          "name": "_category",
          "type": "uint256"
        },
        {
          "internalType": "uint256",
          "name": "_cost",
          "type": "uint256"
        },
        {
          "internalType": "uint256",
          "name": "_expiresAt",
          "type": "uint256"
        }
      ],
      "name": "createProject",
      "outputs": [
        {
          "internalType": "bool",
          "name": "",
          "type": "bool"
        }
      ],
      "stateMutability": "nonpayable",
      "type": "function"
    },
    {
      "inputs": [
        {
          "internalType": "uint256",
          "name": "_id",
          "type": "uint256"
        },
        {
          "internalType": "string",
          "name": "_reason",
          "type": "string"
        }
      ],
      "name": "deleteProject",
      "outputs": [
        {
          "internalType": "bool",
          "name": "",
          "type": "bool"
        }
      ],
      "stateMutability": "nonpayable",
      "type": "function"
    },
    {
      "inputs": [
        {
          "internalType": "uint256",
          "name": "_id",
          "type": "uint256"
        }
      ],
      "name": "getBackers",
      "outputs": [
        {
          "components": [
            {
              "internalType": "address",
              "name": "backer",
              "type": "address"
            },
            {
              "internalType": "uint256",
              "name": "contribution",
              "type": "uint256"
            },
            {
              "internalType": "uint256",
              "name": "timestamp",
              "type": "uint256"
            },
            {
              "internalType": "string",
              "name": "comment",
              "type": "string"
            },
            {
              "internalType": "bool",
              "name": "refunded",
              "type": "bool"
            }
          ],
          "internalType": "struct BlockPledge.BackerStruct[]",
          "name": "",
          "type": "tuple[]"
        }
      ],
      "stateMutability": "view",
      "type": "function"
    },
    {
      "inputs": [],
      "name": "getCategories",
      "outputs": [
        {
          "components": [
            {
              "internalType": "uint256",
              "name": "id",
              "type": "uint256"
            },
            {
              "internalType": "string",
              "name": "name",
              "type": "string"
            }
          ],
          "internalType": "struct BlockPledge.CategoryStruct[]",
          "name": "",
          "type": "tuple[]"
        }
      ],
      "stateMutability": "view",
      "type": "function"
    },
    {
      "inputs": [
        {
          "internalType": "uint256",
          "name": "_id",
          "type": "uint256"
        }
      ],
      "name": "getProject",
      "outputs": [
        {
          "components": [
            {
              "internalType": "uint256",
              "name": "id",
              "type": "uint256"
            },
            {
              "internalType": "address",
              "name": "owner",
              "type": "address"
            },
            {
              "internalType": "string",
              "name": "title",
              "type": "string"
            },
            {
              "internalType": "string",
              "name": "description",
              "type": "string"
            },
            {
              "internalType": "string[]",
              "name": "imageUrls",
              "type": "string[]"
            },
            {
              "internalType": "uint256",
              "name": "cost",
              "type": "uint256"
            },
            {
              "internalType": "uint256",
              "name": "raised",
              "type": "uint256"
            },
            {
              "internalType": "uint256",
              "name": "createdAt",
              "type": "uint256"
            },
            {
              "internalType": "uint256",
              "name": "expiresAt",
              "type": "uint256"
            },
            {
              "internalType": "uint256",
              "name": "backers",
              "type": "uint256"
            },
            {
              "internalType": "uint256",
              "name": "categoryId",
              "type": "uint256"
            },
            {
              "internalType": "enum BlockPledge.StatusEnum",
              "name": "status",
              "type": "uint8"
            },
            {
              "internalType": "string",
              "name": "deletionReason",
              "type": "string"
            }
          ],
          "internalType": "struct BlockPledge.ProjectStruct",
          "name": "",
          "type": "tuple"
        }
      ],
      "stateMutability": "view",
      "type": "function"
    },
    {
      "inputs": [],
      "name": "getProjects",
      "outputs": [
        {
          "components": [
            {
              "internalType": "uint256",
              "name": "id",
              "type": "uint256"
            },
            {
              "internalType": "address",
              "name": "owner",
              "type": "address"
            },
            {
              "internalType": "string",
              "name": "title",
              "type": "string"
            },
            {
              "internalType": "string",
              "name": "description",
              "type": "string"
            },
            {
              "internalType": "string[]",
              "name": "imageUrls",
              "type": "string[]"
            },
            {
              "internalType": "uint256",
              "name": "cost",
              "type": "uint256"
            },
            {
              "internalType": "uint256",
              "name": "raised",
              "type": "uint256"
            },
            {
              "internalType": "uint256",
              "name": "createdAt",
              "type": "uint256"
            },
            {
              "internalType": "uint256",
              "name": "expiresAt",
              "type": "uint256"
            },
            {
              "internalType": "uint256",
              "name": "backers",
              "type": "uint256"
            },
            {
              "internalType": "uint256",
              "name": "categoryId",
              "type": "uint256"
            },
            {
              "internalType": "enum BlockPledge.StatusEnum",
              "name": "status",
              "type": "uint8"
            },
            {
              "internalType": "string",
              "name": "deletionReason",
              "type": "string"
            }
          ],
          "internalType": "struct BlockPledge.ProjectStruct[]",
          "name": "",
          "type": "tuple[]"
        }
      ],
      "stateMutability": "view",
      "type": "function"
    },
    {
      "inputs": [],
      "name": "getStats",
      "outputs": [
        {
          "components": [
            {
              "internalType": "uint256",
              "name": "totalProjects",
              "type": "uint256"
            },
            {
              "internalType": "uint256",
              "name": "totalBackings",
              "type": "uint256"
            },
            {
              "internalType": "uint256",
              "name": "totalDonations",
              "type": "uint256"
            }
          ],
          "internalType": "struct BlockPledge.StatsStruct",
          "name": "",
          "type": "tuple"
        }
      ],
      "stateMutability": "view",
      "type": "function"
    },
    {
      "inputs": [
        {
          "internalType": "address",
          "name": "_user",
          "type": "address"
        }
      ],
      "name": "getUserProjects",
      "outputs": [
        {
          "components": [
            {
              "internalType": "uint256",
              "name": "id",
              "type": "uint256"
            },
            {
              "internalType": "address",
              "name": "owner",
              "type": "address"
            },
            {
              "internalType": "string",
              "name": "title",
              "type": "string"
            },
            {
              "internalType": "string",
              "name": "description",
              "type": "string"
            },
            {
              "internalType": "string[]",
              "name": "imageUrls",
              "type": "string[]"
            },
            {
              "internalType": "uint256",
              "name": "cost",
              "type": "uint256"
            },
            {
              "internalType": "uint256",
              "name": "raised",
              "type": "uint256"
            },
            {
              "internalType": "uint256",
              "name": "createdAt",
              "type": "uint256"
            },
            {
              "internalType": "uint256",
              "name": "expiresAt",
              "type": "uint256"
            },
            {
              "internalType": "uint256",
              "name": "backers",
              "type": "uint256"
            },
            {
              "internalType": "uint256",
              "name": "categoryId",
              "type": "uint256"
            },
            {
              "internalType": "enum BlockPledge.StatusEnum",
              "name": "status",
              "type": "uint8"
            },
            {
              "internalType": "string",
              "name": "deletionReason",
              "type": "string"
            }
          ],
          "internalType": "struct BlockPledge.ProjectStruct[]",
          "name": "",
          "type": "tuple[]"
        }
      ],
      "stateMutability": "view",
      "type": "function"
    },
    {
      "inputs": [],
      "name": "owner",
      "outputs": [
        {
          "internalType": "address",
          "name": "",
          "type": "address"
        }
      ],
      "stateMutability": "view",
      "type": "function"
    },
    {
      "inputs": [
        {
          "internalType": "uint256",
          "name": "_id",
          "type": "uint256"
        }
      ],
      "name": "payOutProject",
      "outputs": [
        {
          "internalType": "bool",
          "name": "",
          "type": "bool"
        }
      ],
      "stateMutability": "nonpayable",
      "type": "function"
    },
    {
      "inputs": [],
      "name": "projectCount",
      "outputs": [
        {
          "internalType": "uint256",
          "name": "",
          "type": "uint256"
        }
      ],
      "stateMutability": "view",
      "type": "function"
    },
    {
      "inputs": [
        {
          "internalType": "uint256",
          "name": "",
          "type": "uint256"
        }
      ],
      "name": "projectExists",
      "outputs": [
        {
          "internalType": "bool",
          "name": "",
          "type": "bool"
        }
      ],
      "stateMutability": "view",
      "type": "function"
    },
    {
      "inputs": [],
      "name": "projectTax",
      "outputs": [
        {
          "internalType": "uint256",
          "name": "",
          "type": "uint256"
        }
      ],
      "stateMutability": "view",
      "type": "function"
    },
    {
      "inputs": [
        {
          "internalType": "uint256",
          "name": "",
          "type": "uint256"
        }
      ],
      "name": "projects",
      "outputs": [
        {
          "internalType": "uint256",
          "name": "id",
          "type": "uint256"
        },
        {
          "internalType": "address",
          "name": "owner",
          "type": "address"
        },
        {
          "internalType": "string",
          "name": "title",
          "type": "string"
        },
        {
          "internalType": "string",
          "name": "description",
          "type": "string"
        },
        {
          "internalType": "uint256",
          "name": "cost",
          "type": "uint256"
        },
        {
          "internalType": "uint256",
          "name": "raised",
          "type": "uint256"
        },
        {
          "internalType": "uint256",
          "name": "createdAt",
          "type": "uint256"
        },
        {
          "internalType": "uint256",
          "name": "expiresAt",
          "type": "uint256"
        },
        {
          "internalType": "uint256",
          "name": "backers",
          "type": "uint256"
        },
        {
          "internalType": "uint256",
          "name": "categoryId",
          "type": "uint256"
        },
        {
          "internalType": "enum BlockPledge.StatusEnum",
          "name": "status",
          "type": "uint8"
        },
        {
          "internalType": "string",
          "name": "deletionReason",
          "type": "string"
        }
      ],
      "stateMutability": "view",
      "type": "function"
    },
    {
      "inputs": [
        {
          "internalType": "address",
          "name": "",
          "type": "address"
        },
        {
          "internalType": "uint256",
          "name": "",
          "type": "uint256"
        }
      ],
      "name": "projectsOf",
      "outputs": [
        {
          "internalType": "uint256",
          "name": "id",
          "type": "uint256"
        },
        {
          "internalType": "address",
          "name": "owner",
          "type": "address"
        },
        {
          "internalType": "string",
          "name": "title",
          "type": "string"
        },
        {
          "internalType": "string",
          "name": "description",
          "type": "string"
        },
        {
          "internalType": "uint256",
          "name": "cost",
          "type": "uint256"
        },
        {
          "internalType": "uint256",
          "name": "raised",
          "type": "uint256"
        },
        {
          "internalType": "uint256",
          "name": "createdAt",
          "type": "uint256"
        },
        {
          "internalType": "uint256",
          "name": "expiresAt",
          "type": "uint256"
        },
        {
          "internalType": "uint256",
          "name": "backers",
          "type": "uint256"
        },
        {
          "internalType": "uint256",
          "name": "categoryId",
          "type": "uint256"
        },
        {
          "internalType": "enum BlockPledge.StatusEnum",
          "name": "status",
          "type": "uint8"
        },
        {
          "internalType": "string",
          "name": "deletionReason",
          "type": "string"
        }
      ],
      "stateMutability": "view",
      "type": "function"
    },
    {
      "inputs": [
        {
          "internalType": "uint256",
          "name": "_id",
          "type": "uint256"
        },
        {
          "internalType": "string",
          "name": "_reason",
          "type": "string"
        }
      ],
      "name": "rejectProject",
      "outputs": [
        {
          "internalType": "bool",
          "name": "",
          "type": "bool"
        }
      ],
      "stateMutability": "nonpayable",
      "type": "function"
    },
    {
      "inputs": [
        {
          "internalType": "uint256",
          "name": "_id",
          "type": "uint256"
        }
      ],
      "name": "requestRefund",
      "outputs": [
        {
          "internalType": "bool",
          "name": "",
          "type": "bool"
        }
      ],
      "stateMutability": "nonpayable",
      "type": "function"
    },
    {
      "inputs": [],
      "name": "stats",
      "outputs": [
        {
          "internalType": "uint256",
          "name": "totalProjects",
          "type": "uint256"
        },
        {
          "internalType": "uint256",
          "name": "totalBackings",
          "type": "uint256"
        },
        {
          "internalType": "uint256",
          "name": "totalDonations",
          "type": "uint256"
        }
      ],
      "stateMutability": "view",
      "type": "function"
    },
    {
      "inputs": [
        {
          "internalType": "uint256",
          "name": "_id",
          "type": "uint256"
        },
        {
          "internalType": "string",
          "name": "_description",
          "type": "string"
        },
        {
          "internalType": "string[]",
          "name": "_imageUrls",
          "type": "string[]"
        }
      ],
      "name": "updateProject",
      "outputs": [
        {
          "internalType": "bool",
          "name": "",
          "type": "bool"
        }
      ],
      "stateMutability": "nonpayable",
      "type": "function"
    }
  ],
  "bytecode": "0x60806040523480156200001157600080fd5b5060405162006131380380620061318339818101604052810190620000379190620005db565b336000806101000a81548173ffffffffffffffffffffffffffffffffffffffff021916908373ffffffffffffffffffffffffffffffffffffffff160217905550806001819055506000600c67ffffffffffffffff8111156200009e576200009d6200060d565b5b604051908082528060200260200182016040528015620000d357816020015b6060815260200190600190039081620000bd5790505b5090506040518060400160405280601081526020017f4172742026204372656174697669747900000000000000000000000000000000815250816000815181106200012357620001226200063c565b5b60200260200101819052506040518060400160405280601781526020017f546563686e6f6c6f6779202620496e6e6f766174696f6e000000000000000000815250816001815181106200017b576200017a6200063c565b5b60200260200101819052506040518060400160405280601981526020017f436f6d6d756e697479202620536f6369616c20496d706163740000000000000081525081600281518110620001d357620001d26200063c565b5b60200260200101819052506040518060400160405280601081526020017f46617368696f6e20262044657369676e00000000000000000000000000000000815250816003815181106200022b576200022a6200063c565b5b60200260200101819052506040518060400160405280600f81526020017f466f6f6420262042657665726167650000000000000000000000000000000000815250816004815181106200028357620002826200063c565b5b60200260200101819052506040518060400160405280601681526020017f47616d696e67202620456e7465727461696e6d656e740000000000000000000081525081600581518110620002db57620002da6200063c565b5b60200260200101819052506040518060400160405280601481526020017f54726176656c2026204578706c6f726174696f6e000000000000000000000000815250816006815181106200033357620003326200063c565b5b60200260200101819052506040518060400160405280601481526020017f456475636174696f6e2026204c6561726e696e67000000000000000000000000815250816007815181106200038b576200038a6200063c565b5b60200260200101819052506040518060400160405280601081526020017f4865616c74682026204669746e6573730000000000000000000000000000000081525081600881518110620003e357620003e26200063c565b5b60200260200101819052506040518060400160405280600c81526020017f4372616674732026204449590000000000000000000000000000000000000000815250816009815181106200043b576200043a6200063c565b5b60200260200101819052506040518060400160405280601481526020017f46696e616e6365202620496e766573746d656e7400000000000000000000000081525081600a815181106200049357620004926200063c565b5b60200260200101819052506040518060400160405280600e81526020017f50657473202620416e696d616c7300000000000000000000000000000000000081525081600b81518110620004eb57620004ea6200063c565b5b602002602001018190525060005b81518110156200059257600760405180604001604052808381526020018484815181106200052c576200052b6200063c565b5b60200260200101518152509080600181540180825580915050600190039060005260206000209060020201600090919091909150600082015181600001556020820151816001019081620005819190620008ac565b5050508080600101915050620004f9565b50505062000993565b600080fd5b6000819050919050565b620005b581620005a0565b8114620005c157600080fd5b50565b600081519050620005d581620005aa565b92915050565b600060208284031215620005f457620005f36200059b565b5b60006200060484828501620005c4565b91505092915050565b7f4e487b7100000000000000000000000000000000000000000000000000000000600052604160045260246000fd5b7f4e487b7100000000000000000000000000000000000000000000000000000000600052603260045260246000fd5b600081519050919050565b7f4e487b7100000000000000000000000000000000000000000000000000000000600052602260045260246000fd5b60006002820490506001821680620006be57607f821691505b602082108103620006d457620006d362000676565b5b50919050565b60008190508160005260206000209050919050565b60006020601f8301049050919050565b600082821b905092915050565b6000600883026200073e7fffffffffffffffffffffffffffffffffffffffffffffffffffffffffffffffff82620006ff565b6200074a8683620006ff565b95508019841693508086168417925050509392505050565b6000819050919050565b60006200078d620007876200078184620005a0565b62000762565b620005a0565b9050919050565b6000819050919050565b620007a9836200076c565b620007c1620007b88262000794565b8484546200070c565b825550505050565b600090565b620007d8620007c9565b620007e58184846200079e565b505050565b5b818110156200080d5762000801600082620007ce565b600181019050620007eb565b5050565b601f8211156200085c576200082681620006da565b6200083184620006ef565b8101602085101562000841578190505b620008596200085085620006ef565b830182620007ea565b50505b505050565b600082821c905092915050565b6000620008816000198460080262000861565b1980831691505092915050565b60006200089c83836200086e565b9150826002028217905092915050565b620008b7826200066b565b67ffffffffffffffff811115620008d357620008d26200060d565b5b620008df8254620006a5565b620008ec82828562000811565b600060209050601f8311600181146200092457600084156200090f578287015190505b6200091b85826200088e565b8655506200098b565b601f1984166200093486620006da565b60005b828110156200095e5784890151825560018201915060208501945060208101905062000937565b868310156200097e57848901516200097a601f8916826200086e565b8355505b6001600288020188555050505b505050505050565b61578e80620009a36000396000f3fe60806040526004361061014b5760003560e01c8063a4b2409e116100b6578063d80528ae1161006f578063d80528ae14610536578063dcc6012814610563578063e32e723c1461058e578063f0f3f2c8146105cb578063f9285aa014610608578063fd1d5ea9146106495761014b565b8063a4b2409e146103eb578063b531dcba14610428578063c59d484714610465578063c6cdbe5e14610490578063c9168b72146104ce578063d24cd3ec1461050b5761014b565b80634db0412c116101085780634db0412c146102a3578063703d52af146102ce5780637326c7181461030b5780638da5cb5b146103485780638e55563214610373578063944173df146103bb5761014b565b8063013feda914610150578063086a8a871461018d578063107046bd146101ca57806336fbad26146102125780633e45c8af1461023d578063486ee33114610266575b600080fd5b34801561015c57600080fd5b5061017760048036038101906101729190613aa2565b610686565b6040516101849190613b48565b60405180910390f35b34801561019957600080fd5b506101b460048036038101906101af9190613b63565b6108c0565b6040516101c19190613b48565b60405180910390f35b3480156101d657600080fd5b506101f160048036038101906101ec9190613bbf565b610b0d565b6040516102099c9b9a99989796959493929190613d32565b60405180910390f35b34801561021e57600080fd5b50610227610d42565b6040516102349190613e01565b60405180910390f35b34801561024957600080fd5b50610264600480360381019061025f9190613bbf565b610d48565b005b34801561027257600080fd5b5061028d60048036038101906102889190613b63565b610de0565b60405161029a9190613b48565b60405180910390f35b3480156102af57600080fd5b506102b8610ffa565b6040516102c59190613f74565b60405180910390f35b3480156102da57600080fd5b506102f560048036038101906102f09190613bbf565b6110f5565b6040516103029190613b48565b60405180910390f35b34801561031757600080fd5b50610332600480360381019061032d9190613f96565b611115565b60405161033f9190613b48565b60405180910390f35b34801561035457600080fd5b5061035d6116fd565b60405161036a9190614077565b60405180910390f35b34801561037f57600080fd5b5061039a600480360381019061039591906140be565b611721565b6040516103b29c9b9a99989796959493929190613d32565b60405180910390f35b6103d560048036038101906103d09190613b63565b611963565b6040516103e29190613b48565b60405180910390f35b3480156103f757600080fd5b50610412600480360381019061040d9190613bbf565b611de8565b60405161041f9190613b48565b60405180910390f35b34801561043457600080fd5b5061044f600480360381019061044a9190613bbf565b611f47565b60405161045c9190613b48565b60405180910390f35b34801561047157600080fd5b5061047a6120fd565b6040516104879190614140565b60405180910390f35b34801561049c57600080fd5b506104b760048036038101906104b29190613bbf565b612135565b6040516104c592919061415b565b60405180910390f35b3480156104da57600080fd5b506104f560048036038101906104f09190613bbf565b6121f1565b60405161050291906142e1565b60405180910390f35b34801561051757600080fd5b5061052061237a565b60405161052d9190613e01565b60405180910390f35b34801561054257600080fd5b5061054b612380565b60405161055a93929190614303565b60405180910390f35b34801561056f57600080fd5b50610578612398565b60405161058591906145fb565b60405180910390f35b34801561059a57600080fd5b506105b560048036038101906105b0919061461d565b61275e565b6040516105c291906145fb565b60405180910390f35b3480156105d757600080fd5b506105f260048036038101906105ed9190613bbf565b612b63565b6040516105ff9190614778565b60405180910390f35b34801561061457600080fd5b5061062f600480360381019061062a919061479a565b612f66565b6040516106409594939291906147da565b60405180910390f35b34801561065557600080fd5b50610670600480360381019061066b9190613bbf565b61306e565b60405161067d9190613b48565b60405180910390f35b60006006848154811061069c5761069b614834565b5b90600052602060002090600d020160010160009054906101000a900473ffffffffffffffffffffffffffffffffffffffff1673ffffffffffffffffffffffffffffffffffffffff163373ffffffffffffffffffffffffffffffffffffffff161461073b576040517f08c379a0000000000000000000000000000000000000000000000000000000008152600401610732906148af565b60405180910390fd5b600083511161077f576040517f08c379a00000000000000000000000000000000000000000000000000000000081526004016107769061491b565b60405180910390fd5b60008251116107c3576040517f08c379a00000000000000000000000000000000000000000000000000000000081526004016107ba90614987565b60405180910390fd5b82600685815481106107d8576107d7614834565b5b90600052602060002090600d020160030190816107f59190614bb3565b50816006858154811061080b5761080a614834565b5b90600052602060002090600d0201600401908051906020019061082f9291906136a1565b507f2b3e4abc222ff4b04d6c018b3d77e8ae74277f44fc0062205b71931e61ee4e45846006868154811061086657610865614834565b5b90600052602060002090600d02016003016006878154811061088b5761088a614834565b5b90600052602060002090600d0201600401426040516108ad9493929190614e53565b60405180910390a1600190509392505050565b60008060009054906101000a900473ffffffffffffffffffffffffffffffffffffffff1673ffffffffffffffffffffffffffffffffffffffff163373ffffffffffffffffffffffffffffffffffffffff1614610951576040517f08c379a000000000000000000000000000000000000000000000000000000000815260040161094890614ef2565b60405180910390fd5b600a600084815260200190815260200160002060009054906101000a900460ff166109b1576040517f08c379a00000000000000000000000000000000000000000000000000000000081526004016109a890614f5e565b60405180910390fd5b6005808111156109c4576109c3613cbb565b5b600684815481106109d8576109d7614834565b5b90600052602060002090600d0201600b0160009054906101000a900460ff166005811115610a0957610a08613cbb565b5b14610a49576040517f08c379a0000000000000000000000000000000000000000000000000000000008152600401610a4090614fca565b60405180910390fd5b600360068481548110610a5f57610a5e614834565b5b90600052602060002090600d0201600b0160006101000a81548160ff02191690836005811115610a9257610a91613cbb565b5b02179055508160068481548110610aac57610aab614834565b5b90600052602060002090600d0201600c019081610ac99190614bb3565b507fced42070be441b0c0e37a7030b1979b9d9116f4a19677cedc618153a8aab1a7d8342604051610afb929190614fea565b60405180910390a16001905092915050565b60068181548110610b1d57600080fd5b90600052602060002090600d02016000915090508060000154908060010160009054906101000a900473ffffffffffffffffffffffffffffffffffffffff1690806002018054610b6c906149d6565b80601f0160208091040260200160405190810160405280929190818152602001828054610b98906149d6565b8015610be55780601f10610bba57610100808354040283529160200191610be5565b820191906000526020600020905b815481529060010190602001808311610bc857829003601f168201915b505050505090806003018054610bfa906149d6565b80601f0160208091040260200160405190810160405280929190818152602001828054610c26906149d6565b8015610c735780601f10610c4857610100808354040283529160200191610c73565b820191906000526020600020905b815481529060010190602001808311610c5657829003601f168201915b50505050509080600501549080600601549080600701549080600801549080600901549080600a01549080600b0160009054906101000a900460ff169080600c018054610cbf906149d6565b80601f0160208091040260200160405190810160405280929190818152602001828054610ceb906149d6565b8015610d385780601f10610d0d57610100808354040283529160200191610d38565b820191906000526020600020905b815481529060010190602001808311610d1b57829003601f168201915b505050505090508c565b60025481565b60008054906101000a900473ffffffffffffffffffffffffffffffffffffffff1673ffffffffffffffffffffffffffffffffffffffff163373ffffffffffffffffffffffffffffffffffffffff1614610dd6576040517f08c379a0000000000000000000000000000000000000000000000000000000008152600401610dcd90614ef2565b60405180910390fd5b8060018190555050565b6000806005811115610df557610df4613cbb565b5b60068481548110610e0957610e08614834565b5b90600052602060002090600d0201600b0160009054906101000a900460ff166005811115610e3a57610e39613cbb565b5b14610e7a576040517f08c379a0000000000000000000000000000000000000000000000000000000008152600401610e719061505f565b60405180910390fd5b60068381548110610e8e57610e8d614834565b5b90600052602060002090600d020160010160009054906101000a900473ffffffffffffffffffffffffffffffffffffffff1673ffffffffffffffffffffffffffffffffffffffff163373ffffffffffffffffffffffffffffffffffffffff1614610f2d576040517f08c379a0000000000000000000000000000000000000000000000000000000008152600401610f24906148af565b60405180910390fd5b600360068481548110610f4357610f42614834565b5b90600052602060002090600d0201600b0160006101000a81548160ff02191690836005811115610f7657610f75613cbb565b5b02179055508160068481548110610f9057610f8f614834565b5b90600052602060002090600d0201600c019081610fad9190614bb3565b50610fb783613287565b7f4484a435bc92a4925b8b18f20baf06d71675934c29cc91d21550d29939098ed08342604051610fe8929190614fea565b60405180910390a16001905092915050565b60606007805480602002602001604051908101604052809291908181526020016000905b828210156110ec57838290600052602060002090600202016040518060400160405290816000820154815260200160018201805461105b906149d6565b80601f0160208091040260200160405190810160405280929190818152602001828054611087906149d6565b80156110d45780601f106110a9576101008083540402835291602001916110d4565b820191906000526020600020905b8154815290600101906020018083116110b757829003601f168201915b5050505050815250508152602001906001019061101e565b50505050905090565b600a6020528060005260406000206000915054906101000a900460ff1681565b60008087511161115a576040517f08c379a0000000000000000000000000000000000000000000000000000000008152600401611151906150cb565b60405180910390fd5b600086511161119e576040517f08c379a00000000000000000000000000000000000000000000000000000000081526004016111959061491b565b60405180910390fd5b60008551116111e2576040517f08c379a00000000000000000000000000000000000000000000000000000000081526004016111d990614987565b60405180910390fd5b60008311611225576040517f08c379a000000000000000000000000000000000000000000000000000000000815260040161121c90615137565b60405180910390fd5b600780549050841061126c576040517f08c379a0000000000000000000000000000000000000000000000000000000008152600401611263906151a3565b60405180910390fd5b6112746136fa565b60025481600001818152505033816020019073ffffffffffffffffffffffffffffffffffffffff16908173ffffffffffffffffffffffffffffffffffffffff16815250508781604001819052508681606001819052508581608001819052508481610140018181525050838160a0018181525050428160e001818152505082816101000181815250506005816101600190600581111561131757611316613cbb565b5b9081600581111561132b5761132a613cbb565b5b8152505060068190806001815401808255809150506001900390600052602060002090600d02016000909190919091506000820151816000015560208201518160010160006101000a81548173ffffffffffffffffffffffffffffffffffffffff021916908373ffffffffffffffffffffffffffffffffffffffff16021790555060408201518160020190816113c19190614bb3565b5060608201518160030190816113d79190614bb3565b5060808201518160040190805190602001906113f49291906136a1565b5060a0820151816005015560c0820151816006015560e082015181600701556101008201518160080155610120820151816009015561014082015181600a015561016082015181600b0160006101000a81548160ff021916908360058111156114605761145f613cbb565b5b021790555061018082015181600c01908161147b9190614bb3565b5050506001600a6000600254815260200190815260200160002060006101000a81548160ff021916908315150217905550600860003373ffffffffffffffffffffffffffffffffffffffff1673ffffffffffffffffffffffffffffffffffffffff1681526020019081526020016000208190806001815401808255809150506001900390600052602060002090600d02016000909190919091506000820151816000015560208201518160010160006101000a81548173ffffffffffffffffffffffffffffffffffffffff021916908373ffffffffffffffffffffffffffffffffffffffff160217905550604082015181600201908161157b9190614bb3565b5060608201518160030190816115919190614bb3565b5060808201518160040190805190602001906115ae9291906136a1565b5060a0820151816005015560c0820151816006015560e082015181600701556101008201518160080155610120820151816009015561014082015181600a015561016082015181600b0160006101000a81548160ff0219169083600581111561161a57611619613cbb565b5b021790555061018082015181600c0190816116359190614bb3565b50505060016003600001600082825461164e91906151f2565b925050819055507f8cf4e1d4b9410a561c059bf493552b7aada9d719a2ba67efb08b19793f43b450816000015182602001518360400151846060015185608001518661014001518760a001518860c001518960e001518a61010001518b61012001518c61016001516040516116ce9c9b9a9998979695949392919061529b565b60405180910390a1600260008154809291906116e99061536a565b919050555060019150509695505050505050565b60008054906101000a900473ffffffffffffffffffffffffffffffffffffffff1681565b6008602052816000526040600020818154811061173d57600080fd5b90600052602060002090600d0201600091509150508060000154908060010160009054906101000a900473ffffffffffffffffffffffffffffffffffffffff169080600201805461178d906149d6565b80601f01602080910402602001604051908101604052809291908181526020018280546117b9906149d6565b80156118065780601f106117db57610100808354040283529160200191611806565b820191906000526020600020905b8154815290600101906020018083116117e957829003601f168201915b50505050509080600301805461181b906149d6565b80601f0160208091040260200160405190810160405280929190818152602001828054611847906149d6565b80156118945780601f1061186957610100808354040283529160200191611894565b820191906000526020600020905b81548152906001019060200180831161187757829003601f168201915b50505050509080600501549080600601549080600701549080600801549080600901549080600a01549080600b0160009054906101000a900460ff169080600c0180546118e0906149d6565b80601f016020809104026020016040519081016040528092919081815260200182805461190c906149d6565b80156119595780601f1061192e57610100808354040283529160200191611959565b820191906000526020600020905b81548152906001019060200180831161193c57829003601f168201915b505050505090508c565b60008034116119a7576040517f08c379a000000000000000000000000000000000000000000000000000000000815260040161199e906153fe565b60405180910390fd5b600a600084815260200190815260200160002060009054906101000a900460ff16611a07576040517f08c379a00000000000000000000000000000000000000000000000000000000081526004016119fe90614f5e565b60405180910390fd5b60006005811115611a1b57611a1a613cbb565b5b60068481548110611a2f57611a2e614834565b5b90600052602060002090600d0201600b0160009054906101000a900460ff166005811115611a6057611a5f613cbb565b5b14611aa0576040517f08c379a0000000000000000000000000000000000000000000000000000000008152600401611a979061505f565b60405180910390fd5b600160036001016000828254611ab691906151f2565b925050819055503460036002016000828254611ad291906151f2565b925050819055503460068481548110611aee57611aed614834565b5b90600052602060002090600d02016006016000828254611b0e91906151f2565b92505081905550600160068481548110611b2b57611b2a614834565b5b90600052602060002090600d02016009016000828254611b4b91906151f2565b92505081905550600960008481526020019081526020016000206040518060a001604052803373ffffffffffffffffffffffffffffffffffffffff16815260200134815260200142815260200184815260200160001515815250908060018154018082558091505060019003906000526020600020906005020160009091909190915060008201518160000160006101000a81548173ffffffffffffffffffffffffffffffffffffffff021916908373ffffffffffffffffffffffffffffffffffffffff16021790555060208201518160010155604082015181600201556060820151816003019081611c3e9190614bb3565b5060808201518160040160006101000a81548160ff02191690831515021790555050507f3fd3e7fc6bef374395b140220fb25117bacec01a74cf71ee35dfb0053dd9ac8c8333348542604051611c9895949392919061541e565b60405180910390a160068381548110611cb457611cb3614834565b5b90600052602060002090600d02016005015460068481548110611cda57611cd9614834565b5b90600052602060002090600d02016006015410611d5157600160068481548110611d0757611d06614834565b5b90600052602060002090600d0201600b0160006101000a81548160ff02191690836005811115611d3a57611d39613cbb565b5b0217905550611d488361341e565b60019050611de2565b60068381548110611d6557611d64614834565b5b90600052602060002090600d0201600801544210611ddd57600260068481548110611d9357611d92614834565b5b90600052602060002090600d0201600b0160006101000a81548160ff02191690836005811115611dc657611dc5613cbb565b5b0217905550611dd483613287565b60019050611de2565b600190505b92915050565b600060026005811115611dfe57611dfd613cbb565b5b60068381548110611e1257611e11614834565b5b90600052602060002090600d0201600b0160009054906101000a900460ff166005811115611e4357611e42613cbb565b5b14158015611ea8575060036005811115611e6057611e5f613cbb565b5b60068381548110611e7457611e73614834565b5b90600052602060002090600d0201600b0160009054906101000a900460ff166005811115611ea557611ea4613cbb565b5b14155b611ee7576040517f08c379a0000000000000000000000000000000000000000000000000000000008152600401611ede906154ea565b60405180910390fd5b600260068381548110611efd57611efc614834565b5b90600052602060002090600d0201600b0160006101000a81548160ff02191690836005811115611f3057611f2f613cbb565b5b0217905550611f3e82613287565b60019050919050565b600060016005811115611f5d57611f5c613cbb565b5b60068381548110611f7157611f70614834565b5b90600052602060002090600d0201600b0160009054906101000a900460ff166005811115611fa257611fa1613cbb565b5b14611fe2576040517f08c379a0000000000000000000000000000000000000000000000000000000008152600401611fd990615556565b60405180910390fd5b60068281548110611ff657611ff5614834565b5b90600052602060002090600d020160010160009054906101000a900473ffffffffffffffffffffffffffffffffffffffff1673ffffffffffffffffffffffffffffffffffffffff163373ffffffffffffffffffffffffffffffffffffffff1614806120ac575060008054906101000a900473ffffffffffffffffffffffffffffffffffffffff1673ffffffffffffffffffffffffffffffffffffffff163373ffffffffffffffffffffffffffffffffffffffff16145b6120eb576040517f08c379a00000000000000000000000000000000000000000000000000000000081526004016120e2906148af565b60405180910390fd5b6120f48261341e565b60019050919050565b61210561378a565b60036040518060600160405290816000820154815260200160018201548152602001600282015481525050905090565b6007818154811061214557600080fd5b906000526020600020906002020160009150905080600001549080600101805461216e906149d6565b80601f016020809104026020016040519081016040528092919081815260200182805461219a906149d6565b80156121e75780601f106121bc576101008083540402835291602001916121e7565b820191906000526020600020905b8154815290600101906020018083116121ca57829003601f168201915b5050505050905082565b606060096000838152602001908152602001600020805480602002602001604051908101604052809291908181526020016000905b8282101561236f57838290600052602060002090600502016040518060a00160405290816000820160009054906101000a900473ffffffffffffffffffffffffffffffffffffffff1673ffffffffffffffffffffffffffffffffffffffff1673ffffffffffffffffffffffffffffffffffffffff16815260200160018201548152602001600282015481526020016003820180546122c3906149d6565b80601f01602080910402602001604051908101604052809291908181526020018280546122ef906149d6565b801561233c5780601f106123115761010080835404028352916020019161233c565b820191906000526020600020905b81548152906001019060200180831161231f57829003601f168201915b505050505081526020016004820160009054906101000a900460ff16151515158152505081526020019060010190612226565b505050509050919050565b60015481565b60038060000154908060010154908060020154905083565b60606006805480602002602001604051908101604052809291908181526020016000905b8282101561275557838290600052602060002090600d0201604051806101a0016040529081600082015481526020016001820160009054906101000a900473ffffffffffffffffffffffffffffffffffffffff1673ffffffffffffffffffffffffffffffffffffffff1673ffffffffffffffffffffffffffffffffffffffff168152602001600282018054612450906149d6565b80601f016020809104026020016040519081016040528092919081815260200182805461247c906149d6565b80156124c95780601f1061249e576101008083540402835291602001916124c9565b820191906000526020600020905b8154815290600101906020018083116124ac57829003601f168201915b505050505081526020016003820180546124e2906149d6565b80601f016020809104026020016040519081016040528092919081815260200182805461250e906149d6565b801561255b5780601f106125305761010080835404028352916020019161255b565b820191906000526020600020905b81548152906001019060200180831161253e57829003601f168201915b5050505050815260200160048201805480602002602001604051908101604052809291908181526020016000905b828210156126355783829060005260206000200180546125a8906149d6565b80601f01602080910402602001604051908101604052809291908181526020018280546125d4906149d6565b80156126215780601f106125f657610100808354040283529160200191612621565b820191906000526020600020905b81548152906001019060200180831161260457829003601f168201915b505050505081526020019060010190612589565b5050505081526020016005820154815260200160068201548152602001600782015481526020016008820154815260200160098201548152602001600a8201548152602001600b820160009054906101000a900460ff16600581111561269e5761269d613cbb565b5b60058111156126b0576126af613cbb565b5b8152602001600c820180546126c4906149d6565b80601f01602080910402602001604051908101604052809291908181526020018280546126f0906149d6565b801561273d5780601f106127125761010080835404028352916020019161273d565b820191906000526020600020905b81548152906001019060200180831161272057829003601f168201915b505050505081525050815260200190600101906123bc565b50505050905090565b6060600860008373ffffffffffffffffffffffffffffffffffffffff1673ffffffffffffffffffffffffffffffffffffffff168152602001908152602001600020805480602002602001604051908101604052809291908181526020016000905b82821015612b5857838290600052602060002090600d0201604051806101a0016040529081600082015481526020016001820160009054906101000a900473ffffffffffffffffffffffffffffffffffffffff1673ffffffffffffffffffffffffffffffffffffffff1673ffffffffffffffffffffffffffffffffffffffff168152602001600282018054612853906149d6565b80601f016020809104026020016040519081016040528092919081815260200182805461287f906149d6565b80156128cc5780601f106128a1576101008083540402835291602001916128cc565b820191906000526020600020905b8154815290600101906020018083116128af57829003601f168201915b505050505081526020016003820180546128e5906149d6565b80601f0160208091040260200160405190810160405280929190818152602001828054612911906149d6565b801561295e5780601f106129335761010080835404028352916020019161295e565b820191906000526020600020905b81548152906001019060200180831161294157829003601f168201915b5050505050815260200160048201805480602002602001604051908101604052809291908181526020016000905b82821015612a385783829060005260206000200180546129ab906149d6565b80601f01602080910402602001604051908101604052809291908181526020018280546129d7906149d6565b8015612a245780601f106129f957610100808354040283529160200191612a24565b820191906000526020600020905b815481529060010190602001808311612a0757829003601f168201915b50505050508152602001906001019061298c565b5050505081526020016005820154815260200160068201548152602001600782015481526020016008820154815260200160098201548152602001600a8201548152602001600b820160009054906101000a900460ff166005811115612aa157612aa0613cbb565b5b6005811115612ab357612ab2613cbb565b5b8152602001600c82018054612ac7906149d6565b80601f0160208091040260200160405190810160405280929190818152602001828054612af3906149d6565b8015612b405780601f10612b1557610100808354040283529160200191612b40565b820191906000526020600020905b815481529060010190602001808311612b2357829003601f168201915b505050505081525050815260200190600101906127bf565b505050509050919050565b612b6b6136fa565b600a600083815260200190815260200160002060009054906101000a900460ff16612bcb576040517f08c379a0000000000000000000000000000000000000000000000000000000008152600401612bc290614f5e565b60405180910390fd5b60068281548110612bdf57612bde614834565b5b90600052602060002090600d0201604051806101a0016040529081600082015481526020016001820160009054906101000a900473ffffffffffffffffffffffffffffffffffffffff1673ffffffffffffffffffffffffffffffffffffffff1673ffffffffffffffffffffffffffffffffffffffff168152602001600282018054612c69906149d6565b80601f0160208091040260200160405190810160405280929190818152602001828054612c95906149d6565b8015612ce25780601f10612cb757610100808354040283529160200191612ce2565b820191906000526020600020905b815481529060010190602001808311612cc557829003601f168201915b50505050508152602001600382018054612cfb906149d6565b80601f0160208091040260200160405190810160405280929190818152602001828054612d27906149d6565b8015612d745780601f10612d4957610100808354040283529160200191612d74565b820191906000526020600020905b815481529060010190602001808311612d5757829003601f168201915b5050505050815260200160048201805480602002602001604051908101604052809291908181526020016000905b82821015612e4e578382906000526020600020018054612dc1906149d6565b80601f0160208091040260200160405190810160405280929190818152602001828054612ded906149d6565b8015612e3a5780601f10612e0f57610100808354040283529160200191612e3a565b820191906000526020600020905b815481529060010190602001808311612e1d57829003601f168201915b505050505081526020019060010190612da2565b5050505081526020016005820154815260200160068201548152602001600782015481526020016008820154815260200160098201548152602001600a8201548152602001600b820160009054906101000a900460ff166005811115612eb757612eb6613cbb565b5b6005811115612ec957612ec8613cbb565b5b8152602001600c82018054612edd906149d6565b80601f0160208091040260200160405190810160405280929190818152602001828054612f09906149d6565b8015612f565780601f10612f2b57610100808354040283529160200191612f56565b820191906000526020600020905b815481529060010190602001808311612f3957829003601f168201915b5050505050815250509050919050565b60096020528160005260406000208181548110612f8257600080fd5b9060005260206000209060050201600091509150508060000160009054906101000a900473ffffffffffffffffffffffffffffffffffffffff1690806001015490806002015490806003018054612fd8906149d6565b80601f0160208091040260200160405190810160405280929190818152602001828054613004906149d6565b80156130515780601f1061302657610100808354040283529160200191613051565b820191906000526020600020905b81548152906001019060200180831161303457829003601f168201915b5050505050908060040160009054906101000a900460ff16905085565b60008060009054906101000a900473ffffffffffffffffffffffffffffffffffffffff1673ffffffffffffffffffffffffffffffffffffffff163373ffffffffffffffffffffffffffffffffffffffff16146130ff576040517f08c379a00000000000000000000000000000000000000000000000000000000081526004016130f690614ef2565b60405180910390fd5b600a600083815260200190815260200160002060009054906101000a900460ff1661315f576040517f08c379a000000000000000000000000000000000000000000000000000000000815260040161315690614f5e565b60405180910390fd5b60058081111561317257613171613cbb565b5b6006838154811061318657613185614834565b5b90600052602060002090600d0201600b0160009054906101000a900460ff1660058111156131b7576131b6613cbb565b5b146131f7576040517f08c379a00000000000000000000000000000000000000000000000000000000081526004016131ee90614fca565b60405180910390fd5b60006006838154811061320d5761320c614834565b5b90600052602060002090600d0201600b0160006101000a81548160ff021916908360058111156132405761323f613cbb565b5b02179055507fd253ffdff2c15c0fc0f805a6a2f2a45ae8dae3bebea5b01fd1e706df8798da208242604051613276929190614fea565b60405180910390a160019050919050565b60005b600960008381526020019081526020016000208054905081101561341a5760006009600084815260200190815260200160002082815481106132cf576132ce614834565b5b906000526020600020906005020160000160009054906101000a900473ffffffffffffffffffffffffffffffffffffffff169050600060096000858152602001908152602001600020838154811061332a57613329614834565b5b9060005260206000209060050201600101549050600160096000868152602001908152602001600020848154811061336557613364614834565b5b906000526020600020906005020160040160006101000a81548160ff021916908315150217905550426009600086815260200190815260200160002084815481106133b3576133b2614834565b5b9060005260206000209060050201600201819055506133d282826135f0565b6001600360010160008282546133e89190615576565b9250508190555080600360020160008282546134049190615576565b925050819055505050808060010191505061328a565b5050565b60006006828154811061343457613433614834565b5b90600052602060002090600d0201600601549050600060646001548361345a91906155aa565b613464919061561b565b905060046006848154811061347c5761347b614834565b5b90600052602060002090600d0201600b0160006101000a81548160ff021916908360058111156134af576134ae613cbb565b5b021790555061350e600684815481106134cb576134ca614834565b5b90600052602060002090600d020160010160009054906101000a900473ffffffffffffffffffffffffffffffffffffffff1682846135099190615576565b6135f0565b61353860008054906101000a900473ffffffffffffffffffffffffffffffffffffffff16826135f0565b7fd0f3fcf4a25b042ccd70c831f5ac8043fb63fce36da13e2c72148843ee201846836006858154811061356e5761356d614834565b5b90600052602060002090600d02016002016006868154811061359357613592614834565b5b90600052602060002090600d020160010160009054906101000a900473ffffffffffffffffffffffffffffffffffffffff1684866135d19190615576565b426040516135e395949392919061564c565b60405180910390a1505050565b60008273ffffffffffffffffffffffffffffffffffffffff1682604051613616906156d7565b60006040518083038185875af1925050503d8060008114613653576040519150601f19603f3d011682016040523d82523d6000602084013e613658565b606091505b505090508061369c576040517f08c379a000000000000000000000000000000000000000000000000000000000815260040161369390615738565b60405180910390fd5b505050565b8280548282559060005260206000209081019282156136e9579160200282015b828111156136e85782518290816136d89190614bb3565b50916020019190600101906136c1565b5b5090506136f691906137ab565b5090565b604051806101a0016040528060008152602001600073ffffffffffffffffffffffffffffffffffffffff1681526020016060815260200160608152602001606081526020016000815260200160008152602001600081526020016000815260200160008152602001600081526020016000600581111561377d5761377c613cbb565b5b8152602001606081525090565b60405180606001604052806000815260200160008152602001600081525090565b5b808211156137cb57600081816137c291906137cf565b506001016137ac565b5090565b5080546137db906149d6565b6000825580601f106137ed575061380c565b601f01602090049060005260206000209081019061380b919061380f565b5b50565b5b80821115613828576000816000905550600101613810565b5090565b6000604051905090565b600080fd5b600080fd5b6000819050919050565b61385381613840565b811461385e57600080fd5b50565b6000813590506138708161384a565b92915050565b600080fd5b600080fd5b6000601f19601f8301169050919050565b7f4e487b7100000000000000000000000000000000000000000000000000000000600052604160045260246000fd5b6138c982613880565b810181811067ffffffffffffffff821117156138e8576138e7613891565b5b80604052505050565b60006138fb61382c565b905061390782826138c0565b919050565b600067ffffffffffffffff82111561392757613926613891565b5b61393082613880565b9050602081019050919050565b82818337600083830152505050565b600061395f61395a8461390c565b6138f1565b90508281526020810184848401111561397b5761397a61387b565b5b61398684828561393d565b509392505050565b600082601f8301126139a3576139a2613876565b5b81356139b384826020860161394c565b91505092915050565b600067ffffffffffffffff8211156139d7576139d6613891565b5b602082029050602081019050919050565b600080fd5b6000613a006139fb846139bc565b6138f1565b90508083825260208201905060208402830185811115613a2357613a226139e8565b5b835b81811015613a6a57803567ffffffffffffffff811115613a4857613a47613876565b5b808601613a55898261398e565b85526020850194505050602081019050613a25565b5050509392505050565b600082601f830112613a8957613a88613876565b5b8135613a998482602086016139ed565b91505092915050565b600080600060608486031215613abb57613aba613836565b5b6000613ac986828701613861565b935050602084013567ffffffffffffffff811115613aea57613ae961383b565b5b613af68682870161398e565b925050604084013567ffffffffffffffff811115613b1757613b1661383b565b5b613b2386828701613a74565b9150509250925092565b60008115159050919050565b613b4281613b2d565b82525050565b6000602082019050613b5d6000830184613b39565b92915050565b60008060408385031215613b7a57613b79613836565b5b6000613b8885828601613861565b925050602083013567ffffffffffffffff811115613ba957613ba861383b565b5b613bb58582860161398e565b9150509250929050565b600060208284031215613bd557613bd4613836565b5b6000613be384828501613861565b91505092915050565b613bf581613840565b82525050565b600073ffffffffffffffffffffffffffffffffffffffff82169050919050565b6000613c2682613bfb565b9050919050565b613c3681613c1b565b82525050565b600081519050919050565b600082825260208201905092915050565b60005b83811015613c76578082015181840152602081019050613c5b565b60008484015250505050565b6000613c8d82613c3c565b613c978185613c47565b9350613ca7818560208601613c58565b613cb081613880565b840191505092915050565b7f4e487b7100000000000000000000000000000000000000000000000000000000600052602160045260246000fd5b60068110613cfb57613cfa613cbb565b5b50565b6000819050613d0c82613cea565b919050565b6000613d1c82613cfe565b9050919050565b613d2c81613d11565b82525050565b600061018082019050613d48600083018f613bec565b613d55602083018e613c2d565b8181036040830152613d67818d613c82565b90508181036060830152613d7b818c613c82565b9050613d8a608083018b613bec565b613d9760a083018a613bec565b613da460c0830189613bec565b613db160e0830188613bec565b613dbf610100830187613bec565b613dcd610120830186613bec565b613ddb610140830185613d23565b818103610160830152613dee8184613c82565b90509d9c50505050505050505050505050565b6000602082019050613e166000830184613bec565b92915050565b600081519050919050565b600082825260208201905092915050565b6000819050602082019050919050565b613e5181613840565b82525050565b600082825260208201905092915050565b6000613e7382613c3c565b613e7d8185613e57565b9350613e8d818560208601613c58565b613e9681613880565b840191505092915050565b6000604083016000830151613eb96000860182613e48565b5060208301518482036020860152613ed18282613e68565b9150508091505092915050565b6000613eea8383613ea1565b905092915050565b6000602082019050919050565b6000613f0a82613e1c565b613f148185613e27565b935083602082028501613f2685613e38565b8060005b85811015613f625784840389528151613f438582613ede565b9450613f4e83613ef2565b925060208a01995050600181019050613f2a565b50829750879550505050505092915050565b60006020820190508181036000830152613f8e8184613eff565b905092915050565b60008060008060008060c08789031215613fb357613fb2613836565b5b600087013567ffffffffffffffff811115613fd157613fd061383b565b5b613fdd89828a0161398e565b965050602087013567ffffffffffffffff811115613ffe57613ffd61383b565b5b61400a89828a0161398e565b955050604087013567ffffffffffffffff81111561402b5761402a61383b565b5b61403789828a01613a74565b945050606061404889828a01613861565b935050608061405989828a01613861565b92505060a061406a89828a01613861565b9150509295509295509295565b600060208201905061408c6000830184613c2d565b92915050565b61409b81613c1b565b81146140a657600080fd5b50565b6000813590506140b881614092565b92915050565b600080604083850312156140d5576140d4613836565b5b60006140e3858286016140a9565b92505060206140f485828601613861565b9150509250929050565b6060820160008201516141146000850182613e48565b5060208201516141276020850182613e48565b50604082015161413a6040850182613e48565b50505050565b600060608201905061415560008301846140fe565b92915050565b60006040820190506141706000830185613bec565b81810360208301526141828184613c82565b90509392505050565b600081519050919050565b600082825260208201905092915050565b6000819050602082019050919050565b6141c081613c1b565b82525050565b6141cf81613b2d565b82525050565b600060a0830160008301516141ed60008601826141b7565b5060208301516142006020860182613e48565b5060408301516142136040860182613e48565b506060830151848203606086015261422b8282613e68565b915050608083015161424060808601826141c6565b508091505092915050565b600061425783836141d5565b905092915050565b6000602082019050919050565b60006142778261418b565b6142818185614196565b935083602082028501614293856141a7565b8060005b858110156142cf57848403895281516142b0858261424b565b94506142bb8361425f565b925060208a01995050600181019050614297565b50829750879550505050505092915050565b600060208201905081810360008301526142fb818461426c565b905092915050565b60006060820190506143186000830186613bec565b6143256020830185613bec565b6143326040830184613bec565b949350505050565b600081519050919050565b600082825260208201905092915050565b6000819050602082019050919050565b600081519050919050565b600082825260208201905092915050565b6000819050602082019050919050565b600061439e8383613e68565b905092915050565b6000602082019050919050565b60006143be82614366565b6143c88185614371565b9350836020820285016143da85614382565b8060005b8581101561441657848403895281516143f78582614392565b9450614402836143a6565b925060208a019950506001810190506143de565b50829750879550505050505092915050565b61443181613d11565b82525050565b60006101a0830160008301516144506000860182613e48565b50602083015161446360208601826141b7565b506040830151848203604086015261447b8282613e68565b915050606083015184820360608601526144958282613e68565b915050608083015184820360808601526144af82826143b3565b91505060a08301516144c460a0860182613e48565b5060c08301516144d760c0860182613e48565b5060e08301516144ea60e0860182613e48565b506101008301516144ff610100860182613e48565b50610120830151614514610120860182613e48565b50610140830151614529610140860182613e48565b5061016083015161453e610160860182614428565b506101808301518482036101808601526145588282613e68565b9150508091505092915050565b60006145718383614437565b905092915050565b6000602082019050919050565b60006145918261433a565b61459b8185614345565b9350836020820285016145ad85614356565b8060005b858110156145e957848403895281516145ca8582614565565b94506145d583614579565b925060208a019950506001810190506145b1565b50829750879550505050505092915050565b600060208201905081810360008301526146158184614586565b905092915050565b60006020828403121561463357614632613836565b5b6000614641848285016140a9565b91505092915050565b60006101a0830160008301516146636000860182613e48565b50602083015161467660208601826141b7565b506040830151848203604086015261468e8282613e68565b915050606083015184820360608601526146a88282613e68565b915050608083015184820360808601526146c282826143b3565b91505060a08301516146d760a0860182613e48565b5060c08301516146ea60c0860182613e48565b5060e08301516146fd60e0860182613e48565b50610100830151614712610100860182613e48565b50610120830151614727610120860182613e48565b5061014083015161473c610140860182613e48565b50610160830151614751610160860182614428565b5061018083015184820361018086015261476b8282613e68565b9150508091505092915050565b60006020820190508181036000830152614792818461464a565b905092915050565b600080604083850312156147b1576147b0613836565b5b60006147bf85828601613861565b92505060206147d085828601613861565b9150509250929050565b600060a0820190506147ef6000830188613c2d565b6147fc6020830187613bec565b6148096040830186613bec565b818103606083015261481b8185613c82565b905061482a6080830184613b39565b9695505050505050565b7f4e487b7100000000000000000000000000000000000000000000000000000000600052603260045260246000fd5b7f556e617574686f72697a656420456e7469747900000000000000000000000000600082015250565b6000614899601383613c47565b91506148a482614863565b602082019050919050565b600060208201905081810360008301526148c88161488c565b9050919050565b7f4465736372697074696f6e2063616e6e6f7420626520656d7074790000000000600082015250565b6000614905601b83613c47565b9150614910826148cf565b602082019050919050565b60006020820190508181036000830152614934816148f8565b9050919050565b7f496d61676555726c732063616e6e6f7420626520656d70747900000000000000600082015250565b6000614971601983613c47565b915061497c8261493b565b602082019050919050565b600060208201905081810360008301526149a081614964565b9050919050565b7f4e487b7100000000000000000000000000000000000000000000000000000000600052602260045260246000fd5b600060028204905060018216806149ee57607f821691505b602082108103614a0157614a006149a7565b5b50919050565b60008190508160005260206000209050919050565b60006020601f8301049050919050565b600082821b905092915050565b600060088302614a697fffffffffffffffffffffffffffffffffffffffffffffffffffffffffffffffff82614a2c565b614a738683614a2c565b95508019841693508086168417925050509392505050565b6000819050919050565b6000614ab0614aab614aa684613840565b614a8b565b613840565b9050919050565b6000819050919050565b614aca83614a95565b614ade614ad682614ab7565b848454614a39565b825550505050565b600090565b614af3614ae6565b614afe818484614ac1565b505050565b5b81811015614b2257614b17600082614aeb565b600181019050614b04565b5050565b601f821115614b6757614b3881614a07565b614b4184614a1c565b81016020851015614b50578190505b614b64614b5c85614a1c565b830182614b03565b50505b505050565b600082821c905092915050565b6000614b8a60001984600802614b6c565b1980831691505092915050565b6000614ba38383614b79565b9150826002028217905092915050565b614bbc82613c3c565b67ffffffffffffffff811115614bd557614bd4613891565b5b614bdf82546149d6565b614bea828285614b26565b600060209050601f831160018114614c1d5760008415614c0b578287015190505b614c158582614b97565b865550614c7d565b601f198416614c2b86614a07565b60005b82811015614c5357848901518255600182019150602085019450602081019050614c2e565b86831015614c705784890151614c6c601f891682614b79565b8355505b6001600288020188555050505b505050505050565b60008154614c92816149d6565b614c9c8186613c47565b94506001821660008114614cb75760018114614ccd57614d00565b60ff198316865281151560200286019350614d00565b614cd685614a07565b60005b83811015614cf857815481890152600182019150602081019050614cd9565b808801955050505b50505092915050565b600081549050919050565b600082825260208201905092915050565b60008190508160005260206000209050919050565b60008154614d47816149d6565b614d518186613e57565b94506001821660008114614d6c5760018114614d8257614db5565b60ff198316865281151560200286019350614db5565b614d8b85614a07565b60005b83811015614dad57815481890152600182019150602081019050614d8e565b808801955050505b50505092915050565b6000614dca8383614d3a565b905092915050565b6000600182019050919050565b6000614dea82614d09565b614df48185614d14565b935083602082028501614e0685614d25565b8060005b85811015614e4157848403895281614e228582614dbe565b9450614e2d83614dd2565b925060208a01995050600181019050614e0a565b50829750879550505050505092915050565b6000608082019050614e686000830187613bec565b8181036020830152614e7a8186614c85565b90508181036040830152614e8e8185614ddf565b9050614e9d6060830184613bec565b95945050505050565b7f41636365737320526573657276656420746f204f776e65720000000000000000600082015250565b6000614edc601883613c47565b9150614ee782614ea6565b602082019050919050565b60006020820190508181036000830152614f0b81614ecf565b9050919050565b7f50726f6a656374206e6f7420666f756e64000000000000000000000000000000600082015250565b6000614f48601183613c47565b9150614f5382614f12565b602082019050919050565b60006020820190508181036000830152614f7781614f3b565b9050919050565b7f50726f6a656374206e6f742070656e64696e6720617070726f76616c00000000600082015250565b6000614fb4601c83613c47565b9150614fbf82614f7e565b602082019050919050565b60006020820190508181036000830152614fe381614fa7565b9050919050565b6000604082019050614fff6000830185613bec565b61500c6020830184613bec565b9392505050565b7f50726f6a656374206e6f206c6f6e676572206f70656e65640000000000000000600082015250565b6000615049601883613c47565b915061505482615013565b602082019050919050565b600060208201905081810360008301526150788161503c565b9050919050565b7f5469746c652063616e6e6f7420626520656d7074790000000000000000000000600082015250565b60006150b5601583613c47565b91506150c08261507f565b602082019050919050565b600060208201905081810360008301526150e4816150a8565b9050919050565b7f436f73742063616e6e6f74206265207a65726f00000000000000000000000000600082015250565b6000615121601383613c47565b915061512c826150eb565b602082019050919050565b6000602082019050818103600083015261515081615114565b9050919050565b7f496e76616c69642063617465676f727920494400000000000000000000000000600082015250565b600061518d601383613c47565b915061519882615157565b602082019050919050565b600060208201905081810360008301526151bc81615180565b9050919050565b7f4e487b7100000000000000000000000000000000000000000000000000000000600052601160045260246000fd5b60006151fd82613840565b915061520883613840565b92508282019050808211156152205761521f6151c3565b5b92915050565b600061523182614366565b61523b8185614d14565b93508360208202850161524d85614382565b8060005b85811015615289578484038952815161526a8582614392565b9450615275836143a6565b925060208a01995050600181019050615251565b50829750879550505050505092915050565b6000610180820190506152b1600083018f613bec565b6152be602083018e613c2d565b81810360408301526152d0818d613c82565b905081810360608301526152e4818c613c82565b905081810360808301526152f8818b615226565b905061530760a083018a613bec565b61531460c0830189613bec565b61532160e0830188613bec565b61532f610100830187613bec565b61533d610120830186613bec565b61534b610140830185613bec565b615359610160830184613d23565b9d9c50505050505050505050505050565b600061537582613840565b91507fffffffffffffffffffffffffffffffffffffffffffffffffffffffffffffffff82036153a7576153a66151c3565b5b600182019050919050565b7f4574686572206d7573742062652067726561746572207468616e207a65726f00600082015250565b60006153e8601f83613c47565b91506153f3826153b2565b602082019050919050565b60006020820190508181036000830152615417816153db565b9050919050565b600060a0820190506154336000830188613bec565b6154406020830187613c2d565b61544d6040830186613bec565b818103606083015261545f8185613c82565b905061546e6080830184613bec565b9695505050505050565b7f50726f6a65637420616c7265616479206d61726b65642061732072657665727460008201527f65642f64656c6574656400000000000000000000000000000000000000000000602082015250565b60006154d4602a83613c47565b91506154df82615478565b604082019050919050565b60006020820190508181036000830152615503816154c7565b9050919050565b7f50726f6a656374206e6f7420415050524f564544000000000000000000000000600082015250565b6000615540601483613c47565b915061554b8261550a565b602082019050919050565b6000602082019050818103600083015261556f81615533565b9050919050565b600061558182613840565b915061558c83613840565b92508282039050818111156155a4576155a36151c3565b5b92915050565b60006155b582613840565b91506155c083613840565b92508282026155ce81613840565b915082820484148315176155e5576155e46151c3565b5b5092915050565b7f4e487b7100000000000000000000000000000000000000000000000000000000600052601260045260246000fd5b600061562682613840565b915061563183613840565b925082615641576156406155ec565b5b828204905092915050565b600060a0820190506156616000830188613bec565b81810360208301526156738187614c85565b90506156826040830186613c2d565b61568f6060830185613bec565b61569c6080830184613bec565b9695505050505050565b600081905092915050565b50565b60006156c16000836156a6565b91506156cc826156b1565b600082019050919050565b60006156e2826156b4565b9150819050919050565b7f5061796d656e74206661696c6564000000000000000000000000000000000000600082015250565b6000615722600e83613c47565b915061572d826156ec565b602082019050919050565b6000602082019050818103600083015261575181615715565b905091905056fea2646970667358221220dc0fa44920bf2b1aa320e3c6f2bb54a76a746abbafa53b5e84a53b2824e7844f64736f6c63430008180033",
  "linkReferences": {},
  "deployedLinkReferences": {}
}