{
  "_format": "hh-sol-artifact-1",
  "contractName": "BlockPledge",
  "sourceName": "app/contracts/BlockPledge.sol",
  "abi": [
    {
      "inputs": [
        {
          "internalType": "uint256",
          "name": "_projectTax",
          "type": "uint256"
        }
      ],
      "stateMutability": "nonpayable",
      "type": "constructor"
    },
    {
      "anonymous": false,
      "inputs": [
        {
          "indexed": false,
          "internalType": "uint256",
          "name": "id",
          "type": "uint256"
        },
        {
          "indexed": false,
          "internalType": "address",
          "name": "backer",
          "type": "address"
        },
        {
          "indexed": false,
          "internalType": "uint256",
          "name": "timestamp",
          "type": "uint256"
        }
      ],
      "name": "ProjectBacked",
      "type": "event"
    },
    {
      "anonymous": false,
      "inputs": [
        {
          "indexed": false,
          "internalType": "uint256",
          "name": "id",
          "type": "uint256"
        },
        {
          "indexed": false,
          "internalType": "address",
          "name": "owner",
          "type": "address"
        },
        {
          "indexed": false,
          "internalType": "string",
          "name": "title",
          "type": "string"
        },
        {
          "indexed": false,
          "internalType": "uint256",
          "name": "timestamp",
          "type": "uint256"
        }
      ],
      "name": "ProjectCreated",
      "type": "event"
    },
    {
      "anonymous": false,
      "inputs": [
        {
          "indexed": false,
          "internalType": "uint256",
          "name": "id",
          "type": "uint256"
        },
        {
          "indexed": false,
          "internalType": "uint256",
          "name": "timestamp",
          "type": "uint256"
        }
      ],
      "name": "ProjectDeleted",
      "type": "event"
    },
    {
      "anonymous": false,
      "inputs": [
        {
          "indexed": false,
          "internalType": "uint256",
          "name": "id",
          "type": "uint256"
        },
        {
          "indexed": false,
          "internalType": "address",
          "name": "recipient",
          "type": "address"
        },
        {
          "indexed": false,
          "internalType": "uint256",
          "name": "amount",
          "type": "uint256"
        },
        {
          "indexed": false,
          "internalType": "uint256",
          "name": "timestamp",
          "type": "uint256"
        }
      ],
      "name": "ProjectPaidOut",
      "type": "event"
    },
    {
      "anonymous": false,
      "inputs": [
        {
          "indexed": false,
          "internalType": "uint256",
          "name": "id",
          "type": "uint256"
        },
        {
          "indexed": false,
          "internalType": "string",
          "name": "title",
          "type": "string"
        },
        {
          "indexed": false,
          "internalType": "uint256",
          "name": "timestamp",
          "type": "uint256"
        }
      ],
      "name": "ProjectUpdated",
      "type": "event"
    },
    {
      "inputs": [
        {
          "internalType": "uint256",
          "name": "_id",
          "type": "uint256"
        }
      ],
      "name": "backProject",
      "outputs": [
        {
          "internalType": "bool",
          "name": "",
          "type": "bool"
        }
      ],
      "stateMutability": "payable",
      "type": "function"
    },
    {
      "inputs": [
        {
          "internalType": "uint256",
          "name": "",
          "type": "uint256"
        },
        {
          "internalType": "uint256",
          "name": "",
          "type": "uint256"
        }
      ],
      "name": "backersOf",
      "outputs": [
        {
          "internalType": "address",
          "name": "backer",
          "type": "address"
        },
        {
          "internalType": "uint256",
          "name": "contribution",
          "type": "uint256"
        },
        {
          "internalType": "uint256",
          "name": "timestamp",
          "type": "uint256"
        },
        {
          "internalType": "bool",
          "name": "refunded",
          "type": "bool"
        }
      ],
      "stateMutability": "view",
      "type": "function"
    },
    {
      "inputs": [
        {
          "internalType": "uint256",
          "name": "_taxPct",
          "type": "uint256"
        }
      ],
      "name": "changeTax",
      "outputs": [],
      "stateMutability": "nonpayable",
      "type": "function"
    },
    {
      "inputs": [
        {
          "internalType": "string",
          "name": "_title",
          "type": "string"
        },
        {
          "internalType": "string",
          "name": "_description",
          "type": "string"
        },
        {
          "internalType": "string",
          "name": "_imageURL",
          "type": "string"
        },
        {
          "internalType": "uint256",
          "name": "_cost",
          "type": "uint256"
        },
        {
          "internalType": "uint256",
          "name": "_expiresAt",
          "type": "uint256"
        }
      ],
      "name": "createProject",
      "outputs": [
        {
          "internalType": "bool",
          "name": "",
          "type": "bool"
        }
      ],
      "stateMutability": "nonpayable",
      "type": "function"
    },
    {
      "inputs": [
        {
          "internalType": "uint256",
          "name": "_id",
          "type": "uint256"
        }
      ],
      "name": "deleteProject",
      "outputs": [
        {
          "internalType": "bool",
          "name": "",
          "type": "bool"
        }
      ],
      "stateMutability": "nonpayable",
      "type": "function"
    },
    {
      "inputs": [
        {
          "internalType": "uint256",
          "name": "_id",
          "type": "uint256"
        }
      ],
      "name": "getBackers",
      "outputs": [
        {
          "components": [
            {
              "internalType": "address",
              "name": "backer",
              "type": "address"
            },
            {
              "internalType": "uint256",
              "name": "contribution",
              "type": "uint256"
            },
            {
              "internalType": "uint256",
              "name": "timestamp",
              "type": "uint256"
            },
            {
              "internalType": "bool",
              "name": "refunded",
              "type": "bool"
            }
          ],
          "internalType": "struct BlockPledge.BackerStruct[]",
          "name": "",
          "type": "tuple[]"
        }
      ],
      "stateMutability": "view",
      "type": "function"
    },
    {
      "inputs": [
        {
          "internalType": "uint256",
          "name": "_id",
          "type": "uint256"
        }
      ],
      "name": "getProject",
      "outputs": [
        {
          "components": [
            {
              "internalType": "uint256",
              "name": "id",
              "type": "uint256"
            },
            {
              "internalType": "address",
              "name": "owner",
              "type": "address"
            },
            {
              "internalType": "string",
              "name": "title",
              "type": "string"
            },
            {
              "internalType": "string",
              "name": "description",
              "type": "string"
            },
            {
              "internalType": "string",
              "name": "imageURL",
              "type": "string"
            },
            {
              "internalType": "uint256",
              "name": "cost",
              "type": "uint256"
            },
            {
              "internalType": "uint256",
              "name": "raised",
              "type": "uint256"
            },
            {
              "internalType": "uint256",
              "name": "timestamp",
              "type": "uint256"
            },
            {
              "internalType": "uint256",
              "name": "expiresAt",
              "type": "uint256"
            },
            {
              "internalType": "uint256",
              "name": "backers",
              "type": "uint256"
            },
            {
              "internalType": "enum BlockPledge.StatusEnum",
              "name": "status",
              "type": "uint8"
            }
          ],
          "internalType": "struct BlockPledge.ProjectStruct",
          "name": "",
          "type": "tuple"
        }
      ],
      "stateMutability": "view",
      "type": "function"
    },
    {
      "inputs": [],
      "name": "getProjects",
      "outputs": [
        {
          "components": [
            {
              "internalType": "uint256",
              "name": "id",
              "type": "uint256"
            },
            {
              "internalType": "address",
              "name": "owner",
              "type": "address"
            },
            {
              "internalType": "string",
              "name": "title",
              "type": "string"
            },
            {
              "internalType": "string",
              "name": "description",
              "type": "string"
            },
            {
              "internalType": "string",
              "name": "imageURL",
              "type": "string"
            },
            {
              "internalType": "uint256",
              "name": "cost",
              "type": "uint256"
            },
            {
              "internalType": "uint256",
              "name": "raised",
              "type": "uint256"
            },
            {
              "internalType": "uint256",
              "name": "timestamp",
              "type": "uint256"
            },
            {
              "internalType": "uint256",
              "name": "expiresAt",
              "type": "uint256"
            },
            {
              "internalType": "uint256",
              "name": "backers",
              "type": "uint256"
            },
            {
              "internalType": "enum BlockPledge.StatusEnum",
              "name": "status",
              "type": "uint8"
            }
          ],
          "internalType": "struct BlockPledge.ProjectStruct[]",
          "name": "",
          "type": "tuple[]"
        }
      ],
      "stateMutability": "view",
      "type": "function"
    },
    {
      "inputs": [],
      "name": "owner",
      "outputs": [
        {
          "internalType": "address",
          "name": "",
          "type": "address"
        }
      ],
      "stateMutability": "view",
      "type": "function"
    },
    {
      "inputs": [
        {
          "internalType": "uint256",
          "name": "_id",
          "type": "uint256"
        }
      ],
      "name": "payOutProject",
      "outputs": [
        {
          "internalType": "bool",
          "name": "",
          "type": "bool"
        }
      ],
      "stateMutability": "nonpayable",
      "type": "function"
    },
    {
      "inputs": [],
      "name": "projectCount",
      "outputs": [
        {
          "internalType": "uint256",
          "name": "",
          "type": "uint256"
        }
      ],
      "stateMutability": "view",
      "type": "function"
    },
    {
      "inputs": [
        {
          "internalType": "uint256",
          "name": "",
          "type": "uint256"
        }
      ],
      "name": "projectExists",
      "outputs": [
        {
          "internalType": "bool",
          "name": "",
          "type": "bool"
        }
      ],
      "stateMutability": "view",
      "type": "function"
    },
    {
      "inputs": [],
      "name": "projectTax",
      "outputs": [
        {
          "internalType": "uint256",
          "name": "",
          "type": "uint256"
        }
      ],
      "stateMutability": "view",
      "type": "function"
    },
    {
      "inputs": [
        {
          "internalType": "uint256",
          "name": "",
          "type": "uint256"
        }
      ],
      "name": "projects",
      "outputs": [
        {
          "internalType": "uint256",
          "name": "id",
          "type": "uint256"
        },
        {
          "internalType": "address",
          "name": "owner",
          "type": "address"
        },
        {
          "internalType": "string",
          "name": "title",
          "type": "string"
        },
        {
          "internalType": "string",
          "name": "description",
          "type": "string"
        },
        {
          "internalType": "string",
          "name": "imageURL",
          "type": "string"
        },
        {
          "internalType": "uint256",
          "name": "cost",
          "type": "uint256"
        },
        {
          "internalType": "uint256",
          "name": "raised",
          "type": "uint256"
        },
        {
          "internalType": "uint256",
          "name": "timestamp",
          "type": "uint256"
        },
        {
          "internalType": "uint256",
          "name": "expiresAt",
          "type": "uint256"
        },
        {
          "internalType": "uint256",
          "name": "backers",
          "type": "uint256"
        },
        {
          "internalType": "enum BlockPledge.StatusEnum",
          "name": "status",
          "type": "uint8"
        }
      ],
      "stateMutability": "view",
      "type": "function"
    },
    {
      "inputs": [
        {
          "internalType": "address",
          "name": "",
          "type": "address"
        },
        {
          "internalType": "uint256",
          "name": "",
          "type": "uint256"
        }
      ],
      "name": "projectsOf",
      "outputs": [
        {
          "internalType": "uint256",
          "name": "id",
          "type": "uint256"
        },
        {
          "internalType": "address",
          "name": "owner",
          "type": "address"
        },
        {
          "internalType": "string",
          "name": "title",
          "type": "string"
        },
        {
          "internalType": "string",
          "name": "description",
          "type": "string"
        },
        {
          "internalType": "string",
          "name": "imageURL",
          "type": "string"
        },
        {
          "internalType": "uint256",
          "name": "cost",
          "type": "uint256"
        },
        {
          "internalType": "uint256",
          "name": "raised",
          "type": "uint256"
        },
        {
          "internalType": "uint256",
          "name": "timestamp",
          "type": "uint256"
        },
        {
          "internalType": "uint256",
          "name": "expiresAt",
          "type": "uint256"
        },
        {
          "internalType": "uint256",
          "name": "backers",
          "type": "uint256"
        },
        {
          "internalType": "enum BlockPledge.StatusEnum",
          "name": "status",
          "type": "uint8"
        }
      ],
      "stateMutability": "view",
      "type": "function"
    },
    {
      "inputs": [
        {
          "internalType": "uint256",
          "name": "_id",
          "type": "uint256"
        }
      ],
      "name": "requestRefund",
      "outputs": [
        {
          "internalType": "bool",
          "name": "",
          "type": "bool"
        }
      ],
      "stateMutability": "nonpayable",
      "type": "function"
    },
    {
      "inputs": [],
      "name": "stats",
      "outputs": [
        {
          "internalType": "uint256",
          "name": "totalProjects",
          "type": "uint256"
        },
        {
          "internalType": "uint256",
          "name": "totalBacking",
          "type": "uint256"
        },
        {
          "internalType": "uint256",
          "name": "totalDonations",
          "type": "uint256"
        }
      ],
      "stateMutability": "view",
      "type": "function"
    },
    {
      "inputs": [
        {
          "internalType": "uint256",
          "name": "_id",
          "type": "uint256"
        },
        {
          "internalType": "string",
          "name": "_title",
          "type": "string"
        },
        {
          "internalType": "string",
          "name": "_description",
          "type": "string"
        },
        {
          "internalType": "string",
          "name": "_imageURL",
          "type": "string"
        },
        {
          "internalType": "uint256",
          "name": "_expiresAt",
          "type": "uint256"
        }
      ],
      "name": "updateProject",
      "outputs": [
        {
          "internalType": "bool",
          "name": "",
          "type": "bool"
        }
      ],
      "stateMutability": "nonpayable",
      "type": "function"
    }
  ],
  "bytecode": "0x60806040523480156200001157600080fd5b5060405162003f1c38038062003f1c8339818101604052810190620000379190620000c5565b336000806101000a81548173ffffffffffffffffffffffffffffffffffffffff021916908373ffffffffffffffffffffffffffffffffffffffff1602179055508060018190555050620000f7565b600080fd5b6000819050919050565b6200009f816200008a565b8114620000ab57600080fd5b50565b600081519050620000bf8162000094565b92915050565b600060208284031215620000de57620000dd62000085565b5b6000620000ee84828501620000ae565b91505092915050565b613e1580620001076000396000f3fe6080604052600436106101095760003560e01c80639f39a19411610095578063d24cd3ec11610064578063d24cd3ec146103f6578063d80528ae14610421578063dcc601281461044e578063f0f3f2c814610479578063f9285aa0146104b657610109565b80639f39a1941461030f578063a4b2409e1461033f578063b531dcba1461037c578063c9168b72146103b957610109565b80634cd0cb28116100dc5780634cd0cb28146101e6578063703d52af146102235780638da5cb5b146102605780638e5556321461028b5780639a3fa8c7146102d257610109565b8063056c29ee1461010e578063107046bd1461014b57806336fbad26146101925780633e45c8af146101bd575b600080fd5b34801561011a57600080fd5b5061013560048036038101906101309190612895565b6104f6565b604051610142919061297f565b60405180910390f35b34801561015757600080fd5b50610172600480360381019061016d919061299a565b6109c5565b6040516101899b9a99989796959493929190612b0d565b60405180910390f35b34801561019e57600080fd5b506101a7610bf4565b6040516101b49190612bcd565b60405180910390f35b3480156101c957600080fd5b506101e460048036038101906101df919061299a565b610bfa565b005b3480156101f257600080fd5b5061020d6004803603810190610208919061299a565b610c92565b60405161021a919061297f565b60405180910390f35b34801561022f57600080fd5b5061024a6004803603810190610245919061299a565b610e78565b604051610257919061297f565b60405180910390f35b34801561026c57600080fd5b50610275610e98565b6040516102829190612be8565b60405180910390f35b34801561029757600080fd5b506102b260048036038101906102ad9190612c2f565b610ebc565b6040516102c99b9a99989796959493929190612b0d565b60405180910390f35b3480156102de57600080fd5b506102f960048036038101906102f49190612c6f565b6110f8565b604051610306919061297f565b60405180910390f35b6103296004803603810190610324919061299a565b611384565b604051610336919061297f565b60405180910390f35b34801561034b57600080fd5b506103666004803603810190610361919061299a565b6117e8565b604051610373919061297f565b60405180910390f35b34801561038857600080fd5b506103a3600480360381019061039e919061299a565b611947565b6040516103b0919061297f565b60405180910390f35b3480156103c557600080fd5b506103e060048036038101906103db919061299a565b611afd565b6040516103ed9190612e6f565b60405180910390f35b34801561040257600080fd5b5061040b611bf4565b6040516104189190612bcd565b60405180910390f35b34801561042d57600080fd5b50610436611bfa565b60405161044593929190612e91565b60405180910390f35b34801561045a57600080fd5b50610463611c12565b60405161047091906130e0565b60405180910390f35b34801561048557600080fd5b506104a0600480360381019061049b919061299a565b611ef5565b6040516104ad91906131ff565b60405180910390f35b3480156104c257600080fd5b506104dd60048036038101906104d89190613221565b612215565b6040516104ed9493929190613261565b60405180910390f35b60008086511161053b576040517f08c379a0000000000000000000000000000000000000000000000000000000008152600401610532906132f2565b60405180910390fd5b600085511161057f576040517f08c379a00000000000000000000000000000000000000000000000000000000081526004016105769061335e565b60405180910390fd5b60008451116105c3576040517f08c379a00000000000000000000000000000000000000000000000000000000081526004016105ba906133ca565b60405180910390fd5b60008311610606576040517f08c379a00000000000000000000000000000000000000000000000000000000081526004016105fd90613436565b60405180910390fd5b61060e612683565b60025481600001818152505033816020019073ffffffffffffffffffffffffffffffffffffffff16908173ffffffffffffffffffffffffffffffffffffffff1681525050868160400181905250858160600181905250848160800181905250838160a0018181525050428160e0018181525050828161010001818152505060068190806001815401808255809150506001900390600052602060002090600b02016000909190919091506000820151816000015560208201518160010160006101000a81548173ffffffffffffffffffffffffffffffffffffffff021916908373ffffffffffffffffffffffffffffffffffffffff160217905550604082015181600201908161071e9190613662565b5060608201518160030190816107349190613662565b50608082015181600401908161074a9190613662565b5060a0820151816005015560c0820151816006015560e082015181600701556101008201518160080155610120820151816009015561014082015181600a0160006101000a81548160ff021916908360048111156107ab576107aa612a96565b5b02179055505050600160096000600254815260200190815260200160002060006101000a81548160ff021916908315150217905550600760003373ffffffffffffffffffffffffffffffffffffffff1673ffffffffffffffffffffffffffffffffffffffff1681526020019081526020016000208190806001815401808255809150506001900390600052602060002090600b02016000909190919091506000820151816000015560208201518160010160006101000a81548173ffffffffffffffffffffffffffffffffffffffff021916908373ffffffffffffffffffffffffffffffffffffffff16021790555060408201518160020190816108af9190613662565b5060608201518160030190816108c59190613662565b5060808201518160040190816108db9190613662565b5060a0820151816005015560c0820151816006015560e082015181600701556101008201518160080155610120820151816009015561014082015181600a0160006101000a81548160ff0219169083600481111561093c5761093b612a96565b5b021790555050506001600360000160008282546109599190613763565b925050819055507f51d08cb6cfa640a387210fb69df925dfb70169ae7373f8ecd40b977b0c800d9a6002543389426040516109979493929190613797565b60405180910390a1600260008154809291906109b2906137e3565b9190505550600191505095945050505050565b600681815481106109d557600080fd5b90600052602060002090600b02016000915090508060000154908060010160009054906101000a900473ffffffffffffffffffffffffffffffffffffffff1690806002018054610a2490613485565b80601f0160208091040260200160405190810160405280929190818152602001828054610a5090613485565b8015610a9d5780601f10610a7257610100808354040283529160200191610a9d565b820191906000526020600020905b815481529060010190602001808311610a8057829003601f168201915b505050505090806003018054610ab290613485565b80601f0160208091040260200160405190810160405280929190818152602001828054610ade90613485565b8015610b2b5780601f10610b0057610100808354040283529160200191610b2b565b820191906000526020600020905b815481529060010190602001808311610b0e57829003601f168201915b505050505090806004018054610b4090613485565b80601f0160208091040260200160405190810160405280929190818152602001828054610b6c90613485565b8015610bb95780601f10610b8e57610100808354040283529160200191610bb9565b820191906000526020600020905b815481529060010190602001808311610b9c57829003601f168201915b50505050509080600501549080600601549080600701549080600801549080600901549080600a0160009054906101000a900460ff1690508b565b60025481565b60008054906101000a900473ffffffffffffffffffffffffffffffffffffffff1673ffffffffffffffffffffffffffffffffffffffff163373ffffffffffffffffffffffffffffffffffffffff1614610c88576040517f08c379a0000000000000000000000000000000000000000000000000000000008152600401610c7f90613877565b60405180910390fd5b8060018190555050565b6000806004811115610ca757610ca6612a96565b5b60068381548110610cbb57610cba613897565b5b90600052602060002090600b0201600a0160009054906101000a900460ff166004811115610cec57610ceb612a96565b5b14610d2c576040517f08c379a0000000000000000000000000000000000000000000000000000000008152600401610d2390613912565b60405180910390fd5b60068281548110610d4057610d3f613897565b5b90600052602060002090600b020160010160009054906101000a900473ffffffffffffffffffffffffffffffffffffffff1673ffffffffffffffffffffffffffffffffffffffff163373ffffffffffffffffffffffffffffffffffffffff1614610ddf576040517f08c379a0000000000000000000000000000000000000000000000000000000008152600401610dd69061397e565b60405180910390fd5b600360068381548110610df557610df4613897565b5b90600052602060002090600b0201600a0160006101000a81548160ff02191690836004811115610e2857610e27612a96565b5b0217905550610e368261228f565b7f4484a435bc92a4925b8b18f20baf06d71675934c29cc91d21550d29939098ed08242604051610e6792919061399e565b60405180910390a160019050919050565b60096020528060005260406000206000915054906101000a900460ff1681565b60008054906101000a900473ffffffffffffffffffffffffffffffffffffffff1681565b60076020528160005260406000208181548110610ed857600080fd5b90600052602060002090600b0201600091509150508060000154908060010160009054906101000a900473ffffffffffffffffffffffffffffffffffffffff1690806002018054610f2890613485565b80601f0160208091040260200160405190810160405280929190818152602001828054610f5490613485565b8015610fa15780601f10610f7657610100808354040283529160200191610fa1565b820191906000526020600020905b815481529060010190602001808311610f8457829003601f168201915b505050505090806003018054610fb690613485565b80601f0160208091040260200160405190810160405280929190818152602001828054610fe290613485565b801561102f5780601f106110045761010080835404028352916020019161102f565b820191906000526020600020905b81548152906001019060200180831161101257829003601f168201915b50505050509080600401805461104490613485565b80601f016020809104026020016040519081016040528092919081815260200182805461107090613485565b80156110bd5780601f10611092576101008083540402835291602001916110bd565b820191906000526020600020905b8154815290600101906020018083116110a057829003601f168201915b50505050509080600501549080600601549080600701549080600801549080600901549080600a0160009054906101000a900460ff1690508b565b60006006868154811061110e5761110d613897565b5b90600052602060002090600b020160010160009054906101000a900473ffffffffffffffffffffffffffffffffffffffff1673ffffffffffffffffffffffffffffffffffffffff163373ffffffffffffffffffffffffffffffffffffffff16146111ad576040517f08c379a00000000000000000000000000000000000000000000000000000000081526004016111a49061397e565b60405180910390fd5b60008551116111f1576040517f08c379a00000000000000000000000000000000000000000000000000000000081526004016111e8906132f2565b60405180910390fd5b6000845111611235576040517f08c379a000000000000000000000000000000000000000000000000000000000815260040161122c9061335e565b60405180910390fd5b6000835111611279576040517f08c379a0000000000000000000000000000000000000000000000000000000008152600401611270906133ca565b60405180910390fd5b846006878154811061128e5761128d613897565b5b90600052602060002090600b020160020190816112ab9190613662565b5083600687815481106112c1576112c0613897565b5b90600052602060002090600b020160030190816112de9190613662565b5082600687815481106112f4576112f3613897565b5b90600052602060002090600b020160040190816113119190613662565b50816006878154811061132757611326613897565b5b90600052602060002090600b0201600801819055507f2fc51eab37d48def9d8af982f76cb7dd95c39990cbda0942903fc31591da692286864260405161136f939291906139c7565b60405180910390a16001905095945050505050565b60008034116113c8576040517f08c379a00000000000000000000000000000000000000000000000000000000081526004016113bf90613a51565b60405180910390fd5b6009600083815260200190815260200160002060009054906101000a900460ff16611428576040517f08c379a000000000000000000000000000000000000000000000000000000000815260040161141f90613abd565b60405180910390fd5b6000600481111561143c5761143b612a96565b5b600683815481106114505761144f613897565b5b90600052602060002090600b0201600a0160009054906101000a900460ff16600481111561148157611480612a96565b5b146114c1576040517f08c379a00000000000000000000000000000000000000000000000000000000081526004016114b890613912565b60405180910390fd5b6001600360010160008282546114d79190613763565b9250508190555034600360020160008282546114f39190613763565b92505081905550346006838154811061150f5761150e613897565b5b90600052602060002090600b0201600601600082825461152f9190613763565b9250508190555060016006838154811061154c5761154b613897565b5b90600052602060002090600b0201600901600082825461156c9190613763565b925050819055506008600083815260200190815260200160002060405180608001604052803373ffffffffffffffffffffffffffffffffffffffff16815260200134815260200142815260200160001515815250908060018154018082558091505060019003906000526020600020906004020160009091909190915060008201518160000160006101000a81548173ffffffffffffffffffffffffffffffffffffffff021916908373ffffffffffffffffffffffffffffffffffffffff160217905550602082015181600101556040820151816002015560608201518160030160006101000a81548160ff02191690831515021790555050507fe8213139448ae88df06f4bbd25f13213a4c252a193ed0f03ef617c5d70ecf01282334260405161169993929190613add565b60405180910390a1600682815481106116b5576116b4613897565b5b90600052602060002090600b020160050154600683815481106116db576116da613897565b5b90600052602060002090600b020160060154106117525760016006838154811061170857611707613897565b5b90600052602060002090600b0201600a0160006101000a81548160ff0219169083600481111561173b5761173a612a96565b5b021790555061174982612426565b600190506117e3565b6006828154811061176657611765613897565b5b90600052602060002090600b02016008015442106117de5760026006838154811061179457611793613897565b5b90600052602060002090600b0201600a0160006101000a81548160ff021916908360048111156117c7576117c6612a96565b5b02179055506117d58261228f565b600190506117e3565b600190505b919050565b6000600260048111156117fe576117fd612a96565b5b6006838154811061181257611811613897565b5b90600052602060002090600b0201600a0160009054906101000a900460ff16600481111561184357611842612a96565b5b141580156118a85750600360048111156118605761185f612a96565b5b6006838154811061187457611873613897565b5b90600052602060002090600b0201600a0160009054906101000a900460ff1660048111156118a5576118a4612a96565b5b14155b6118e7576040517f08c379a00000000000000000000000000000000000000000000000000000000081526004016118de90613b86565b60405180910390fd5b6002600683815481106118fd576118fc613897565b5b90600052602060002090600b0201600a0160006101000a81548160ff021916908360048111156119305761192f612a96565b5b021790555061193e8261228f565b60019050919050565b60006001600481111561195d5761195c612a96565b5b6006838154811061197157611970613897565b5b90600052602060002090600b0201600a0160009054906101000a900460ff1660048111156119a2576119a1612a96565b5b146119e2576040517f08c379a00000000000000000000000000000000000000000000000000000000081526004016119d990613bf2565b60405180910390fd5b600682815481106119f6576119f5613897565b5b90600052602060002090600b020160010160009054906101000a900473ffffffffffffffffffffffffffffffffffffffff1673ffffffffffffffffffffffffffffffffffffffff163373ffffffffffffffffffffffffffffffffffffffff161480611aac575060008054906101000a900473ffffffffffffffffffffffffffffffffffffffff1673ffffffffffffffffffffffffffffffffffffffff163373ffffffffffffffffffffffffffffffffffffffff16145b611aeb576040517f08c379a0000000000000000000000000000000000000000000000000000000008152600401611ae29061397e565b60405180910390fd5b611af482612426565b60019050919050565b606060086000838152602001908152602001600020805480602002602001604051908101604052809291908181526020016000905b82821015611be957838290600052602060002090600402016040518060800160405290816000820160009054906101000a900473ffffffffffffffffffffffffffffffffffffffff1673ffffffffffffffffffffffffffffffffffffffff1673ffffffffffffffffffffffffffffffffffffffff16815260200160018201548152602001600282015481526020016003820160009054906101000a900460ff16151515158152505081526020019060010190611b32565b505050509050919050565b60015481565b60038060000154908060010154908060020154905083565b60606006805480602002602001604051908101604052809291908181526020016000905b82821015611eec57838290600052602060002090600b020160405180610160016040529081600082015481526020016001820160009054906101000a900473ffffffffffffffffffffffffffffffffffffffff1673ffffffffffffffffffffffffffffffffffffffff1673ffffffffffffffffffffffffffffffffffffffff168152602001600282018054611cca90613485565b80601f0160208091040260200160405190810160405280929190818152602001828054611cf690613485565b8015611d435780601f10611d1857610100808354040283529160200191611d43565b820191906000526020600020905b815481529060010190602001808311611d2657829003601f168201915b50505050508152602001600382018054611d5c90613485565b80601f0160208091040260200160405190810160405280929190818152602001828054611d8890613485565b8015611dd55780601f10611daa57610100808354040283529160200191611dd5565b820191906000526020600020905b815481529060010190602001808311611db857829003601f168201915b50505050508152602001600482018054611dee90613485565b80601f0160208091040260200160405190810160405280929190818152602001828054611e1a90613485565b8015611e675780601f10611e3c57610100808354040283529160200191611e67565b820191906000526020600020905b815481529060010190602001808311611e4a57829003601f168201915b505050505081526020016005820154815260200160068201548152602001600782015481526020016008820154815260200160098201548152602001600a820160009054906101000a900460ff166004811115611ec757611ec6612a96565b5b6004811115611ed957611ed8612a96565b5b8152505081526020019060010190611c36565b50505050905090565b611efd612683565b6009600083815260200190815260200160002060009054906101000a900460ff16611f5d576040517f08c379a0000000000000000000000000000000000000000000000000000000008152600401611f5490613abd565b60405180910390fd5b60068281548110611f7157611f70613897565b5b90600052602060002090600b020160405180610160016040529081600082015481526020016001820160009054906101000a900473ffffffffffffffffffffffffffffffffffffffff1673ffffffffffffffffffffffffffffffffffffffff1673ffffffffffffffffffffffffffffffffffffffff168152602001600282018054611ffb90613485565b80601f016020809104026020016040519081016040528092919081815260200182805461202790613485565b80156120745780601f1061204957610100808354040283529160200191612074565b820191906000526020600020905b81548152906001019060200180831161205757829003601f168201915b5050505050815260200160038201805461208d90613485565b80601f01602080910402602001604051908101604052809291908181526020018280546120b990613485565b80156121065780601f106120db57610100808354040283529160200191612106565b820191906000526020600020905b8154815290600101906020018083116120e957829003601f168201915b5050505050815260200160048201805461211f90613485565b80601f016020809104026020016040519081016040528092919081815260200182805461214b90613485565b80156121985780601f1061216d57610100808354040283529160200191612198565b820191906000526020600020905b81548152906001019060200180831161217b57829003601f168201915b505050505081526020016005820154815260200160068201548152602001600782015481526020016008820154815260200160098201548152602001600a820160009054906101000a900460ff1660048111156121f8576121f7612a96565b5b600481111561220a57612209612a96565b5b815250509050919050565b6008602052816000526040600020818154811061223157600080fd5b9060005260206000209060040201600091509150508060000160009054906101000a900473ffffffffffffffffffffffffffffffffffffffff16908060010154908060020154908060030160009054906101000a900460ff16905084565b60005b60086000838152602001908152602001600020805490508110156124225760006008600084815260200190815260200160002082815481106122d7576122d6613897565b5b906000526020600020906004020160000160009054906101000a900473ffffffffffffffffffffffffffffffffffffffff169050600060086000858152602001908152602001600020838154811061233257612331613897565b5b9060005260206000209060040201600101549050600160086000868152602001908152602001600020848154811061236d5761236c613897565b5b906000526020600020906004020160030160006101000a81548160ff021916908315150217905550426008600086815260200190815260200160002084815481106123bb576123ba613897565b5b9060005260206000209060040201600201819055506123da82826125d2565b6001600360010160008282546123f09190613c12565b92505081905550806003600201600082825461240c9190613c12565b9250508190555050508080600101915050612292565b5050565b60006006828154811061243c5761243b613897565b5b90600052602060002090600b020160060154905060006064600154836124629190613c46565b61246c9190613cb7565b905060046006848154811061248457612483613897565b5b90600052602060002090600b0201600a0160006101000a81548160ff021916908360048111156124b7576124b6612a96565b5b0217905550612516600684815481106124d3576124d2613897565b5b90600052602060002090600b020160010160009054906101000a900473ffffffffffffffffffffffffffffffffffffffff1682846125119190613c12565b6125d2565b61254060008054906101000a900473ffffffffffffffffffffffffffffffffffffffff16826125d2565b7fea92b548a4f5c76c7714148900ec90179b8b1d1bc117c625021352b7e0393694836006858154811061257657612575613897565b5b90600052602060002090600b020160010160009054906101000a900473ffffffffffffffffffffffffffffffffffffffff1683856125b49190613c12565b426040516125c59493929190613ce8565b60405180910390a1505050565b60008273ffffffffffffffffffffffffffffffffffffffff16826040516125f890613d5e565b60006040518083038185875af1925050503d8060008114612635576040519150601f19603f3d011682016040523d82523d6000602084013e61263a565b606091505b505090508061267e576040517f08c379a000000000000000000000000000000000000000000000000000000000815260040161267590613dbf565b60405180910390fd5b505050565b60405180610160016040528060008152602001600073ffffffffffffffffffffffffffffffffffffffff1681526020016060815260200160608152602001606081526020016000815260200160008152602001600081526020016000815260200160008152602001600060048111156126ff576126fe612a96565b5b81525090565b6000604051905090565b600080fd5b600080fd5b600080fd5b600080fd5b6000601f19601f8301169050919050565b7f4e487b7100000000000000000000000000000000000000000000000000000000600052604160045260246000fd5b61276c82612723565b810181811067ffffffffffffffff8211171561278b5761278a612734565b5b80604052505050565b600061279e612705565b90506127aa8282612763565b919050565b600067ffffffffffffffff8211156127ca576127c9612734565b5b6127d382612723565b9050602081019050919050565b82818337600083830152505050565b60006128026127fd846127af565b612794565b90508281526020810184848401111561281e5761281d61271e565b5b6128298482856127e0565b509392505050565b600082601f83011261284657612845612719565b5b81356128568482602086016127ef565b91505092915050565b6000819050919050565b6128728161285f565b811461287d57600080fd5b50565b60008135905061288f81612869565b92915050565b600080600080600060a086880312156128b1576128b061270f565b5b600086013567ffffffffffffffff8111156128cf576128ce612714565b5b6128db88828901612831565b955050602086013567ffffffffffffffff8111156128fc576128fb612714565b5b61290888828901612831565b945050604086013567ffffffffffffffff81111561292957612928612714565b5b61293588828901612831565b935050606061294688828901612880565b925050608061295788828901612880565b9150509295509295909350565b60008115159050919050565b61297981612964565b82525050565b60006020820190506129946000830184612970565b92915050565b6000602082840312156129b0576129af61270f565b5b60006129be84828501612880565b91505092915050565b6129d08161285f565b82525050565b600073ffffffffffffffffffffffffffffffffffffffff82169050919050565b6000612a01826129d6565b9050919050565b612a11816129f6565b82525050565b600081519050919050565b600082825260208201905092915050565b60005b83811015612a51578082015181840152602081019050612a36565b60008484015250505050565b6000612a6882612a17565b612a728185612a22565b9350612a82818560208601612a33565b612a8b81612723565b840191505092915050565b7f4e487b7100000000000000000000000000000000000000000000000000000000600052602160045260246000fd5b60058110612ad657612ad5612a96565b5b50565b6000819050612ae782612ac5565b919050565b6000612af782612ad9565b9050919050565b612b0781612aec565b82525050565b600061016082019050612b23600083018e6129c7565b612b30602083018d612a08565b8181036040830152612b42818c612a5d565b90508181036060830152612b56818b612a5d565b90508181036080830152612b6a818a612a5d565b9050612b7960a08301896129c7565b612b8660c08301886129c7565b612b9360e08301876129c7565b612ba16101008301866129c7565b612baf6101208301856129c7565b612bbd610140830184612afe565b9c9b505050505050505050505050565b6000602082019050612be260008301846129c7565b92915050565b6000602082019050612bfd6000830184612a08565b92915050565b612c0c816129f6565b8114612c1757600080fd5b50565b600081359050612c2981612c03565b92915050565b60008060408385031215612c4657612c4561270f565b5b6000612c5485828601612c1a565b9250506020612c6585828601612880565b9150509250929050565b600080600080600060a08688031215612c8b57612c8a61270f565b5b6000612c9988828901612880565b955050602086013567ffffffffffffffff811115612cba57612cb9612714565b5b612cc688828901612831565b945050604086013567ffffffffffffffff811115612ce757612ce6612714565b5b612cf388828901612831565b935050606086013567ffffffffffffffff811115612d1457612d13612714565b5b612d2088828901612831565b9250506080612d3188828901612880565b9150509295509295909350565b600081519050919050565b600082825260208201905092915050565b6000819050602082019050919050565b612d73816129f6565b82525050565b612d828161285f565b82525050565b612d9181612964565b82525050565b608082016000820151612dad6000850182612d6a565b506020820151612dc06020850182612d79565b506040820151612dd36040850182612d79565b506060820151612de66060850182612d88565b50505050565b6000612df88383612d97565b60808301905092915050565b6000602082019050919050565b6000612e1c82612d3e565b612e268185612d49565b9350612e3183612d5a565b8060005b83811015612e62578151612e498882612dec565b9750612e5483612e04565b925050600181019050612e35565b5085935050505092915050565b60006020820190508181036000830152612e898184612e11565b905092915050565b6000606082019050612ea660008301866129c7565b612eb360208301856129c7565b612ec060408301846129c7565b949350505050565b600081519050919050565b600082825260208201905092915050565b6000819050602082019050919050565b600082825260208201905092915050565b6000612f1082612a17565b612f1a8185612ef4565b9350612f2a818560208601612a33565b612f3381612723565b840191505092915050565b612f4781612aec565b82525050565b600061016083016000830151612f666000860182612d79565b506020830151612f796020860182612d6a565b5060408301518482036040860152612f918282612f05565b91505060608301518482036060860152612fab8282612f05565b91505060808301518482036080860152612fc58282612f05565b91505060a0830151612fda60a0860182612d79565b5060c0830151612fed60c0860182612d79565b5060e083015161300060e0860182612d79565b50610100830151613015610100860182612d79565b5061012083015161302a610120860182612d79565b5061014083015161303f610140860182612f3e565b508091505092915050565b60006130568383612f4d565b905092915050565b6000602082019050919050565b600061307682612ec8565b6130808185612ed3565b93508360208202850161309285612ee4565b8060005b858110156130ce57848403895281516130af858261304a565b94506130ba8361305e565b925060208a01995050600181019050613096565b50829750879550505050505092915050565b600060208201905081810360008301526130fa818461306b565b905092915050565b60006101608301600083015161311b6000860182612d79565b50602083015161312e6020860182612d6a565b50604083015184820360408601526131468282612f05565b915050606083015184820360608601526131608282612f05565b9150506080830151848203608086015261317a8282612f05565b91505060a083015161318f60a0860182612d79565b5060c08301516131a260c0860182612d79565b5060e08301516131b560e0860182612d79565b506101008301516131ca610100860182612d79565b506101208301516131df610120860182612d79565b506101408301516131f4610140860182612f3e565b508091505092915050565b600060208201905081810360008301526132198184613102565b905092915050565b600080604083850312156132385761323761270f565b5b600061324685828601612880565b925050602061325785828601612880565b9150509250929050565b60006080820190506132766000830187612a08565b61328360208301866129c7565b61329060408301856129c7565b61329d6060830184612970565b95945050505050565b7f5469746c652063616e6e6f7420626520656d7074790000000000000000000000600082015250565b60006132dc601583612a22565b91506132e7826132a6565b602082019050919050565b6000602082019050818103600083015261330b816132cf565b9050919050565b7f4465736372697074696f6e2063616e6e6f7420626520656d7074790000000000600082015250565b6000613348601b83612a22565b915061335382613312565b602082019050919050565b600060208201905081810360008301526133778161333b565b9050919050565b7f496d61676555524c2063616e6e6f7420626520656d7074790000000000000000600082015250565b60006133b4601883612a22565b91506133bf8261337e565b602082019050919050565b600060208201905081810360008301526133e3816133a7565b9050919050565b7f436f73742063616e6e6f74206265207a65726f00000000000000000000000000600082015250565b6000613420601383612a22565b915061342b826133ea565b602082019050919050565b6000602082019050818103600083015261344f81613413565b9050919050565b7f4e487b7100000000000000000000000000000000000000000000000000000000600052602260045260246000fd5b6000600282049050600182168061349d57607f821691505b6020821081036134b0576134af613456565b5b50919050565b60008190508160005260206000209050919050565b60006020601f8301049050919050565b600082821b905092915050565b6000600883026135187fffffffffffffffffffffffffffffffffffffffffffffffffffffffffffffffff826134db565b61352286836134db565b95508019841693508086168417925050509392505050565b6000819050919050565b600061355f61355a6135558461285f565b61353a565b61285f565b9050919050565b6000819050919050565b61357983613544565b61358d61358582613566565b8484546134e8565b825550505050565b600090565b6135a2613595565b6135ad818484613570565b505050565b5b818110156135d1576135c660008261359a565b6001810190506135b3565b5050565b601f821115613616576135e7816134b6565b6135f0846134cb565b810160208510156135ff578190505b61361361360b856134cb565b8301826135b2565b50505b505050565b600082821c905092915050565b60006136396000198460080261361b565b1980831691505092915050565b60006136528383613628565b9150826002028217905092915050565b61366b82612a17565b67ffffffffffffffff81111561368457613683612734565b5b61368e8254613485565b6136998282856135d5565b600060209050601f8311600181146136cc57600084156136ba578287015190505b6136c48582613646565b86555061372c565b601f1984166136da866134b6565b60005b82811015613702578489015182556001820191506020850194506020810190506136dd565b8683101561371f578489015161371b601f891682613628565b8355505b6001600288020188555050505b505050505050565b7f4e487b7100000000000000000000000000000000000000000000000000000000600052601160045260246000fd5b600061376e8261285f565b91506137798361285f565b925082820190508082111561379157613790613734565b5b92915050565b60006080820190506137ac60008301876129c7565b6137b96020830186612a08565b81810360408301526137cb8185612a5d565b90506137da60608301846129c7565b95945050505050565b60006137ee8261285f565b91507fffffffffffffffffffffffffffffffffffffffffffffffffffffffffffffffff82036138205761381f613734565b5b600182019050919050565b7f41636365737320526573657276656420746f204f776e65720000000000000000600082015250565b6000613861601883612a22565b915061386c8261382b565b602082019050919050565b6000602082019050818103600083015261389081613854565b9050919050565b7f4e487b7100000000000000000000000000000000000000000000000000000000600052603260045260246000fd5b7f50726f6a656374206e6f206c6f6e676572206f70656e65640000000000000000600082015250565b60006138fc601883612a22565b9150613907826138c6565b602082019050919050565b6000602082019050818103600083015261392b816138ef565b9050919050565b7f556e617574686f72697a656420456e7469747900000000000000000000000000600082015250565b6000613968601383612a22565b915061397382613932565b602082019050919050565b600060208201905081810360008301526139978161395b565b9050919050565b60006040820190506139b360008301856129c7565b6139c060208301846129c7565b9392505050565b60006060820190506139dc60008301866129c7565b81810360208301526139ee8185612a5d565b90506139fd60408301846129c7565b949350505050565b7f4574686572206d7573742062652067726561746572207468616e207a65726f00600082015250565b6000613a3b601f83612a22565b9150613a4682613a05565b602082019050919050565b60006020820190508181036000830152613a6a81613a2e565b9050919050565b7f50726f6a656374206e6f7420666f756e64000000000000000000000000000000600082015250565b6000613aa7601183612a22565b9150613ab282613a71565b602082019050919050565b60006020820190508181036000830152613ad681613a9a565b9050919050565b6000606082019050613af260008301866129c7565b613aff6020830185612a08565b613b0c60408301846129c7565b949350505050565b7f50726f6a65637420616c7265616479206d61726b65642061732072657665727460008201527f65642f64656c6574656400000000000000000000000000000000000000000000602082015250565b6000613b70602a83612a22565b9150613b7b82613b14565b604082019050919050565b60006020820190508181036000830152613b9f81613b63565b9050919050565b7f50726f6a656374206e6f7420415050524f564544000000000000000000000000600082015250565b6000613bdc601483612a22565b9150613be782613ba6565b602082019050919050565b60006020820190508181036000830152613c0b81613bcf565b9050919050565b6000613c1d8261285f565b9150613c288361285f565b9250828203905081811115613c4057613c3f613734565b5b92915050565b6000613c518261285f565b9150613c5c8361285f565b9250828202613c6a8161285f565b91508282048414831517613c8157613c80613734565b5b5092915050565b7f4e487b7100000000000000000000000000000000000000000000000000000000600052601260045260246000fd5b6000613cc28261285f565b9150613ccd8361285f565b925082613cdd57613cdc613c88565b5b828204905092915050565b6000608082019050613cfd60008301876129c7565b613d0a6020830186612a08565b613d1760408301856129c7565b613d2460608301846129c7565b95945050505050565b600081905092915050565b50565b6000613d48600083613d2d565b9150613d5382613d38565b600082019050919050565b6000613d6982613d3b565b9150819050919050565b7f5061796d656e74206661696c6564000000000000000000000000000000000000600082015250565b6000613da9600e83612a22565b9150613db482613d73565b602082019050919050565b60006020820190508181036000830152613dd881613d9c565b905091905056fea26469706673582212206ddfc3f492029600c598da2871cc6829aaca816f01f9552c5b7cf0f23d12400064736f6c63430008180033",
  "linkReferences": {},
  "deployedLinkReferences": {}
}