{
  "_format": "hh-sol-artifact-1",
  "contractName": "BlockPledge",
  "sourceName": "app/contracts/BlockPledge.sol",
  "abi": [
    {
      "inputs": [
        {
          "internalType": "uint256",
          "name": "_projectTax",
          "type": "uint256"
        }
      ],
      "stateMutability": "nonpayable",
      "type": "constructor"
    },
    {
      "anonymous": false,
      "inputs": [
        {
          "indexed": false,
          "internalType": "uint256",
          "name": "id",
          "type": "uint256"
        },
        {
          "indexed": false,
          "internalType": "address",
          "name": "backer",
          "type": "address"
        },
        {
          "indexed": false,
          "internalType": "string",
          "name": "comment",
          "type": "string"
        },
        {
          "indexed": false,
          "internalType": "uint256",
          "name": "timestamp",
          "type": "uint256"
        }
      ],
      "name": "ProjectBacked",
      "type": "event"
    },
    {
      "anonymous": false,
      "inputs": [
        {
          "indexed": false,
          "internalType": "uint256",
          "name": "id",
          "type": "uint256"
        },
        {
          "indexed": false,
          "internalType": "address",
          "name": "owner",
          "type": "address"
        },
        {
          "indexed": false,
          "internalType": "string",
          "name": "title",
          "type": "string"
        },
        {
          "indexed": false,
          "internalType": "uint256",
          "name": "timestamp",
          "type": "uint256"
        }
      ],
      "name": "ProjectCreated",
      "type": "event"
    },
    {
      "anonymous": false,
      "inputs": [
        {
          "indexed": false,
          "internalType": "uint256",
          "name": "id",
          "type": "uint256"
        },
        {
          "indexed": false,
          "internalType": "uint256",
          "name": "timestamp",
          "type": "uint256"
        }
      ],
      "name": "ProjectDeleted",
      "type": "event"
    },
    {
      "anonymous": false,
      "inputs": [
        {
          "indexed": false,
          "internalType": "uint256",
          "name": "id",
          "type": "uint256"
        },
        {
          "indexed": false,
          "internalType": "address",
          "name": "recipient",
          "type": "address"
        },
        {
          "indexed": false,
          "internalType": "uint256",
          "name": "amount",
          "type": "uint256"
        },
        {
          "indexed": false,
          "internalType": "uint256",
          "name": "timestamp",
          "type": "uint256"
        }
      ],
      "name": "ProjectPaidOut",
      "type": "event"
    },
    {
      "anonymous": false,
      "inputs": [
        {
          "indexed": false,
          "internalType": "uint256",
          "name": "id",
          "type": "uint256"
        },
        {
          "indexed": false,
          "internalType": "string",
          "name": "title",
          "type": "string"
        },
        {
          "indexed": false,
          "internalType": "uint256",
          "name": "timestamp",
          "type": "uint256"
        }
      ],
      "name": "ProjectUpdated",
      "type": "event"
    },
    {
      "inputs": [
        {
          "internalType": "uint256",
          "name": "_id",
          "type": "uint256"
        },
        {
          "internalType": "string",
          "name": "_comment",
          "type": "string"
        }
      ],
      "name": "backProject",
      "outputs": [
        {
          "internalType": "bool",
          "name": "",
          "type": "bool"
        }
      ],
      "stateMutability": "payable",
      "type": "function"
    },
    {
      "inputs": [
        {
          "internalType": "uint256",
          "name": "",
          "type": "uint256"
        },
        {
          "internalType": "uint256",
          "name": "",
          "type": "uint256"
        }
      ],
      "name": "backersOf",
      "outputs": [
        {
          "internalType": "address",
          "name": "backer",
          "type": "address"
        },
        {
          "internalType": "uint256",
          "name": "contribution",
          "type": "uint256"
        },
        {
          "internalType": "uint256",
          "name": "timestamp",
          "type": "uint256"
        },
        {
          "internalType": "string",
          "name": "comment",
          "type": "string"
        },
        {
          "internalType": "bool",
          "name": "refunded",
          "type": "bool"
        }
      ],
      "stateMutability": "view",
      "type": "function"
    },
    {
      "inputs": [
        {
          "internalType": "uint256",
          "name": "",
          "type": "uint256"
        }
      ],
      "name": "categories",
      "outputs": [
        {
          "internalType": "uint256",
          "name": "categoryId",
          "type": "uint256"
        },
        {
          "internalType": "string",
          "name": "name",
          "type": "string"
        }
      ],
      "stateMutability": "view",
      "type": "function"
    },
    {
      "inputs": [
        {
          "internalType": "uint256",
          "name": "_taxPct",
          "type": "uint256"
        }
      ],
      "name": "changeTax",
      "outputs": [],
      "stateMutability": "nonpayable",
      "type": "function"
    },
    {
      "inputs": [
        {
          "internalType": "string",
          "name": "_title",
          "type": "string"
        },
        {
          "internalType": "string",
          "name": "_description",
          "type": "string"
        },
        {
          "internalType": "string[]",
          "name": "_imageURLs",
          "type": "string[]"
        },
        {
          "internalType": "uint256",
          "name": "_cost",
          "type": "uint256"
        },
        {
          "internalType": "uint256",
          "name": "_expiresAt",
          "type": "uint256"
        }
      ],
      "name": "createProject",
      "outputs": [
        {
          "internalType": "bool",
          "name": "",
          "type": "bool"
        }
      ],
      "stateMutability": "nonpayable",
      "type": "function"
    },
    {
      "inputs": [
        {
          "internalType": "uint256",
          "name": "_id",
          "type": "uint256"
        }
      ],
      "name": "deleteProject",
      "outputs": [
        {
          "internalType": "bool",
          "name": "",
          "type": "bool"
        }
      ],
      "stateMutability": "nonpayable",
      "type": "function"
    },
    {
      "inputs": [
        {
          "internalType": "uint256",
          "name": "_id",
          "type": "uint256"
        }
      ],
      "name": "getBackers",
      "outputs": [
        {
          "components": [
            {
              "internalType": "address",
              "name": "backer",
              "type": "address"
            },
            {
              "internalType": "uint256",
              "name": "contribution",
              "type": "uint256"
            },
            {
              "internalType": "uint256",
              "name": "timestamp",
              "type": "uint256"
            },
            {
              "internalType": "string",
              "name": "comment",
              "type": "string"
            },
            {
              "internalType": "bool",
              "name": "refunded",
              "type": "bool"
            }
          ],
          "internalType": "struct BlockPledge.BackerStruct[]",
          "name": "",
          "type": "tuple[]"
        }
      ],
      "stateMutability": "view",
      "type": "function"
    },
    {
      "inputs": [],
      "name": "getCategories",
      "outputs": [
        {
          "components": [
            {
              "internalType": "uint256",
              "name": "categoryId",
              "type": "uint256"
            },
            {
              "internalType": "string",
              "name": "name",
              "type": "string"
            }
          ],
          "internalType": "struct BlockPledge.CategoryStruct[]",
          "name": "",
          "type": "tuple[]"
        }
      ],
      "stateMutability": "view",
      "type": "function"
    },
    {
      "inputs": [
        {
          "internalType": "uint256",
          "name": "_id",
          "type": "uint256"
        }
      ],
      "name": "getProject",
      "outputs": [
        {
          "components": [
            {
              "internalType": "uint256",
              "name": "id",
              "type": "uint256"
            },
            {
              "internalType": "address",
              "name": "owner",
              "type": "address"
            },
            {
              "internalType": "string",
              "name": "title",
              "type": "string"
            },
            {
              "internalType": "string",
              "name": "description",
              "type": "string"
            },
            {
              "internalType": "string[]",
              "name": "imageURLs",
              "type": "string[]"
            },
            {
              "internalType": "uint256",
              "name": "cost",
              "type": "uint256"
            },
            {
              "internalType": "uint256",
              "name": "raised",
              "type": "uint256"
            },
            {
              "internalType": "uint256",
              "name": "timestamp",
              "type": "uint256"
            },
            {
              "internalType": "uint256",
              "name": "expiresAt",
              "type": "uint256"
            },
            {
              "internalType": "uint256",
              "name": "backers",
              "type": "uint256"
            },
            {
              "internalType": "uint256",
              "name": "categoryId",
              "type": "uint256"
            },
            {
              "internalType": "string[]",
              "name": "comments",
              "type": "string[]"
            },
            {
              "internalType": "enum BlockPledge.StatusEnum",
              "name": "status",
              "type": "uint8"
            }
          ],
          "internalType": "struct BlockPledge.ProjectStruct",
          "name": "",
          "type": "tuple"
        }
      ],
      "stateMutability": "view",
      "type": "function"
    },
    {
      "inputs": [],
      "name": "getProjects",
      "outputs": [
        {
          "components": [
            {
              "internalType": "uint256",
              "name": "id",
              "type": "uint256"
            },
            {
              "internalType": "address",
              "name": "owner",
              "type": "address"
            },
            {
              "internalType": "string",
              "name": "title",
              "type": "string"
            },
            {
              "internalType": "string",
              "name": "description",
              "type": "string"
            },
            {
              "internalType": "string[]",
              "name": "imageURLs",
              "type": "string[]"
            },
            {
              "internalType": "uint256",
              "name": "cost",
              "type": "uint256"
            },
            {
              "internalType": "uint256",
              "name": "raised",
              "type": "uint256"
            },
            {
              "internalType": "uint256",
              "name": "timestamp",
              "type": "uint256"
            },
            {
              "internalType": "uint256",
              "name": "expiresAt",
              "type": "uint256"
            },
            {
              "internalType": "uint256",
              "name": "backers",
              "type": "uint256"
            },
            {
              "internalType": "uint256",
              "name": "categoryId",
              "type": "uint256"
            },
            {
              "internalType": "string[]",
              "name": "comments",
              "type": "string[]"
            },
            {
              "internalType": "enum BlockPledge.StatusEnum",
              "name": "status",
              "type": "uint8"
            }
          ],
          "internalType": "struct BlockPledge.ProjectStruct[]",
          "name": "",
          "type": "tuple[]"
        }
      ],
      "stateMutability": "view",
      "type": "function"
    },
    {
      "inputs": [],
      "name": "owner",
      "outputs": [
        {
          "internalType": "address",
          "name": "",
          "type": "address"
        }
      ],
      "stateMutability": "view",
      "type": "function"
    },
    {
      "inputs": [
        {
          "internalType": "uint256",
          "name": "_id",
          "type": "uint256"
        }
      ],
      "name": "payOutProject",
      "outputs": [
        {
          "internalType": "bool",
          "name": "",
          "type": "bool"
        }
      ],
      "stateMutability": "nonpayable",
      "type": "function"
    },
    {
      "inputs": [],
      "name": "projectCount",
      "outputs": [
        {
          "internalType": "uint256",
          "name": "",
          "type": "uint256"
        }
      ],
      "stateMutability": "view",
      "type": "function"
    },
    {
      "inputs": [
        {
          "internalType": "uint256",
          "name": "",
          "type": "uint256"
        }
      ],
      "name": "projectExists",
      "outputs": [
        {
          "internalType": "bool",
          "name": "",
          "type": "bool"
        }
      ],
      "stateMutability": "view",
      "type": "function"
    },
    {
      "inputs": [],
      "name": "projectTax",
      "outputs": [
        {
          "internalType": "uint256",
          "name": "",
          "type": "uint256"
        }
      ],
      "stateMutability": "view",
      "type": "function"
    },
    {
      "inputs": [
        {
          "internalType": "uint256",
          "name": "",
          "type": "uint256"
        }
      ],
      "name": "projects",
      "outputs": [
        {
          "internalType": "uint256",
          "name": "id",
          "type": "uint256"
        },
        {
          "internalType": "address",
          "name": "owner",
          "type": "address"
        },
        {
          "internalType": "string",
          "name": "title",
          "type": "string"
        },
        {
          "internalType": "string",
          "name": "description",
          "type": "string"
        },
        {
          "internalType": "uint256",
          "name": "cost",
          "type": "uint256"
        },
        {
          "internalType": "uint256",
          "name": "raised",
          "type": "uint256"
        },
        {
          "internalType": "uint256",
          "name": "timestamp",
          "type": "uint256"
        },
        {
          "internalType": "uint256",
          "name": "expiresAt",
          "type": "uint256"
        },
        {
          "internalType": "uint256",
          "name": "backers",
          "type": "uint256"
        },
        {
          "internalType": "uint256",
          "name": "categoryId",
          "type": "uint256"
        },
        {
          "internalType": "enum BlockPledge.StatusEnum",
          "name": "status",
          "type": "uint8"
        }
      ],
      "stateMutability": "view",
      "type": "function"
    },
    {
      "inputs": [
        {
          "internalType": "address",
          "name": "",
          "type": "address"
        },
        {
          "internalType": "uint256",
          "name": "",
          "type": "uint256"
        }
      ],
      "name": "projectsOf",
      "outputs": [
        {
          "internalType": "uint256",
          "name": "id",
          "type": "uint256"
        },
        {
          "internalType": "address",
          "name": "owner",
          "type": "address"
        },
        {
          "internalType": "string",
          "name": "title",
          "type": "string"
        },
        {
          "internalType": "string",
          "name": "description",
          "type": "string"
        },
        {
          "internalType": "uint256",
          "name": "cost",
          "type": "uint256"
        },
        {
          "internalType": "uint256",
          "name": "raised",
          "type": "uint256"
        },
        {
          "internalType": "uint256",
          "name": "timestamp",
          "type": "uint256"
        },
        {
          "internalType": "uint256",
          "name": "expiresAt",
          "type": "uint256"
        },
        {
          "internalType": "uint256",
          "name": "backers",
          "type": "uint256"
        },
        {
          "internalType": "uint256",
          "name": "categoryId",
          "type": "uint256"
        },
        {
          "internalType": "enum BlockPledge.StatusEnum",
          "name": "status",
          "type": "uint8"
        }
      ],
      "stateMutability": "view",
      "type": "function"
    },
    {
      "inputs": [
        {
          "internalType": "uint256",
          "name": "_id",
          "type": "uint256"
        }
      ],
      "name": "requestRefund",
      "outputs": [
        {
          "internalType": "bool",
          "name": "",
          "type": "bool"
        }
      ],
      "stateMutability": "nonpayable",
      "type": "function"
    },
    {
      "inputs": [],
      "name": "stats",
      "outputs": [
        {
          "internalType": "uint256",
          "name": "totalProjects",
          "type": "uint256"
        },
        {
          "internalType": "uint256",
          "name": "totalBacking",
          "type": "uint256"
        },
        {
          "internalType": "uint256",
          "name": "totalDonations",
          "type": "uint256"
        }
      ],
      "stateMutability": "view",
      "type": "function"
    },
    {
      "inputs": [
        {
          "internalType": "uint256",
          "name": "_id",
          "type": "uint256"
        },
        {
          "internalType": "string",
          "name": "_description",
          "type": "string"
        },
        {
          "internalType": "string[]",
          "name": "_imageURLs",
          "type": "string[]"
        }
      ],
      "name": "updateProject",
      "outputs": [
        {
          "internalType": "bool",
          "name": "",
          "type": "bool"
        }
      ],
      "stateMutability": "nonpayable",
      "type": "function"
    }
  ],
  "bytecode": "0x60806040523480156200001157600080fd5b5060405162005144380380620051448339818101604052810190620000379190620005db565b336000806101000a81548173ffffffffffffffffffffffffffffffffffffffff021916908373ffffffffffffffffffffffffffffffffffffffff160217905550806001819055506000600c67ffffffffffffffff8111156200009e576200009d6200060d565b5b604051908082528060200260200182016040528015620000d357816020015b6060815260200190600190039081620000bd5790505b5090506040518060400160405280601081526020017f4172742026204372656174697669747900000000000000000000000000000000815250816000815181106200012357620001226200063c565b5b60200260200101819052506040518060400160405280601781526020017f546563686e6f6c6f6779202620496e6e6f766174696f6e000000000000000000815250816001815181106200017b576200017a6200063c565b5b60200260200101819052506040518060400160405280601981526020017f436f6d6d756e697479202620536f6369616c20496d706163740000000000000081525081600281518110620001d357620001d26200063c565b5b60200260200101819052506040518060400160405280601081526020017f46617368696f6e20262044657369676e00000000000000000000000000000000815250816003815181106200022b576200022a6200063c565b5b60200260200101819052506040518060400160405280600f81526020017f466f6f6420262042657665726167650000000000000000000000000000000000815250816004815181106200028357620002826200063c565b5b60200260200101819052506040518060400160405280601681526020017f47616d696e67202620456e7465727461696e6d656e740000000000000000000081525081600581518110620002db57620002da6200063c565b5b60200260200101819052506040518060400160405280601481526020017f54726176656c2026204578706c6f726174696f6e000000000000000000000000815250816006815181106200033357620003326200063c565b5b60200260200101819052506040518060400160405280601481526020017f456475636174696f6e2026204c6561726e696e67000000000000000000000000815250816007815181106200038b576200038a6200063c565b5b60200260200101819052506040518060400160405280601081526020017f4865616c74682026204669746e6573730000000000000000000000000000000081525081600881518110620003e357620003e26200063c565b5b60200260200101819052506040518060400160405280600c81526020017f4372616674732026204449590000000000000000000000000000000000000000815250816009815181106200043b576200043a6200063c565b5b60200260200101819052506040518060400160405280601481526020017f46696e616e6365202620496e766573746d656e7400000000000000000000000081525081600a815181106200049357620004926200063c565b5b60200260200101819052506040518060400160405280600e81526020017f50657473202620416e696d616c7300000000000000000000000000000000000081525081600b81518110620004eb57620004ea6200063c565b5b602002602001018190525060005b81518110156200059257600760405180604001604052808381526020018484815181106200052c576200052b6200063c565b5b60200260200101518152509080600181540180825580915050600190039060005260206000209060020201600090919091909150600082015181600001556020820151816001019081620005819190620008ac565b5050508080600101915050620004f9565b50505062000993565b600080fd5b6000819050919050565b620005b581620005a0565b8114620005c157600080fd5b50565b600081519050620005d581620005aa565b92915050565b600060208284031215620005f457620005f36200059b565b5b60006200060484828501620005c4565b91505092915050565b7f4e487b7100000000000000000000000000000000000000000000000000000000600052604160045260246000fd5b7f4e487b7100000000000000000000000000000000000000000000000000000000600052603260045260246000fd5b600081519050919050565b7f4e487b7100000000000000000000000000000000000000000000000000000000600052602260045260246000fd5b60006002820490506001821680620006be57607f821691505b602082108103620006d457620006d362000676565b5b50919050565b60008190508160005260206000209050919050565b60006020601f8301049050919050565b600082821b905092915050565b6000600883026200073e7fffffffffffffffffffffffffffffffffffffffffffffffffffffffffffffffff82620006ff565b6200074a8683620006ff565b95508019841693508086168417925050509392505050565b6000819050919050565b60006200078d620007876200078184620005a0565b62000762565b620005a0565b9050919050565b6000819050919050565b620007a9836200076c565b620007c1620007b88262000794565b8484546200070c565b825550505050565b600090565b620007d8620007c9565b620007e58184846200079e565b505050565b5b818110156200080d5762000801600082620007ce565b600181019050620007eb565b5050565b601f8211156200085c576200082681620006da565b6200083184620006ef565b8101602085101562000841578190505b620008596200085085620006ef565b830182620007ea565b50505b505050565b600082821c905092915050565b6000620008816000198460080262000861565b1980831691505092915050565b60006200089c83836200086e565b9150826002028217905092915050565b620008b7826200066b565b67ffffffffffffffff811115620008d357620008d26200060d565b5b620008df8254620006a5565b620008ec82828562000811565b600060209050601f8311600181146200092457600084156200090f578287015190505b6200091b85826200088e565b8655506200098b565b601f1984166200093486620006da565b60005b828110156200095e5784890151825560018201915060208501945060208101905062000937565b868310156200097e57848901516200097a601f8916826200086e565b8355505b6001600288020188555050505b505050505050565b6147a180620009a36000396000f3fe60806040526004361061011f5760003560e01c8063944173df116100a0578063d24cd3ec11610064578063d24cd3ec14610475578063d80528ae146104a0578063dcc60128146104cd578063f0f3f2c8146104f8578063f9285aa0146105355761011f565b8063944173df14610350578063a4b2409e14610380578063b531dcba146103bd578063c6cdbe5e146103fa578063c9168b72146104385761011f565b80634db0412c116100e75780634db0412c1461023957806361952cd414610264578063703d52af146102a15780638da5cb5b146102de5780638e555632146103095761011f565b8063013feda914610124578063107046bd1461016157806336fbad26146101a85780633e45c8af146101d35780634cd0cb28146101fc575b600080fd5b34801561013057600080fd5b5061014b60048036038101906101469190612f05565b610576565b6040516101589190612fab565b60405180910390f35b34801561016d57600080fd5b5061018860048036038101906101839190612fc6565b61078a565b60405161019f9b9a99989796959493929190613139565b60405180910390f35b3480156101b457600080fd5b506101bd610931565b6040516101ca91906131f2565b60405180910390f35b3480156101df57600080fd5b506101fa60048036038101906101f59190612fc6565b610937565b005b34801561020857600080fd5b50610223600480360381019061021e9190612fc6565b6109cf565b6040516102309190612fab565b60405180910390f35b34801561024557600080fd5b5061024e610bb5565b60405161025b9190613365565b60405180910390f35b34801561027057600080fd5b5061028b60048036038101906102869190613387565b610cb0565b6040516102989190612fab565b60405180910390f35b3480156102ad57600080fd5b506102c860048036038101906102c39190612fc6565b6111df565b6040516102d59190612fab565b60405180910390f35b3480156102ea57600080fd5b506102f36111ff565b6040516103009190613456565b60405180910390f35b34801561031557600080fd5b50610330600480360381019061032b919061349d565b611223565b6040516103479b9a99989796959493929190613139565b60405180910390f35b61036a600480360381019061036591906134dd565b6113d7565b6040516103779190612fab565b60405180910390f35b34801561038c57600080fd5b506103a760048036038101906103a29190612fc6565b61185a565b6040516103b49190612fab565b60405180910390f35b3480156103c957600080fd5b506103e460048036038101906103df9190612fc6565b6119b9565b6040516103f19190612fab565b60405180910390f35b34801561040657600080fd5b50610421600480360381019061041c9190612fc6565b611b6f565b60405161042f929190613539565b60405180910390f35b34801561044457600080fd5b5061045f600480360381019061045a9190612fc6565b611c2b565b60405161046c91906136bf565b60405180910390f35b34801561048157600080fd5b5061048a611db4565b60405161049791906131f2565b60405180910390f35b3480156104ac57600080fd5b506104b5611dba565b6040516104c4939291906136e1565b60405180910390f35b3480156104d957600080fd5b506104e2611dd2565b6040516104ef91906139d9565b60405180910390f35b34801561050457600080fd5b5061051f600480360381019061051a9190612fc6565b6121df565b60405161052c9190613b29565b60405180910390f35b34801561054157600080fd5b5061055c60048036038101906105579190613b4b565b612629565b60405161056d959493929190613b8b565b60405180910390f35b60006006848154811061058c5761058b613be5565b5b90600052602060002090600d020160010160009054906101000a900473ffffffffffffffffffffffffffffffffffffffff1673ffffffffffffffffffffffffffffffffffffffff163373ffffffffffffffffffffffffffffffffffffffff161461062b576040517f08c379a000000000000000000000000000000000000000000000000000000000815260040161062290613c60565b60405180910390fd5b600083511161066f576040517f08c379a000000000000000000000000000000000000000000000000000000000815260040161066690613ccc565b60405180910390fd5b60008251116106b3576040517f08c379a00000000000000000000000000000000000000000000000000000000081526004016106aa90613d38565b60405180910390fd5b82600685815481106106c8576106c7613be5565b5b90600052602060002090600d020160030190816106e59190613f64565b5081600685815481106106fb576106fa613be5565b5b90600052602060002090600d0201600401908051906020019061071f929190612b25565b507f2fc51eab37d48def9d8af982f76cb7dd95c39990cbda0942903fc31591da6922846006868154811061075657610755613be5565b5b90600052602060002090600d020160020142604051610777939291906140ba565b60405180910390a1600190509392505050565b6006818154811061079a57600080fd5b90600052602060002090600d02016000915090508060000154908060010160009054906101000a900473ffffffffffffffffffffffffffffffffffffffff16908060020180546107e990613d87565b80601f016020809104026020016040519081016040528092919081815260200182805461081590613d87565b80156108625780601f1061083757610100808354040283529160200191610862565b820191906000526020600020905b81548152906001019060200180831161084557829003601f168201915b50505050509080600301805461087790613d87565b80601f01602080910402602001604051908101604052809291908181526020018280546108a390613d87565b80156108f05780601f106108c5576101008083540402835291602001916108f0565b820191906000526020600020905b8154815290600101906020018083116108d357829003601f168201915b50505050509080600501549080600601549080600701549080600801549080600901549080600a01549080600c0160009054906101000a900460ff1690508b565b60025481565b60008054906101000a900473ffffffffffffffffffffffffffffffffffffffff1673ffffffffffffffffffffffffffffffffffffffff163373ffffffffffffffffffffffffffffffffffffffff16146109c5576040517f08c379a00000000000000000000000000000000000000000000000000000000081526004016109bc90614144565b60405180910390fd5b8060018190555050565b60008060048111156109e4576109e36130c2565b5b600683815481106109f8576109f7613be5565b5b90600052602060002090600d0201600c0160009054906101000a900460ff166004811115610a2957610a286130c2565b5b14610a69576040517f08c379a0000000000000000000000000000000000000000000000000000000008152600401610a60906141b0565b60405180910390fd5b60068281548110610a7d57610a7c613be5565b5b90600052602060002090600d020160010160009054906101000a900473ffffffffffffffffffffffffffffffffffffffff1673ffffffffffffffffffffffffffffffffffffffff163373ffffffffffffffffffffffffffffffffffffffff1614610b1c576040517f08c379a0000000000000000000000000000000000000000000000000000000008152600401610b1390613c60565b60405180910390fd5b600360068381548110610b3257610b31613be5565b5b90600052602060002090600d0201600c0160006101000a81548160ff02191690836004811115610b6557610b646130c2565b5b0217905550610b7382612731565b7f4484a435bc92a4925b8b18f20baf06d71675934c29cc91d21550d29939098ed08242604051610ba49291906141d0565b60405180910390a160019050919050565b60606007805480602002602001604051908101604052809291908181526020016000905b82821015610ca7578382906000526020600020906002020160405180604001604052908160008201548152602001600182018054610c1690613d87565b80601f0160208091040260200160405190810160405280929190818152602001828054610c4290613d87565b8015610c8f5780601f10610c6457610100808354040283529160200191610c8f565b820191906000526020600020905b815481529060010190602001808311610c7257829003601f168201915b50505050508152505081526020019060010190610bd9565b50505050905090565b600080865111610cf5576040517f08c379a0000000000000000000000000000000000000000000000000000000008152600401610cec90614245565b60405180910390fd5b6000855111610d39576040517f08c379a0000000000000000000000000000000000000000000000000000000008152600401610d3090613ccc565b60405180910390fd5b6000845111610d7d576040517f08c379a0000000000000000000000000000000000000000000000000000000008152600401610d7490613d38565b60405180910390fd5b60008311610dc0576040517f08c379a0000000000000000000000000000000000000000000000000000000008152600401610db7906142b1565b60405180910390fd5b610dc8612b7e565b60025481600001818152505033816020019073ffffffffffffffffffffffffffffffffffffffff16908173ffffffffffffffffffffffffffffffffffffffff1681525050868160400181905250858160600181905250848160800181905250838160a0018181525050428160e0018181525050828161010001818152505060068190806001815401808255809150506001900390600052602060002090600d02016000909190919091506000820151816000015560208201518160010160006101000a81548173ffffffffffffffffffffffffffffffffffffffff021916908373ffffffffffffffffffffffffffffffffffffffff1602179055506040820151816002019081610ed89190613f64565b506060820151816003019081610eee9190613f64565b506080820151816004019080519060200190610f0b929190612b25565b5060a0820151816005015560c0820151816006015560e082015181600701556101008201518160080155610120820151816009015561014082015181600a015561016082015181600b019080519060200190610f68929190612b25565b5061018082015181600c0160006101000a81548160ff02191690836004811115610f9557610f946130c2565b5b021790555050506001600a6000600254815260200190815260200160002060006101000a81548160ff021916908315150217905550600860003373ffffffffffffffffffffffffffffffffffffffff1673ffffffffffffffffffffffffffffffffffffffff1681526020019081526020016000208190806001815401808255809150506001900390600052602060002090600d02016000909190919091506000820151816000015560208201518160010160006101000a81548173ffffffffffffffffffffffffffffffffffffffff021916908373ffffffffffffffffffffffffffffffffffffffff16021790555060408201518160020190816110999190613f64565b5060608201518160030190816110af9190613f64565b5060808201518160040190805190602001906110cc929190612b25565b5060a0820151816005015560c0820151816006015560e082015181600701556101008201518160080155610120820151816009015561014082015181600a015561016082015181600b019080519060200190611129929190612b25565b5061018082015181600c0160006101000a81548160ff02191690836004811115611156576111556130c2565b5b021790555050506001600360000160008282546111739190614300565b925050819055507f51d08cb6cfa640a387210fb69df925dfb70169ae7373f8ecd40b977b0c800d9a6002543389426040516111b19493929190614334565b60405180910390a1600260008154809291906111cc90614380565b9190505550600191505095945050505050565b600a6020528060005260406000206000915054906101000a900460ff1681565b60008054906101000a900473ffffffffffffffffffffffffffffffffffffffff1681565b6008602052816000526040600020818154811061123f57600080fd5b90600052602060002090600d0201600091509150508060000154908060010160009054906101000a900473ffffffffffffffffffffffffffffffffffffffff169080600201805461128f90613d87565b80601f01602080910402602001604051908101604052809291908181526020018280546112bb90613d87565b80156113085780601f106112dd57610100808354040283529160200191611308565b820191906000526020600020905b8154815290600101906020018083116112eb57829003601f168201915b50505050509080600301805461131d90613d87565b80601f016020809104026020016040519081016040528092919081815260200182805461134990613d87565b80156113965780601f1061136b57610100808354040283529160200191611396565b820191906000526020600020905b81548152906001019060200180831161137957829003601f168201915b50505050509080600501549080600601549080600701549080600801549080600901549080600a01549080600c0160009054906101000a900460ff1690508b565b600080341161141b576040517f08c379a000000000000000000000000000000000000000000000000000000000815260040161141290614414565b60405180910390fd5b600a600084815260200190815260200160002060009054906101000a900460ff1661147b576040517f08c379a000000000000000000000000000000000000000000000000000000000815260040161147290614480565b60405180910390fd5b6000600481111561148f5761148e6130c2565b5b600684815481106114a3576114a2613be5565b5b90600052602060002090600d0201600c0160009054906101000a900460ff1660048111156114d4576114d36130c2565b5b14611514576040517f08c379a000000000000000000000000000000000000000000000000000000000815260040161150b906141b0565b60405180910390fd5b60016003600101600082825461152a9190614300565b9250508190555034600360020160008282546115469190614300565b92505081905550346006848154811061156257611561613be5565b5b90600052602060002090600d020160060160008282546115829190614300565b9250508190555060016006848154811061159f5761159e613be5565b5b90600052602060002090600d020160090160008282546115bf9190614300565b92505081905550600960008481526020019081526020016000206040518060a001604052803373ffffffffffffffffffffffffffffffffffffffff16815260200134815260200142815260200184815260200160001515815250908060018154018082558091505060019003906000526020600020906005020160009091909190915060008201518160000160006101000a81548173ffffffffffffffffffffffffffffffffffffffff021916908373ffffffffffffffffffffffffffffffffffffffff160217905550602082015181600101556040820151816002015560608201518160030190816116b29190613f64565b5060808201518160040160006101000a81548160ff02191690831515021790555050507f74eda1e7b6ff65775d5ce38ece238bad783c4e12a3a754a6f0a469f248f2cdf88333844260405161170a9493929190614334565b60405180910390a16006838154811061172657611725613be5565b5b90600052602060002090600d0201600501546006848154811061174c5761174b613be5565b5b90600052602060002090600d020160060154106117c35760016006848154811061177957611778613be5565b5b90600052602060002090600d0201600c0160006101000a81548160ff021916908360048111156117ac576117ab6130c2565b5b02179055506117ba836128c8565b60019050611854565b600683815481106117d7576117d6613be5565b5b90600052602060002090600d020160080154421061184f5760026006848154811061180557611804613be5565b5b90600052602060002090600d0201600c0160006101000a81548160ff02191690836004811115611838576118376130c2565b5b021790555061184683612731565b60019050611854565b600190505b92915050565b6000600260048111156118705761186f6130c2565b5b6006838154811061188457611883613be5565b5b90600052602060002090600d0201600c0160009054906101000a900460ff1660048111156118b5576118b46130c2565b5b1415801561191a5750600360048111156118d2576118d16130c2565b5b600683815481106118e6576118e5613be5565b5b90600052602060002090600d0201600c0160009054906101000a900460ff166004811115611917576119166130c2565b5b14155b611959576040517f08c379a000000000000000000000000000000000000000000000000000000000815260040161195090614512565b60405180910390fd5b60026006838154811061196f5761196e613be5565b5b90600052602060002090600d0201600c0160006101000a81548160ff021916908360048111156119a2576119a16130c2565b5b02179055506119b082612731565b60019050919050565b6000600160048111156119cf576119ce6130c2565b5b600683815481106119e3576119e2613be5565b5b90600052602060002090600d0201600c0160009054906101000a900460ff166004811115611a1457611a136130c2565b5b14611a54576040517f08c379a0000000000000000000000000000000000000000000000000000000008152600401611a4b9061457e565b60405180910390fd5b60068281548110611a6857611a67613be5565b5b90600052602060002090600d020160010160009054906101000a900473ffffffffffffffffffffffffffffffffffffffff1673ffffffffffffffffffffffffffffffffffffffff163373ffffffffffffffffffffffffffffffffffffffff161480611b1e575060008054906101000a900473ffffffffffffffffffffffffffffffffffffffff1673ffffffffffffffffffffffffffffffffffffffff163373ffffffffffffffffffffffffffffffffffffffff16145b611b5d576040517f08c379a0000000000000000000000000000000000000000000000000000000008152600401611b5490613c60565b60405180910390fd5b611b66826128c8565b60019050919050565b60078181548110611b7f57600080fd5b9060005260206000209060020201600091509050806000015490806001018054611ba890613d87565b80601f0160208091040260200160405190810160405280929190818152602001828054611bd490613d87565b8015611c215780601f10611bf657610100808354040283529160200191611c21565b820191906000526020600020905b815481529060010190602001808311611c0457829003601f168201915b5050505050905082565b606060096000838152602001908152602001600020805480602002602001604051908101604052809291908181526020016000905b82821015611da957838290600052602060002090600502016040518060a00160405290816000820160009054906101000a900473ffffffffffffffffffffffffffffffffffffffff1673ffffffffffffffffffffffffffffffffffffffff1673ffffffffffffffffffffffffffffffffffffffff1681526020016001820154815260200160028201548152602001600382018054611cfd90613d87565b80601f0160208091040260200160405190810160405280929190818152602001828054611d2990613d87565b8015611d765780601f10611d4b57610100808354040283529160200191611d76565b820191906000526020600020905b815481529060010190602001808311611d5957829003601f168201915b505050505081526020016004820160009054906101000a900460ff16151515158152505081526020019060010190611c60565b505050509050919050565b60015481565b60038060000154908060010154908060020154905083565b60606006805480602002602001604051908101604052809291908181526020016000905b828210156121d657838290600052602060002090600d0201604051806101a0016040529081600082015481526020016001820160009054906101000a900473ffffffffffffffffffffffffffffffffffffffff1673ffffffffffffffffffffffffffffffffffffffff1673ffffffffffffffffffffffffffffffffffffffff168152602001600282018054611e8a90613d87565b80601f0160208091040260200160405190810160405280929190818152602001828054611eb690613d87565b8015611f035780601f10611ed857610100808354040283529160200191611f03565b820191906000526020600020905b815481529060010190602001808311611ee657829003601f168201915b50505050508152602001600382018054611f1c90613d87565b80601f0160208091040260200160405190810160405280929190818152602001828054611f4890613d87565b8015611f955780601f10611f6a57610100808354040283529160200191611f95565b820191906000526020600020905b815481529060010190602001808311611f7857829003601f168201915b5050505050815260200160048201805480602002602001604051908101604052809291908181526020016000905b8282101561206f578382906000526020600020018054611fe290613d87565b80601f016020809104026020016040519081016040528092919081815260200182805461200e90613d87565b801561205b5780601f106120305761010080835404028352916020019161205b565b820191906000526020600020905b81548152906001019060200180831161203e57829003601f168201915b505050505081526020019060010190611fc3565b5050505081526020016005820154815260200160068201548152602001600782015481526020016008820154815260200160098201548152602001600a8201548152602001600b8201805480602002602001604051908101604052809291908181526020016000905b828210156121845783829060005260206000200180546120f790613d87565b80601f016020809104026020016040519081016040528092919081815260200182805461212390613d87565b80156121705780601f1061214557610100808354040283529160200191612170565b820191906000526020600020905b81548152906001019060200180831161215357829003601f168201915b5050505050815260200190600101906120d8565b505050508152602001600c820160009054906101000a900460ff1660048111156121b1576121b06130c2565b5b60048111156121c3576121c26130c2565b5b8152505081526020019060010190611df6565b50505050905090565b6121e7612b7e565b600a600083815260200190815260200160002060009054906101000a900460ff16612247576040517f08c379a000000000000000000000000000000000000000000000000000000000815260040161223e90614480565b60405180910390fd5b6006828154811061225b5761225a613be5565b5b90600052602060002090600d0201604051806101a0016040529081600082015481526020016001820160009054906101000a900473ffffffffffffffffffffffffffffffffffffffff1673ffffffffffffffffffffffffffffffffffffffff1673ffffffffffffffffffffffffffffffffffffffff1681526020016002820180546122e590613d87565b80601f016020809104026020016040519081016040528092919081815260200182805461231190613d87565b801561235e5780601f106123335761010080835404028352916020019161235e565b820191906000526020600020905b81548152906001019060200180831161234157829003601f168201915b5050505050815260200160038201805461237790613d87565b80601f01602080910402602001604051908101604052809291908181526020018280546123a390613d87565b80156123f05780601f106123c5576101008083540402835291602001916123f0565b820191906000526020600020905b8154815290600101906020018083116123d357829003601f168201915b5050505050815260200160048201805480602002602001604051908101604052809291908181526020016000905b828210156124ca57838290600052602060002001805461243d90613d87565b80601f016020809104026020016040519081016040528092919081815260200182805461246990613d87565b80156124b65780601f1061248b576101008083540402835291602001916124b6565b820191906000526020600020905b81548152906001019060200180831161249957829003601f168201915b50505050508152602001906001019061241e565b5050505081526020016005820154815260200160068201548152602001600782015481526020016008820154815260200160098201548152602001600a8201548152602001600b8201805480602002602001604051908101604052809291908181526020016000905b828210156125df57838290600052602060002001805461255290613d87565b80601f016020809104026020016040519081016040528092919081815260200182805461257e90613d87565b80156125cb5780601f106125a0576101008083540402835291602001916125cb565b820191906000526020600020905b8154815290600101906020018083116125ae57829003601f168201915b505050505081526020019060010190612533565b505050508152602001600c820160009054906101000a900460ff16600481111561260c5761260b6130c2565b5b600481111561261e5761261d6130c2565b5b815250509050919050565b6009602052816000526040600020818154811061264557600080fd5b9060005260206000209060050201600091509150508060000160009054906101000a900473ffffffffffffffffffffffffffffffffffffffff169080600101549080600201549080600301805461269b90613d87565b80601f01602080910402602001604051908101604052809291908181526020018280546126c790613d87565b80156127145780601f106126e957610100808354040283529160200191612714565b820191906000526020600020905b8154815290600101906020018083116126f757829003601f168201915b5050505050908060040160009054906101000a900460ff16905085565b60005b60096000838152602001908152602001600020805490508110156128c457600060096000848152602001908152602001600020828154811061277957612778613be5565b5b906000526020600020906005020160000160009054906101000a900473ffffffffffffffffffffffffffffffffffffffff16905060006009600085815260200190815260200160002083815481106127d4576127d3613be5565b5b9060005260206000209060050201600101549050600160096000868152602001908152602001600020848154811061280f5761280e613be5565b5b906000526020600020906005020160040160006101000a81548160ff0219169083151502179055504260096000868152602001908152602001600020848154811061285d5761285c613be5565b5b90600052602060002090600502016002018190555061287c8282612a74565b600160036001016000828254612892919061459e565b9250508190555080600360020160008282546128ae919061459e565b9250508190555050508080600101915050612734565b5050565b6000600682815481106128de576128dd613be5565b5b90600052602060002090600d0201600601549050600060646001548361290491906145d2565b61290e9190614643565b905060046006848154811061292657612925613be5565b5b90600052602060002090600d0201600c0160006101000a81548160ff02191690836004811115612959576129586130c2565b5b02179055506129b86006848154811061297557612974613be5565b5b90600052602060002090600d020160010160009054906101000a900473ffffffffffffffffffffffffffffffffffffffff1682846129b3919061459e565b612a74565b6129e260008054906101000a900473ffffffffffffffffffffffffffffffffffffffff1682612a74565b7fea92b548a4f5c76c7714148900ec90179b8b1d1bc117c625021352b7e03936948360068581548110612a1857612a17613be5565b5b90600052602060002090600d020160010160009054906101000a900473ffffffffffffffffffffffffffffffffffffffff168385612a56919061459e565b42604051612a679493929190614674565b60405180910390a1505050565b60008273ffffffffffffffffffffffffffffffffffffffff1682604051612a9a906146ea565b60006040518083038185875af1925050503d8060008114612ad7576040519150601f19603f3d011682016040523d82523d6000602084013e612adc565b606091505b5050905080612b20576040517f08c379a0000000000000000000000000000000000000000000000000000000008152600401612b179061474b565b60405180910390fd5b505050565b828054828255906000526020600020908101928215612b6d579160200282015b82811115612b6c578251829081612b5c9190613f64565b5091602001919060010190612b45565b5b509050612b7a9190612c0e565b5090565b604051806101a0016040528060008152602001600073ffffffffffffffffffffffffffffffffffffffff1681526020016060815260200160608152602001606081526020016000815260200160008152602001600081526020016000815260200160008152602001600081526020016060815260200160006004811115612c0857612c076130c2565b5b81525090565b5b80821115612c2e5760008181612c259190612c32565b50600101612c0f565b5090565b508054612c3e90613d87565b6000825580601f10612c505750612c6f565b601f016020900490600052602060002090810190612c6e9190612c72565b5b50565b5b80821115612c8b576000816000905550600101612c73565b5090565b6000604051905090565b600080fd5b600080fd5b6000819050919050565b612cb681612ca3565b8114612cc157600080fd5b50565b600081359050612cd381612cad565b92915050565b600080fd5b600080fd5b6000601f19601f8301169050919050565b7f4e487b7100000000000000000000000000000000000000000000000000000000600052604160045260246000fd5b612d2c82612ce3565b810181811067ffffffffffffffff82111715612d4b57612d4a612cf4565b5b80604052505050565b6000612d5e612c8f565b9050612d6a8282612d23565b919050565b600067ffffffffffffffff821115612d8a57612d89612cf4565b5b612d9382612ce3565b9050602081019050919050565b82818337600083830152505050565b6000612dc2612dbd84612d6f565b612d54565b905082815260208101848484011115612dde57612ddd612cde565b5b612de9848285612da0565b509392505050565b600082601f830112612e0657612e05612cd9565b5b8135612e16848260208601612daf565b91505092915050565b600067ffffffffffffffff821115612e3a57612e39612cf4565b5b602082029050602081019050919050565b600080fd5b6000612e63612e5e84612e1f565b612d54565b90508083825260208201905060208402830185811115612e8657612e85612e4b565b5b835b81811015612ecd57803567ffffffffffffffff811115612eab57612eaa612cd9565b5b808601612eb88982612df1565b85526020850194505050602081019050612e88565b5050509392505050565b600082601f830112612eec57612eeb612cd9565b5b8135612efc848260208601612e50565b91505092915050565b600080600060608486031215612f1e57612f1d612c99565b5b6000612f2c86828701612cc4565b935050602084013567ffffffffffffffff811115612f4d57612f4c612c9e565b5b612f5986828701612df1565b925050604084013567ffffffffffffffff811115612f7a57612f79612c9e565b5b612f8686828701612ed7565b9150509250925092565b60008115159050919050565b612fa581612f90565b82525050565b6000602082019050612fc06000830184612f9c565b92915050565b600060208284031215612fdc57612fdb612c99565b5b6000612fea84828501612cc4565b91505092915050565b612ffc81612ca3565b82525050565b600073ffffffffffffffffffffffffffffffffffffffff82169050919050565b600061302d82613002565b9050919050565b61303d81613022565b82525050565b600081519050919050565b600082825260208201905092915050565b60005b8381101561307d578082015181840152602081019050613062565b60008484015250505050565b600061309482613043565b61309e818561304e565b93506130ae81856020860161305f565b6130b781612ce3565b840191505092915050565b7f4e487b7100000000000000000000000000000000000000000000000000000000600052602160045260246000fd5b60058110613102576131016130c2565b5b50565b6000819050613113826130f1565b919050565b600061312382613105565b9050919050565b61313381613118565b82525050565b60006101608201905061314f600083018e612ff3565b61315c602083018d613034565b818103604083015261316e818c613089565b90508181036060830152613182818b613089565b9050613191608083018a612ff3565b61319e60a0830189612ff3565b6131ab60c0830188612ff3565b6131b860e0830187612ff3565b6131c6610100830186612ff3565b6131d4610120830185612ff3565b6131e261014083018461312a565b9c9b505050505050505050505050565b60006020820190506132076000830184612ff3565b92915050565b600081519050919050565b600082825260208201905092915050565b6000819050602082019050919050565b61324281612ca3565b82525050565b600082825260208201905092915050565b600061326482613043565b61326e8185613248565b935061327e81856020860161305f565b61328781612ce3565b840191505092915050565b60006040830160008301516132aa6000860182613239565b50602083015184820360208601526132c28282613259565b9150508091505092915050565b60006132db8383613292565b905092915050565b6000602082019050919050565b60006132fb8261320d565b6133058185613218565b93508360208202850161331785613229565b8060005b85811015613353578484038952815161333485826132cf565b945061333f836132e3565b925060208a0199505060018101905061331b565b50829750879550505050505092915050565b6000602082019050818103600083015261337f81846132f0565b905092915050565b600080600080600060a086880312156133a3576133a2612c99565b5b600086013567ffffffffffffffff8111156133c1576133c0612c9e565b5b6133cd88828901612df1565b955050602086013567ffffffffffffffff8111156133ee576133ed612c9e565b5b6133fa88828901612df1565b945050604086013567ffffffffffffffff81111561341b5761341a612c9e565b5b61342788828901612ed7565b935050606061343888828901612cc4565b925050608061344988828901612cc4565b9150509295509295909350565b600060208201905061346b6000830184613034565b92915050565b61347a81613022565b811461348557600080fd5b50565b60008135905061349781613471565b92915050565b600080604083850312156134b4576134b3612c99565b5b60006134c285828601613488565b92505060206134d385828601612cc4565b9150509250929050565b600080604083850312156134f4576134f3612c99565b5b600061350285828601612cc4565b925050602083013567ffffffffffffffff81111561352357613522612c9e565b5b61352f85828601612df1565b9150509250929050565b600060408201905061354e6000830185612ff3565b81810360208301526135608184613089565b90509392505050565b600081519050919050565b600082825260208201905092915050565b6000819050602082019050919050565b61359e81613022565b82525050565b6135ad81612f90565b82525050565b600060a0830160008301516135cb6000860182613595565b5060208301516135de6020860182613239565b5060408301516135f16040860182613239565b50606083015184820360608601526136098282613259565b915050608083015161361e60808601826135a4565b508091505092915050565b600061363583836135b3565b905092915050565b6000602082019050919050565b600061365582613569565b61365f8185613574565b93508360208202850161367185613585565b8060005b858110156136ad578484038952815161368e8582613629565b94506136998361363d565b925060208a01995050600181019050613675565b50829750879550505050505092915050565b600060208201905081810360008301526136d9818461364a565b905092915050565b60006060820190506136f66000830186612ff3565b6137036020830185612ff3565b6137106040830184612ff3565b949350505050565b600081519050919050565b600082825260208201905092915050565b6000819050602082019050919050565b600081519050919050565b600082825260208201905092915050565b6000819050602082019050919050565b600061377c8383613259565b905092915050565b6000602082019050919050565b600061379c82613744565b6137a6818561374f565b9350836020820285016137b885613760565b8060005b858110156137f457848403895281516137d58582613770565b94506137e083613784565b925060208a019950506001810190506137bc565b50829750879550505050505092915050565b61380f81613118565b82525050565b60006101a08301600083015161382e6000860182613239565b5060208301516138416020860182613595565b50604083015184820360408601526138598282613259565b915050606083015184820360608601526138738282613259565b9150506080830151848203608086015261388d8282613791565b91505060a08301516138a260a0860182613239565b5060c08301516138b560c0860182613239565b5060e08301516138c860e0860182613239565b506101008301516138dd610100860182613239565b506101208301516138f2610120860182613239565b50610140830151613907610140860182613239565b506101608301518482036101608601526139218282613791565b915050610180830151613938610180860182613806565b508091505092915050565b600061394f8383613815565b905092915050565b6000602082019050919050565b600061396f82613718565b6139798185613723565b93508360208202850161398b85613734565b8060005b858110156139c757848403895281516139a88582613943565b94506139b383613957565b925060208a0199505060018101905061398f565b50829750879550505050505092915050565b600060208201905081810360008301526139f38184613964565b905092915050565b60006101a083016000830151613a146000860182613239565b506020830151613a276020860182613595565b5060408301518482036040860152613a3f8282613259565b91505060608301518482036060860152613a598282613259565b91505060808301518482036080860152613a738282613791565b91505060a0830151613a8860a0860182613239565b5060c0830151613a9b60c0860182613239565b5060e0830151613aae60e0860182613239565b50610100830151613ac3610100860182613239565b50610120830151613ad8610120860182613239565b50610140830151613aed610140860182613239565b50610160830151848203610160860152613b078282613791565b915050610180830151613b1e610180860182613806565b508091505092915050565b60006020820190508181036000830152613b4381846139fb565b905092915050565b60008060408385031215613b6257613b61612c99565b5b6000613b7085828601612cc4565b9250506020613b8185828601612cc4565b9150509250929050565b600060a082019050613ba06000830188613034565b613bad6020830187612ff3565b613bba6040830186612ff3565b8181036060830152613bcc8185613089565b9050613bdb6080830184612f9c565b9695505050505050565b7f4e487b7100000000000000000000000000000000000000000000000000000000600052603260045260246000fd5b7f556e617574686f72697a656420456e7469747900000000000000000000000000600082015250565b6000613c4a60138361304e565b9150613c5582613c14565b602082019050919050565b60006020820190508181036000830152613c7981613c3d565b9050919050565b7f4465736372697074696f6e2063616e6e6f7420626520656d7074790000000000600082015250565b6000613cb6601b8361304e565b9150613cc182613c80565b602082019050919050565b60006020820190508181036000830152613ce581613ca9565b9050919050565b7f496d61676555524c732063616e6e6f7420626520656d70747900000000000000600082015250565b6000613d2260198361304e565b9150613d2d82613cec565b602082019050919050565b60006020820190508181036000830152613d5181613d15565b9050919050565b7f4e487b7100000000000000000000000000000000000000000000000000000000600052602260045260246000fd5b60006002820490506001821680613d9f57607f821691505b602082108103613db257613db1613d58565b5b50919050565b60008190508160005260206000209050919050565b60006020601f8301049050919050565b600082821b905092915050565b600060088302613e1a7fffffffffffffffffffffffffffffffffffffffffffffffffffffffffffffffff82613ddd565b613e248683613ddd565b95508019841693508086168417925050509392505050565b6000819050919050565b6000613e61613e5c613e5784612ca3565b613e3c565b612ca3565b9050919050565b6000819050919050565b613e7b83613e46565b613e8f613e8782613e68565b848454613dea565b825550505050565b600090565b613ea4613e97565b613eaf818484613e72565b505050565b5b81811015613ed357613ec8600082613e9c565b600181019050613eb5565b5050565b601f821115613f1857613ee981613db8565b613ef284613dcd565b81016020851015613f01578190505b613f15613f0d85613dcd565b830182613eb4565b50505b505050565b600082821c905092915050565b6000613f3b60001984600802613f1d565b1980831691505092915050565b6000613f548383613f2a565b9150826002028217905092915050565b613f6d82613043565b67ffffffffffffffff811115613f8657613f85612cf4565b5b613f908254613d87565b613f9b828285613ed7565b600060209050601f831160018114613fce5760008415613fbc578287015190505b613fc68582613f48565b86555061402e565b601f198416613fdc86613db8565b60005b8281101561400457848901518255600182019150602085019450602081019050613fdf565b86831015614021578489015161401d601f891682613f2a565b8355505b6001600288020188555050505b505050505050565b6000815461404381613d87565b61404d818661304e565b94506001821660008114614068576001811461407e576140b1565b60ff1983168652811515602002860193506140b1565b61408785613db8565b60005b838110156140a95781548189015260018201915060208101905061408a565b808801955050505b50505092915050565b60006060820190506140cf6000830186612ff3565b81810360208301526140e18185614036565b90506140f06040830184612ff3565b949350505050565b7f41636365737320526573657276656420746f204f776e65720000000000000000600082015250565b600061412e60188361304e565b9150614139826140f8565b602082019050919050565b6000602082019050818103600083015261415d81614121565b9050919050565b7f50726f6a656374206e6f206c6f6e676572206f70656e65640000000000000000600082015250565b600061419a60188361304e565b91506141a582614164565b602082019050919050565b600060208201905081810360008301526141c98161418d565b9050919050565b60006040820190506141e56000830185612ff3565b6141f26020830184612ff3565b9392505050565b7f5469746c652063616e6e6f7420626520656d7074790000000000000000000000600082015250565b600061422f60158361304e565b915061423a826141f9565b602082019050919050565b6000602082019050818103600083015261425e81614222565b9050919050565b7f436f73742063616e6e6f74206265207a65726f00000000000000000000000000600082015250565b600061429b60138361304e565b91506142a682614265565b602082019050919050565b600060208201905081810360008301526142ca8161428e565b9050919050565b7f4e487b7100000000000000000000000000000000000000000000000000000000600052601160045260246000fd5b600061430b82612ca3565b915061431683612ca3565b925082820190508082111561432e5761432d6142d1565b5b92915050565b60006080820190506143496000830187612ff3565b6143566020830186613034565b81810360408301526143688185613089565b90506143776060830184612ff3565b95945050505050565b600061438b82612ca3565b91507fffffffffffffffffffffffffffffffffffffffffffffffffffffffffffffffff82036143bd576143bc6142d1565b5b600182019050919050565b7f4574686572206d7573742062652067726561746572207468616e207a65726f00600082015250565b60006143fe601f8361304e565b9150614409826143c8565b602082019050919050565b6000602082019050818103600083015261442d816143f1565b9050919050565b7f50726f6a656374206e6f7420666f756e64000000000000000000000000000000600082015250565b600061446a60118361304e565b915061447582614434565b602082019050919050565b600060208201905081810360008301526144998161445d565b9050919050565b7f50726f6a65637420616c7265616479206d61726b65642061732072657665727460008201527f65642f64656c6574656400000000000000000000000000000000000000000000602082015250565b60006144fc602a8361304e565b9150614507826144a0565b604082019050919050565b6000602082019050818103600083015261452b816144ef565b9050919050565b7f50726f6a656374206e6f7420415050524f564544000000000000000000000000600082015250565b600061456860148361304e565b915061457382614532565b602082019050919050565b600060208201905081810360008301526145978161455b565b9050919050565b60006145a982612ca3565b91506145b483612ca3565b92508282039050818111156145cc576145cb6142d1565b5b92915050565b60006145dd82612ca3565b91506145e883612ca3565b92508282026145f681612ca3565b9150828204841483151761460d5761460c6142d1565b5b5092915050565b7f4e487b7100000000000000000000000000000000000000000000000000000000600052601260045260246000fd5b600061464e82612ca3565b915061465983612ca3565b92508261466957614668614614565b5b828204905092915050565b60006080820190506146896000830187612ff3565b6146966020830186613034565b6146a36040830185612ff3565b6146b06060830184612ff3565b95945050505050565b600081905092915050565b50565b60006146d46000836146b9565b91506146df826146c4565b600082019050919050565b60006146f5826146c7565b9150819050919050565b7f5061796d656e74206661696c6564000000000000000000000000000000000000600082015250565b6000614735600e8361304e565b9150614740826146ff565b602082019050919050565b6000602082019050818103600083015261476481614728565b905091905056fea2646970667358221220b867de43159ae8a745a8d49237e20f35938635d365099da3f5cc60d43219d51f64736f6c63430008180033",
  "linkReferences": {},
  "deployedLinkReferences": {}
}