{
  "_format": "hh-sol-artifact-1",
  "contractName": "BlockPledge",
  "sourceName": "app/contracts/BlockPledge.sol",
  "abi": [
    {
      "inputs": [
        {
          "internalType": "uint256",
          "name": "_projectTax",
          "type": "uint256"
        }
      ],
      "stateMutability": "nonpayable",
      "type": "constructor"
    },
    {
      "anonymous": false,
      "inputs": [
        {
          "indexed": false,
          "internalType": "uint256",
          "name": "id",
          "type": "uint256"
        },
        {
          "indexed": false,
          "internalType": "address",
          "name": "backer",
          "type": "address"
        },
        {
          "indexed": false,
          "internalType": "uint256",
          "name": "timestamp",
          "type": "uint256"
        }
      ],
      "name": "ProjectBacked",
      "type": "event"
    },
    {
      "anonymous": false,
      "inputs": [
        {
          "indexed": false,
          "internalType": "uint256",
          "name": "id",
          "type": "uint256"
        },
        {
          "indexed": false,
          "internalType": "address",
          "name": "owner",
          "type": "address"
        },
        {
          "indexed": false,
          "internalType": "string",
          "name": "title",
          "type": "string"
        },
        {
          "indexed": false,
          "internalType": "uint256",
          "name": "timestamp",
          "type": "uint256"
        }
      ],
      "name": "ProjectCreated",
      "type": "event"
    },
    {
      "anonymous": false,
      "inputs": [
        {
          "indexed": false,
          "internalType": "uint256",
          "name": "id",
          "type": "uint256"
        },
        {
          "indexed": false,
          "internalType": "uint256",
          "name": "timestamp",
          "type": "uint256"
        }
      ],
      "name": "ProjectDeleted",
      "type": "event"
    },
    {
      "anonymous": false,
      "inputs": [
        {
          "indexed": false,
          "internalType": "uint256",
          "name": "id",
          "type": "uint256"
        },
        {
          "indexed": false,
          "internalType": "address",
          "name": "recipient",
          "type": "address"
        },
        {
          "indexed": false,
          "internalType": "uint256",
          "name": "amount",
          "type": "uint256"
        },
        {
          "indexed": false,
          "internalType": "uint256",
          "name": "timestamp",
          "type": "uint256"
        }
      ],
      "name": "ProjectPaidOut",
      "type": "event"
    },
    {
      "anonymous": false,
      "inputs": [
        {
          "indexed": false,
          "internalType": "uint256",
          "name": "id",
          "type": "uint256"
        },
        {
          "indexed": false,
          "internalType": "string",
          "name": "title",
          "type": "string"
        },
        {
          "indexed": false,
          "internalType": "uint256",
          "name": "timestamp",
          "type": "uint256"
        }
      ],
      "name": "ProjectUpdated",
      "type": "event"
    },
    {
      "inputs": [
        {
          "internalType": "uint256",
          "name": "_id",
          "type": "uint256"
        }
      ],
      "name": "backProject",
      "outputs": [
        {
          "internalType": "bool",
          "name": "",
          "type": "bool"
        }
      ],
      "stateMutability": "payable",
      "type": "function"
    },
    {
      "inputs": [
        {
          "internalType": "uint256",
          "name": "",
          "type": "uint256"
        },
        {
          "internalType": "uint256",
          "name": "",
          "type": "uint256"
        }
      ],
      "name": "backersOf",
      "outputs": [
        {
          "internalType": "address",
          "name": "backer",
          "type": "address"
        },
        {
          "internalType": "uint256",
          "name": "contribution",
          "type": "uint256"
        },
        {
          "internalType": "uint256",
          "name": "timestamp",
          "type": "uint256"
        },
        {
          "internalType": "bool",
          "name": "refunded",
          "type": "bool"
        }
      ],
      "stateMutability": "view",
      "type": "function"
    },
    {
      "inputs": [
        {
          "internalType": "uint256",
          "name": "_taxPct",
          "type": "uint256"
        }
      ],
      "name": "changeTax",
      "outputs": [],
      "stateMutability": "nonpayable",
      "type": "function"
    },
    {
      "inputs": [
        {
          "internalType": "string",
          "name": "_title",
          "type": "string"
        },
        {
          "internalType": "string",
          "name": "_description",
          "type": "string"
        },
        {
          "internalType": "string[]",
          "name": "_imageURLs",
          "type": "string[]"
        },
        {
          "internalType": "uint256",
          "name": "_cost",
          "type": "uint256"
        },
        {
          "internalType": "uint256",
          "name": "_expiresAt",
          "type": "uint256"
        }
      ],
      "name": "createProject",
      "outputs": [
        {
          "internalType": "bool",
          "name": "",
          "type": "bool"
        }
      ],
      "stateMutability": "nonpayable",
      "type": "function"
    },
    {
      "inputs": [
        {
          "internalType": "uint256",
          "name": "_id",
          "type": "uint256"
        }
      ],
      "name": "deleteProject",
      "outputs": [
        {
          "internalType": "bool",
          "name": "",
          "type": "bool"
        }
      ],
      "stateMutability": "nonpayable",
      "type": "function"
    },
    {
      "inputs": [
        {
          "internalType": "uint256",
          "name": "_id",
          "type": "uint256"
        }
      ],
      "name": "getBackers",
      "outputs": [
        {
          "components": [
            {
              "internalType": "address",
              "name": "backer",
              "type": "address"
            },
            {
              "internalType": "uint256",
              "name": "contribution",
              "type": "uint256"
            },
            {
              "internalType": "uint256",
              "name": "timestamp",
              "type": "uint256"
            },
            {
              "internalType": "bool",
              "name": "refunded",
              "type": "bool"
            }
          ],
          "internalType": "struct BlockPledge.BackerStruct[]",
          "name": "",
          "type": "tuple[]"
        }
      ],
      "stateMutability": "view",
      "type": "function"
    },
    {
      "inputs": [
        {
          "internalType": "uint256",
          "name": "_id",
          "type": "uint256"
        }
      ],
      "name": "getProject",
      "outputs": [
        {
          "components": [
            {
              "internalType": "uint256",
              "name": "id",
              "type": "uint256"
            },
            {
              "internalType": "address",
              "name": "owner",
              "type": "address"
            },
            {
              "internalType": "string",
              "name": "title",
              "type": "string"
            },
            {
              "internalType": "string",
              "name": "description",
              "type": "string"
            },
            {
              "internalType": "string[]",
              "name": "imageURLs",
              "type": "string[]"
            },
            {
              "internalType": "uint256",
              "name": "cost",
              "type": "uint256"
            },
            {
              "internalType": "uint256",
              "name": "raised",
              "type": "uint256"
            },
            {
              "internalType": "uint256",
              "name": "timestamp",
              "type": "uint256"
            },
            {
              "internalType": "uint256",
              "name": "expiresAt",
              "type": "uint256"
            },
            {
              "internalType": "uint256",
              "name": "backers",
              "type": "uint256"
            },
            {
              "internalType": "enum BlockPledge.StatusEnum",
              "name": "status",
              "type": "uint8"
            }
          ],
          "internalType": "struct BlockPledge.ProjectStruct",
          "name": "",
          "type": "tuple"
        }
      ],
      "stateMutability": "view",
      "type": "function"
    },
    {
      "inputs": [],
      "name": "getProjects",
      "outputs": [
        {
          "components": [
            {
              "internalType": "uint256",
              "name": "id",
              "type": "uint256"
            },
            {
              "internalType": "address",
              "name": "owner",
              "type": "address"
            },
            {
              "internalType": "string",
              "name": "title",
              "type": "string"
            },
            {
              "internalType": "string",
              "name": "description",
              "type": "string"
            },
            {
              "internalType": "string[]",
              "name": "imageURLs",
              "type": "string[]"
            },
            {
              "internalType": "uint256",
              "name": "cost",
              "type": "uint256"
            },
            {
              "internalType": "uint256",
              "name": "raised",
              "type": "uint256"
            },
            {
              "internalType": "uint256",
              "name": "timestamp",
              "type": "uint256"
            },
            {
              "internalType": "uint256",
              "name": "expiresAt",
              "type": "uint256"
            },
            {
              "internalType": "uint256",
              "name": "backers",
              "type": "uint256"
            },
            {
              "internalType": "enum BlockPledge.StatusEnum",
              "name": "status",
              "type": "uint8"
            }
          ],
          "internalType": "struct BlockPledge.ProjectStruct[]",
          "name": "",
          "type": "tuple[]"
        }
      ],
      "stateMutability": "view",
      "type": "function"
    },
    {
      "inputs": [],
      "name": "owner",
      "outputs": [
        {
          "internalType": "address",
          "name": "",
          "type": "address"
        }
      ],
      "stateMutability": "view",
      "type": "function"
    },
    {
      "inputs": [
        {
          "internalType": "uint256",
          "name": "_id",
          "type": "uint256"
        }
      ],
      "name": "payOutProject",
      "outputs": [
        {
          "internalType": "bool",
          "name": "",
          "type": "bool"
        }
      ],
      "stateMutability": "nonpayable",
      "type": "function"
    },
    {
      "inputs": [],
      "name": "projectCount",
      "outputs": [
        {
          "internalType": "uint256",
          "name": "",
          "type": "uint256"
        }
      ],
      "stateMutability": "view",
      "type": "function"
    },
    {
      "inputs": [
        {
          "internalType": "uint256",
          "name": "",
          "type": "uint256"
        }
      ],
      "name": "projectExists",
      "outputs": [
        {
          "internalType": "bool",
          "name": "",
          "type": "bool"
        }
      ],
      "stateMutability": "view",
      "type": "function"
    },
    {
      "inputs": [],
      "name": "projectTax",
      "outputs": [
        {
          "internalType": "uint256",
          "name": "",
          "type": "uint256"
        }
      ],
      "stateMutability": "view",
      "type": "function"
    },
    {
      "inputs": [
        {
          "internalType": "uint256",
          "name": "",
          "type": "uint256"
        }
      ],
      "name": "projects",
      "outputs": [
        {
          "internalType": "uint256",
          "name": "id",
          "type": "uint256"
        },
        {
          "internalType": "address",
          "name": "owner",
          "type": "address"
        },
        {
          "internalType": "string",
          "name": "title",
          "type": "string"
        },
        {
          "internalType": "string",
          "name": "description",
          "type": "string"
        },
        {
          "internalType": "uint256",
          "name": "cost",
          "type": "uint256"
        },
        {
          "internalType": "uint256",
          "name": "raised",
          "type": "uint256"
        },
        {
          "internalType": "uint256",
          "name": "timestamp",
          "type": "uint256"
        },
        {
          "internalType": "uint256",
          "name": "expiresAt",
          "type": "uint256"
        },
        {
          "internalType": "uint256",
          "name": "backers",
          "type": "uint256"
        },
        {
          "internalType": "enum BlockPledge.StatusEnum",
          "name": "status",
          "type": "uint8"
        }
      ],
      "stateMutability": "view",
      "type": "function"
    },
    {
      "inputs": [
        {
          "internalType": "address",
          "name": "",
          "type": "address"
        },
        {
          "internalType": "uint256",
          "name": "",
          "type": "uint256"
        }
      ],
      "name": "projectsOf",
      "outputs": [
        {
          "internalType": "uint256",
          "name": "id",
          "type": "uint256"
        },
        {
          "internalType": "address",
          "name": "owner",
          "type": "address"
        },
        {
          "internalType": "string",
          "name": "title",
          "type": "string"
        },
        {
          "internalType": "string",
          "name": "description",
          "type": "string"
        },
        {
          "internalType": "uint256",
          "name": "cost",
          "type": "uint256"
        },
        {
          "internalType": "uint256",
          "name": "raised",
          "type": "uint256"
        },
        {
          "internalType": "uint256",
          "name": "timestamp",
          "type": "uint256"
        },
        {
          "internalType": "uint256",
          "name": "expiresAt",
          "type": "uint256"
        },
        {
          "internalType": "uint256",
          "name": "backers",
          "type": "uint256"
        },
        {
          "internalType": "enum BlockPledge.StatusEnum",
          "name": "status",
          "type": "uint8"
        }
      ],
      "stateMutability": "view",
      "type": "function"
    },
    {
      "inputs": [
        {
          "internalType": "uint256",
          "name": "_id",
          "type": "uint256"
        }
      ],
      "name": "requestRefund",
      "outputs": [
        {
          "internalType": "bool",
          "name": "",
          "type": "bool"
        }
      ],
      "stateMutability": "nonpayable",
      "type": "function"
    },
    {
      "inputs": [],
      "name": "stats",
      "outputs": [
        {
          "internalType": "uint256",
          "name": "totalProjects",
          "type": "uint256"
        },
        {
          "internalType": "uint256",
          "name": "totalBacking",
          "type": "uint256"
        },
        {
          "internalType": "uint256",
          "name": "totalDonations",
          "type": "uint256"
        }
      ],
      "stateMutability": "view",
      "type": "function"
    },
    {
      "inputs": [
        {
          "internalType": "uint256",
          "name": "_id",
          "type": "uint256"
        },
        {
          "internalType": "string",
          "name": "_description",
          "type": "string"
        },
        {
          "internalType": "string[]",
          "name": "_imageURLs",
          "type": "string[]"
        }
      ],
      "name": "updateProject",
      "outputs": [
        {
          "internalType": "bool",
          "name": "",
          "type": "bool"
        }
      ],
      "stateMutability": "nonpayable",
      "type": "function"
    }
  ],
  "bytecode": "0x60806040523480156200001157600080fd5b50604051620040ce380380620040ce8339818101604052810190620000379190620000c5565b336000806101000a81548173ffffffffffffffffffffffffffffffffffffffff021916908373ffffffffffffffffffffffffffffffffffffffff1602179055508060018190555050620000f7565b600080fd5b6000819050919050565b6200009f816200008a565b8114620000ab57600080fd5b50565b600081519050620000bf8162000094565b92915050565b600060208284031215620000de57620000dd62000085565b5b6000620000ee84828501620000ae565b91505092915050565b613fc780620001076000396000f3fe6080604052600436106101095760003560e01c80639f39a19411610095578063d24cd3ec11610064578063d24cd3ec146103f4578063d80528ae1461041f578063dcc601281461044c578063f0f3f2c814610477578063f9285aa0146104b457610109565b80639f39a1941461030d578063a4b2409e1461033d578063b531dcba1461037a578063c9168b72146103b757610109565b80634cd0cb28116100dc5780634cd0cb28146101e557806361952cd414610222578063703d52af1461025f5780638da5cb5b1461029c5780638e555632146102c757610109565b8063013feda91461010e578063107046bd1461014b57806336fbad26146101915780633e45c8af146101bc575b600080fd5b34801561011a57600080fd5b506101356004803603810190610130919061295b565b6104f4565b6040516101429190612a01565b60405180910390f35b34801561015757600080fd5b50610172600480360381019061016d9190612a1c565b610708565b6040516101889a99989796959493929190612b8f565b60405180910390f35b34801561019d57600080fd5b506101a66108a9565b6040516101b39190612c39565b60405180910390f35b3480156101c857600080fd5b506101e360048036038101906101de9190612a1c565b6108af565b005b3480156101f157600080fd5b5061020c60048036038101906102079190612a1c565b610947565b6040516102199190612a01565b60405180910390f35b34801561022e57600080fd5b5061024960048036038101906102449190612c54565b610b2d565b6040516102569190612a01565b60405180910390f35b34801561026b57600080fd5b5061028660048036038101906102819190612a1c565b61100a565b6040516102939190612a01565b60405180910390f35b3480156102a857600080fd5b506102b161102a565b6040516102be9190612d23565b60405180910390f35b3480156102d357600080fd5b506102ee60048036038101906102e99190612d6a565b61104e565b6040516103049a99989796959493929190612b8f565b60405180910390f35b61032760048036038101906103229190612a1c565b6111fc565b6040516103349190612a01565b60405180910390f35b34801561034957600080fd5b50610364600480360381019061035f9190612a1c565b611660565b6040516103719190612a01565b60405180910390f35b34801561038657600080fd5b506103a1600480360381019061039c9190612a1c565b6117bf565b6040516103ae9190612a01565b60405180910390f35b3480156103c357600080fd5b506103de60048036038101906103d99190612a1c565b611975565b6040516103eb9190612edb565b60405180910390f35b34801561040057600080fd5b50610409611a6c565b6040516104169190612c39565b60405180910390f35b34801561042b57600080fd5b50610434611a72565b60405161044393929190612efd565b60405180910390f35b34801561045857600080fd5b50610461611a8a565b60405161046e919061320e565b60405180910390f35b34801561048357600080fd5b5061049e60048036038101906104999190612a1c565b611db4565b6040516104ab919061332d565b60405180910390f35b3480156104c057600080fd5b506104db60048036038101906104d6919061334f565b61211b565b6040516104eb949392919061338f565b60405180910390f35b60006006848154811061050a576105096133d4565b5b90600052602060002090600b020160010160009054906101000a900473ffffffffffffffffffffffffffffffffffffffff1673ffffffffffffffffffffffffffffffffffffffff163373ffffffffffffffffffffffffffffffffffffffff16146105a9576040517f08c379a00000000000000000000000000000000000000000000000000000000081526004016105a09061344f565b60405180910390fd5b60008351116105ed576040517f08c379a00000000000000000000000000000000000000000000000000000000081526004016105e4906134bb565b60405180910390fd5b6000825111610631576040517f08c379a000000000000000000000000000000000000000000000000000000000815260040161062890613527565b60405180910390fd5b8260068581548110610646576106456133d4565b5b90600052602060002090600b020160030190816106639190613753565b508160068581548110610679576106786133d4565b5b90600052602060002090600b0201600401908051906020019061069d929190612589565b507f2fc51eab37d48def9d8af982f76cb7dd95c39990cbda0942903fc31591da692284600686815481106106d4576106d36133d4565b5b90600052602060002090600b0201600201426040516106f5939291906138a9565b60405180910390a1600190509392505050565b6006818154811061071857600080fd5b90600052602060002090600b02016000915090508060000154908060010160009054906101000a900473ffffffffffffffffffffffffffffffffffffffff169080600201805461076790613576565b80601f016020809104026020016040519081016040528092919081815260200182805461079390613576565b80156107e05780601f106107b5576101008083540402835291602001916107e0565b820191906000526020600020905b8154815290600101906020018083116107c357829003601f168201915b5050505050908060030180546107f590613576565b80601f016020809104026020016040519081016040528092919081815260200182805461082190613576565b801561086e5780601f106108435761010080835404028352916020019161086e565b820191906000526020600020905b81548152906001019060200180831161085157829003601f168201915b50505050509080600501549080600601549080600701549080600801549080600901549080600a0160009054906101000a900460ff1690508a565b60025481565b60008054906101000a900473ffffffffffffffffffffffffffffffffffffffff1673ffffffffffffffffffffffffffffffffffffffff163373ffffffffffffffffffffffffffffffffffffffff161461093d576040517f08c379a000000000000000000000000000000000000000000000000000000000815260040161093490613933565b60405180910390fd5b8060018190555050565b600080600481111561095c5761095b612b18565b5b600683815481106109705761096f6133d4565b5b90600052602060002090600b0201600a0160009054906101000a900460ff1660048111156109a1576109a0612b18565b5b146109e1576040517f08c379a00000000000000000000000000000000000000000000000000000000081526004016109d89061399f565b60405180910390fd5b600682815481106109f5576109f46133d4565b5b90600052602060002090600b020160010160009054906101000a900473ffffffffffffffffffffffffffffffffffffffff1673ffffffffffffffffffffffffffffffffffffffff163373ffffffffffffffffffffffffffffffffffffffff1614610a94576040517f08c379a0000000000000000000000000000000000000000000000000000000008152600401610a8b9061344f565b60405180910390fd5b600360068381548110610aaa57610aa96133d4565b5b90600052602060002090600b0201600a0160006101000a81548160ff02191690836004811115610add57610adc612b18565b5b0217905550610aeb82612195565b7f4484a435bc92a4925b8b18f20baf06d71675934c29cc91d21550d29939098ed08242604051610b1c9291906139bf565b60405180910390a160019050919050565b600080865111610b72576040517f08c379a0000000000000000000000000000000000000000000000000000000008152600401610b6990613a34565b60405180910390fd5b6000855111610bb6576040517f08c379a0000000000000000000000000000000000000000000000000000000008152600401610bad906134bb565b60405180910390fd5b6000845111610bfa576040517f08c379a0000000000000000000000000000000000000000000000000000000008152600401610bf190613527565b60405180910390fd5b60008311610c3d576040517f08c379a0000000000000000000000000000000000000000000000000000000008152600401610c3490613aa0565b60405180910390fd5b610c456125e2565b60025481600001818152505033816020019073ffffffffffffffffffffffffffffffffffffffff16908173ffffffffffffffffffffffffffffffffffffffff1681525050868160400181905250858160600181905250848160800181905250838160a0018181525050428160e0018181525050828161010001818152505060068190806001815401808255809150506001900390600052602060002090600b02016000909190919091506000820151816000015560208201518160010160006101000a81548173ffffffffffffffffffffffffffffffffffffffff021916908373ffffffffffffffffffffffffffffffffffffffff1602179055506040820151816002019081610d559190613753565b506060820151816003019081610d6b9190613753565b506080820151816004019080519060200190610d88929190612589565b5060a0820151816005015560c0820151816006015560e082015181600701556101008201518160080155610120820151816009015561014082015181600a0160006101000a81548160ff02191690836004811115610de957610de8612b18565b5b02179055505050600160096000600254815260200190815260200160002060006101000a81548160ff021916908315150217905550600760003373ffffffffffffffffffffffffffffffffffffffff1673ffffffffffffffffffffffffffffffffffffffff1681526020019081526020016000208190806001815401808255809150506001900390600052602060002090600b02016000909190919091506000820151816000015560208201518160010160006101000a81548173ffffffffffffffffffffffffffffffffffffffff021916908373ffffffffffffffffffffffffffffffffffffffff1602179055506040820151816002019081610eed9190613753565b506060820151816003019081610f039190613753565b506080820151816004019080519060200190610f20929190612589565b5060a0820151816005015560c0820151816006015560e082015181600701556101008201518160080155610120820151816009015561014082015181600a0160006101000a81548160ff02191690836004811115610f8157610f80612b18565b5b02179055505050600160036000016000828254610f9e9190613aef565b925050819055507f51d08cb6cfa640a387210fb69df925dfb70169ae7373f8ecd40b977b0c800d9a600254338942604051610fdc9493929190613b23565b60405180910390a160026000815480929190610ff790613b6f565b9190505550600191505095945050505050565b60096020528060005260406000206000915054906101000a900460ff1681565b60008054906101000a900473ffffffffffffffffffffffffffffffffffffffff1681565b6007602052816000526040600020818154811061106a57600080fd5b90600052602060002090600b0201600091509150508060000154908060010160009054906101000a900473ffffffffffffffffffffffffffffffffffffffff16908060020180546110ba90613576565b80601f01602080910402602001604051908101604052809291908181526020018280546110e690613576565b80156111335780601f1061110857610100808354040283529160200191611133565b820191906000526020600020905b81548152906001019060200180831161111657829003601f168201915b50505050509080600301805461114890613576565b80601f016020809104026020016040519081016040528092919081815260200182805461117490613576565b80156111c15780601f10611196576101008083540402835291602001916111c1565b820191906000526020600020905b8154815290600101906020018083116111a457829003601f168201915b50505050509080600501549080600601549080600701549080600801549080600901549080600a0160009054906101000a900460ff1690508a565b6000803411611240576040517f08c379a000000000000000000000000000000000000000000000000000000000815260040161123790613c03565b60405180910390fd5b6009600083815260200190815260200160002060009054906101000a900460ff166112a0576040517f08c379a000000000000000000000000000000000000000000000000000000000815260040161129790613c6f565b60405180910390fd5b600060048111156112b4576112b3612b18565b5b600683815481106112c8576112c76133d4565b5b90600052602060002090600b0201600a0160009054906101000a900460ff1660048111156112f9576112f8612b18565b5b14611339576040517f08c379a00000000000000000000000000000000000000000000000000000000081526004016113309061399f565b60405180910390fd5b60016003600101600082825461134f9190613aef565b92505081905550346003600201600082825461136b9190613aef565b925050819055503460068381548110611387576113866133d4565b5b90600052602060002090600b020160060160008282546113a79190613aef565b925050819055506001600683815481106113c4576113c36133d4565b5b90600052602060002090600b020160090160008282546113e49190613aef565b925050819055506008600083815260200190815260200160002060405180608001604052803373ffffffffffffffffffffffffffffffffffffffff16815260200134815260200142815260200160001515815250908060018154018082558091505060019003906000526020600020906004020160009091909190915060008201518160000160006101000a81548173ffffffffffffffffffffffffffffffffffffffff021916908373ffffffffffffffffffffffffffffffffffffffff160217905550602082015181600101556040820151816002015560608201518160030160006101000a81548160ff02191690831515021790555050507fe8213139448ae88df06f4bbd25f13213a4c252a193ed0f03ef617c5d70ecf01282334260405161151193929190613c8f565b60405180910390a16006828154811061152d5761152c6133d4565b5b90600052602060002090600b02016005015460068381548110611553576115526133d4565b5b90600052602060002090600b020160060154106115ca576001600683815481106115805761157f6133d4565b5b90600052602060002090600b0201600a0160006101000a81548160ff021916908360048111156115b3576115b2612b18565b5b02179055506115c18261232c565b6001905061165b565b600682815481106115de576115dd6133d4565b5b90600052602060002090600b02016008015442106116565760026006838154811061160c5761160b6133d4565b5b90600052602060002090600b0201600a0160006101000a81548160ff0219169083600481111561163f5761163e612b18565b5b021790555061164d82612195565b6001905061165b565b600190505b919050565b60006002600481111561167657611675612b18565b5b6006838154811061168a576116896133d4565b5b90600052602060002090600b0201600a0160009054906101000a900460ff1660048111156116bb576116ba612b18565b5b141580156117205750600360048111156116d8576116d7612b18565b5b600683815481106116ec576116eb6133d4565b5b90600052602060002090600b0201600a0160009054906101000a900460ff16600481111561171d5761171c612b18565b5b14155b61175f576040517f08c379a000000000000000000000000000000000000000000000000000000000815260040161175690613d38565b60405180910390fd5b600260068381548110611775576117746133d4565b5b90600052602060002090600b0201600a0160006101000a81548160ff021916908360048111156117a8576117a7612b18565b5b02179055506117b682612195565b60019050919050565b6000600160048111156117d5576117d4612b18565b5b600683815481106117e9576117e86133d4565b5b90600052602060002090600b0201600a0160009054906101000a900460ff16600481111561181a57611819612b18565b5b1461185a576040517f08c379a000000000000000000000000000000000000000000000000000000000815260040161185190613da4565b60405180910390fd5b6006828154811061186e5761186d6133d4565b5b90600052602060002090600b020160010160009054906101000a900473ffffffffffffffffffffffffffffffffffffffff1673ffffffffffffffffffffffffffffffffffffffff163373ffffffffffffffffffffffffffffffffffffffff161480611924575060008054906101000a900473ffffffffffffffffffffffffffffffffffffffff1673ffffffffffffffffffffffffffffffffffffffff163373ffffffffffffffffffffffffffffffffffffffff16145b611963576040517f08c379a000000000000000000000000000000000000000000000000000000000815260040161195a9061344f565b60405180910390fd5b61196c8261232c565b60019050919050565b606060086000838152602001908152602001600020805480602002602001604051908101604052809291908181526020016000905b82821015611a6157838290600052602060002090600402016040518060800160405290816000820160009054906101000a900473ffffffffffffffffffffffffffffffffffffffff1673ffffffffffffffffffffffffffffffffffffffff1673ffffffffffffffffffffffffffffffffffffffff16815260200160018201548152602001600282015481526020016003820160009054906101000a900460ff161515151581525050815260200190600101906119aa565b505050509050919050565b60015481565b60038060000154908060010154908060020154905083565b60606006805480602002602001604051908101604052809291908181526020016000905b82821015611dab57838290600052602060002090600b020160405180610160016040529081600082015481526020016001820160009054906101000a900473ffffffffffffffffffffffffffffffffffffffff1673ffffffffffffffffffffffffffffffffffffffff1673ffffffffffffffffffffffffffffffffffffffff168152602001600282018054611b4290613576565b80601f0160208091040260200160405190810160405280929190818152602001828054611b6e90613576565b8015611bbb5780601f10611b9057610100808354040283529160200191611bbb565b820191906000526020600020905b815481529060010190602001808311611b9e57829003601f168201915b50505050508152602001600382018054611bd490613576565b80601f0160208091040260200160405190810160405280929190818152602001828054611c0090613576565b8015611c4d5780601f10611c2257610100808354040283529160200191611c4d565b820191906000526020600020905b815481529060010190602001808311611c3057829003601f168201915b5050505050815260200160048201805480602002602001604051908101604052809291908181526020016000905b82821015611d27578382906000526020600020018054611c9a90613576565b80601f0160208091040260200160405190810160405280929190818152602001828054611cc690613576565b8015611d135780601f10611ce857610100808354040283529160200191611d13565b820191906000526020600020905b815481529060010190602001808311611cf657829003601f168201915b505050505081526020019060010190611c7b565b5050505081526020016005820154815260200160068201548152602001600782015481526020016008820154815260200160098201548152602001600a820160009054906101000a900460ff166004811115611d8657611d85612b18565b5b6004811115611d9857611d97612b18565b5b8152505081526020019060010190611aae565b50505050905090565b611dbc6125e2565b6009600083815260200190815260200160002060009054906101000a900460ff16611e1c576040517f08c379a0000000000000000000000000000000000000000000000000000000008152600401611e1390613c6f565b60405180910390fd5b60068281548110611e3057611e2f6133d4565b5b90600052602060002090600b020160405180610160016040529081600082015481526020016001820160009054906101000a900473ffffffffffffffffffffffffffffffffffffffff1673ffffffffffffffffffffffffffffffffffffffff1673ffffffffffffffffffffffffffffffffffffffff168152602001600282018054611eba90613576565b80601f0160208091040260200160405190810160405280929190818152602001828054611ee690613576565b8015611f335780601f10611f0857610100808354040283529160200191611f33565b820191906000526020600020905b815481529060010190602001808311611f1657829003601f168201915b50505050508152602001600382018054611f4c90613576565b80601f0160208091040260200160405190810160405280929190818152602001828054611f7890613576565b8015611fc55780601f10611f9a57610100808354040283529160200191611fc5565b820191906000526020600020905b815481529060010190602001808311611fa857829003601f168201915b5050505050815260200160048201805480602002602001604051908101604052809291908181526020016000905b8282101561209f57838290600052602060002001805461201290613576565b80601f016020809104026020016040519081016040528092919081815260200182805461203e90613576565b801561208b5780601f106120605761010080835404028352916020019161208b565b820191906000526020600020905b81548152906001019060200180831161206e57829003601f168201915b505050505081526020019060010190611ff3565b5050505081526020016005820154815260200160068201548152602001600782015481526020016008820154815260200160098201548152602001600a820160009054906101000a900460ff1660048111156120fe576120fd612b18565b5b60048111156121105761210f612b18565b5b815250509050919050565b6008602052816000526040600020818154811061213757600080fd5b9060005260206000209060040201600091509150508060000160009054906101000a900473ffffffffffffffffffffffffffffffffffffffff16908060010154908060020154908060030160009054906101000a900460ff16905084565b60005b60086000838152602001908152602001600020805490508110156123285760006008600084815260200190815260200160002082815481106121dd576121dc6133d4565b5b906000526020600020906004020160000160009054906101000a900473ffffffffffffffffffffffffffffffffffffffff1690506000600860008581526020019081526020016000208381548110612238576122376133d4565b5b90600052602060002090600402016001015490506001600860008681526020019081526020016000208481548110612273576122726133d4565b5b906000526020600020906004020160030160006101000a81548160ff021916908315150217905550426008600086815260200190815260200160002084815481106122c1576122c06133d4565b5b9060005260206000209060040201600201819055506122e082826124d8565b6001600360010160008282546122f69190613dc4565b9250508190555080600360020160008282546123129190613dc4565b9250508190555050508080600101915050612198565b5050565b600060068281548110612342576123416133d4565b5b90600052602060002090600b020160060154905060006064600154836123689190613df8565b6123729190613e69565b905060046006848154811061238a576123896133d4565b5b90600052602060002090600b0201600a0160006101000a81548160ff021916908360048111156123bd576123bc612b18565b5b021790555061241c600684815481106123d9576123d86133d4565b5b90600052602060002090600b020160010160009054906101000a900473ffffffffffffffffffffffffffffffffffffffff1682846124179190613dc4565b6124d8565b61244660008054906101000a900473ffffffffffffffffffffffffffffffffffffffff16826124d8565b7fea92b548a4f5c76c7714148900ec90179b8b1d1bc117c625021352b7e0393694836006858154811061247c5761247b6133d4565b5b90600052602060002090600b020160010160009054906101000a900473ffffffffffffffffffffffffffffffffffffffff1683856124ba9190613dc4565b426040516124cb9493929190613e9a565b60405180910390a1505050565b60008273ffffffffffffffffffffffffffffffffffffffff16826040516124fe90613f10565b60006040518083038185875af1925050503d806000811461253b576040519150601f19603f3d011682016040523d82523d6000602084013e612540565b606091505b5050905080612584576040517f08c379a000000000000000000000000000000000000000000000000000000000815260040161257b90613f71565b60405180910390fd5b505050565b8280548282559060005260206000209081019282156125d1579160200282015b828111156125d05782518290816125c09190613753565b50916020019190600101906125a9565b5b5090506125de9190612664565b5090565b60405180610160016040528060008152602001600073ffffffffffffffffffffffffffffffffffffffff16815260200160608152602001606081526020016060815260200160008152602001600081526020016000815260200160008152602001600081526020016000600481111561265e5761265d612b18565b5b81525090565b5b80821115612684576000818161267b9190612688565b50600101612665565b5090565b50805461269490613576565b6000825580601f106126a657506126c5565b601f0160209004906000526020600020908101906126c491906126c8565b5b50565b5b808211156126e15760008160009055506001016126c9565b5090565b6000604051905090565b600080fd5b600080fd5b6000819050919050565b61270c816126f9565b811461271757600080fd5b50565b60008135905061272981612703565b92915050565b600080fd5b600080fd5b6000601f19601f8301169050919050565b7f4e487b7100000000000000000000000000000000000000000000000000000000600052604160045260246000fd5b61278282612739565b810181811067ffffffffffffffff821117156127a1576127a061274a565b5b80604052505050565b60006127b46126e5565b90506127c08282612779565b919050565b600067ffffffffffffffff8211156127e0576127df61274a565b5b6127e982612739565b9050602081019050919050565b82818337600083830152505050565b6000612818612813846127c5565b6127aa565b90508281526020810184848401111561283457612833612734565b5b61283f8482856127f6565b509392505050565b600082601f83011261285c5761285b61272f565b5b813561286c848260208601612805565b91505092915050565b600067ffffffffffffffff8211156128905761288f61274a565b5b602082029050602081019050919050565b600080fd5b60006128b96128b484612875565b6127aa565b905080838252602082019050602084028301858111156128dc576128db6128a1565b5b835b8181101561292357803567ffffffffffffffff8111156129015761290061272f565b5b80860161290e8982612847565b855260208501945050506020810190506128de565b5050509392505050565b600082601f8301126129425761294161272f565b5b81356129528482602086016128a6565b91505092915050565b600080600060608486031215612974576129736126ef565b5b60006129828682870161271a565b935050602084013567ffffffffffffffff8111156129a3576129a26126f4565b5b6129af86828701612847565b925050604084013567ffffffffffffffff8111156129d0576129cf6126f4565b5b6129dc8682870161292d565b9150509250925092565b60008115159050919050565b6129fb816129e6565b82525050565b6000602082019050612a1660008301846129f2565b92915050565b600060208284031215612a3257612a316126ef565b5b6000612a408482850161271a565b91505092915050565b612a52816126f9565b82525050565b600073ffffffffffffffffffffffffffffffffffffffff82169050919050565b6000612a8382612a58565b9050919050565b612a9381612a78565b82525050565b600081519050919050565b600082825260208201905092915050565b60005b83811015612ad3578082015181840152602081019050612ab8565b60008484015250505050565b6000612aea82612a99565b612af48185612aa4565b9350612b04818560208601612ab5565b612b0d81612739565b840191505092915050565b7f4e487b7100000000000000000000000000000000000000000000000000000000600052602160045260246000fd5b60058110612b5857612b57612b18565b5b50565b6000819050612b6982612b47565b919050565b6000612b7982612b5b565b9050919050565b612b8981612b6e565b82525050565b600061014082019050612ba5600083018d612a49565b612bb2602083018c612a8a565b8181036040830152612bc4818b612adf565b90508181036060830152612bd8818a612adf565b9050612be76080830189612a49565b612bf460a0830188612a49565b612c0160c0830187612a49565b612c0e60e0830186612a49565b612c1c610100830185612a49565b612c2a610120830184612b80565b9b9a5050505050505050505050565b6000602082019050612c4e6000830184612a49565b92915050565b600080600080600060a08688031215612c7057612c6f6126ef565b5b600086013567ffffffffffffffff811115612c8e57612c8d6126f4565b5b612c9a88828901612847565b955050602086013567ffffffffffffffff811115612cbb57612cba6126f4565b5b612cc788828901612847565b945050604086013567ffffffffffffffff811115612ce857612ce76126f4565b5b612cf48882890161292d565b9350506060612d058882890161271a565b9250506080612d168882890161271a565b9150509295509295909350565b6000602082019050612d386000830184612a8a565b92915050565b612d4781612a78565b8114612d5257600080fd5b50565b600081359050612d6481612d3e565b92915050565b60008060408385031215612d8157612d806126ef565b5b6000612d8f85828601612d55565b9250506020612da08582860161271a565b9150509250929050565b600081519050919050565b600082825260208201905092915050565b6000819050602082019050919050565b612ddf81612a78565b82525050565b612dee816126f9565b82525050565b612dfd816129e6565b82525050565b608082016000820151612e196000850182612dd6565b506020820151612e2c6020850182612de5565b506040820151612e3f6040850182612de5565b506060820151612e526060850182612df4565b50505050565b6000612e648383612e03565b60808301905092915050565b6000602082019050919050565b6000612e8882612daa565b612e928185612db5565b9350612e9d83612dc6565b8060005b83811015612ece578151612eb58882612e58565b9750612ec083612e70565b925050600181019050612ea1565b5085935050505092915050565b60006020820190508181036000830152612ef58184612e7d565b905092915050565b6000606082019050612f126000830186612a49565b612f1f6020830185612a49565b612f2c6040830184612a49565b949350505050565b600081519050919050565b600082825260208201905092915050565b6000819050602082019050919050565b600082825260208201905092915050565b6000612f7c82612a99565b612f868185612f60565b9350612f96818560208601612ab5565b612f9f81612739565b840191505092915050565b600081519050919050565b600082825260208201905092915050565b6000819050602082019050919050565b6000612fe28383612f71565b905092915050565b6000602082019050919050565b600061300282612faa565b61300c8185612fb5565b93508360208202850161301e85612fc6565b8060005b8581101561305a578484038952815161303b8582612fd6565b945061304683612fea565b925060208a01995050600181019050613022565b50829750879550505050505092915050565b61307581612b6e565b82525050565b6000610160830160008301516130946000860182612de5565b5060208301516130a76020860182612dd6565b50604083015184820360408601526130bf8282612f71565b915050606083015184820360608601526130d98282612f71565b915050608083015184820360808601526130f38282612ff7565b91505060a083015161310860a0860182612de5565b5060c083015161311b60c0860182612de5565b5060e083015161312e60e0860182612de5565b50610100830151613143610100860182612de5565b50610120830151613158610120860182612de5565b5061014083015161316d61014086018261306c565b508091505092915050565b6000613184838361307b565b905092915050565b6000602082019050919050565b60006131a482612f34565b6131ae8185612f3f565b9350836020820285016131c085612f50565b8060005b858110156131fc57848403895281516131dd8582613178565b94506131e88361318c565b925060208a019950506001810190506131c4565b50829750879550505050505092915050565b600060208201905081810360008301526132288184613199565b905092915050565b6000610160830160008301516132496000860182612de5565b50602083015161325c6020860182612dd6565b50604083015184820360408601526132748282612f71565b9150506060830151848203606086015261328e8282612f71565b915050608083015184820360808601526132a88282612ff7565b91505060a08301516132bd60a0860182612de5565b5060c08301516132d060c0860182612de5565b5060e08301516132e360e0860182612de5565b506101008301516132f8610100860182612de5565b5061012083015161330d610120860182612de5565b5061014083015161332261014086018261306c565b508091505092915050565b600060208201905081810360008301526133478184613230565b905092915050565b60008060408385031215613366576133656126ef565b5b60006133748582860161271a565b92505060206133858582860161271a565b9150509250929050565b60006080820190506133a46000830187612a8a565b6133b16020830186612a49565b6133be6040830185612a49565b6133cb60608301846129f2565b95945050505050565b7f4e487b7100000000000000000000000000000000000000000000000000000000600052603260045260246000fd5b7f556e617574686f72697a656420456e7469747900000000000000000000000000600082015250565b6000613439601383612aa4565b915061344482613403565b602082019050919050565b600060208201905081810360008301526134688161342c565b9050919050565b7f4465736372697074696f6e2063616e6e6f7420626520656d7074790000000000600082015250565b60006134a5601b83612aa4565b91506134b08261346f565b602082019050919050565b600060208201905081810360008301526134d481613498565b9050919050565b7f496d61676555524c732063616e6e6f7420626520656d70747900000000000000600082015250565b6000613511601983612aa4565b915061351c826134db565b602082019050919050565b6000602082019050818103600083015261354081613504565b9050919050565b7f4e487b7100000000000000000000000000000000000000000000000000000000600052602260045260246000fd5b6000600282049050600182168061358e57607f821691505b6020821081036135a1576135a0613547565b5b50919050565b60008190508160005260206000209050919050565b60006020601f8301049050919050565b600082821b905092915050565b6000600883026136097fffffffffffffffffffffffffffffffffffffffffffffffffffffffffffffffff826135cc565b61361386836135cc565b95508019841693508086168417925050509392505050565b6000819050919050565b600061365061364b613646846126f9565b61362b565b6126f9565b9050919050565b6000819050919050565b61366a83613635565b61367e61367682613657565b8484546135d9565b825550505050565b600090565b613693613686565b61369e818484613661565b505050565b5b818110156136c2576136b760008261368b565b6001810190506136a4565b5050565b601f821115613707576136d8816135a7565b6136e1846135bc565b810160208510156136f0578190505b6137046136fc856135bc565b8301826136a3565b50505b505050565b600082821c905092915050565b600061372a6000198460080261370c565b1980831691505092915050565b60006137438383613719565b9150826002028217905092915050565b61375c82612a99565b67ffffffffffffffff8111156137755761377461274a565b5b61377f8254613576565b61378a8282856136c6565b600060209050601f8311600181146137bd57600084156137ab578287015190505b6137b58582613737565b86555061381d565b601f1984166137cb866135a7565b60005b828110156137f3578489015182556001820191506020850194506020810190506137ce565b86831015613810578489015161380c601f891682613719565b8355505b6001600288020188555050505b505050505050565b6000815461383281613576565b61383c8186612aa4565b94506001821660008114613857576001811461386d576138a0565b60ff1983168652811515602002860193506138a0565b613876856135a7565b60005b8381101561389857815481890152600182019150602081019050613879565b808801955050505b50505092915050565b60006060820190506138be6000830186612a49565b81810360208301526138d08185613825565b90506138df6040830184612a49565b949350505050565b7f41636365737320526573657276656420746f204f776e65720000000000000000600082015250565b600061391d601883612aa4565b9150613928826138e7565b602082019050919050565b6000602082019050818103600083015261394c81613910565b9050919050565b7f50726f6a656374206e6f206c6f6e676572206f70656e65640000000000000000600082015250565b6000613989601883612aa4565b915061399482613953565b602082019050919050565b600060208201905081810360008301526139b88161397c565b9050919050565b60006040820190506139d46000830185612a49565b6139e16020830184612a49565b9392505050565b7f5469746c652063616e6e6f7420626520656d7074790000000000000000000000600082015250565b6000613a1e601583612aa4565b9150613a29826139e8565b602082019050919050565b60006020820190508181036000830152613a4d81613a11565b9050919050565b7f436f73742063616e6e6f74206265207a65726f00000000000000000000000000600082015250565b6000613a8a601383612aa4565b9150613a9582613a54565b602082019050919050565b60006020820190508181036000830152613ab981613a7d565b9050919050565b7f4e487b7100000000000000000000000000000000000000000000000000000000600052601160045260246000fd5b6000613afa826126f9565b9150613b05836126f9565b9250828201905080821115613b1d57613b1c613ac0565b5b92915050565b6000608082019050613b386000830187612a49565b613b456020830186612a8a565b8181036040830152613b578185612adf565b9050613b666060830184612a49565b95945050505050565b6000613b7a826126f9565b91507fffffffffffffffffffffffffffffffffffffffffffffffffffffffffffffffff8203613bac57613bab613ac0565b5b600182019050919050565b7f4574686572206d7573742062652067726561746572207468616e207a65726f00600082015250565b6000613bed601f83612aa4565b9150613bf882613bb7565b602082019050919050565b60006020820190508181036000830152613c1c81613be0565b9050919050565b7f50726f6a656374206e6f7420666f756e64000000000000000000000000000000600082015250565b6000613c59601183612aa4565b9150613c6482613c23565b602082019050919050565b60006020820190508181036000830152613c8881613c4c565b9050919050565b6000606082019050613ca46000830186612a49565b613cb16020830185612a8a565b613cbe6040830184612a49565b949350505050565b7f50726f6a65637420616c7265616479206d61726b65642061732072657665727460008201527f65642f64656c6574656400000000000000000000000000000000000000000000602082015250565b6000613d22602a83612aa4565b9150613d2d82613cc6565b604082019050919050565b60006020820190508181036000830152613d5181613d15565b9050919050565b7f50726f6a656374206e6f7420415050524f564544000000000000000000000000600082015250565b6000613d8e601483612aa4565b9150613d9982613d58565b602082019050919050565b60006020820190508181036000830152613dbd81613d81565b9050919050565b6000613dcf826126f9565b9150613dda836126f9565b9250828203905081811115613df257613df1613ac0565b5b92915050565b6000613e03826126f9565b9150613e0e836126f9565b9250828202613e1c816126f9565b91508282048414831517613e3357613e32613ac0565b5b5092915050565b7f4e487b7100000000000000000000000000000000000000000000000000000000600052601260045260246000fd5b6000613e74826126f9565b9150613e7f836126f9565b925082613e8f57613e8e613e3a565b5b828204905092915050565b6000608082019050613eaf6000830187612a49565b613ebc6020830186612a8a565b613ec96040830185612a49565b613ed66060830184612a49565b95945050505050565b600081905092915050565b50565b6000613efa600083613edf565b9150613f0582613eea565b600082019050919050565b6000613f1b82613eed565b9150819050919050565b7f5061796d656e74206661696c6564000000000000000000000000000000000000600082015250565b6000613f5b600e83612aa4565b9150613f6682613f25565b602082019050919050565b60006020820190508181036000830152613f8a81613f4e565b905091905056fea2646970667358221220287134fe0298557c68f4b7f491efe71f8cb64269fe6d12975b1de69c0b285bf164736f6c63430008180033",
  "linkReferences": {},
  "deployedLinkReferences": {}
}