{"app/contracts/BlockPledge.sol":{"BlockPledge":{"abi":[{"inputs":[{"internalType":"uint256","name":"_projectTax","type":"uint256"}],"stateMutability":"nonpayable","type":"constructor"},{"anonymous":false,"inputs":[{"indexed":false,"internalType":"uint256","name":"id","type":"uint256"},{"indexed":false,"internalType":"uint256","name":"timestamp","type":"uint256"}],"name":"ProjectApproved","type":"event"},{"anonymous":false,"inputs":[{"indexed":false,"internalType":"uint256","name":"id","type":"uint256"},{"indexed":false,"internalType":"address","name":"backer","type":"address"},{"indexed":false,"internalType":"uint256","name":"amount","type":"uint256"},{"indexed":false,"internalType":"string","name":"comment","type":"string"},{"indexed":false,"internalType":"uint256","name":"timestamp","type":"uint256"}],"name":"ProjectBacked","type":"event"},{"anonymous":false,"inputs":[{"indexed":false,"internalType":"uint256","name":"id","type":"uint256"},{"indexed":false,"internalType":"address","name":"owner","type":"address"},{"indexed":false,"internalType":"string","name":"title","type":"string"},{"indexed":false,"internalType":"string","name":"description","type":"string"},{"indexed":false,"internalType":"string[]","name":"imageUrls","type":"string[]"},{"indexed":false,"internalType":"uint256","name":"categoryId","type":"uint256"},{"indexed":false,"internalType":"uint256","name":"cost","type":"uint256"},{"indexed":false,"internalType":"uint256","name":"raised","type":"uint256"},{"indexed":false,"internalType":"uint256","name":"createdAt","type":"uint256"},{"indexed":false,"internalType":"uint256","name":"expiresAt","type":"uint256"},{"indexed":false,"internalType":"uint256","name":"backers","type":"uint256"},{"indexed":false,"internalType":"enum BlockPledge.StatusEnum","name":"status","type":"uint8"}],"name":"ProjectCreated","type":"event"},{"anonymous":false,"inputs":[{"indexed":false,"internalType":"uint256","name":"id","type":"uint256"},{"indexed":false,"internalType":"uint256","name":"timestamp","type":"uint256"}],"name":"ProjectDeleted","type":"event"},{"anonymous":false,"inputs":[{"indexed":false,"internalType":"uint256","name":"id","type":"uint256"},{"indexed":false,"internalType":"string","name":"title","type":"string"},{"indexed":false,"internalType":"address","name":"recipient","type":"address"},{"indexed":false,"internalType":"uint256","name":"amount","type":"uint256"},{"indexed":false,"internalType":"uint256","name":"timestamp","type":"uint256"}],"name":"ProjectPaidOut","type":"event"},{"anonymous":false,"inputs":[{"indexed":false,"internalType":"uint256","name":"id","type":"uint256"},{"indexed":false,"internalType":"uint256","name":"timestamp","type":"uint256"}],"name":"ProjectRejected","type":"event"},{"anonymous":false,"inputs":[{"indexed":false,"internalType":"uint256","name":"id","type":"uint256"},{"indexed":false,"internalType":"string","name":"description","type":"string"},{"indexed":false,"internalType":"string[]","name":"imageUrls","type":"string[]"},{"indexed":false,"internalType":"uint256","name":"timestamp","type":"uint256"}],"name":"ProjectUpdated","type":"event"},{"inputs":[{"internalType":"uint256","name":"_id","type":"uint256"}],"name":"acceptProject","outputs":[{"internalType":"bool","name":"","type":"bool"}],"stateMutability":"nonpayable","type":"function"},{"inputs":[{"internalType":"uint256","name":"_id","type":"uint256"},{"internalType":"string","name":"_comment","type":"string"}],"name":"backProject","outputs":[{"internalType":"bool","name":"","type":"bool"}],"stateMutability":"payable","type":"function"},{"inputs":[{"internalType":"uint256","name":"","type":"uint256"},{"internalType":"uint256","name":"","type":"uint256"}],"name":"backersOf","outputs":[{"internalType":"address","name":"backer","type":"address"},{"internalType":"uint256","name":"contribution","type":"uint256"},{"internalType":"uint256","name":"timestamp","type":"uint256"},{"internalType":"string","name":"comment","type":"string"},{"internalType":"bool","name":"refunded","type":"bool"}],"stateMutability":"view","type":"function"},{"inputs":[{"internalType":"uint256","name":"","type":"uint256"}],"name":"categories","outputs":[{"internalType":"uint256","name":"id","type":"uint256"},{"internalType":"string","name":"name","type":"string"}],"stateMutability":"view","type":"function"},{"inputs":[{"internalType":"uint256","name":"_taxPct","type":"uint256"}],"name":"changeTax","outputs":[],"stateMutability":"nonpayable","type":"function"},{"inputs":[{"internalType":"string","name":"_title","type":"string"},{"internalType":"string","name":"_description","type":"string"},{"internalType":"string[]","name":"_imageUrls","type":"string[]"},{"internalType":"uint256","name":"_category","type":"uint256"},{"internalType":"uint256","name":"_cost","type":"uint256"},{"internalType":"uint256","name":"_expiresAt","type":"uint256"}],"name":"createProject","outputs":[{"internalType":"bool","name":"","type":"bool"}],"stateMutability":"nonpayable","type":"function"},{"inputs":[{"internalType":"uint256","name":"_id","type":"uint256"},{"internalType":"string","name":"_reason","type":"string"}],"name":"deleteProject","outputs":[{"internalType":"bool","name":"","type":"bool"}],"stateMutability":"nonpayable","type":"function"},{"inputs":[{"internalType":"uint256","name":"_id","type":"uint256"}],"name":"getBackers","outputs":[{"components":[{"internalType":"address","name":"backer","type":"address"},{"internalType":"uint256","name":"contribution","type":"uint256"},{"internalType":"uint256","name":"timestamp","type":"uint256"},{"internalType":"string","name":"comment","type":"string"},{"internalType":"bool","name":"refunded","type":"bool"}],"internalType":"struct BlockPledge.BackerStruct[]","name":"","type":"tuple[]"}],"stateMutability":"view","type":"function"},{"inputs":[],"name":"getCategories","outputs":[{"components":[{"internalType":"uint256","name":"id","type":"uint256"},{"internalType":"string","name":"name","type":"string"}],"internalType":"struct BlockPledge.CategoryStruct[]","name":"","type":"tuple[]"}],"stateMutability":"view","type":"function"},{"inputs":[{"internalType":"uint256","name":"_id","type":"uint256"}],"name":"getProject","outputs":[{"components":[{"internalType":"uint256","name":"id","type":"uint256"},{"internalType":"address","name":"owner","type":"address"},{"internalType":"string","name":"title","type":"string"},{"internalType":"string","name":"description","type":"string"},{"internalType":"string[]","name":"imageUrls","type":"string[]"},{"internalType":"uint256","name":"cost","type":"uint256"},{"internalType":"uint256","name":"raised","type":"uint256"},{"internalType":"uint256","name":"createdAt","type":"uint256"},{"internalType":"uint256","name":"expiresAt","type":"uint256"},{"internalType":"uint256","name":"backers","type":"uint256"},{"internalType":"uint256","name":"categoryId","type":"uint256"},{"internalType":"enum BlockPledge.StatusEnum","name":"status","type":"uint8"},{"internalType":"string","name":"deletionReason","type":"string"}],"internalType":"struct BlockPledge.ProjectStruct","name":"","type":"tuple"}],"stateMutability":"view","type":"function"},{"inputs":[],"name":"getProjects","outputs":[{"components":[{"internalType":"uint256","name":"id","type":"uint256"},{"internalType":"address","name":"owner","type":"address"},{"internalType":"string","name":"title","type":"string"},{"internalType":"string","name":"description","type":"string"},{"internalType":"string[]","name":"imageUrls","type":"string[]"},{"internalType":"uint256","name":"cost","type":"uint256"},{"internalType":"uint256","name":"raised","type":"uint256"},{"internalType":"uint256","name":"createdAt","type":"uint256"},{"internalType":"uint256","name":"expiresAt","type":"uint256"},{"internalType":"uint256","name":"backers","type":"uint256"},{"internalType":"uint256","name":"categoryId","type":"uint256"},{"internalType":"enum BlockPledge.StatusEnum","name":"status","type":"uint8"},{"internalType":"string","name":"deletionReason","type":"string"}],"internalType":"struct BlockPledge.ProjectStruct[]","name":"","type":"tuple[]"}],"stateMutability":"view","type":"function"},{"inputs":[],"name":"getStats","outputs":[{"components":[{"internalType":"uint256","name":"totalProjects","type":"uint256"},{"internalType":"uint256","name":"totalBackings","type":"uint256"},{"internalType":"uint256","name":"totalDonations","type":"uint256"}],"internalType":"struct BlockPledge.StatsStruct","name":"","type":"tuple"}],"stateMutability":"view","type":"function"},{"inputs":[{"internalType":"address","name":"_user","type":"address"}],"name":"getUserProjects","outputs":[{"components":[{"internalType":"uint256","name":"id","type":"uint256"},{"internalType":"address","name":"owner","type":"address"},{"internalType":"string","name":"title","type":"string"},{"internalType":"string","name":"description","type":"string"},{"internalType":"string[]","name":"imageUrls","type":"string[]"},{"internalType":"uint256","name":"cost","type":"uint256"},{"internalType":"uint256","name":"raised","type":"uint256"},{"internalType":"uint256","name":"createdAt","type":"uint256"},{"internalType":"uint256","name":"expiresAt","type":"uint256"},{"internalType":"uint256","name":"backers","type":"uint256"},{"internalType":"uint256","name":"categoryId","type":"uint256"},{"internalType":"enum BlockPledge.StatusEnum","name":"status","type":"uint8"},{"internalType":"string","name":"deletionReason","type":"string"}],"internalType":"struct BlockPledge.ProjectStruct[]","name":"","type":"tuple[]"}],"stateMutability":"view","type":"function"},{"inputs":[],"name":"owner","outputs":[{"internalType":"address","name":"","type":"address"}],"stateMutability":"view","type":"function"},{"inputs":[{"internalType":"uint256","name":"_id","type":"uint256"}],"name":"payOutProject","outputs":[{"internalType":"bool","name":"","type":"bool"}],"stateMutability":"nonpayable","type":"function"},{"inputs":[],"name":"projectCount","outputs":[{"internalType":"uint256","name":"","type":"uint256"}],"stateMutability":"view","type":"function"},{"inputs":[{"internalType":"uint256","name":"","type":"uint256"}],"name":"projectExists","outputs":[{"internalType":"bool","name":"","type":"bool"}],"stateMutability":"view","type":"function"},{"inputs":[],"name":"projectTax","outputs":[{"internalType":"uint256","name":"","type":"uint256"}],"stateMutability":"view","type":"function"},{"inputs":[{"internalType":"uint256","name":"","type":"uint256"}],"name":"projects","outputs":[{"internalType":"uint256","name":"id","type":"uint256"},{"internalType":"address","name":"owner","type":"address"},{"internalType":"string","name":"title","type":"string"},{"internalType":"string","name":"description","type":"string"},{"internalType":"uint256","name":"cost","type":"uint256"},{"internalType":"uint256","name":"raised","type":"uint256"},{"internalType":"uint256","name":"createdAt","type":"uint256"},{"internalType":"uint256","name":"expiresAt","type":"uint256"},{"internalType":"uint256","name":"backers","type":"uint256"},{"internalType":"uint256","name":"categoryId","type":"uint256"},{"internalType":"enum BlockPledge.StatusEnum","name":"status","type":"uint8"},{"internalType":"string","name":"deletionReason","type":"string"}],"stateMutability":"view","type":"function"},{"inputs":[{"internalType":"address","name":"","type":"address"},{"internalType":"uint256","name":"","type":"uint256"}],"name":"projectsOf","outputs":[{"internalType":"uint256","name":"id","type":"uint256"},{"internalType":"address","name":"owner","type":"address"},{"internalType":"string","name":"title","type":"string"},{"internalType":"string","name":"description","type":"string"},{"internalType":"uint256","name":"cost","type":"uint256"},{"internalType":"uint256","name":"raised","type":"uint256"},{"internalType":"uint256","name":"createdAt","type":"uint256"},{"internalType":"uint256","name":"expiresAt","type":"uint256"},{"internalType":"uint256","name":"backers","type":"uint256"},{"internalType":"uint256","name":"categoryId","type":"uint256"},{"internalType":"enum BlockPledge.StatusEnum","name":"status","type":"uint8"},{"internalType":"string","name":"deletionReason","type":"string"}],"stateMutability":"view","type":"function"},{"inputs":[{"internalType":"uint256","name":"_id","type":"uint256"},{"internalType":"string","name":"_reason","type":"string"}],"name":"rejectProject","outputs":[{"internalType":"bool","name":"","type":"bool"}],"stateMutability":"nonpayable","type":"function"},{"inputs":[{"internalType":"uint256","name":"_id","type":"uint256"}],"name":"requestRefund","outputs":[{"internalType":"bool","name":"","type":"bool"}],"stateMutability":"nonpayable","type":"function"},{"inputs":[],"name":"stats","outputs":[{"internalType":"uint256","name":"totalProjects","type":"uint256"},{"internalType":"uint256","name":"totalBackings","type":"uint256"},{"internalType":"uint256","name":"totalDonations","type":"uint256"}],"stateMutability":"view","type":"function"},{"inputs":[{"internalType":"uint256","name":"_id","type":"uint256"},{"internalType":"string","name":"_description","type":"string"},{"internalType":"string[]","name":"_imageUrls","type":"string[]"}],"name":"updateProject","outputs":[{"internalType":"bool","name":"","type":"bool"}],"stateMutability":"nonpayable","type":"function"}],"evm":{"bytecode":{"linkReferences":{},"object":"60806040523480156200001157600080fd5b5060405162006131380380620061318339818101604052810190620000379190620005db565b336000806101000a81548173ffffffffffffffffffffffffffffffffffffffff021916908373ffffffffffffffffffffffffffffffffffffffff160217905550806001819055506000600c67ffffffffffffffff8111156200009e576200009d6200060d565b5b604051908082528060200260200182016040528015620000d357816020015b6060815260200190600190039081620000bd5790505b5090506040518060400160405280601081526020017f4172742026204372656174697669747900000000000000000000000000000000815250816000815181106200012357620001226200063c565b5b60200260200101819052506040518060400160405280601781526020017f546563686e6f6c6f6779202620496e6e6f766174696f6e000000000000000000815250816001815181106200017b576200017a6200063c565b5b60200260200101819052506040518060400160405280601981526020017f436f6d6d756e697479202620536f6369616c20496d706163740000000000000081525081600281518110620001d357620001d26200063c565b5b60200260200101819052506040518060400160405280601081526020017f46617368696f6e20262044657369676e00000000000000000000000000000000815250816003815181106200022b576200022a6200063c565b5b60200260200101819052506040518060400160405280600f81526020017f466f6f6420262042657665726167650000000000000000000000000000000000815250816004815181106200028357620002826200063c565b5b60200260200101819052506040518060400160405280601681526020017f47616d696e67202620456e7465727461696e6d656e740000000000000000000081525081600581518110620002db57620002da6200063c565b5b60200260200101819052506040518060400160405280601481526020017f54726176656c2026204578706c6f726174696f6e000000000000000000000000815250816006815181106200033357620003326200063c565b5b60200260200101819052506040518060400160405280601481526020017f456475636174696f6e2026204c6561726e696e67000000000000000000000000815250816007815181106200038b576200038a6200063c565b5b60200260200101819052506040518060400160405280601081526020017f4865616c74682026204669746e6573730000000000000000000000000000000081525081600881518110620003e357620003e26200063c565b5b60200260200101819052506040518060400160405280600c81526020017f4372616674732026204449590000000000000000000000000000000000000000815250816009815181106200043b576200043a6200063c565b5b60200260200101819052506040518060400160405280601481526020017f46696e616e6365202620496e766573746d656e7400000000000000000000000081525081600a815181106200049357620004926200063c565b5b60200260200101819052506040518060400160405280600e81526020017f50657473202620416e696d616c7300000000000000000000000000000000000081525081600b81518110620004eb57620004ea6200063c565b5b602002602001018190525060005b81518110156200059257600760405180604001604052808381526020018484815181106200052c576200052b6200063c565b5b60200260200101518152509080600181540180825580915050600190039060005260206000209060020201600090919091909150600082015181600001556020820151816001019081620005819190620008ac565b5050508080600101915050620004f9565b50505062000993565b600080fd5b6000819050919050565b620005b581620005a0565b8114620005c157600080fd5b50565b600081519050620005d581620005aa565b92915050565b600060208284031215620005f457620005f36200059b565b5b60006200060484828501620005c4565b91505092915050565b7f4e487b7100000000000000000000000000000000000000000000000000000000600052604160045260246000fd5b7f4e487b7100000000000000000000000000000000000000000000000000000000600052603260045260246000fd5b600081519050919050565b7f4e487b7100000000000000000000000000000000000000000000000000000000600052602260045260246000fd5b60006002820490506001821680620006be57607f821691505b602082108103620006d457620006d362000676565b5b50919050565b60008190508160005260206000209050919050565b60006020601f8301049050919050565b600082821b905092915050565b6000600883026200073e7fffffffffffffffffffffffffffffffffffffffffffffffffffffffffffffffff82620006ff565b6200074a8683620006ff565b95508019841693508086168417925050509392505050565b6000819050919050565b60006200078d620007876200078184620005a0565b62000762565b620005a0565b9050919050565b6000819050919050565b620007a9836200076c565b620007c1620007b88262000794565b8484546200070c565b825550505050565b600090565b620007d8620007c9565b620007e58184846200079e565b505050565b5b818110156200080d5762000801600082620007ce565b600181019050620007eb565b5050565b601f8211156200085c576200082681620006da565b6200083184620006ef565b8101602085101562000841578190505b620008596200085085620006ef565b830182620007ea565b50505b505050565b600082821c905092915050565b6000620008816000198460080262000861565b1980831691505092915050565b60006200089c83836200086e565b9150826002028217905092915050565b620008b7826200066b565b67ffffffffffffffff811115620008d357620008d26200060d565b5b620008df8254620006a5565b620008ec82828562000811565b600060209050601f8311600181146200092457600084156200090f578287015190505b6200091b85826200088e565b8655506200098b565b601f1984166200093486620006da565b60005b828110156200095e5784890151825560018201915060208501945060208101905062000937565b868310156200097e57848901516200097a601f8916826200086e565b8355505b6001600288020188555050505b505050505050565b61578e80620009a36000396000f3fe60806040526004361061014b5760003560e01c8063a4b2409e116100b6578063d80528ae1161006f578063d80528ae14610536578063dcc6012814610563578063e32e723c1461058e578063f0f3f2c8146105cb578063f9285aa014610608578063fd1d5ea9146106495761014b565b8063a4b2409e146103eb578063b531dcba14610428578063c59d484714610465578063c6cdbe5e14610490578063c9168b72146104ce578063d24cd3ec1461050b5761014b565b80634db0412c116101085780634db0412c146102a3578063703d52af146102ce5780637326c7181461030b5780638da5cb5b146103485780638e55563214610373578063944173df146103bb5761014b565b8063013feda914610150578063086a8a871461018d578063107046bd146101ca57806336fbad26146102125780633e45c8af1461023d578063486ee33114610266575b600080fd5b34801561015c57600080fd5b5061017760048036038101906101729190613aa2565b610686565b6040516101849190613b48565b60405180910390f35b34801561019957600080fd5b506101b460048036038101906101af9190613b63565b6108c0565b6040516101c19190613b48565b60405180910390f35b3480156101d657600080fd5b506101f160048036038101906101ec9190613bbf565b610b0d565b6040516102099c9b9a99989796959493929190613d32565b60405180910390f35b34801561021e57600080fd5b50610227610d42565b6040516102349190613e01565b60405180910390f35b34801561024957600080fd5b50610264600480360381019061025f9190613bbf565b610d48565b005b34801561027257600080fd5b5061028d60048036038101906102889190613b63565b610de0565b60405161029a9190613b48565b60405180910390f35b3480156102af57600080fd5b506102b8610ffa565b6040516102c59190613f74565b60405180910390f35b3480156102da57600080fd5b506102f560048036038101906102f09190613bbf565b6110f5565b6040516103029190613b48565b60405180910390f35b34801561031757600080fd5b50610332600480360381019061032d9190613f96565b611115565b60405161033f9190613b48565b60405180910390f35b34801561035457600080fd5b5061035d6116fd565b60405161036a9190614077565b60405180910390f35b34801561037f57600080fd5b5061039a600480360381019061039591906140be565b611721565b6040516103b29c9b9a99989796959493929190613d32565b60405180910390f35b6103d560048036038101906103d09190613b63565b611963565b6040516103e29190613b48565b60405180910390f35b3480156103f757600080fd5b50610412600480360381019061040d9190613bbf565b611de8565b60405161041f9190613b48565b60405180910390f35b34801561043457600080fd5b5061044f600480360381019061044a9190613bbf565b611f47565b60405161045c9190613b48565b60405180910390f35b34801561047157600080fd5b5061047a6120fd565b6040516104879190614140565b60405180910390f35b34801561049c57600080fd5b506104b760048036038101906104b29190613bbf565b612135565b6040516104c592919061415b565b60405180910390f35b3480156104da57600080fd5b506104f560048036038101906104f09190613bbf565b6121f1565b60405161050291906142e1565b60405180910390f35b34801561051757600080fd5b5061052061237a565b60405161052d9190613e01565b60405180910390f35b34801561054257600080fd5b5061054b612380565b60405161055a93929190614303565b60405180910390f35b34801561056f57600080fd5b50610578612398565b60405161058591906145fb565b60405180910390f35b34801561059a57600080fd5b506105b560048036038101906105b0919061461d565b61275e565b6040516105c291906145fb565b60405180910390f35b3480156105d757600080fd5b506105f260048036038101906105ed9190613bbf565b612b63565b6040516105ff9190614778565b60405180910390f35b34801561061457600080fd5b5061062f600480360381019061062a919061479a565b612f66565b6040516106409594939291906147da565b60405180910390f35b34801561065557600080fd5b50610670600480360381019061066b9190613bbf565b61306e565b60405161067d9190613b48565b60405180910390f35b60006006848154811061069c5761069b614834565b5b90600052602060002090600d020160010160009054906101000a900473ffffffffffffffffffffffffffffffffffffffff1673ffffffffffffffffffffffffffffffffffffffff163373ffffffffffffffffffffffffffffffffffffffff161461073b576040517f08c379a0000000000000000000000000000000000000000000000000000000008152600401610732906148af565b60405180910390fd5b600083511161077f576040517f08c379a00000000000000000000000000000000000000000000000000000000081526004016107769061491b565b60405180910390fd5b60008251116107c3576040517f08c379a00000000000000000000000000000000000000000000000000000000081526004016107ba90614987565b60405180910390fd5b82600685815481106107d8576107d7614834565b5b90600052602060002090600d020160030190816107f59190614bb3565b50816006858154811061080b5761080a614834565b5b90600052602060002090600d0201600401908051906020019061082f9291906136a1565b507f2b3e4abc222ff4b04d6c018b3d77e8ae74277f44fc0062205b71931e61ee4e45846006868154811061086657610865614834565b5b90600052602060002090600d02016003016006878154811061088b5761088a614834565b5b90600052602060002090600d0201600401426040516108ad9493929190614e53565b60405180910390a1600190509392505050565b60008060009054906101000a900473ffffffffffffffffffffffffffffffffffffffff1673ffffffffffffffffffffffffffffffffffffffff163373ffffffffffffffffffffffffffffffffffffffff1614610951576040517f08c379a000000000000000000000000000000000000000000000000000000000815260040161094890614ef2565b60405180910390fd5b600a600084815260200190815260200160002060009054906101000a900460ff166109b1576040517f08c379a00000000000000000000000000000000000000000000000000000000081526004016109a890614f5e565b60405180910390fd5b6005808111156109c4576109c3613cbb565b5b600684815481106109d8576109d7614834565b5b90600052602060002090600d0201600b0160009054906101000a900460ff166005811115610a0957610a08613cbb565b5b14610a49576040517f08c379a0000000000000000000000000000000000000000000000000000000008152600401610a4090614fca565b60405180910390fd5b600360068481548110610a5f57610a5e614834565b5b90600052602060002090600d0201600b0160006101000a81548160ff02191690836005811115610a9257610a91613cbb565b5b02179055508160068481548110610aac57610aab614834565b5b90600052602060002090600d0201600c019081610ac99190614bb3565b507fced42070be441b0c0e37a7030b1979b9d9116f4a19677cedc618153a8aab1a7d8342604051610afb929190614fea565b60405180910390a16001905092915050565b60068181548110610b1d57600080fd5b90600052602060002090600d02016000915090508060000154908060010160009054906101000a900473ffffffffffffffffffffffffffffffffffffffff1690806002018054610b6c906149d6565b80601f0160208091040260200160405190810160405280929190818152602001828054610b98906149d6565b8015610be55780601f10610bba57610100808354040283529160200191610be5565b820191906000526020600020905b815481529060010190602001808311610bc857829003601f168201915b505050505090806003018054610bfa906149d6565b80601f0160208091040260200160405190810160405280929190818152602001828054610c26906149d6565b8015610c735780601f10610c4857610100808354040283529160200191610c73565b820191906000526020600020905b815481529060010190602001808311610c5657829003601f168201915b50505050509080600501549080600601549080600701549080600801549080600901549080600a01549080600b0160009054906101000a900460ff169080600c018054610cbf906149d6565b80601f0160208091040260200160405190810160405280929190818152602001828054610ceb906149d6565b8015610d385780601f10610d0d57610100808354040283529160200191610d38565b820191906000526020600020905b815481529060010190602001808311610d1b57829003601f168201915b505050505090508c565b60025481565b60008054906101000a900473ffffffffffffffffffffffffffffffffffffffff1673ffffffffffffffffffffffffffffffffffffffff163373ffffffffffffffffffffffffffffffffffffffff1614610dd6576040517f08c379a0000000000000000000000000000000000000000000000000000000008152600401610dcd90614ef2565b60405180910390fd5b8060018190555050565b6000806005811115610df557610df4613cbb565b5b60068481548110610e0957610e08614834565b5b90600052602060002090600d0201600b0160009054906101000a900460ff166005811115610e3a57610e39613cbb565b5b14610e7a576040517f08c379a0000000000000000000000000000000000000000000000000000000008152600401610e719061505f565b60405180910390fd5b60068381548110610e8e57610e8d614834565b5b90600052602060002090600d020160010160009054906101000a900473ffffffffffffffffffffffffffffffffffffffff1673ffffffffffffffffffffffffffffffffffffffff163373ffffffffffffffffffffffffffffffffffffffff1614610f2d576040517f08c379a0000000000000000000000000000000000000000000000000000000008152600401610f24906148af565b60405180910390fd5b600360068481548110610f4357610f42614834565b5b90600052602060002090600d0201600b0160006101000a81548160ff02191690836005811115610f7657610f75613cbb565b5b02179055508160068481548110610f9057610f8f614834565b5b90600052602060002090600d0201600c019081610fad9190614bb3565b50610fb783613287565b7f4484a435bc92a4925b8b18f20baf06d71675934c29cc91d21550d29939098ed08342604051610fe8929190614fea565b60405180910390a16001905092915050565b60606007805480602002602001604051908101604052809291908181526020016000905b828210156110ec57838290600052602060002090600202016040518060400160405290816000820154815260200160018201805461105b906149d6565b80601f0160208091040260200160405190810160405280929190818152602001828054611087906149d6565b80156110d45780601f106110a9576101008083540402835291602001916110d4565b820191906000526020600020905b8154815290600101906020018083116110b757829003601f168201915b5050505050815250508152602001906001019061101e565b50505050905090565b600a6020528060005260406000206000915054906101000a900460ff1681565b60008087511161115a576040517f08c379a0000000000000000000000000000000000000000000000000000000008152600401611151906150cb565b60405180910390fd5b600086511161119e576040517f08c379a00000000000000000000000000000000000000000000000000000000081526004016111959061491b565b60405180910390fd5b60008551116111e2576040517f08c379a00000000000000000000000000000000000000000000000000000000081526004016111d990614987565b60405180910390fd5b60008311611225576040517f08c379a000000000000000000000000000000000000000000000000000000000815260040161121c90615137565b60405180910390fd5b600780549050841061126c576040517f08c379a0000000000000000000000000000000000000000000000000000000008152600401611263906151a3565b60405180910390fd5b6112746136fa565b60025481600001818152505033816020019073ffffffffffffffffffffffffffffffffffffffff16908173ffffffffffffffffffffffffffffffffffffffff16815250508781604001819052508681606001819052508581608001819052508481610140018181525050838160a0018181525050428160e001818152505082816101000181815250506005816101600190600581111561131757611316613cbb565b5b9081600581111561132b5761132a613cbb565b5b8152505060068190806001815401808255809150506001900390600052602060002090600d02016000909190919091506000820151816000015560208201518160010160006101000a81548173ffffffffffffffffffffffffffffffffffffffff021916908373ffffffffffffffffffffffffffffffffffffffff16021790555060408201518160020190816113c19190614bb3565b5060608201518160030190816113d79190614bb3565b5060808201518160040190805190602001906113f49291906136a1565b5060a0820151816005015560c0820151816006015560e082015181600701556101008201518160080155610120820151816009015561014082015181600a015561016082015181600b0160006101000a81548160ff021916908360058111156114605761145f613cbb565b5b021790555061018082015181600c01908161147b9190614bb3565b5050506001600a6000600254815260200190815260200160002060006101000a81548160ff021916908315150217905550600860003373ffffffffffffffffffffffffffffffffffffffff1673ffffffffffffffffffffffffffffffffffffffff1681526020019081526020016000208190806001815401808255809150506001900390600052602060002090600d02016000909190919091506000820151816000015560208201518160010160006101000a81548173ffffffffffffffffffffffffffffffffffffffff021916908373ffffffffffffffffffffffffffffffffffffffff160217905550604082015181600201908161157b9190614bb3565b5060608201518160030190816115919190614bb3565b5060808201518160040190805190602001906115ae9291906136a1565b5060a0820151816005015560c0820151816006015560e082015181600701556101008201518160080155610120820151816009015561014082015181600a015561016082015181600b0160006101000a81548160ff0219169083600581111561161a57611619613cbb565b5b021790555061018082015181600c0190816116359190614bb3565b50505060016003600001600082825461164e91906151f2565b925050819055507f8cf4e1d4b9410a561c059bf493552b7aada9d719a2ba67efb08b19793f43b450816000015182602001518360400151846060015185608001518661014001518760a001518860c001518960e001518a61010001518b61012001518c61016001516040516116ce9c9b9a9998979695949392919061529b565b60405180910390a1600260008154809291906116e99061536a565b919050555060019150509695505050505050565b60008054906101000a900473ffffffffffffffffffffffffffffffffffffffff1681565b6008602052816000526040600020818154811061173d57600080fd5b90600052602060002090600d0201600091509150508060000154908060010160009054906101000a900473ffffffffffffffffffffffffffffffffffffffff169080600201805461178d906149d6565b80601f01602080910402602001604051908101604052809291908181526020018280546117b9906149d6565b80156118065780601f106117db57610100808354040283529160200191611806565b820191906000526020600020905b8154815290600101906020018083116117e957829003601f168201915b50505050509080600301805461181b906149d6565b80601f0160208091040260200160405190810160405280929190818152602001828054611847906149d6565b80156118945780601f1061186957610100808354040283529160200191611894565b820191906000526020600020905b81548152906001019060200180831161187757829003601f168201915b50505050509080600501549080600601549080600701549080600801549080600901549080600a01549080600b0160009054906101000a900460ff169080600c0180546118e0906149d6565b80601f016020809104026020016040519081016040528092919081815260200182805461190c906149d6565b80156119595780601f1061192e57610100808354040283529160200191611959565b820191906000526020600020905b81548152906001019060200180831161193c57829003601f168201915b505050505090508c565b60008034116119a7576040517f08c379a000000000000000000000000000000000000000000000000000000000815260040161199e906153fe565b60405180910390fd5b600a600084815260200190815260200160002060009054906101000a900460ff16611a07576040517f08c379a00000000000000000000000000000000000000000000000000000000081526004016119fe90614f5e565b60405180910390fd5b60006005811115611a1b57611a1a613cbb565b5b60068481548110611a2f57611a2e614834565b5b90600052602060002090600d0201600b0160009054906101000a900460ff166005811115611a6057611a5f613cbb565b5b14611aa0576040517f08c379a0000000000000000000000000000000000000000000000000000000008152600401611a979061505f565b60405180910390fd5b600160036001016000828254611ab691906151f2565b925050819055503460036002016000828254611ad291906151f2565b925050819055503460068481548110611aee57611aed614834565b5b90600052602060002090600d02016006016000828254611b0e91906151f2565b92505081905550600160068481548110611b2b57611b2a614834565b5b90600052602060002090600d02016009016000828254611b4b91906151f2565b92505081905550600960008481526020019081526020016000206040518060a001604052803373ffffffffffffffffffffffffffffffffffffffff16815260200134815260200142815260200184815260200160001515815250908060018154018082558091505060019003906000526020600020906005020160009091909190915060008201518160000160006101000a81548173ffffffffffffffffffffffffffffffffffffffff021916908373ffffffffffffffffffffffffffffffffffffffff16021790555060208201518160010155604082015181600201556060820151816003019081611c3e9190614bb3565b5060808201518160040160006101000a81548160ff02191690831515021790555050507f3fd3e7fc6bef374395b140220fb25117bacec01a74cf71ee35dfb0053dd9ac8c8333348542604051611c9895949392919061541e565b60405180910390a160068381548110611cb457611cb3614834565b5b90600052602060002090600d02016005015460068481548110611cda57611cd9614834565b5b90600052602060002090600d02016006015410611d5157600160068481548110611d0757611d06614834565b5b90600052602060002090600d0201600b0160006101000a81548160ff02191690836005811115611d3a57611d39613cbb565b5b0217905550611d488361341e565b60019050611de2565b60068381548110611d6557611d64614834565b5b90600052602060002090600d0201600801544210611ddd57600260068481548110611d9357611d92614834565b5b90600052602060002090600d0201600b0160006101000a81548160ff02191690836005811115611dc657611dc5613cbb565b5b0217905550611dd483613287565b60019050611de2565b600190505b92915050565b600060026005811115611dfe57611dfd613cbb565b5b60068381548110611e1257611e11614834565b5b90600052602060002090600d0201600b0160009054906101000a900460ff166005811115611e4357611e42613cbb565b5b14158015611ea8575060036005811115611e6057611e5f613cbb565b5b60068381548110611e7457611e73614834565b5b90600052602060002090600d0201600b0160009054906101000a900460ff166005811115611ea557611ea4613cbb565b5b14155b611ee7576040517f08c379a0000000000000000000000000000000000000000000000000000000008152600401611ede906154ea565b60405180910390fd5b600260068381548110611efd57611efc614834565b5b90600052602060002090600d0201600b0160006101000a81548160ff02191690836005811115611f3057611f2f613cbb565b5b0217905550611f3e82613287565b60019050919050565b600060016005811115611f5d57611f5c613cbb565b5b60068381548110611f7157611f70614834565b5b90600052602060002090600d0201600b0160009054906101000a900460ff166005811115611fa257611fa1613cbb565b5b14611fe2576040517f08c379a0000000000000000000000000000000000000000000000000000000008152600401611fd990615556565b60405180910390fd5b60068281548110611ff657611ff5614834565b5b90600052602060002090600d020160010160009054906101000a900473ffffffffffffffffffffffffffffffffffffffff1673ffffffffffffffffffffffffffffffffffffffff163373ffffffffffffffffffffffffffffffffffffffff1614806120ac575060008054906101000a900473ffffffffffffffffffffffffffffffffffffffff1673ffffffffffffffffffffffffffffffffffffffff163373ffffffffffffffffffffffffffffffffffffffff16145b6120eb576040517f08c379a00000000000000000000000000000000000000000000000000000000081526004016120e2906148af565b60405180910390fd5b6120f48261341e565b60019050919050565b61210561378a565b60036040518060600160405290816000820154815260200160018201548152602001600282015481525050905090565b6007818154811061214557600080fd5b906000526020600020906002020160009150905080600001549080600101805461216e906149d6565b80601f016020809104026020016040519081016040528092919081815260200182805461219a906149d6565b80156121e75780601f106121bc576101008083540402835291602001916121e7565b820191906000526020600020905b8154815290600101906020018083116121ca57829003601f168201915b5050505050905082565b606060096000838152602001908152602001600020805480602002602001604051908101604052809291908181526020016000905b8282101561236f57838290600052602060002090600502016040518060a00160405290816000820160009054906101000a900473ffffffffffffffffffffffffffffffffffffffff1673ffffffffffffffffffffffffffffffffffffffff1673ffffffffffffffffffffffffffffffffffffffff16815260200160018201548152602001600282015481526020016003820180546122c3906149d6565b80601f01602080910402602001604051908101604052809291908181526020018280546122ef906149d6565b801561233c5780601f106123115761010080835404028352916020019161233c565b820191906000526020600020905b81548152906001019060200180831161231f57829003601f168201915b505050505081526020016004820160009054906101000a900460ff16151515158152505081526020019060010190612226565b505050509050919050565b60015481565b60038060000154908060010154908060020154905083565b60606006805480602002602001604051908101604052809291908181526020016000905b8282101561275557838290600052602060002090600d0201604051806101a0016040529081600082015481526020016001820160009054906101000a900473ffffffffffffffffffffffffffffffffffffffff1673ffffffffffffffffffffffffffffffffffffffff1673ffffffffffffffffffffffffffffffffffffffff168152602001600282018054612450906149d6565b80601f016020809104026020016040519081016040528092919081815260200182805461247c906149d6565b80156124c95780601f1061249e576101008083540402835291602001916124c9565b820191906000526020600020905b8154815290600101906020018083116124ac57829003601f168201915b505050505081526020016003820180546124e2906149d6565b80601f016020809104026020016040519081016040528092919081815260200182805461250e906149d6565b801561255b5780601f106125305761010080835404028352916020019161255b565b820191906000526020600020905b81548152906001019060200180831161253e57829003601f168201915b5050505050815260200160048201805480602002602001604051908101604052809291908181526020016000905b828210156126355783829060005260206000200180546125a8906149d6565b80601f01602080910402602001604051908101604052809291908181526020018280546125d4906149d6565b80156126215780601f106125f657610100808354040283529160200191612621565b820191906000526020600020905b81548152906001019060200180831161260457829003601f168201915b505050505081526020019060010190612589565b5050505081526020016005820154815260200160068201548152602001600782015481526020016008820154815260200160098201548152602001600a8201548152602001600b820160009054906101000a900460ff16600581111561269e5761269d613cbb565b5b60058111156126b0576126af613cbb565b5b8152602001600c820180546126c4906149d6565b80601f01602080910402602001604051908101604052809291908181526020018280546126f0906149d6565b801561273d5780601f106127125761010080835404028352916020019161273d565b820191906000526020600020905b81548152906001019060200180831161272057829003601f168201915b505050505081525050815260200190600101906123bc565b50505050905090565b6060600860008373ffffffffffffffffffffffffffffffffffffffff1673ffffffffffffffffffffffffffffffffffffffff168152602001908152602001600020805480602002602001604051908101604052809291908181526020016000905b82821015612b5857838290600052602060002090600d0201604051806101a0016040529081600082015481526020016001820160009054906101000a900473ffffffffffffffffffffffffffffffffffffffff1673ffffffffffffffffffffffffffffffffffffffff1673ffffffffffffffffffffffffffffffffffffffff168152602001600282018054612853906149d6565b80601f016020809104026020016040519081016040528092919081815260200182805461287f906149d6565b80156128cc5780601f106128a1576101008083540402835291602001916128cc565b820191906000526020600020905b8154815290600101906020018083116128af57829003601f168201915b505050505081526020016003820180546128e5906149d6565b80601f0160208091040260200160405190810160405280929190818152602001828054612911906149d6565b801561295e5780601f106129335761010080835404028352916020019161295e565b820191906000526020600020905b81548152906001019060200180831161294157829003601f168201915b5050505050815260200160048201805480602002602001604051908101604052809291908181526020016000905b82821015612a385783829060005260206000200180546129ab906149d6565b80601f01602080910402602001604051908101604052809291908181526020018280546129d7906149d6565b8015612a245780601f106129f957610100808354040283529160200191612a24565b820191906000526020600020905b815481529060010190602001808311612a0757829003601f168201915b50505050508152602001906001019061298c565b5050505081526020016005820154815260200160068201548152602001600782015481526020016008820154815260200160098201548152602001600a8201548152602001600b820160009054906101000a900460ff166005811115612aa157612aa0613cbb565b5b6005811115612ab357612ab2613cbb565b5b8152602001600c82018054612ac7906149d6565b80601f0160208091040260200160405190810160405280929190818152602001828054612af3906149d6565b8015612b405780601f10612b1557610100808354040283529160200191612b40565b820191906000526020600020905b815481529060010190602001808311612b2357829003601f168201915b505050505081525050815260200190600101906127bf565b505050509050919050565b612b6b6136fa565b600a600083815260200190815260200160002060009054906101000a900460ff16612bcb576040517f08c379a0000000000000000000000000000000000000000000000000000000008152600401612bc290614f5e565b60405180910390fd5b60068281548110612bdf57612bde614834565b5b90600052602060002090600d0201604051806101a0016040529081600082015481526020016001820160009054906101000a900473ffffffffffffffffffffffffffffffffffffffff1673ffffffffffffffffffffffffffffffffffffffff1673ffffffffffffffffffffffffffffffffffffffff168152602001600282018054612c69906149d6565b80601f0160208091040260200160405190810160405280929190818152602001828054612c95906149d6565b8015612ce25780601f10612cb757610100808354040283529160200191612ce2565b820191906000526020600020905b815481529060010190602001808311612cc557829003601f168201915b50505050508152602001600382018054612cfb906149d6565b80601f0160208091040260200160405190810160405280929190818152602001828054612d27906149d6565b8015612d745780601f10612d4957610100808354040283529160200191612d74565b820191906000526020600020905b815481529060010190602001808311612d5757829003601f168201915b5050505050815260200160048201805480602002602001604051908101604052809291908181526020016000905b82821015612e4e578382906000526020600020018054612dc1906149d6565b80601f0160208091040260200160405190810160405280929190818152602001828054612ded906149d6565b8015612e3a5780601f10612e0f57610100808354040283529160200191612e3a565b820191906000526020600020905b815481529060010190602001808311612e1d57829003601f168201915b505050505081526020019060010190612da2565b5050505081526020016005820154815260200160068201548152602001600782015481526020016008820154815260200160098201548152602001600a8201548152602001600b820160009054906101000a900460ff166005811115612eb757612eb6613cbb565b5b6005811115612ec957612ec8613cbb565b5b8152602001600c82018054612edd906149d6565b80601f0160208091040260200160405190810160405280929190818152602001828054612f09906149d6565b8015612f565780601f10612f2b57610100808354040283529160200191612f56565b820191906000526020600020905b815481529060010190602001808311612f3957829003601f168201915b5050505050815250509050919050565b60096020528160005260406000208181548110612f8257600080fd5b9060005260206000209060050201600091509150508060000160009054906101000a900473ffffffffffffffffffffffffffffffffffffffff1690806001015490806002015490806003018054612fd8906149d6565b80601f0160208091040260200160405190810160405280929190818152602001828054613004906149d6565b80156130515780601f1061302657610100808354040283529160200191613051565b820191906000526020600020905b81548152906001019060200180831161303457829003601f168201915b5050505050908060040160009054906101000a900460ff16905085565b60008060009054906101000a900473ffffffffffffffffffffffffffffffffffffffff1673ffffffffffffffffffffffffffffffffffffffff163373ffffffffffffffffffffffffffffffffffffffff16146130ff576040517f08c379a00000000000000000000000000000000000000000000000000000000081526004016130f690614ef2565b60405180910390fd5b600a600083815260200190815260200160002060009054906101000a900460ff1661315f576040517f08c379a000000000000000000000000000000000000000000000000000000000815260040161315690614f5e565b60405180910390fd5b60058081111561317257613171613cbb565b5b6006838154811061318657613185614834565b5b90600052602060002090600d0201600b0160009054906101000a900460ff1660058111156131b7576131b6613cbb565b5b146131f7576040517f08c379a00000000000000000000000000000000000000000000000000000000081526004016131ee90614fca565b60405180910390fd5b60006006838154811061320d5761320c614834565b5b90600052602060002090600d0201600b0160006101000a81548160ff021916908360058111156132405761323f613cbb565b5b02179055507fd253ffdff2c15c0fc0f805a6a2f2a45ae8dae3bebea5b01fd1e706df8798da208242604051613276929190614fea565b60405180910390a160019050919050565b60005b600960008381526020019081526020016000208054905081101561341a5760006009600084815260200190815260200160002082815481106132cf576132ce614834565b5b906000526020600020906005020160000160009054906101000a900473ffffffffffffffffffffffffffffffffffffffff169050600060096000858152602001908152602001600020838154811061332a57613329614834565b5b9060005260206000209060050201600101549050600160096000868152602001908152602001600020848154811061336557613364614834565b5b906000526020600020906005020160040160006101000a81548160ff021916908315150217905550426009600086815260200190815260200160002084815481106133b3576133b2614834565b5b9060005260206000209060050201600201819055506133d282826135f0565b6001600360010160008282546133e89190615576565b9250508190555080600360020160008282546134049190615576565b925050819055505050808060010191505061328a565b5050565b60006006828154811061343457613433614834565b5b90600052602060002090600d0201600601549050600060646001548361345a91906155aa565b613464919061561b565b905060046006848154811061347c5761347b614834565b5b90600052602060002090600d0201600b0160006101000a81548160ff021916908360058111156134af576134ae613cbb565b5b021790555061350e600684815481106134cb576134ca614834565b5b90600052602060002090600d020160010160009054906101000a900473ffffffffffffffffffffffffffffffffffffffff1682846135099190615576565b6135f0565b61353860008054906101000a900473ffffffffffffffffffffffffffffffffffffffff16826135f0565b7fd0f3fcf4a25b042ccd70c831f5ac8043fb63fce36da13e2c72148843ee201846836006858154811061356e5761356d614834565b5b90600052602060002090600d02016002016006868154811061359357613592614834565b5b90600052602060002090600d020160010160009054906101000a900473ffffffffffffffffffffffffffffffffffffffff1684866135d19190615576565b426040516135e395949392919061564c565b60405180910390a1505050565b60008273ffffffffffffffffffffffffffffffffffffffff1682604051613616906156d7565b60006040518083038185875af1925050503d8060008114613653576040519150601f19603f3d011682016040523d82523d6000602084013e613658565b606091505b505090508061369c576040517f08c379a000000000000000000000000000000000000000000000000000000000815260040161369390615738565b60405180910390fd5b505050565b8280548282559060005260206000209081019282156136e9579160200282015b828111156136e85782518290816136d89190614bb3565b50916020019190600101906136c1565b5b5090506136f691906137ab565b5090565b604051806101a0016040528060008152602001600073ffffffffffffffffffffffffffffffffffffffff1681526020016060815260200160608152602001606081526020016000815260200160008152602001600081526020016000815260200160008152602001600081526020016000600581111561377d5761377c613cbb565b5b8152602001606081525090565b60405180606001604052806000815260200160008152602001600081525090565b5b808211156137cb57600081816137c291906137cf565b506001016137ac565b5090565b5080546137db906149d6565b6000825580601f106137ed575061380c565b601f01602090049060005260206000209081019061380b919061380f565b5b50565b5b80821115613828576000816000905550600101613810565b5090565b6000604051905090565b600080fd5b600080fd5b6000819050919050565b61385381613840565b811461385e57600080fd5b50565b6000813590506138708161384a565b92915050565b600080fd5b600080fd5b6000601f19601f8301169050919050565b7f4e487b7100000000000000000000000000000000000000000000000000000000600052604160045260246000fd5b6138c982613880565b810181811067ffffffffffffffff821117156138e8576138e7613891565b5b80604052505050565b60006138fb61382c565b905061390782826138c0565b919050565b600067ffffffffffffffff82111561392757613926613891565b5b61393082613880565b9050602081019050919050565b82818337600083830152505050565b600061395f61395a8461390c565b6138f1565b90508281526020810184848401111561397b5761397a61387b565b5b61398684828561393d565b509392505050565b600082601f8301126139a3576139a2613876565b5b81356139b384826020860161394c565b91505092915050565b600067ffffffffffffffff8211156139d7576139d6613891565b5b602082029050602081019050919050565b600080fd5b6000613a006139fb846139bc565b6138f1565b90508083825260208201905060208402830185811115613a2357613a226139e8565b5b835b81811015613a6a57803567ffffffffffffffff811115613a4857613a47613876565b5b808601613a55898261398e565b85526020850194505050602081019050613a25565b5050509392505050565b600082601f830112613a8957613a88613876565b5b8135613a998482602086016139ed565b91505092915050565b600080600060608486031215613abb57613aba613836565b5b6000613ac986828701613861565b935050602084013567ffffffffffffffff811115613aea57613ae961383b565b5b613af68682870161398e565b925050604084013567ffffffffffffffff811115613b1757613b1661383b565b5b613b2386828701613a74565b9150509250925092565b60008115159050919050565b613b4281613b2d565b82525050565b6000602082019050613b5d6000830184613b39565b92915050565b60008060408385031215613b7a57613b79613836565b5b6000613b8885828601613861565b925050602083013567ffffffffffffffff811115613ba957613ba861383b565b5b613bb58582860161398e565b9150509250929050565b600060208284031215613bd557613bd4613836565b5b6000613be384828501613861565b91505092915050565b613bf581613840565b82525050565b600073ffffffffffffffffffffffffffffffffffffffff82169050919050565b6000613c2682613bfb565b9050919050565b613c3681613c1b565b82525050565b600081519050919050565b600082825260208201905092915050565b60005b83811015613c76578082015181840152602081019050613c5b565b60008484015250505050565b6000613c8d82613c3c565b613c978185613c47565b9350613ca7818560208601613c58565b613cb081613880565b840191505092915050565b7f4e487b7100000000000000000000000000000000000000000000000000000000600052602160045260246000fd5b60068110613cfb57613cfa613cbb565b5b50565b6000819050613d0c82613cea565b919050565b6000613d1c82613cfe565b9050919050565b613d2c81613d11565b82525050565b600061018082019050613d48600083018f613bec565b613d55602083018e613c2d565b8181036040830152613d67818d613c82565b90508181036060830152613d7b818c613c82565b9050613d8a608083018b613bec565b613d9760a083018a613bec565b613da460c0830189613bec565b613db160e0830188613bec565b613dbf610100830187613bec565b613dcd610120830186613bec565b613ddb610140830185613d23565b818103610160830152613dee8184613c82565b90509d9c50505050505050505050505050565b6000602082019050613e166000830184613bec565b92915050565b600081519050919050565b600082825260208201905092915050565b6000819050602082019050919050565b613e5181613840565b82525050565b600082825260208201905092915050565b6000613e7382613c3c565b613e7d8185613e57565b9350613e8d818560208601613c58565b613e9681613880565b840191505092915050565b6000604083016000830151613eb96000860182613e48565b5060208301518482036020860152613ed18282613e68565b9150508091505092915050565b6000613eea8383613ea1565b905092915050565b6000602082019050919050565b6000613f0a82613e1c565b613f148185613e27565b935083602082028501613f2685613e38565b8060005b85811015613f625784840389528151613f438582613ede565b9450613f4e83613ef2565b925060208a01995050600181019050613f2a565b50829750879550505050505092915050565b60006020820190508181036000830152613f8e8184613eff565b905092915050565b60008060008060008060c08789031215613fb357613fb2613836565b5b600087013567ffffffffffffffff811115613fd157613fd061383b565b5b613fdd89828a0161398e565b965050602087013567ffffffffffffffff811115613ffe57613ffd61383b565b5b61400a89828a0161398e565b955050604087013567ffffffffffffffff81111561402b5761402a61383b565b5b61403789828a01613a74565b945050606061404889828a01613861565b935050608061405989828a01613861565b92505060a061406a89828a01613861565b9150509295509295509295565b600060208201905061408c6000830184613c2d565b92915050565b61409b81613c1b565b81146140a657600080fd5b50565b6000813590506140b881614092565b92915050565b600080604083850312156140d5576140d4613836565b5b60006140e3858286016140a9565b92505060206140f485828601613861565b9150509250929050565b6060820160008201516141146000850182613e48565b5060208201516141276020850182613e48565b50604082015161413a6040850182613e48565b50505050565b600060608201905061415560008301846140fe565b92915050565b60006040820190506141706000830185613bec565b81810360208301526141828184613c82565b90509392505050565b600081519050919050565b600082825260208201905092915050565b6000819050602082019050919050565b6141c081613c1b565b82525050565b6141cf81613b2d565b82525050565b600060a0830160008301516141ed60008601826141b7565b5060208301516142006020860182613e48565b5060408301516142136040860182613e48565b506060830151848203606086015261422b8282613e68565b915050608083015161424060808601826141c6565b508091505092915050565b600061425783836141d5565b905092915050565b6000602082019050919050565b60006142778261418b565b6142818185614196565b935083602082028501614293856141a7565b8060005b858110156142cf57848403895281516142b0858261424b565b94506142bb8361425f565b925060208a01995050600181019050614297565b50829750879550505050505092915050565b600060208201905081810360008301526142fb818461426c565b905092915050565b60006060820190506143186000830186613bec565b6143256020830185613bec565b6143326040830184613bec565b949350505050565b600081519050919050565b600082825260208201905092915050565b6000819050602082019050919050565b600081519050919050565b600082825260208201905092915050565b6000819050602082019050919050565b600061439e8383613e68565b905092915050565b6000602082019050919050565b60006143be82614366565b6143c88185614371565b9350836020820285016143da85614382565b8060005b8581101561441657848403895281516143f78582614392565b9450614402836143a6565b925060208a019950506001810190506143de565b50829750879550505050505092915050565b61443181613d11565b82525050565b60006101a0830160008301516144506000860182613e48565b50602083015161446360208601826141b7565b506040830151848203604086015261447b8282613e68565b915050606083015184820360608601526144958282613e68565b915050608083015184820360808601526144af82826143b3565b91505060a08301516144c460a0860182613e48565b5060c08301516144d760c0860182613e48565b5060e08301516144ea60e0860182613e48565b506101008301516144ff610100860182613e48565b50610120830151614514610120860182613e48565b50610140830151614529610140860182613e48565b5061016083015161453e610160860182614428565b506101808301518482036101808601526145588282613e68565b9150508091505092915050565b60006145718383614437565b905092915050565b6000602082019050919050565b60006145918261433a565b61459b8185614345565b9350836020820285016145ad85614356565b8060005b858110156145e957848403895281516145ca8582614565565b94506145d583614579565b925060208a019950506001810190506145b1565b50829750879550505050505092915050565b600060208201905081810360008301526146158184614586565b905092915050565b60006020828403121561463357614632613836565b5b6000614641848285016140a9565b91505092915050565b60006101a0830160008301516146636000860182613e48565b50602083015161467660208601826141b7565b506040830151848203604086015261468e8282613e68565b915050606083015184820360608601526146a88282613e68565b915050608083015184820360808601526146c282826143b3565b91505060a08301516146d760a0860182613e48565b5060c08301516146ea60c0860182613e48565b5060e08301516146fd60e0860182613e48565b50610100830151614712610100860182613e48565b50610120830151614727610120860182613e48565b5061014083015161473c610140860182613e48565b50610160830151614751610160860182614428565b5061018083015184820361018086015261476b8282613e68565b9150508091505092915050565b60006020820190508181036000830152614792818461464a565b905092915050565b600080604083850312156147b1576147b0613836565b5b60006147bf85828601613861565b92505060206147d085828601613861565b9150509250929050565b600060a0820190506147ef6000830188613c2d565b6147fc6020830187613bec565b6148096040830186613bec565b818103606083015261481b8185613c82565b905061482a6080830184613b39565b9695505050505050565b7f4e487b7100000000000000000000000000000000000000000000000000000000600052603260045260246000fd5b7f556e617574686f72697a656420456e7469747900000000000000000000000000600082015250565b6000614899601383613c47565b91506148a482614863565b602082019050919050565b600060208201905081810360008301526148c88161488c565b9050919050565b7f4465736372697074696f6e2063616e6e6f7420626520656d7074790000000000600082015250565b6000614905601b83613c47565b9150614910826148cf565b602082019050919050565b60006020820190508181036000830152614934816148f8565b9050919050565b7f496d61676555726c732063616e6e6f7420626520656d70747900000000000000600082015250565b6000614971601983613c47565b915061497c8261493b565b602082019050919050565b600060208201905081810360008301526149a081614964565b9050919050565b7f4e487b7100000000000000000000000000000000000000000000000000000000600052602260045260246000fd5b600060028204905060018216806149ee57607f821691505b602082108103614a0157614a006149a7565b5b50919050565b60008190508160005260206000209050919050565b60006020601f8301049050919050565b600082821b905092915050565b600060088302614a697fffffffffffffffffffffffffffffffffffffffffffffffffffffffffffffffff82614a2c565b614a738683614a2c565b95508019841693508086168417925050509392505050565b6000819050919050565b6000614ab0614aab614aa684613840565b614a8b565b613840565b9050919050565b6000819050919050565b614aca83614a95565b614ade614ad682614ab7565b848454614a39565b825550505050565b600090565b614af3614ae6565b614afe818484614ac1565b505050565b5b81811015614b2257614b17600082614aeb565b600181019050614b04565b5050565b601f821115614b6757614b3881614a07565b614b4184614a1c565b81016020851015614b50578190505b614b64614b5c85614a1c565b830182614b03565b50505b505050565b600082821c905092915050565b6000614b8a60001984600802614b6c565b1980831691505092915050565b6000614ba38383614b79565b9150826002028217905092915050565b614bbc82613c3c565b67ffffffffffffffff811115614bd557614bd4613891565b5b614bdf82546149d6565b614bea828285614b26565b600060209050601f831160018114614c1d5760008415614c0b578287015190505b614c158582614b97565b865550614c7d565b601f198416614c2b86614a07565b60005b82811015614c5357848901518255600182019150602085019450602081019050614c2e565b86831015614c705784890151614c6c601f891682614b79565b8355505b6001600288020188555050505b505050505050565b60008154614c92816149d6565b614c9c8186613c47565b94506001821660008114614cb75760018114614ccd57614d00565b60ff198316865281151560200286019350614d00565b614cd685614a07565b60005b83811015614cf857815481890152600182019150602081019050614cd9565b808801955050505b50505092915050565b600081549050919050565b600082825260208201905092915050565b60008190508160005260206000209050919050565b60008154614d47816149d6565b614d518186613e57565b94506001821660008114614d6c5760018114614d8257614db5565b60ff198316865281151560200286019350614db5565b614d8b85614a07565b60005b83811015614dad57815481890152600182019150602081019050614d8e565b808801955050505b50505092915050565b6000614dca8383614d3a565b905092915050565b6000600182019050919050565b6000614dea82614d09565b614df48185614d14565b935083602082028501614e0685614d25565b8060005b85811015614e4157848403895281614e228582614dbe565b9450614e2d83614dd2565b925060208a01995050600181019050614e0a565b50829750879550505050505092915050565b6000608082019050614e686000830187613bec565b8181036020830152614e7a8186614c85565b90508181036040830152614e8e8185614ddf565b9050614e9d6060830184613bec565b95945050505050565b7f41636365737320526573657276656420746f204f776e65720000000000000000600082015250565b6000614edc601883613c47565b9150614ee782614ea6565b602082019050919050565b60006020820190508181036000830152614f0b81614ecf565b9050919050565b7f50726f6a656374206e6f7420666f756e64000000000000000000000000000000600082015250565b6000614f48601183613c47565b9150614f5382614f12565b602082019050919050565b60006020820190508181036000830152614f7781614f3b565b9050919050565b7f50726f6a656374206e6f742070656e64696e6720617070726f76616c00000000600082015250565b6000614fb4601c83613c47565b9150614fbf82614f7e565b602082019050919050565b60006020820190508181036000830152614fe381614fa7565b9050919050565b6000604082019050614fff6000830185613bec565b61500c6020830184613bec565b9392505050565b7f50726f6a656374206e6f206c6f6e676572206f70656e65640000000000000000600082015250565b6000615049601883613c47565b915061505482615013565b602082019050919050565b600060208201905081810360008301526150788161503c565b9050919050565b7f5469746c652063616e6e6f7420626520656d7074790000000000000000000000600082015250565b60006150b5601583613c47565b91506150c08261507f565b602082019050919050565b600060208201905081810360008301526150e4816150a8565b9050919050565b7f436f73742063616e6e6f74206265207a65726f00000000000000000000000000600082015250565b6000615121601383613c47565b915061512c826150eb565b602082019050919050565b6000602082019050818103600083015261515081615114565b9050919050565b7f496e76616c69642063617465676f727920494400000000000000000000000000600082015250565b600061518d601383613c47565b915061519882615157565b602082019050919050565b600060208201905081810360008301526151bc81615180565b9050919050565b7f4e487b7100000000000000000000000000000000000000000000000000000000600052601160045260246000fd5b60006151fd82613840565b915061520883613840565b92508282019050808211156152205761521f6151c3565b5b92915050565b600061523182614366565b61523b8185614d14565b93508360208202850161524d85614382565b8060005b85811015615289578484038952815161526a8582614392565b9450615275836143a6565b925060208a01995050600181019050615251565b50829750879550505050505092915050565b6000610180820190506152b1600083018f613bec565b6152be602083018e613c2d565b81810360408301526152d0818d613c82565b905081810360608301526152e4818c613c82565b905081810360808301526152f8818b615226565b905061530760a083018a613bec565b61531460c0830189613bec565b61532160e0830188613bec565b61532f610100830187613bec565b61533d610120830186613bec565b61534b610140830185613bec565b615359610160830184613d23565b9d9c50505050505050505050505050565b600061537582613840565b91507fffffffffffffffffffffffffffffffffffffffffffffffffffffffffffffffff82036153a7576153a66151c3565b5b600182019050919050565b7f4574686572206d7573742062652067726561746572207468616e207a65726f00600082015250565b60006153e8601f83613c47565b91506153f3826153b2565b602082019050919050565b60006020820190508181036000830152615417816153db565b9050919050565b600060a0820190506154336000830188613bec565b6154406020830187613c2d565b61544d6040830186613bec565b818103606083015261545f8185613c82565b905061546e6080830184613bec565b9695505050505050565b7f50726f6a65637420616c7265616479206d61726b65642061732072657665727460008201527f65642f64656c6574656400000000000000000000000000000000000000000000602082015250565b60006154d4602a83613c47565b91506154df82615478565b604082019050919050565b60006020820190508181036000830152615503816154c7565b9050919050565b7f50726f6a656374206e6f7420415050524f564544000000000000000000000000600082015250565b6000615540601483613c47565b915061554b8261550a565b602082019050919050565b6000602082019050818103600083015261556f81615533565b9050919050565b600061558182613840565b915061558c83613840565b92508282039050818111156155a4576155a36151c3565b5b92915050565b60006155b582613840565b91506155c083613840565b92508282026155ce81613840565b915082820484148315176155e5576155e46151c3565b5b5092915050565b7f4e487b7100000000000000000000000000000000000000000000000000000000600052601260045260246000fd5b600061562682613840565b915061563183613840565b925082615641576156406155ec565b5b828204905092915050565b600060a0820190506156616000830188613bec565b81810360208301526156738187614c85565b90506156826040830186613c2d565b61568f6060830185613bec565b61569c6080830184613bec565b9695505050505050565b600081905092915050565b50565b60006156c16000836156a6565b91506156cc826156b1565b600082019050919050565b60006156e2826156b4565b9150819050919050565b7f5061796d656e74206661696c6564000000000000000000000000000000000000600082015250565b6000615722600e83613c47565b915061572d826156ec565b602082019050919050565b6000602082019050818103600083015261575181615715565b905091905056fea2646970667358221220dc0fa44920bf2b1aa320e3c6f2bb54a76a746abbafa53b5e84a53b2824e7844f64736f6c63430008180033","opcodes":"PUSH1 0x80 PUSH1 0x40 MSTORE CALLVALUE DUP1 ISZERO PUSH3 0x11 JUMPI PUSH1 0x0 DUP1 REVERT JUMPDEST POP PUSH1 0x40 MLOAD PUSH3 0x6131 CODESIZE SUB DUP1 PUSH3 0x6131 DUP4 CODECOPY DUP2 DUP2 ADD PUSH1 0x40 MSTORE DUP2 ADD SWAP1 PUSH3 0x37 SWAP2 SWAP1 PUSH3 0x5DB JUMP JUMPDEST CALLER PUSH1 0x0 DUP1 PUSH2 0x100 EXP DUP2 SLOAD DUP2 PUSH20 0xFFFFFFFFFFFFFFFFFFFFFFFFFFFFFFFFFFFFFFFF MUL NOT AND SWAP1 DUP4 PUSH20 0xFFFFFFFFFFFFFFFFFFFFFFFFFFFFFFFFFFFFFFFF AND MUL OR SWAP1 SSTORE POP DUP1 PUSH1 0x1 DUP2 SWAP1 SSTORE POP PUSH1 0x0 PUSH1 0xC PUSH8 0xFFFFFFFFFFFFFFFF DUP2 GT ISZERO PUSH3 0x9E JUMPI PUSH3 0x9D PUSH3 0x60D JUMP JUMPDEST JUMPDEST PUSH1 0x40 MLOAD SWAP1 DUP1 DUP3 MSTORE DUP1 PUSH1 0x20 MUL PUSH1 0x20 ADD DUP3 ADD PUSH1 0x40 MSTORE DUP1 ISZERO PUSH3 0xD3 JUMPI DUP2 PUSH1 0x20 ADD JUMPDEST PUSH1 0x60 DUP2 MSTORE PUSH1 0x20 ADD SWAP1 PUSH1 0x1 SWAP1 SUB SWAP1 DUP2 PUSH3 0xBD JUMPI SWAP1 POP JUMPDEST POP SWAP1 POP PUSH1 0x40 MLOAD DUP1 PUSH1 0x40 ADD PUSH1 0x40 MSTORE DUP1 PUSH1 0x10 DUP2 MSTORE PUSH1 0x20 ADD PUSH32 0x4172742026204372656174697669747900000000000000000000000000000000 DUP2 MSTORE POP DUP2 PUSH1 0x0 DUP2 MLOAD DUP2 LT PUSH3 0x123 JUMPI PUSH3 0x122 PUSH3 0x63C JUMP JUMPDEST JUMPDEST PUSH1 0x20 MUL PUSH1 0x20 ADD ADD DUP2 SWAP1 MSTORE POP PUSH1 0x40 MLOAD DUP1 PUSH1 0x40 ADD PUSH1 0x40 MSTORE DUP1 PUSH1 0x17 DUP2 MSTORE PUSH1 0x20 ADD PUSH32 0x546563686E6F6C6F6779202620496E6E6F766174696F6E000000000000000000 DUP2 MSTORE POP DUP2 PUSH1 0x1 DUP2 MLOAD DUP2 LT PUSH3 0x17B JUMPI PUSH3 0x17A PUSH3 0x63C JUMP JUMPDEST JUMPDEST PUSH1 0x20 MUL PUSH1 0x20 ADD ADD DUP2 SWAP1 MSTORE POP PUSH1 0x40 MLOAD DUP1 PUSH1 0x40 ADD PUSH1 0x40 MSTORE DUP1 PUSH1 0x19 DUP2 MSTORE PUSH1 0x20 ADD PUSH32 0x436F6D6D756E697479202620536F6369616C20496D7061637400000000000000 DUP2 MSTORE POP DUP2 PUSH1 0x2 DUP2 MLOAD DUP2 LT PUSH3 0x1D3 JUMPI PUSH3 0x1D2 PUSH3 0x63C JUMP JUMPDEST JUMPDEST PUSH1 0x20 MUL PUSH1 0x20 ADD ADD DUP2 SWAP1 MSTORE POP PUSH1 0x40 MLOAD DUP1 PUSH1 0x40 ADD PUSH1 0x40 MSTORE DUP1 PUSH1 0x10 DUP2 MSTORE PUSH1 0x20 ADD PUSH32 0x46617368696F6E20262044657369676E00000000000000000000000000000000 DUP2 MSTORE POP DUP2 PUSH1 0x3 DUP2 MLOAD DUP2 LT PUSH3 0x22B JUMPI PUSH3 0x22A PUSH3 0x63C JUMP JUMPDEST JUMPDEST PUSH1 0x20 MUL PUSH1 0x20 ADD ADD DUP2 SWAP1 MSTORE POP PUSH1 0x40 MLOAD DUP1 PUSH1 0x40 ADD PUSH1 0x40 MSTORE DUP1 PUSH1 0xF DUP2 MSTORE PUSH1 0x20 ADD PUSH32 0x466F6F6420262042657665726167650000000000000000000000000000000000 DUP2 MSTORE POP DUP2 PUSH1 0x4 DUP2 MLOAD DUP2 LT PUSH3 0x283 JUMPI PUSH3 0x282 PUSH3 0x63C JUMP JUMPDEST JUMPDEST PUSH1 0x20 MUL PUSH1 0x20 ADD ADD DUP2 SWAP1 MSTORE POP PUSH1 0x40 MLOAD DUP1 PUSH1 0x40 ADD PUSH1 0x40 MSTORE DUP1 PUSH1 0x16 DUP2 MSTORE PUSH1 0x20 ADD PUSH32 0x47616D696E67202620456E7465727461696E6D656E7400000000000000000000 DUP2 MSTORE POP DUP2 PUSH1 0x5 DUP2 MLOAD DUP2 LT PUSH3 0x2DB JUMPI PUSH3 0x2DA PUSH3 0x63C JUMP JUMPDEST JUMPDEST PUSH1 0x20 MUL PUSH1 0x20 ADD ADD DUP2 SWAP1 MSTORE POP PUSH1 0x40 MLOAD DUP1 PUSH1 0x40 ADD PUSH1 0x40 MSTORE DUP1 PUSH1 0x14 DUP2 MSTORE PUSH1 0x20 ADD PUSH32 0x54726176656C2026204578706C6F726174696F6E000000000000000000000000 DUP2 MSTORE POP DUP2 PUSH1 0x6 DUP2 MLOAD DUP2 LT PUSH3 0x333 JUMPI PUSH3 0x332 PUSH3 0x63C JUMP JUMPDEST JUMPDEST PUSH1 0x20 MUL PUSH1 0x20 ADD ADD DUP2 SWAP1 MSTORE POP PUSH1 0x40 MLOAD DUP1 PUSH1 0x40 ADD PUSH1 0x40 MSTORE DUP1 PUSH1 0x14 DUP2 MSTORE PUSH1 0x20 ADD PUSH32 0x456475636174696F6E2026204C6561726E696E67000000000000000000000000 DUP2 MSTORE POP DUP2 PUSH1 0x7 DUP2 MLOAD DUP2 LT PUSH3 0x38B JUMPI PUSH3 0x38A PUSH3 0x63C JUMP JUMPDEST JUMPDEST PUSH1 0x20 MUL PUSH1 0x20 ADD ADD DUP2 SWAP1 MSTORE POP PUSH1 0x40 MLOAD DUP1 PUSH1 0x40 ADD PUSH1 0x40 MSTORE DUP1 PUSH1 0x10 DUP2 MSTORE PUSH1 0x20 ADD PUSH32 0x4865616C74682026204669746E65737300000000000000000000000000000000 DUP2 MSTORE POP DUP2 PUSH1 0x8 DUP2 MLOAD DUP2 LT PUSH3 0x3E3 JUMPI PUSH3 0x3E2 PUSH3 0x63C JUMP JUMPDEST JUMPDEST PUSH1 0x20 MUL PUSH1 0x20 ADD ADD DUP2 SWAP1 MSTORE POP PUSH1 0x40 MLOAD DUP1 PUSH1 0x40 ADD PUSH1 0x40 MSTORE DUP1 PUSH1 0xC DUP2 MSTORE PUSH1 0x20 ADD PUSH32 0x4372616674732026204449590000000000000000000000000000000000000000 DUP2 MSTORE POP DUP2 PUSH1 0x9 DUP2 MLOAD DUP2 LT PUSH3 0x43B JUMPI PUSH3 0x43A PUSH3 0x63C JUMP JUMPDEST JUMPDEST PUSH1 0x20 MUL PUSH1 0x20 ADD ADD DUP2 SWAP1 MSTORE POP PUSH1 0x40 MLOAD DUP1 PUSH1 0x40 ADD PUSH1 0x40 MSTORE DUP1 PUSH1 0x14 DUP2 MSTORE PUSH1 0x20 ADD PUSH32 0x46696E616E6365202620496E766573746D656E74000000000000000000000000 DUP2 MSTORE POP DUP2 PUSH1 0xA DUP2 MLOAD DUP2 LT PUSH3 0x493 JUMPI PUSH3 0x492 PUSH3 0x63C JUMP JUMPDEST JUMPDEST PUSH1 0x20 MUL PUSH1 0x20 ADD ADD DUP2 SWAP1 MSTORE POP PUSH1 0x40 MLOAD DUP1 PUSH1 0x40 ADD PUSH1 0x40 MSTORE DUP1 PUSH1 0xE DUP2 MSTORE PUSH1 0x20 ADD PUSH32 0x50657473202620416E696D616C73000000000000000000000000000000000000 DUP2 MSTORE POP DUP2 PUSH1 0xB DUP2 MLOAD DUP2 LT PUSH3 0x4EB JUMPI PUSH3 0x4EA PUSH3 0x63C JUMP JUMPDEST JUMPDEST PUSH1 0x20 MUL PUSH1 0x20 ADD ADD DUP2 SWAP1 MSTORE POP PUSH1 0x0 JUMPDEST DUP2 MLOAD DUP2 LT ISZERO PUSH3 0x592 JUMPI PUSH1 0x7 PUSH1 0x40 MLOAD DUP1 PUSH1 0x40 ADD PUSH1 0x40 MSTORE DUP1 DUP4 DUP2 MSTORE PUSH1 0x20 ADD DUP5 DUP5 DUP2 MLOAD DUP2 LT PUSH3 0x52C JUMPI PUSH3 0x52B PUSH3 0x63C JUMP JUMPDEST JUMPDEST PUSH1 0x20 MUL PUSH1 0x20 ADD ADD MLOAD DUP2 MSTORE POP SWAP1 DUP1 PUSH1 0x1 DUP2 SLOAD ADD DUP1 DUP3 SSTORE DUP1 SWAP2 POP POP PUSH1 0x1 SWAP1 SUB SWAP1 PUSH1 0x0 MSTORE PUSH1 0x20 PUSH1 0x0 KECCAK256 SWAP1 PUSH1 0x2 MUL ADD PUSH1 0x0 SWAP1 SWAP2 SWAP1 SWAP2 SWAP1 SWAP2 POP PUSH1 0x0 DUP3 ADD MLOAD DUP2 PUSH1 0x0 ADD SSTORE PUSH1 0x20 DUP3 ADD MLOAD DUP2 PUSH1 0x1 ADD SWAP1 DUP2 PUSH3 0x581 SWAP2 SWAP1 PUSH3 0x8AC JUMP JUMPDEST POP POP POP DUP1 DUP1 PUSH1 0x1 ADD SWAP2 POP POP PUSH3 0x4F9 JUMP JUMPDEST POP POP POP PUSH3 0x993 JUMP JUMPDEST PUSH1 0x0 DUP1 REVERT JUMPDEST PUSH1 0x0 DUP2 SWAP1 POP SWAP2 SWAP1 POP JUMP JUMPDEST PUSH3 0x5B5 DUP2 PUSH3 0x5A0 JUMP JUMPDEST DUP2 EQ PUSH3 0x5C1 JUMPI PUSH1 0x0 DUP1 REVERT JUMPDEST POP JUMP JUMPDEST PUSH1 0x0 DUP2 MLOAD SWAP1 POP PUSH3 0x5D5 DUP2 PUSH3 0x5AA JUMP JUMPDEST SWAP3 SWAP2 POP POP JUMP JUMPDEST PUSH1 0x0 PUSH1 0x20 DUP3 DUP5 SUB SLT ISZERO PUSH3 0x5F4 JUMPI PUSH3 0x5F3 PUSH3 0x59B JUMP JUMPDEST JUMPDEST PUSH1 0x0 PUSH3 0x604 DUP5 DUP3 DUP6 ADD PUSH3 0x5C4 JUMP JUMPDEST SWAP2 POP POP SWAP3 SWAP2 POP POP JUMP JUMPDEST PUSH32 0x4E487B7100000000000000000000000000000000000000000000000000000000 PUSH1 0x0 MSTORE PUSH1 0x41 PUSH1 0x4 MSTORE PUSH1 0x24 PUSH1 0x0 REVERT JUMPDEST PUSH32 0x4E487B7100000000000000000000000000000000000000000000000000000000 PUSH1 0x0 MSTORE PUSH1 0x32 PUSH1 0x4 MSTORE PUSH1 0x24 PUSH1 0x0 REVERT JUMPDEST PUSH1 0x0 DUP2 MLOAD SWAP1 POP SWAP2 SWAP1 POP JUMP JUMPDEST PUSH32 0x4E487B7100000000000000000000000000000000000000000000000000000000 PUSH1 0x0 MSTORE PUSH1 0x22 PUSH1 0x4 MSTORE PUSH1 0x24 PUSH1 0x0 REVERT JUMPDEST PUSH1 0x0 PUSH1 0x2 DUP3 DIV SWAP1 POP PUSH1 0x1 DUP3 AND DUP1 PUSH3 0x6BE JUMPI PUSH1 0x7F DUP3 AND SWAP2 POP JUMPDEST PUSH1 0x20 DUP3 LT DUP2 SUB PUSH3 0x6D4 JUMPI PUSH3 0x6D3 PUSH3 0x676 JUMP JUMPDEST JUMPDEST POP SWAP2 SWAP1 POP JUMP JUMPDEST PUSH1 0x0 DUP2 SWAP1 POP DUP2 PUSH1 0x0 MSTORE PUSH1 0x20 PUSH1 0x0 KECCAK256 SWAP1 POP SWAP2 SWAP1 POP JUMP JUMPDEST PUSH1 0x0 PUSH1 0x20 PUSH1 0x1F DUP4 ADD DIV SWAP1 POP SWAP2 SWAP1 POP JUMP JUMPDEST PUSH1 0x0 DUP3 DUP3 SHL SWAP1 POP SWAP3 SWAP2 POP POP JUMP JUMPDEST PUSH1 0x0 PUSH1 0x8 DUP4 MUL PUSH3 0x73E PUSH32 0xFFFFFFFFFFFFFFFFFFFFFFFFFFFFFFFFFFFFFFFFFFFFFFFFFFFFFFFFFFFFFFFF DUP3 PUSH3 0x6FF JUMP JUMPDEST PUSH3 0x74A DUP7 DUP4 PUSH3 0x6FF JUMP JUMPDEST SWAP6 POP DUP1 NOT DUP5 AND SWAP4 POP DUP1 DUP7 AND DUP5 OR SWAP3 POP POP POP SWAP4 SWAP3 POP POP POP JUMP JUMPDEST PUSH1 0x0 DUP2 SWAP1 POP SWAP2 SWAP1 POP JUMP JUMPDEST PUSH1 0x0 PUSH3 0x78D PUSH3 0x787 PUSH3 0x781 DUP5 PUSH3 0x5A0 JUMP JUMPDEST PUSH3 0x762 JUMP JUMPDEST PUSH3 0x5A0 JUMP JUMPDEST SWAP1 POP SWAP2 SWAP1 POP JUMP JUMPDEST PUSH1 0x0 DUP2 SWAP1 POP SWAP2 SWAP1 POP JUMP JUMPDEST PUSH3 0x7A9 DUP4 PUSH3 0x76C JUMP JUMPDEST PUSH3 0x7C1 PUSH3 0x7B8 DUP3 PUSH3 0x794 JUMP JUMPDEST DUP5 DUP5 SLOAD PUSH3 0x70C JUMP JUMPDEST DUP3 SSTORE POP POP POP POP JUMP JUMPDEST PUSH1 0x0 SWAP1 JUMP JUMPDEST PUSH3 0x7D8 PUSH3 0x7C9 JUMP JUMPDEST PUSH3 0x7E5 DUP2 DUP5 DUP5 PUSH3 0x79E JUMP JUMPDEST POP POP POP JUMP JUMPDEST JUMPDEST DUP2 DUP2 LT ISZERO PUSH3 0x80D JUMPI PUSH3 0x801 PUSH1 0x0 DUP3 PUSH3 0x7CE JUMP JUMPDEST PUSH1 0x1 DUP2 ADD SWAP1 POP PUSH3 0x7EB JUMP JUMPDEST POP POP JUMP JUMPDEST PUSH1 0x1F DUP3 GT ISZERO PUSH3 0x85C JUMPI PUSH3 0x826 DUP2 PUSH3 0x6DA JUMP JUMPDEST PUSH3 0x831 DUP5 PUSH3 0x6EF JUMP JUMPDEST DUP2 ADD PUSH1 0x20 DUP6 LT ISZERO PUSH3 0x841 JUMPI DUP2 SWAP1 POP JUMPDEST PUSH3 0x859 PUSH3 0x850 DUP6 PUSH3 0x6EF JUMP JUMPDEST DUP4 ADD DUP3 PUSH3 0x7EA JUMP JUMPDEST POP POP JUMPDEST POP POP POP JUMP JUMPDEST PUSH1 0x0 DUP3 DUP3 SHR SWAP1 POP SWAP3 SWAP2 POP POP JUMP JUMPDEST PUSH1 0x0 PUSH3 0x881 PUSH1 0x0 NOT DUP5 PUSH1 0x8 MUL PUSH3 0x861 JUMP JUMPDEST NOT DUP1 DUP4 AND SWAP2 POP POP SWAP3 SWAP2 POP POP JUMP JUMPDEST PUSH1 0x0 PUSH3 0x89C DUP4 DUP4 PUSH3 0x86E JUMP JUMPDEST SWAP2 POP DUP3 PUSH1 0x2 MUL DUP3 OR SWAP1 POP SWAP3 SWAP2 POP POP JUMP JUMPDEST PUSH3 0x8B7 DUP3 PUSH3 0x66B JUMP JUMPDEST PUSH8 0xFFFFFFFFFFFFFFFF DUP2 GT ISZERO PUSH3 0x8D3 JUMPI PUSH3 0x8D2 PUSH3 0x60D JUMP JUMPDEST JUMPDEST PUSH3 0x8DF DUP3 SLOAD PUSH3 0x6A5 JUMP JUMPDEST PUSH3 0x8EC DUP3 DUP3 DUP6 PUSH3 0x811 JUMP JUMPDEST PUSH1 0x0 PUSH1 0x20 SWAP1 POP PUSH1 0x1F DUP4 GT PUSH1 0x1 DUP2 EQ PUSH3 0x924 JUMPI PUSH1 0x0 DUP5 ISZERO PUSH3 0x90F JUMPI DUP3 DUP8 ADD MLOAD SWAP1 POP JUMPDEST PUSH3 0x91B DUP6 DUP3 PUSH3 0x88E JUMP JUMPDEST DUP7 SSTORE POP PUSH3 0x98B JUMP JUMPDEST PUSH1 0x1F NOT DUP5 AND PUSH3 0x934 DUP7 PUSH3 0x6DA JUMP JUMPDEST PUSH1 0x0 JUMPDEST DUP3 DUP2 LT ISZERO PUSH3 0x95E JUMPI DUP5 DUP10 ADD MLOAD DUP3 SSTORE PUSH1 0x1 DUP3 ADD SWAP2 POP PUSH1 0x20 DUP6 ADD SWAP5 POP PUSH1 0x20 DUP2 ADD SWAP1 POP PUSH3 0x937 JUMP JUMPDEST DUP7 DUP4 LT ISZERO PUSH3 0x97E JUMPI DUP5 DUP10 ADD MLOAD PUSH3 0x97A PUSH1 0x1F DUP10 AND DUP3 PUSH3 0x86E JUMP JUMPDEST DUP4 SSTORE POP JUMPDEST PUSH1 0x1 PUSH1 0x2 DUP9 MUL ADD DUP9 SSTORE POP POP POP JUMPDEST POP POP POP POP POP POP JUMP JUMPDEST PUSH2 0x578E DUP1 PUSH3 0x9A3 PUSH1 0x0 CODECOPY PUSH1 0x0 RETURN INVALID PUSH1 0x80 PUSH1 0x40 MSTORE PUSH1 0x4 CALLDATASIZE LT PUSH2 0x14B JUMPI PUSH1 0x0 CALLDATALOAD PUSH1 0xE0 SHR DUP1 PUSH4 0xA4B2409E GT PUSH2 0xB6 JUMPI DUP1 PUSH4 0xD80528AE GT PUSH2 0x6F JUMPI DUP1 PUSH4 0xD80528AE EQ PUSH2 0x536 JUMPI DUP1 PUSH4 0xDCC60128 EQ PUSH2 0x563 JUMPI DUP1 PUSH4 0xE32E723C EQ PUSH2 0x58E JUMPI DUP1 PUSH4 0xF0F3F2C8 EQ PUSH2 0x5CB JUMPI DUP1 PUSH4 0xF9285AA0 EQ PUSH2 0x608 JUMPI DUP1 PUSH4 0xFD1D5EA9 EQ PUSH2 0x649 JUMPI PUSH2 0x14B JUMP JUMPDEST DUP1 PUSH4 0xA4B2409E EQ PUSH2 0x3EB JUMPI DUP1 PUSH4 0xB531DCBA EQ PUSH2 0x428 JUMPI DUP1 PUSH4 0xC59D4847 EQ PUSH2 0x465 JUMPI DUP1 PUSH4 0xC6CDBE5E EQ PUSH2 0x490 JUMPI DUP1 PUSH4 0xC9168B72 EQ PUSH2 0x4CE JUMPI DUP1 PUSH4 0xD24CD3EC EQ PUSH2 0x50B JUMPI PUSH2 0x14B JUMP JUMPDEST DUP1 PUSH4 0x4DB0412C GT PUSH2 0x108 JUMPI DUP1 PUSH4 0x4DB0412C EQ PUSH2 0x2A3 JUMPI DUP1 PUSH4 0x703D52AF EQ PUSH2 0x2CE JUMPI DUP1 PUSH4 0x7326C718 EQ PUSH2 0x30B JUMPI DUP1 PUSH4 0x8DA5CB5B EQ PUSH2 0x348 JUMPI DUP1 PUSH4 0x8E555632 EQ PUSH2 0x373 JUMPI DUP1 PUSH4 0x944173DF EQ PUSH2 0x3BB JUMPI PUSH2 0x14B JUMP JUMPDEST DUP1 PUSH4 0x13FEDA9 EQ PUSH2 0x150 JUMPI DUP1 PUSH4 0x86A8A87 EQ PUSH2 0x18D JUMPI DUP1 PUSH4 0x107046BD EQ PUSH2 0x1CA JUMPI DUP1 PUSH4 0x36FBAD26 EQ PUSH2 0x212 JUMPI DUP1 PUSH4 0x3E45C8AF EQ PUSH2 0x23D JUMPI DUP1 PUSH4 0x486EE331 EQ PUSH2 0x266 JUMPI JUMPDEST PUSH1 0x0 DUP1 REVERT JUMPDEST CALLVALUE DUP1 ISZERO PUSH2 0x15C JUMPI PUSH1 0x0 DUP1 REVERT JUMPDEST POP PUSH2 0x177 PUSH1 0x4 DUP1 CALLDATASIZE SUB DUP2 ADD SWAP1 PUSH2 0x172 SWAP2 SWAP1 PUSH2 0x3AA2 JUMP JUMPDEST PUSH2 0x686 JUMP JUMPDEST PUSH1 0x40 MLOAD PUSH2 0x184 SWAP2 SWAP1 PUSH2 0x3B48 JUMP JUMPDEST PUSH1 0x40 MLOAD DUP1 SWAP2 SUB SWAP1 RETURN JUMPDEST CALLVALUE DUP1 ISZERO PUSH2 0x199 JUMPI PUSH1 0x0 DUP1 REVERT JUMPDEST POP PUSH2 0x1B4 PUSH1 0x4 DUP1 CALLDATASIZE SUB DUP2 ADD SWAP1 PUSH2 0x1AF SWAP2 SWAP1 PUSH2 0x3B63 JUMP JUMPDEST PUSH2 0x8C0 JUMP JUMPDEST PUSH1 0x40 MLOAD PUSH2 0x1C1 SWAP2 SWAP1 PUSH2 0x3B48 JUMP JUMPDEST PUSH1 0x40 MLOAD DUP1 SWAP2 SUB SWAP1 RETURN JUMPDEST CALLVALUE DUP1 ISZERO PUSH2 0x1D6 JUMPI PUSH1 0x0 DUP1 REVERT JUMPDEST POP PUSH2 0x1F1 PUSH1 0x4 DUP1 CALLDATASIZE SUB DUP2 ADD SWAP1 PUSH2 0x1EC SWAP2 SWAP1 PUSH2 0x3BBF JUMP JUMPDEST PUSH2 0xB0D JUMP JUMPDEST PUSH1 0x40 MLOAD PUSH2 0x209 SWAP13 SWAP12 SWAP11 SWAP10 SWAP9 SWAP8 SWAP7 SWAP6 SWAP5 SWAP4 SWAP3 SWAP2 SWAP1 PUSH2 0x3D32 JUMP JUMPDEST PUSH1 0x40 MLOAD DUP1 SWAP2 SUB SWAP1 RETURN JUMPDEST CALLVALUE DUP1 ISZERO PUSH2 0x21E JUMPI PUSH1 0x0 DUP1 REVERT JUMPDEST POP PUSH2 0x227 PUSH2 0xD42 JUMP JUMPDEST PUSH1 0x40 MLOAD PUSH2 0x234 SWAP2 SWAP1 PUSH2 0x3E01 JUMP JUMPDEST PUSH1 0x40 MLOAD DUP1 SWAP2 SUB SWAP1 RETURN JUMPDEST CALLVALUE DUP1 ISZERO PUSH2 0x249 JUMPI PUSH1 0x0 DUP1 REVERT JUMPDEST POP PUSH2 0x264 PUSH1 0x4 DUP1 CALLDATASIZE SUB DUP2 ADD SWAP1 PUSH2 0x25F SWAP2 SWAP1 PUSH2 0x3BBF JUMP JUMPDEST PUSH2 0xD48 JUMP JUMPDEST STOP JUMPDEST CALLVALUE DUP1 ISZERO PUSH2 0x272 JUMPI PUSH1 0x0 DUP1 REVERT JUMPDEST POP PUSH2 0x28D PUSH1 0x4 DUP1 CALLDATASIZE SUB DUP2 ADD SWAP1 PUSH2 0x288 SWAP2 SWAP1 PUSH2 0x3B63 JUMP JUMPDEST PUSH2 0xDE0 JUMP JUMPDEST PUSH1 0x40 MLOAD PUSH2 0x29A SWAP2 SWAP1 PUSH2 0x3B48 JUMP JUMPDEST PUSH1 0x40 MLOAD DUP1 SWAP2 SUB SWAP1 RETURN JUMPDEST CALLVALUE DUP1 ISZERO PUSH2 0x2AF JUMPI PUSH1 0x0 DUP1 REVERT JUMPDEST POP PUSH2 0x2B8 PUSH2 0xFFA JUMP JUMPDEST PUSH1 0x40 MLOAD PUSH2 0x2C5 SWAP2 SWAP1 PUSH2 0x3F74 JUMP JUMPDEST PUSH1 0x40 MLOAD DUP1 SWAP2 SUB SWAP1 RETURN JUMPDEST CALLVALUE DUP1 ISZERO PUSH2 0x2DA JUMPI PUSH1 0x0 DUP1 REVERT JUMPDEST POP PUSH2 0x2F5 PUSH1 0x4 DUP1 CALLDATASIZE SUB DUP2 ADD SWAP1 PUSH2 0x2F0 SWAP2 SWAP1 PUSH2 0x3BBF JUMP JUMPDEST PUSH2 0x10F5 JUMP JUMPDEST PUSH1 0x40 MLOAD PUSH2 0x302 SWAP2 SWAP1 PUSH2 0x3B48 JUMP JUMPDEST PUSH1 0x40 MLOAD DUP1 SWAP2 SUB SWAP1 RETURN JUMPDEST CALLVALUE DUP1 ISZERO PUSH2 0x317 JUMPI PUSH1 0x0 DUP1 REVERT JUMPDEST POP PUSH2 0x332 PUSH1 0x4 DUP1 CALLDATASIZE SUB DUP2 ADD SWAP1 PUSH2 0x32D SWAP2 SWAP1 PUSH2 0x3F96 JUMP JUMPDEST PUSH2 0x1115 JUMP JUMPDEST PUSH1 0x40 MLOAD PUSH2 0x33F SWAP2 SWAP1 PUSH2 0x3B48 JUMP JUMPDEST PUSH1 0x40 MLOAD DUP1 SWAP2 SUB SWAP1 RETURN JUMPDEST CALLVALUE DUP1 ISZERO PUSH2 0x354 JUMPI PUSH1 0x0 DUP1 REVERT JUMPDEST POP PUSH2 0x35D PUSH2 0x16FD JUMP JUMPDEST PUSH1 0x40 MLOAD PUSH2 0x36A SWAP2 SWAP1 PUSH2 0x4077 JUMP JUMPDEST PUSH1 0x40 MLOAD DUP1 SWAP2 SUB SWAP1 RETURN JUMPDEST CALLVALUE DUP1 ISZERO PUSH2 0x37F JUMPI PUSH1 0x0 DUP1 REVERT JUMPDEST POP PUSH2 0x39A PUSH1 0x4 DUP1 CALLDATASIZE SUB DUP2 ADD SWAP1 PUSH2 0x395 SWAP2 SWAP1 PUSH2 0x40BE JUMP JUMPDEST PUSH2 0x1721 JUMP JUMPDEST PUSH1 0x40 MLOAD PUSH2 0x3B2 SWAP13 SWAP12 SWAP11 SWAP10 SWAP9 SWAP8 SWAP7 SWAP6 SWAP5 SWAP4 SWAP3 SWAP2 SWAP1 PUSH2 0x3D32 JUMP JUMPDEST PUSH1 0x40 MLOAD DUP1 SWAP2 SUB SWAP1 RETURN JUMPDEST PUSH2 0x3D5 PUSH1 0x4 DUP1 CALLDATASIZE SUB DUP2 ADD SWAP1 PUSH2 0x3D0 SWAP2 SWAP1 PUSH2 0x3B63 JUMP JUMPDEST PUSH2 0x1963 JUMP JUMPDEST PUSH1 0x40 MLOAD PUSH2 0x3E2 SWAP2 SWAP1 PUSH2 0x3B48 JUMP JUMPDEST PUSH1 0x40 MLOAD DUP1 SWAP2 SUB SWAP1 RETURN JUMPDEST CALLVALUE DUP1 ISZERO PUSH2 0x3F7 JUMPI PUSH1 0x0 DUP1 REVERT JUMPDEST POP PUSH2 0x412 PUSH1 0x4 DUP1 CALLDATASIZE SUB DUP2 ADD SWAP1 PUSH2 0x40D SWAP2 SWAP1 PUSH2 0x3BBF JUMP JUMPDEST PUSH2 0x1DE8 JUMP JUMPDEST PUSH1 0x40 MLOAD PUSH2 0x41F SWAP2 SWAP1 PUSH2 0x3B48 JUMP JUMPDEST PUSH1 0x40 MLOAD DUP1 SWAP2 SUB SWAP1 RETURN JUMPDEST CALLVALUE DUP1 ISZERO PUSH2 0x434 JUMPI PUSH1 0x0 DUP1 REVERT JUMPDEST POP PUSH2 0x44F PUSH1 0x4 DUP1 CALLDATASIZE SUB DUP2 ADD SWAP1 PUSH2 0x44A SWAP2 SWAP1 PUSH2 0x3BBF JUMP JUMPDEST PUSH2 0x1F47 JUMP JUMPDEST PUSH1 0x40 MLOAD PUSH2 0x45C SWAP2 SWAP1 PUSH2 0x3B48 JUMP JUMPDEST PUSH1 0x40 MLOAD DUP1 SWAP2 SUB SWAP1 RETURN JUMPDEST CALLVALUE DUP1 ISZERO PUSH2 0x471 JUMPI PUSH1 0x0 DUP1 REVERT JUMPDEST POP PUSH2 0x47A PUSH2 0x20FD JUMP JUMPDEST PUSH1 0x40 MLOAD PUSH2 0x487 SWAP2 SWAP1 PUSH2 0x4140 JUMP JUMPDEST PUSH1 0x40 MLOAD DUP1 SWAP2 SUB SWAP1 RETURN JUMPDEST CALLVALUE DUP1 ISZERO PUSH2 0x49C JUMPI PUSH1 0x0 DUP1 REVERT JUMPDEST POP PUSH2 0x4B7 PUSH1 0x4 DUP1 CALLDATASIZE SUB DUP2 ADD SWAP1 PUSH2 0x4B2 SWAP2 SWAP1 PUSH2 0x3BBF JUMP JUMPDEST PUSH2 0x2135 JUMP JUMPDEST PUSH1 0x40 MLOAD PUSH2 0x4C5 SWAP3 SWAP2 SWAP1 PUSH2 0x415B JUMP JUMPDEST PUSH1 0x40 MLOAD DUP1 SWAP2 SUB SWAP1 RETURN JUMPDEST CALLVALUE DUP1 ISZERO PUSH2 0x4DA JUMPI PUSH1 0x0 DUP1 REVERT JUMPDEST POP PUSH2 0x4F5 PUSH1 0x4 DUP1 CALLDATASIZE SUB DUP2 ADD SWAP1 PUSH2 0x4F0 SWAP2 SWAP1 PUSH2 0x3BBF JUMP JUMPDEST PUSH2 0x21F1 JUMP JUMPDEST PUSH1 0x40 MLOAD PUSH2 0x502 SWAP2 SWAP1 PUSH2 0x42E1 JUMP JUMPDEST PUSH1 0x40 MLOAD DUP1 SWAP2 SUB SWAP1 RETURN JUMPDEST CALLVALUE DUP1 ISZERO PUSH2 0x517 JUMPI PUSH1 0x0 DUP1 REVERT JUMPDEST POP PUSH2 0x520 PUSH2 0x237A JUMP JUMPDEST PUSH1 0x40 MLOAD PUSH2 0x52D SWAP2 SWAP1 PUSH2 0x3E01 JUMP JUMPDEST PUSH1 0x40 MLOAD DUP1 SWAP2 SUB SWAP1 RETURN JUMPDEST CALLVALUE DUP1 ISZERO PUSH2 0x542 JUMPI PUSH1 0x0 DUP1 REVERT JUMPDEST POP PUSH2 0x54B PUSH2 0x2380 JUMP JUMPDEST PUSH1 0x40 MLOAD PUSH2 0x55A SWAP4 SWAP3 SWAP2 SWAP1 PUSH2 0x4303 JUMP JUMPDEST PUSH1 0x40 MLOAD DUP1 SWAP2 SUB SWAP1 RETURN JUMPDEST CALLVALUE DUP1 ISZERO PUSH2 0x56F JUMPI PUSH1 0x0 DUP1 REVERT JUMPDEST POP PUSH2 0x578 PUSH2 0x2398 JUMP JUMPDEST PUSH1 0x40 MLOAD PUSH2 0x585 SWAP2 SWAP1 PUSH2 0x45FB JUMP JUMPDEST PUSH1 0x40 MLOAD DUP1 SWAP2 SUB SWAP1 RETURN JUMPDEST CALLVALUE DUP1 ISZERO PUSH2 0x59A JUMPI PUSH1 0x0 DUP1 REVERT JUMPDEST POP PUSH2 0x5B5 PUSH1 0x4 DUP1 CALLDATASIZE SUB DUP2 ADD SWAP1 PUSH2 0x5B0 SWAP2 SWAP1 PUSH2 0x461D JUMP JUMPDEST PUSH2 0x275E JUMP JUMPDEST PUSH1 0x40 MLOAD PUSH2 0x5C2 SWAP2 SWAP1 PUSH2 0x45FB JUMP JUMPDEST PUSH1 0x40 MLOAD DUP1 SWAP2 SUB SWAP1 RETURN JUMPDEST CALLVALUE DUP1 ISZERO PUSH2 0x5D7 JUMPI PUSH1 0x0 DUP1 REVERT JUMPDEST POP PUSH2 0x5F2 PUSH1 0x4 DUP1 CALLDATASIZE SUB DUP2 ADD SWAP1 PUSH2 0x5ED SWAP2 SWAP1 PUSH2 0x3BBF JUMP JUMPDEST PUSH2 0x2B63 JUMP JUMPDEST PUSH1 0x40 MLOAD PUSH2 0x5FF SWAP2 SWAP1 PUSH2 0x4778 JUMP JUMPDEST PUSH1 0x40 MLOAD DUP1 SWAP2 SUB SWAP1 RETURN JUMPDEST CALLVALUE DUP1 ISZERO PUSH2 0x614 JUMPI PUSH1 0x0 DUP1 REVERT JUMPDEST POP PUSH2 0x62F PUSH1 0x4 DUP1 CALLDATASIZE SUB DUP2 ADD SWAP1 PUSH2 0x62A SWAP2 SWAP1 PUSH2 0x479A JUMP JUMPDEST PUSH2 0x2F66 JUMP JUMPDEST PUSH1 0x40 MLOAD PUSH2 0x640 SWAP6 SWAP5 SWAP4 SWAP3 SWAP2 SWAP1 PUSH2 0x47DA JUMP JUMPDEST PUSH1 0x40 MLOAD DUP1 SWAP2 SUB SWAP1 RETURN JUMPDEST CALLVALUE DUP1 ISZERO PUSH2 0x655 JUMPI PUSH1 0x0 DUP1 REVERT JUMPDEST POP PUSH2 0x670 PUSH1 0x4 DUP1 CALLDATASIZE SUB DUP2 ADD SWAP1 PUSH2 0x66B SWAP2 SWAP1 PUSH2 0x3BBF JUMP JUMPDEST PUSH2 0x306E JUMP JUMPDEST PUSH1 0x40 MLOAD PUSH2 0x67D SWAP2 SWAP1 PUSH2 0x3B48 JUMP JUMPDEST PUSH1 0x40 MLOAD DUP1 SWAP2 SUB SWAP1 RETURN JUMPDEST PUSH1 0x0 PUSH1 0x6 DUP5 DUP2 SLOAD DUP2 LT PUSH2 0x69C JUMPI PUSH2 0x69B PUSH2 0x4834 JUMP JUMPDEST JUMPDEST SWAP1 PUSH1 0x0 MSTORE PUSH1 0x20 PUSH1 0x0 KECCAK256 SWAP1 PUSH1 0xD MUL ADD PUSH1 0x1 ADD PUSH1 0x0 SWAP1 SLOAD SWAP1 PUSH2 0x100 EXP SWAP1 DIV PUSH20 0xFFFFFFFFFFFFFFFFFFFFFFFFFFFFFFFFFFFFFFFF AND PUSH20 0xFFFFFFFFFFFFFFFFFFFFFFFFFFFFFFFFFFFFFFFF AND CALLER PUSH20 0xFFFFFFFFFFFFFFFFFFFFFFFFFFFFFFFFFFFFFFFF AND EQ PUSH2 0x73B JUMPI PUSH1 0x40 MLOAD PUSH32 0x8C379A000000000000000000000000000000000000000000000000000000000 DUP2 MSTORE PUSH1 0x4 ADD PUSH2 0x732 SWAP1 PUSH2 0x48AF JUMP JUMPDEST PUSH1 0x40 MLOAD DUP1 SWAP2 SUB SWAP1 REVERT JUMPDEST PUSH1 0x0 DUP4 MLOAD GT PUSH2 0x77F JUMPI PUSH1 0x40 MLOAD PUSH32 0x8C379A000000000000000000000000000000000000000000000000000000000 DUP2 MSTORE PUSH1 0x4 ADD PUSH2 0x776 SWAP1 PUSH2 0x491B JUMP JUMPDEST PUSH1 0x40 MLOAD DUP1 SWAP2 SUB SWAP1 REVERT JUMPDEST PUSH1 0x0 DUP3 MLOAD GT PUSH2 0x7C3 JUMPI PUSH1 0x40 MLOAD PUSH32 0x8C379A000000000000000000000000000000000000000000000000000000000 DUP2 MSTORE PUSH1 0x4 ADD PUSH2 0x7BA SWAP1 PUSH2 0x4987 JUMP JUMPDEST PUSH1 0x40 MLOAD DUP1 SWAP2 SUB SWAP1 REVERT JUMPDEST DUP3 PUSH1 0x6 DUP6 DUP2 SLOAD DUP2 LT PUSH2 0x7D8 JUMPI PUSH2 0x7D7 PUSH2 0x4834 JUMP JUMPDEST JUMPDEST SWAP1 PUSH1 0x0 MSTORE PUSH1 0x20 PUSH1 0x0 KECCAK256 SWAP1 PUSH1 0xD MUL ADD PUSH1 0x3 ADD SWAP1 DUP2 PUSH2 0x7F5 SWAP2 SWAP1 PUSH2 0x4BB3 JUMP JUMPDEST POP DUP2 PUSH1 0x6 DUP6 DUP2 SLOAD DUP2 LT PUSH2 0x80B JUMPI PUSH2 0x80A PUSH2 0x4834 JUMP JUMPDEST JUMPDEST SWAP1 PUSH1 0x0 MSTORE PUSH1 0x20 PUSH1 0x0 KECCAK256 SWAP1 PUSH1 0xD MUL ADD PUSH1 0x4 ADD SWAP1 DUP1 MLOAD SWAP1 PUSH1 0x20 ADD SWAP1 PUSH2 0x82F SWAP3 SWAP2 SWAP1 PUSH2 0x36A1 JUMP JUMPDEST POP PUSH32 0x2B3E4ABC222FF4B04D6C018B3D77E8AE74277F44FC0062205B71931E61EE4E45 DUP5 PUSH1 0x6 DUP7 DUP2 SLOAD DUP2 LT PUSH2 0x866 JUMPI PUSH2 0x865 PUSH2 0x4834 JUMP JUMPDEST JUMPDEST SWAP1 PUSH1 0x0 MSTORE PUSH1 0x20 PUSH1 0x0 KECCAK256 SWAP1 PUSH1 0xD MUL ADD PUSH1 0x3 ADD PUSH1 0x6 DUP8 DUP2 SLOAD DUP2 LT PUSH2 0x88B JUMPI PUSH2 0x88A PUSH2 0x4834 JUMP JUMPDEST JUMPDEST SWAP1 PUSH1 0x0 MSTORE PUSH1 0x20 PUSH1 0x0 KECCAK256 SWAP1 PUSH1 0xD MUL ADD PUSH1 0x4 ADD TIMESTAMP PUSH1 0x40 MLOAD PUSH2 0x8AD SWAP5 SWAP4 SWAP3 SWAP2 SWAP1 PUSH2 0x4E53 JUMP JUMPDEST PUSH1 0x40 MLOAD DUP1 SWAP2 SUB SWAP1 LOG1 PUSH1 0x1 SWAP1 POP SWAP4 SWAP3 POP POP POP JUMP JUMPDEST PUSH1 0x0 DUP1 PUSH1 0x0 SWAP1 SLOAD SWAP1 PUSH2 0x100 EXP SWAP1 DIV PUSH20 0xFFFFFFFFFFFFFFFFFFFFFFFFFFFFFFFFFFFFFFFF AND PUSH20 0xFFFFFFFFFFFFFFFFFFFFFFFFFFFFFFFFFFFFFFFF AND CALLER PUSH20 0xFFFFFFFFFFFFFFFFFFFFFFFFFFFFFFFFFFFFFFFF AND EQ PUSH2 0x951 JUMPI PUSH1 0x40 MLOAD PUSH32 0x8C379A000000000000000000000000000000000000000000000000000000000 DUP2 MSTORE PUSH1 0x4 ADD PUSH2 0x948 SWAP1 PUSH2 0x4EF2 JUMP JUMPDEST PUSH1 0x40 MLOAD DUP1 SWAP2 SUB SWAP1 REVERT JUMPDEST PUSH1 0xA PUSH1 0x0 DUP5 DUP2 MSTORE PUSH1 0x20 ADD SWAP1 DUP2 MSTORE PUSH1 0x20 ADD PUSH1 0x0 KECCAK256 PUSH1 0x0 SWAP1 SLOAD SWAP1 PUSH2 0x100 EXP SWAP1 DIV PUSH1 0xFF AND PUSH2 0x9B1 JUMPI PUSH1 0x40 MLOAD PUSH32 0x8C379A000000000000000000000000000000000000000000000000000000000 DUP2 MSTORE PUSH1 0x4 ADD PUSH2 0x9A8 SWAP1 PUSH2 0x4F5E JUMP JUMPDEST PUSH1 0x40 MLOAD DUP1 SWAP2 SUB SWAP1 REVERT JUMPDEST PUSH1 0x5 DUP1 DUP2 GT ISZERO PUSH2 0x9C4 JUMPI PUSH2 0x9C3 PUSH2 0x3CBB JUMP JUMPDEST JUMPDEST PUSH1 0x6 DUP5 DUP2 SLOAD DUP2 LT PUSH2 0x9D8 JUMPI PUSH2 0x9D7 PUSH2 0x4834 JUMP JUMPDEST JUMPDEST SWAP1 PUSH1 0x0 MSTORE PUSH1 0x20 PUSH1 0x0 KECCAK256 SWAP1 PUSH1 0xD MUL ADD PUSH1 0xB ADD PUSH1 0x0 SWAP1 SLOAD SWAP1 PUSH2 0x100 EXP SWAP1 DIV PUSH1 0xFF AND PUSH1 0x5 DUP2 GT ISZERO PUSH2 0xA09 JUMPI PUSH2 0xA08 PUSH2 0x3CBB JUMP JUMPDEST JUMPDEST EQ PUSH2 0xA49 JUMPI PUSH1 0x40 MLOAD PUSH32 0x8C379A000000000000000000000000000000000000000000000000000000000 DUP2 MSTORE PUSH1 0x4 ADD PUSH2 0xA40 SWAP1 PUSH2 0x4FCA JUMP JUMPDEST PUSH1 0x40 MLOAD DUP1 SWAP2 SUB SWAP1 REVERT JUMPDEST PUSH1 0x3 PUSH1 0x6 DUP5 DUP2 SLOAD DUP2 LT PUSH2 0xA5F JUMPI PUSH2 0xA5E PUSH2 0x4834 JUMP JUMPDEST JUMPDEST SWAP1 PUSH1 0x0 MSTORE PUSH1 0x20 PUSH1 0x0 KECCAK256 SWAP1 PUSH1 0xD MUL ADD PUSH1 0xB ADD PUSH1 0x0 PUSH2 0x100 EXP DUP2 SLOAD DUP2 PUSH1 0xFF MUL NOT AND SWAP1 DUP4 PUSH1 0x5 DUP2 GT ISZERO PUSH2 0xA92 JUMPI PUSH2 0xA91 PUSH2 0x3CBB JUMP JUMPDEST JUMPDEST MUL OR SWAP1 SSTORE POP DUP2 PUSH1 0x6 DUP5 DUP2 SLOAD DUP2 LT PUSH2 0xAAC JUMPI PUSH2 0xAAB PUSH2 0x4834 JUMP JUMPDEST JUMPDEST SWAP1 PUSH1 0x0 MSTORE PUSH1 0x20 PUSH1 0x0 KECCAK256 SWAP1 PUSH1 0xD MUL ADD PUSH1 0xC ADD SWAP1 DUP2 PUSH2 0xAC9 SWAP2 SWAP1 PUSH2 0x4BB3 JUMP JUMPDEST POP PUSH32 0xCED42070BE441B0C0E37A7030B1979B9D9116F4A19677CEDC618153A8AAB1A7D DUP4 TIMESTAMP PUSH1 0x40 MLOAD PUSH2 0xAFB SWAP3 SWAP2 SWAP1 PUSH2 0x4FEA JUMP JUMPDEST PUSH1 0x40 MLOAD DUP1 SWAP2 SUB SWAP1 LOG1 PUSH1 0x1 SWAP1 POP SWAP3 SWAP2 POP POP JUMP JUMPDEST PUSH1 0x6 DUP2 DUP2 SLOAD DUP2 LT PUSH2 0xB1D JUMPI PUSH1 0x0 DUP1 REVERT JUMPDEST SWAP1 PUSH1 0x0 MSTORE PUSH1 0x20 PUSH1 0x0 KECCAK256 SWAP1 PUSH1 0xD MUL ADD PUSH1 0x0 SWAP2 POP SWAP1 POP DUP1 PUSH1 0x0 ADD SLOAD SWAP1 DUP1 PUSH1 0x1 ADD PUSH1 0x0 SWAP1 SLOAD SWAP1 PUSH2 0x100 EXP SWAP1 DIV PUSH20 0xFFFFFFFFFFFFFFFFFFFFFFFFFFFFFFFFFFFFFFFF AND SWAP1 DUP1 PUSH1 0x2 ADD DUP1 SLOAD PUSH2 0xB6C SWAP1 PUSH2 0x49D6 JUMP JUMPDEST DUP1 PUSH1 0x1F ADD PUSH1 0x20 DUP1 SWAP2 DIV MUL PUSH1 0x20 ADD PUSH1 0x40 MLOAD SWAP1 DUP2 ADD PUSH1 0x40 MSTORE DUP1 SWAP3 SWAP2 SWAP1 DUP2 DUP2 MSTORE PUSH1 0x20 ADD DUP3 DUP1 SLOAD PUSH2 0xB98 SWAP1 PUSH2 0x49D6 JUMP JUMPDEST DUP1 ISZERO PUSH2 0xBE5 JUMPI DUP1 PUSH1 0x1F LT PUSH2 0xBBA JUMPI PUSH2 0x100 DUP1 DUP4 SLOAD DIV MUL DUP4 MSTORE SWAP2 PUSH1 0x20 ADD SWAP2 PUSH2 0xBE5 JUMP JUMPDEST DUP3 ADD SWAP2 SWAP1 PUSH1 0x0 MSTORE PUSH1 0x20 PUSH1 0x0 KECCAK256 SWAP1 JUMPDEST DUP2 SLOAD DUP2 MSTORE SWAP1 PUSH1 0x1 ADD SWAP1 PUSH1 0x20 ADD DUP1 DUP4 GT PUSH2 0xBC8 JUMPI DUP3 SWAP1 SUB PUSH1 0x1F AND DUP3 ADD SWAP2 JUMPDEST POP POP POP POP POP SWAP1 DUP1 PUSH1 0x3 ADD DUP1 SLOAD PUSH2 0xBFA SWAP1 PUSH2 0x49D6 JUMP JUMPDEST DUP1 PUSH1 0x1F ADD PUSH1 0x20 DUP1 SWAP2 DIV MUL PUSH1 0x20 ADD PUSH1 0x40 MLOAD SWAP1 DUP2 ADD PUSH1 0x40 MSTORE DUP1 SWAP3 SWAP2 SWAP1 DUP2 DUP2 MSTORE PUSH1 0x20 ADD DUP3 DUP1 SLOAD PUSH2 0xC26 SWAP1 PUSH2 0x49D6 JUMP JUMPDEST DUP1 ISZERO PUSH2 0xC73 JUMPI DUP1 PUSH1 0x1F LT PUSH2 0xC48 JUMPI PUSH2 0x100 DUP1 DUP4 SLOAD DIV MUL DUP4 MSTORE SWAP2 PUSH1 0x20 ADD SWAP2 PUSH2 0xC73 JUMP JUMPDEST DUP3 ADD SWAP2 SWAP1 PUSH1 0x0 MSTORE PUSH1 0x20 PUSH1 0x0 KECCAK256 SWAP1 JUMPDEST DUP2 SLOAD DUP2 MSTORE SWAP1 PUSH1 0x1 ADD SWAP1 PUSH1 0x20 ADD DUP1 DUP4 GT PUSH2 0xC56 JUMPI DUP3 SWAP1 SUB PUSH1 0x1F AND DUP3 ADD SWAP2 JUMPDEST POP POP POP POP POP SWAP1 DUP1 PUSH1 0x5 ADD SLOAD SWAP1 DUP1 PUSH1 0x6 ADD SLOAD SWAP1 DUP1 PUSH1 0x7 ADD SLOAD SWAP1 DUP1 PUSH1 0x8 ADD SLOAD SWAP1 DUP1 PUSH1 0x9 ADD SLOAD SWAP1 DUP1 PUSH1 0xA ADD SLOAD SWAP1 DUP1 PUSH1 0xB ADD PUSH1 0x0 SWAP1 SLOAD SWAP1 PUSH2 0x100 EXP SWAP1 DIV PUSH1 0xFF AND SWAP1 DUP1 PUSH1 0xC ADD DUP1 SLOAD PUSH2 0xCBF SWAP1 PUSH2 0x49D6 JUMP JUMPDEST DUP1 PUSH1 0x1F ADD PUSH1 0x20 DUP1 SWAP2 DIV MUL PUSH1 0x20 ADD PUSH1 0x40 MLOAD SWAP1 DUP2 ADD PUSH1 0x40 MSTORE DUP1 SWAP3 SWAP2 SWAP1 DUP2 DUP2 MSTORE PUSH1 0x20 ADD DUP3 DUP1 SLOAD PUSH2 0xCEB SWAP1 PUSH2 0x49D6 JUMP JUMPDEST DUP1 ISZERO PUSH2 0xD38 JUMPI DUP1 PUSH1 0x1F LT PUSH2 0xD0D JUMPI PUSH2 0x100 DUP1 DUP4 SLOAD DIV MUL DUP4 MSTORE SWAP2 PUSH1 0x20 ADD SWAP2 PUSH2 0xD38 JUMP JUMPDEST DUP3 ADD SWAP2 SWAP1 PUSH1 0x0 MSTORE PUSH1 0x20 PUSH1 0x0 KECCAK256 SWAP1 JUMPDEST DUP2 SLOAD DUP2 MSTORE SWAP1 PUSH1 0x1 ADD SWAP1 PUSH1 0x20 ADD DUP1 DUP4 GT PUSH2 0xD1B JUMPI DUP3 SWAP1 SUB PUSH1 0x1F AND DUP3 ADD SWAP2 JUMPDEST POP POP POP POP POP SWAP1 POP DUP13 JUMP JUMPDEST PUSH1 0x2 SLOAD DUP2 JUMP JUMPDEST PUSH1 0x0 DUP1 SLOAD SWAP1 PUSH2 0x100 EXP SWAP1 DIV PUSH20 0xFFFFFFFFFFFFFFFFFFFFFFFFFFFFFFFFFFFFFFFF AND PUSH20 0xFFFFFFFFFFFFFFFFFFFFFFFFFFFFFFFFFFFFFFFF AND CALLER PUSH20 0xFFFFFFFFFFFFFFFFFFFFFFFFFFFFFFFFFFFFFFFF AND EQ PUSH2 0xDD6 JUMPI PUSH1 0x40 MLOAD PUSH32 0x8C379A000000000000000000000000000000000000000000000000000000000 DUP2 MSTORE PUSH1 0x4 ADD PUSH2 0xDCD SWAP1 PUSH2 0x4EF2 JUMP JUMPDEST PUSH1 0x40 MLOAD DUP1 SWAP2 SUB SWAP1 REVERT JUMPDEST DUP1 PUSH1 0x1 DUP2 SWAP1 SSTORE POP POP JUMP JUMPDEST PUSH1 0x0 DUP1 PUSH1 0x5 DUP2 GT ISZERO PUSH2 0xDF5 JUMPI PUSH2 0xDF4 PUSH2 0x3CBB JUMP JUMPDEST JUMPDEST PUSH1 0x6 DUP5 DUP2 SLOAD DUP2 LT PUSH2 0xE09 JUMPI PUSH2 0xE08 PUSH2 0x4834 JUMP JUMPDEST JUMPDEST SWAP1 PUSH1 0x0 MSTORE PUSH1 0x20 PUSH1 0x0 KECCAK256 SWAP1 PUSH1 0xD MUL ADD PUSH1 0xB ADD PUSH1 0x0 SWAP1 SLOAD SWAP1 PUSH2 0x100 EXP SWAP1 DIV PUSH1 0xFF AND PUSH1 0x5 DUP2 GT ISZERO PUSH2 0xE3A JUMPI PUSH2 0xE39 PUSH2 0x3CBB JUMP JUMPDEST JUMPDEST EQ PUSH2 0xE7A JUMPI PUSH1 0x40 MLOAD PUSH32 0x8C379A000000000000000000000000000000000000000000000000000000000 DUP2 MSTORE PUSH1 0x4 ADD PUSH2 0xE71 SWAP1 PUSH2 0x505F JUMP JUMPDEST PUSH1 0x40 MLOAD DUP1 SWAP2 SUB SWAP1 REVERT JUMPDEST PUSH1 0x6 DUP4 DUP2 SLOAD DUP2 LT PUSH2 0xE8E JUMPI PUSH2 0xE8D PUSH2 0x4834 JUMP JUMPDEST JUMPDEST SWAP1 PUSH1 0x0 MSTORE PUSH1 0x20 PUSH1 0x0 KECCAK256 SWAP1 PUSH1 0xD MUL ADD PUSH1 0x1 ADD PUSH1 0x0 SWAP1 SLOAD SWAP1 PUSH2 0x100 EXP SWAP1 DIV PUSH20 0xFFFFFFFFFFFFFFFFFFFFFFFFFFFFFFFFFFFFFFFF AND PUSH20 0xFFFFFFFFFFFFFFFFFFFFFFFFFFFFFFFFFFFFFFFF AND CALLER PUSH20 0xFFFFFFFFFFFFFFFFFFFFFFFFFFFFFFFFFFFFFFFF AND EQ PUSH2 0xF2D JUMPI PUSH1 0x40 MLOAD PUSH32 0x8C379A000000000000000000000000000000000000000000000000000000000 DUP2 MSTORE PUSH1 0x4 ADD PUSH2 0xF24 SWAP1 PUSH2 0x48AF JUMP JUMPDEST PUSH1 0x40 MLOAD DUP1 SWAP2 SUB SWAP1 REVERT JUMPDEST PUSH1 0x3 PUSH1 0x6 DUP5 DUP2 SLOAD DUP2 LT PUSH2 0xF43 JUMPI PUSH2 0xF42 PUSH2 0x4834 JUMP JUMPDEST JUMPDEST SWAP1 PUSH1 0x0 MSTORE PUSH1 0x20 PUSH1 0x0 KECCAK256 SWAP1 PUSH1 0xD MUL ADD PUSH1 0xB ADD PUSH1 0x0 PUSH2 0x100 EXP DUP2 SLOAD DUP2 PUSH1 0xFF MUL NOT AND SWAP1 DUP4 PUSH1 0x5 DUP2 GT ISZERO PUSH2 0xF76 JUMPI PUSH2 0xF75 PUSH2 0x3CBB JUMP JUMPDEST JUMPDEST MUL OR SWAP1 SSTORE POP DUP2 PUSH1 0x6 DUP5 DUP2 SLOAD DUP2 LT PUSH2 0xF90 JUMPI PUSH2 0xF8F PUSH2 0x4834 JUMP JUMPDEST JUMPDEST SWAP1 PUSH1 0x0 MSTORE PUSH1 0x20 PUSH1 0x0 KECCAK256 SWAP1 PUSH1 0xD MUL ADD PUSH1 0xC ADD SWAP1 DUP2 PUSH2 0xFAD SWAP2 SWAP1 PUSH2 0x4BB3 JUMP JUMPDEST POP PUSH2 0xFB7 DUP4 PUSH2 0x3287 JUMP JUMPDEST PUSH32 0x4484A435BC92A4925B8B18F20BAF06D71675934C29CC91D21550D29939098ED0 DUP4 TIMESTAMP PUSH1 0x40 MLOAD PUSH2 0xFE8 SWAP3 SWAP2 SWAP1 PUSH2 0x4FEA JUMP JUMPDEST PUSH1 0x40 MLOAD DUP1 SWAP2 SUB SWAP1 LOG1 PUSH1 0x1 SWAP1 POP SWAP3 SWAP2 POP POP JUMP JUMPDEST PUSH1 0x60 PUSH1 0x7 DUP1 SLOAD DUP1 PUSH1 0x20 MUL PUSH1 0x20 ADD PUSH1 0x40 MLOAD SWAP1 DUP2 ADD PUSH1 0x40 MSTORE DUP1 SWAP3 SWAP2 SWAP1 DUP2 DUP2 MSTORE PUSH1 0x20 ADD PUSH1 0x0 SWAP1 JUMPDEST DUP3 DUP3 LT ISZERO PUSH2 0x10EC JUMPI DUP4 DUP3 SWAP1 PUSH1 0x0 MSTORE PUSH1 0x20 PUSH1 0x0 KECCAK256 SWAP1 PUSH1 0x2 MUL ADD PUSH1 0x40 MLOAD DUP1 PUSH1 0x40 ADD PUSH1 0x40 MSTORE SWAP1 DUP2 PUSH1 0x0 DUP3 ADD SLOAD DUP2 MSTORE PUSH1 0x20 ADD PUSH1 0x1 DUP3 ADD DUP1 SLOAD PUSH2 0x105B SWAP1 PUSH2 0x49D6 JUMP JUMPDEST DUP1 PUSH1 0x1F ADD PUSH1 0x20 DUP1 SWAP2 DIV MUL PUSH1 0x20 ADD PUSH1 0x40 MLOAD SWAP1 DUP2 ADD PUSH1 0x40 MSTORE DUP1 SWAP3 SWAP2 SWAP1 DUP2 DUP2 MSTORE PUSH1 0x20 ADD DUP3 DUP1 SLOAD PUSH2 0x1087 SWAP1 PUSH2 0x49D6 JUMP JUMPDEST DUP1 ISZERO PUSH2 0x10D4 JUMPI DUP1 PUSH1 0x1F LT PUSH2 0x10A9 JUMPI PUSH2 0x100 DUP1 DUP4 SLOAD DIV MUL DUP4 MSTORE SWAP2 PUSH1 0x20 ADD SWAP2 PUSH2 0x10D4 JUMP JUMPDEST DUP3 ADD SWAP2 SWAP1 PUSH1 0x0 MSTORE PUSH1 0x20 PUSH1 0x0 KECCAK256 SWAP1 JUMPDEST DUP2 SLOAD DUP2 MSTORE SWAP1 PUSH1 0x1 ADD SWAP1 PUSH1 0x20 ADD DUP1 DUP4 GT PUSH2 0x10B7 JUMPI DUP3 SWAP1 SUB PUSH1 0x1F AND DUP3 ADD SWAP2 JUMPDEST POP POP POP POP POP DUP2 MSTORE POP POP DUP2 MSTORE PUSH1 0x20 ADD SWAP1 PUSH1 0x1 ADD SWAP1 PUSH2 0x101E JUMP JUMPDEST POP POP POP POP SWAP1 POP SWAP1 JUMP JUMPDEST PUSH1 0xA PUSH1 0x20 MSTORE DUP1 PUSH1 0x0 MSTORE PUSH1 0x40 PUSH1 0x0 KECCAK256 PUSH1 0x0 SWAP2 POP SLOAD SWAP1 PUSH2 0x100 EXP SWAP1 DIV PUSH1 0xFF AND DUP2 JUMP JUMPDEST PUSH1 0x0 DUP1 DUP8 MLOAD GT PUSH2 0x115A JUMPI PUSH1 0x40 MLOAD PUSH32 0x8C379A000000000000000000000000000000000000000000000000000000000 DUP2 MSTORE PUSH1 0x4 ADD PUSH2 0x1151 SWAP1 PUSH2 0x50CB JUMP JUMPDEST PUSH1 0x40 MLOAD DUP1 SWAP2 SUB SWAP1 REVERT JUMPDEST PUSH1 0x0 DUP7 MLOAD GT PUSH2 0x119E JUMPI PUSH1 0x40 MLOAD PUSH32 0x8C379A000000000000000000000000000000000000000000000000000000000 DUP2 MSTORE PUSH1 0x4 ADD PUSH2 0x1195 SWAP1 PUSH2 0x491B JUMP JUMPDEST PUSH1 0x40 MLOAD DUP1 SWAP2 SUB SWAP1 REVERT JUMPDEST PUSH1 0x0 DUP6 MLOAD GT PUSH2 0x11E2 JUMPI PUSH1 0x40 MLOAD PUSH32 0x8C379A000000000000000000000000000000000000000000000000000000000 DUP2 MSTORE PUSH1 0x4 ADD PUSH2 0x11D9 SWAP1 PUSH2 0x4987 JUMP JUMPDEST PUSH1 0x40 MLOAD DUP1 SWAP2 SUB SWAP1 REVERT JUMPDEST PUSH1 0x0 DUP4 GT PUSH2 0x1225 JUMPI PUSH1 0x40 MLOAD PUSH32 0x8C379A000000000000000000000000000000000000000000000000000000000 DUP2 MSTORE PUSH1 0x4 ADD PUSH2 0x121C SWAP1 PUSH2 0x5137 JUMP JUMPDEST PUSH1 0x40 MLOAD DUP1 SWAP2 SUB SWAP1 REVERT JUMPDEST PUSH1 0x7 DUP1 SLOAD SWAP1 POP DUP5 LT PUSH2 0x126C JUMPI PUSH1 0x40 MLOAD PUSH32 0x8C379A000000000000000000000000000000000000000000000000000000000 DUP2 MSTORE PUSH1 0x4 ADD PUSH2 0x1263 SWAP1 PUSH2 0x51A3 JUMP JUMPDEST PUSH1 0x40 MLOAD DUP1 SWAP2 SUB SWAP1 REVERT JUMPDEST PUSH2 0x1274 PUSH2 0x36FA JUMP JUMPDEST PUSH1 0x2 SLOAD DUP2 PUSH1 0x0 ADD DUP2 DUP2 MSTORE POP POP CALLER DUP2 PUSH1 0x20 ADD SWAP1 PUSH20 0xFFFFFFFFFFFFFFFFFFFFFFFFFFFFFFFFFFFFFFFF AND SWAP1 DUP2 PUSH20 0xFFFFFFFFFFFFFFFFFFFFFFFFFFFFFFFFFFFFFFFF AND DUP2 MSTORE POP POP DUP8 DUP2 PUSH1 0x40 ADD DUP2 SWAP1 MSTORE POP DUP7 DUP2 PUSH1 0x60 ADD DUP2 SWAP1 MSTORE POP DUP6 DUP2 PUSH1 0x80 ADD DUP2 SWAP1 MSTORE POP DUP5 DUP2 PUSH2 0x140 ADD DUP2 DUP2 MSTORE POP POP DUP4 DUP2 PUSH1 0xA0 ADD DUP2 DUP2 MSTORE POP POP TIMESTAMP DUP2 PUSH1 0xE0 ADD DUP2 DUP2 MSTORE POP POP DUP3 DUP2 PUSH2 0x100 ADD DUP2 DUP2 MSTORE POP POP PUSH1 0x5 DUP2 PUSH2 0x160 ADD SWAP1 PUSH1 0x5 DUP2 GT ISZERO PUSH2 0x1317 JUMPI PUSH2 0x1316 PUSH2 0x3CBB JUMP JUMPDEST JUMPDEST SWAP1 DUP2 PUSH1 0x5 DUP2 GT ISZERO PUSH2 0x132B JUMPI PUSH2 0x132A PUSH2 0x3CBB JUMP JUMPDEST JUMPDEST DUP2 MSTORE POP POP PUSH1 0x6 DUP2 SWAP1 DUP1 PUSH1 0x1 DUP2 SLOAD ADD DUP1 DUP3 SSTORE DUP1 SWAP2 POP POP PUSH1 0x1 SWAP1 SUB SWAP1 PUSH1 0x0 MSTORE PUSH1 0x20 PUSH1 0x0 KECCAK256 SWAP1 PUSH1 0xD MUL ADD PUSH1 0x0 SWAP1 SWAP2 SWAP1 SWAP2 SWAP1 SWAP2 POP PUSH1 0x0 DUP3 ADD MLOAD DUP2 PUSH1 0x0 ADD SSTORE PUSH1 0x20 DUP3 ADD MLOAD DUP2 PUSH1 0x1 ADD PUSH1 0x0 PUSH2 0x100 EXP DUP2 SLOAD DUP2 PUSH20 0xFFFFFFFFFFFFFFFFFFFFFFFFFFFFFFFFFFFFFFFF MUL NOT AND SWAP1 DUP4 PUSH20 0xFFFFFFFFFFFFFFFFFFFFFFFFFFFFFFFFFFFFFFFF AND MUL OR SWAP1 SSTORE POP PUSH1 0x40 DUP3 ADD MLOAD DUP2 PUSH1 0x2 ADD SWAP1 DUP2 PUSH2 0x13C1 SWAP2 SWAP1 PUSH2 0x4BB3 JUMP JUMPDEST POP PUSH1 0x60 DUP3 ADD MLOAD DUP2 PUSH1 0x3 ADD SWAP1 DUP2 PUSH2 0x13D7 SWAP2 SWAP1 PUSH2 0x4BB3 JUMP JUMPDEST POP PUSH1 0x80 DUP3 ADD MLOAD DUP2 PUSH1 0x4 ADD SWAP1 DUP1 MLOAD SWAP1 PUSH1 0x20 ADD SWAP1 PUSH2 0x13F4 SWAP3 SWAP2 SWAP1 PUSH2 0x36A1 JUMP JUMPDEST POP PUSH1 0xA0 DUP3 ADD MLOAD DUP2 PUSH1 0x5 ADD SSTORE PUSH1 0xC0 DUP3 ADD MLOAD DUP2 PUSH1 0x6 ADD SSTORE PUSH1 0xE0 DUP3 ADD MLOAD DUP2 PUSH1 0x7 ADD SSTORE PUSH2 0x100 DUP3 ADD MLOAD DUP2 PUSH1 0x8 ADD SSTORE PUSH2 0x120 DUP3 ADD MLOAD DUP2 PUSH1 0x9 ADD SSTORE PUSH2 0x140 DUP3 ADD MLOAD DUP2 PUSH1 0xA ADD SSTORE PUSH2 0x160 DUP3 ADD MLOAD DUP2 PUSH1 0xB ADD PUSH1 0x0 PUSH2 0x100 EXP DUP2 SLOAD DUP2 PUSH1 0xFF MUL NOT AND SWAP1 DUP4 PUSH1 0x5 DUP2 GT ISZERO PUSH2 0x1460 JUMPI PUSH2 0x145F PUSH2 0x3CBB JUMP JUMPDEST JUMPDEST MUL OR SWAP1 SSTORE POP PUSH2 0x180 DUP3 ADD MLOAD DUP2 PUSH1 0xC ADD SWAP1 DUP2 PUSH2 0x147B SWAP2 SWAP1 PUSH2 0x4BB3 JUMP JUMPDEST POP POP POP PUSH1 0x1 PUSH1 0xA PUSH1 0x0 PUSH1 0x2 SLOAD DUP2 MSTORE PUSH1 0x20 ADD SWAP1 DUP2 MSTORE PUSH1 0x20 ADD PUSH1 0x0 KECCAK256 PUSH1 0x0 PUSH2 0x100 EXP DUP2 SLOAD DUP2 PUSH1 0xFF MUL NOT AND SWAP1 DUP4 ISZERO ISZERO MUL OR SWAP1 SSTORE POP PUSH1 0x8 PUSH1 0x0 CALLER PUSH20 0xFFFFFFFFFFFFFFFFFFFFFFFFFFFFFFFFFFFFFFFF AND PUSH20 0xFFFFFFFFFFFFFFFFFFFFFFFFFFFFFFFFFFFFFFFF AND DUP2 MSTORE PUSH1 0x20 ADD SWAP1 DUP2 MSTORE PUSH1 0x20 ADD PUSH1 0x0 KECCAK256 DUP2 SWAP1 DUP1 PUSH1 0x1 DUP2 SLOAD ADD DUP1 DUP3 SSTORE DUP1 SWAP2 POP POP PUSH1 0x1 SWAP1 SUB SWAP1 PUSH1 0x0 MSTORE PUSH1 0x20 PUSH1 0x0 KECCAK256 SWAP1 PUSH1 0xD MUL ADD PUSH1 0x0 SWAP1 SWAP2 SWAP1 SWAP2 SWAP1 SWAP2 POP PUSH1 0x0 DUP3 ADD MLOAD DUP2 PUSH1 0x0 ADD SSTORE PUSH1 0x20 DUP3 ADD MLOAD DUP2 PUSH1 0x1 ADD PUSH1 0x0 PUSH2 0x100 EXP DUP2 SLOAD DUP2 PUSH20 0xFFFFFFFFFFFFFFFFFFFFFFFFFFFFFFFFFFFFFFFF MUL NOT AND SWAP1 DUP4 PUSH20 0xFFFFFFFFFFFFFFFFFFFFFFFFFFFFFFFFFFFFFFFF AND MUL OR SWAP1 SSTORE POP PUSH1 0x40 DUP3 ADD MLOAD DUP2 PUSH1 0x2 ADD SWAP1 DUP2 PUSH2 0x157B SWAP2 SWAP1 PUSH2 0x4BB3 JUMP JUMPDEST POP PUSH1 0x60 DUP3 ADD MLOAD DUP2 PUSH1 0x3 ADD SWAP1 DUP2 PUSH2 0x1591 SWAP2 SWAP1 PUSH2 0x4BB3 JUMP JUMPDEST POP PUSH1 0x80 DUP3 ADD MLOAD DUP2 PUSH1 0x4 ADD SWAP1 DUP1 MLOAD SWAP1 PUSH1 0x20 ADD SWAP1 PUSH2 0x15AE SWAP3 SWAP2 SWAP1 PUSH2 0x36A1 JUMP JUMPDEST POP PUSH1 0xA0 DUP3 ADD MLOAD DUP2 PUSH1 0x5 ADD SSTORE PUSH1 0xC0 DUP3 ADD MLOAD DUP2 PUSH1 0x6 ADD SSTORE PUSH1 0xE0 DUP3 ADD MLOAD DUP2 PUSH1 0x7 ADD SSTORE PUSH2 0x100 DUP3 ADD MLOAD DUP2 PUSH1 0x8 ADD SSTORE PUSH2 0x120 DUP3 ADD MLOAD DUP2 PUSH1 0x9 ADD SSTORE PUSH2 0x140 DUP3 ADD MLOAD DUP2 PUSH1 0xA ADD SSTORE PUSH2 0x160 DUP3 ADD MLOAD DUP2 PUSH1 0xB ADD PUSH1 0x0 PUSH2 0x100 EXP DUP2 SLOAD DUP2 PUSH1 0xFF MUL NOT AND SWAP1 DUP4 PUSH1 0x5 DUP2 GT ISZERO PUSH2 0x161A JUMPI PUSH2 0x1619 PUSH2 0x3CBB JUMP JUMPDEST JUMPDEST MUL OR SWAP1 SSTORE POP PUSH2 0x180 DUP3 ADD MLOAD DUP2 PUSH1 0xC ADD SWAP1 DUP2 PUSH2 0x1635 SWAP2 SWAP1 PUSH2 0x4BB3 JUMP JUMPDEST POP POP POP PUSH1 0x1 PUSH1 0x3 PUSH1 0x0 ADD PUSH1 0x0 DUP3 DUP3 SLOAD PUSH2 0x164E SWAP2 SWAP1 PUSH2 0x51F2 JUMP JUMPDEST SWAP3 POP POP DUP2 SWAP1 SSTORE POP PUSH32 0x8CF4E1D4B9410A561C059BF493552B7AADA9D719A2BA67EFB08B19793F43B450 DUP2 PUSH1 0x0 ADD MLOAD DUP3 PUSH1 0x20 ADD MLOAD DUP4 PUSH1 0x40 ADD MLOAD DUP5 PUSH1 0x60 ADD MLOAD DUP6 PUSH1 0x80 ADD MLOAD DUP7 PUSH2 0x140 ADD MLOAD DUP8 PUSH1 0xA0 ADD MLOAD DUP9 PUSH1 0xC0 ADD MLOAD DUP10 PUSH1 0xE0 ADD MLOAD DUP11 PUSH2 0x100 ADD MLOAD DUP12 PUSH2 0x120 ADD MLOAD DUP13 PUSH2 0x160 ADD MLOAD PUSH1 0x40 MLOAD PUSH2 0x16CE SWAP13 SWAP12 SWAP11 SWAP10 SWAP9 SWAP8 SWAP7 SWAP6 SWAP5 SWAP4 SWAP3 SWAP2 SWAP1 PUSH2 0x529B JUMP JUMPDEST PUSH1 0x40 MLOAD DUP1 SWAP2 SUB SWAP1 LOG1 PUSH1 0x2 PUSH1 0x0 DUP2 SLOAD DUP1 SWAP3 SWAP2 SWAP1 PUSH2 0x16E9 SWAP1 PUSH2 0x536A JUMP JUMPDEST SWAP2 SWAP1 POP SSTORE POP PUSH1 0x1 SWAP2 POP POP SWAP7 SWAP6 POP POP POP POP POP POP JUMP JUMPDEST PUSH1 0x0 DUP1 SLOAD SWAP1 PUSH2 0x100 EXP SWAP1 DIV PUSH20 0xFFFFFFFFFFFFFFFFFFFFFFFFFFFFFFFFFFFFFFFF AND DUP2 JUMP JUMPDEST PUSH1 0x8 PUSH1 0x20 MSTORE DUP2 PUSH1 0x0 MSTORE PUSH1 0x40 PUSH1 0x0 KECCAK256 DUP2 DUP2 SLOAD DUP2 LT PUSH2 0x173D JUMPI PUSH1 0x0 DUP1 REVERT JUMPDEST SWAP1 PUSH1 0x0 MSTORE PUSH1 0x20 PUSH1 0x0 KECCAK256 SWAP1 PUSH1 0xD MUL ADD PUSH1 0x0 SWAP2 POP SWAP2 POP POP DUP1 PUSH1 0x0 ADD SLOAD SWAP1 DUP1 PUSH1 0x1 ADD PUSH1 0x0 SWAP1 SLOAD SWAP1 PUSH2 0x100 EXP SWAP1 DIV PUSH20 0xFFFFFFFFFFFFFFFFFFFFFFFFFFFFFFFFFFFFFFFF AND SWAP1 DUP1 PUSH1 0x2 ADD DUP1 SLOAD PUSH2 0x178D SWAP1 PUSH2 0x49D6 JUMP JUMPDEST DUP1 PUSH1 0x1F ADD PUSH1 0x20 DUP1 SWAP2 DIV MUL PUSH1 0x20 ADD PUSH1 0x40 MLOAD SWAP1 DUP2 ADD PUSH1 0x40 MSTORE DUP1 SWAP3 SWAP2 SWAP1 DUP2 DUP2 MSTORE PUSH1 0x20 ADD DUP3 DUP1 SLOAD PUSH2 0x17B9 SWAP1 PUSH2 0x49D6 JUMP JUMPDEST DUP1 ISZERO PUSH2 0x1806 JUMPI DUP1 PUSH1 0x1F LT PUSH2 0x17DB JUMPI PUSH2 0x100 DUP1 DUP4 SLOAD DIV MUL DUP4 MSTORE SWAP2 PUSH1 0x20 ADD SWAP2 PUSH2 0x1806 JUMP JUMPDEST DUP3 ADD SWAP2 SWAP1 PUSH1 0x0 MSTORE PUSH1 0x20 PUSH1 0x0 KECCAK256 SWAP1 JUMPDEST DUP2 SLOAD DUP2 MSTORE SWAP1 PUSH1 0x1 ADD SWAP1 PUSH1 0x20 ADD DUP1 DUP4 GT PUSH2 0x17E9 JUMPI DUP3 SWAP1 SUB PUSH1 0x1F AND DUP3 ADD SWAP2 JUMPDEST POP POP POP POP POP SWAP1 DUP1 PUSH1 0x3 ADD DUP1 SLOAD PUSH2 0x181B SWAP1 PUSH2 0x49D6 JUMP JUMPDEST DUP1 PUSH1 0x1F ADD PUSH1 0x20 DUP1 SWAP2 DIV MUL PUSH1 0x20 ADD PUSH1 0x40 MLOAD SWAP1 DUP2 ADD PUSH1 0x40 MSTORE DUP1 SWAP3 SWAP2 SWAP1 DUP2 DUP2 MSTORE PUSH1 0x20 ADD DUP3 DUP1 SLOAD PUSH2 0x1847 SWAP1 PUSH2 0x49D6 JUMP JUMPDEST DUP1 ISZERO PUSH2 0x1894 JUMPI DUP1 PUSH1 0x1F LT PUSH2 0x1869 JUMPI PUSH2 0x100 DUP1 DUP4 SLOAD DIV MUL DUP4 MSTORE SWAP2 PUSH1 0x20 ADD SWAP2 PUSH2 0x1894 JUMP JUMPDEST DUP3 ADD SWAP2 SWAP1 PUSH1 0x0 MSTORE PUSH1 0x20 PUSH1 0x0 KECCAK256 SWAP1 JUMPDEST DUP2 SLOAD DUP2 MSTORE SWAP1 PUSH1 0x1 ADD SWAP1 PUSH1 0x20 ADD DUP1 DUP4 GT PUSH2 0x1877 JUMPI DUP3 SWAP1 SUB PUSH1 0x1F AND DUP3 ADD SWAP2 JUMPDEST POP POP POP POP POP SWAP1 DUP1 PUSH1 0x5 ADD SLOAD SWAP1 DUP1 PUSH1 0x6 ADD SLOAD SWAP1 DUP1 PUSH1 0x7 ADD SLOAD SWAP1 DUP1 PUSH1 0x8 ADD SLOAD SWAP1 DUP1 PUSH1 0x9 ADD SLOAD SWAP1 DUP1 PUSH1 0xA ADD SLOAD SWAP1 DUP1 PUSH1 0xB ADD PUSH1 0x0 SWAP1 SLOAD SWAP1 PUSH2 0x100 EXP SWAP1 DIV PUSH1 0xFF AND SWAP1 DUP1 PUSH1 0xC ADD DUP1 SLOAD PUSH2 0x18E0 SWAP1 PUSH2 0x49D6 JUMP JUMPDEST DUP1 PUSH1 0x1F ADD PUSH1 0x20 DUP1 SWAP2 DIV MUL PUSH1 0x20 ADD PUSH1 0x40 MLOAD SWAP1 DUP2 ADD PUSH1 0x40 MSTORE DUP1 SWAP3 SWAP2 SWAP1 DUP2 DUP2 MSTORE PUSH1 0x20 ADD DUP3 DUP1 SLOAD PUSH2 0x190C SWAP1 PUSH2 0x49D6 JUMP JUMPDEST DUP1 ISZERO PUSH2 0x1959 JUMPI DUP1 PUSH1 0x1F LT PUSH2 0x192E JUMPI PUSH2 0x100 DUP1 DUP4 SLOAD DIV MUL DUP4 MSTORE SWAP2 PUSH1 0x20 ADD SWAP2 PUSH2 0x1959 JUMP JUMPDEST DUP3 ADD SWAP2 SWAP1 PUSH1 0x0 MSTORE PUSH1 0x20 PUSH1 0x0 KECCAK256 SWAP1 JUMPDEST DUP2 SLOAD DUP2 MSTORE SWAP1 PUSH1 0x1 ADD SWAP1 PUSH1 0x20 ADD DUP1 DUP4 GT PUSH2 0x193C JUMPI DUP3 SWAP1 SUB PUSH1 0x1F AND DUP3 ADD SWAP2 JUMPDEST POP POP POP POP POP SWAP1 POP DUP13 JUMP JUMPDEST PUSH1 0x0 DUP1 CALLVALUE GT PUSH2 0x19A7 JUMPI PUSH1 0x40 MLOAD PUSH32 0x8C379A000000000000000000000000000000000000000000000000000000000 DUP2 MSTORE PUSH1 0x4 ADD PUSH2 0x199E SWAP1 PUSH2 0x53FE JUMP JUMPDEST PUSH1 0x40 MLOAD DUP1 SWAP2 SUB SWAP1 REVERT JUMPDEST PUSH1 0xA PUSH1 0x0 DUP5 DUP2 MSTORE PUSH1 0x20 ADD SWAP1 DUP2 MSTORE PUSH1 0x20 ADD PUSH1 0x0 KECCAK256 PUSH1 0x0 SWAP1 SLOAD SWAP1 PUSH2 0x100 EXP SWAP1 DIV PUSH1 0xFF AND PUSH2 0x1A07 JUMPI PUSH1 0x40 MLOAD PUSH32 0x8C379A000000000000000000000000000000000000000000000000000000000 DUP2 MSTORE PUSH1 0x4 ADD PUSH2 0x19FE SWAP1 PUSH2 0x4F5E JUMP JUMPDEST PUSH1 0x40 MLOAD DUP1 SWAP2 SUB SWAP1 REVERT JUMPDEST PUSH1 0x0 PUSH1 0x5 DUP2 GT ISZERO PUSH2 0x1A1B JUMPI PUSH2 0x1A1A PUSH2 0x3CBB JUMP JUMPDEST JUMPDEST PUSH1 0x6 DUP5 DUP2 SLOAD DUP2 LT PUSH2 0x1A2F JUMPI PUSH2 0x1A2E PUSH2 0x4834 JUMP JUMPDEST JUMPDEST SWAP1 PUSH1 0x0 MSTORE PUSH1 0x20 PUSH1 0x0 KECCAK256 SWAP1 PUSH1 0xD MUL ADD PUSH1 0xB ADD PUSH1 0x0 SWAP1 SLOAD SWAP1 PUSH2 0x100 EXP SWAP1 DIV PUSH1 0xFF AND PUSH1 0x5 DUP2 GT ISZERO PUSH2 0x1A60 JUMPI PUSH2 0x1A5F PUSH2 0x3CBB JUMP JUMPDEST JUMPDEST EQ PUSH2 0x1AA0 JUMPI PUSH1 0x40 MLOAD PUSH32 0x8C379A000000000000000000000000000000000000000000000000000000000 DUP2 MSTORE PUSH1 0x4 ADD PUSH2 0x1A97 SWAP1 PUSH2 0x505F JUMP JUMPDEST PUSH1 0x40 MLOAD DUP1 SWAP2 SUB SWAP1 REVERT JUMPDEST PUSH1 0x1 PUSH1 0x3 PUSH1 0x1 ADD PUSH1 0x0 DUP3 DUP3 SLOAD PUSH2 0x1AB6 SWAP2 SWAP1 PUSH2 0x51F2 JUMP JUMPDEST SWAP3 POP POP DUP2 SWAP1 SSTORE POP CALLVALUE PUSH1 0x3 PUSH1 0x2 ADD PUSH1 0x0 DUP3 DUP3 SLOAD PUSH2 0x1AD2 SWAP2 SWAP1 PUSH2 0x51F2 JUMP JUMPDEST SWAP3 POP POP DUP2 SWAP1 SSTORE POP CALLVALUE PUSH1 0x6 DUP5 DUP2 SLOAD DUP2 LT PUSH2 0x1AEE JUMPI PUSH2 0x1AED PUSH2 0x4834 JUMP JUMPDEST JUMPDEST SWAP1 PUSH1 0x0 MSTORE PUSH1 0x20 PUSH1 0x0 KECCAK256 SWAP1 PUSH1 0xD MUL ADD PUSH1 0x6 ADD PUSH1 0x0 DUP3 DUP3 SLOAD PUSH2 0x1B0E SWAP2 SWAP1 PUSH2 0x51F2 JUMP JUMPDEST SWAP3 POP POP DUP2 SWAP1 SSTORE POP PUSH1 0x1 PUSH1 0x6 DUP5 DUP2 SLOAD DUP2 LT PUSH2 0x1B2B JUMPI PUSH2 0x1B2A PUSH2 0x4834 JUMP JUMPDEST JUMPDEST SWAP1 PUSH1 0x0 MSTORE PUSH1 0x20 PUSH1 0x0 KECCAK256 SWAP1 PUSH1 0xD MUL ADD PUSH1 0x9 ADD PUSH1 0x0 DUP3 DUP3 SLOAD PUSH2 0x1B4B SWAP2 SWAP1 PUSH2 0x51F2 JUMP JUMPDEST SWAP3 POP POP DUP2 SWAP1 SSTORE POP PUSH1 0x9 PUSH1 0x0 DUP5 DUP2 MSTORE PUSH1 0x20 ADD SWAP1 DUP2 MSTORE PUSH1 0x20 ADD PUSH1 0x0 KECCAK256 PUSH1 0x40 MLOAD DUP1 PUSH1 0xA0 ADD PUSH1 0x40 MSTORE DUP1 CALLER PUSH20 0xFFFFFFFFFFFFFFFFFFFFFFFFFFFFFFFFFFFFFFFF AND DUP2 MSTORE PUSH1 0x20 ADD CALLVALUE DUP2 MSTORE PUSH1 0x20 ADD TIMESTAMP DUP2 MSTORE PUSH1 0x20 ADD DUP5 DUP2 MSTORE PUSH1 0x20 ADD PUSH1 0x0 ISZERO ISZERO DUP2 MSTORE POP SWAP1 DUP1 PUSH1 0x1 DUP2 SLOAD ADD DUP1 DUP3 SSTORE DUP1 SWAP2 POP POP PUSH1 0x1 SWAP1 SUB SWAP1 PUSH1 0x0 MSTORE PUSH1 0x20 PUSH1 0x0 KECCAK256 SWAP1 PUSH1 0x5 MUL ADD PUSH1 0x0 SWAP1 SWAP2 SWAP1 SWAP2 SWAP1 SWAP2 POP PUSH1 0x0 DUP3 ADD MLOAD DUP2 PUSH1 0x0 ADD PUSH1 0x0 PUSH2 0x100 EXP DUP2 SLOAD DUP2 PUSH20 0xFFFFFFFFFFFFFFFFFFFFFFFFFFFFFFFFFFFFFFFF MUL NOT AND SWAP1 DUP4 PUSH20 0xFFFFFFFFFFFFFFFFFFFFFFFFFFFFFFFFFFFFFFFF AND MUL OR SWAP1 SSTORE POP PUSH1 0x20 DUP3 ADD MLOAD DUP2 PUSH1 0x1 ADD SSTORE PUSH1 0x40 DUP3 ADD MLOAD DUP2 PUSH1 0x2 ADD SSTORE PUSH1 0x60 DUP3 ADD MLOAD DUP2 PUSH1 0x3 ADD SWAP1 DUP2 PUSH2 0x1C3E SWAP2 SWAP1 PUSH2 0x4BB3 JUMP JUMPDEST POP PUSH1 0x80 DUP3 ADD MLOAD DUP2 PUSH1 0x4 ADD PUSH1 0x0 PUSH2 0x100 EXP DUP2 SLOAD DUP2 PUSH1 0xFF MUL NOT AND SWAP1 DUP4 ISZERO ISZERO MUL OR SWAP1 SSTORE POP POP POP PUSH32 0x3FD3E7FC6BEF374395B140220FB25117BACEC01A74CF71EE35DFB0053DD9AC8C DUP4 CALLER CALLVALUE DUP6 TIMESTAMP PUSH1 0x40 MLOAD PUSH2 0x1C98 SWAP6 SWAP5 SWAP4 SWAP3 SWAP2 SWAP1 PUSH2 0x541E JUMP JUMPDEST PUSH1 0x40 MLOAD DUP1 SWAP2 SUB SWAP1 LOG1 PUSH1 0x6 DUP4 DUP2 SLOAD DUP2 LT PUSH2 0x1CB4 JUMPI PUSH2 0x1CB3 PUSH2 0x4834 JUMP JUMPDEST JUMPDEST SWAP1 PUSH1 0x0 MSTORE PUSH1 0x20 PUSH1 0x0 KECCAK256 SWAP1 PUSH1 0xD MUL ADD PUSH1 0x5 ADD SLOAD PUSH1 0x6 DUP5 DUP2 SLOAD DUP2 LT PUSH2 0x1CDA JUMPI PUSH2 0x1CD9 PUSH2 0x4834 JUMP JUMPDEST JUMPDEST SWAP1 PUSH1 0x0 MSTORE PUSH1 0x20 PUSH1 0x0 KECCAK256 SWAP1 PUSH1 0xD MUL ADD PUSH1 0x6 ADD SLOAD LT PUSH2 0x1D51 JUMPI PUSH1 0x1 PUSH1 0x6 DUP5 DUP2 SLOAD DUP2 LT PUSH2 0x1D07 JUMPI PUSH2 0x1D06 PUSH2 0x4834 JUMP JUMPDEST JUMPDEST SWAP1 PUSH1 0x0 MSTORE PUSH1 0x20 PUSH1 0x0 KECCAK256 SWAP1 PUSH1 0xD MUL ADD PUSH1 0xB ADD PUSH1 0x0 PUSH2 0x100 EXP DUP2 SLOAD DUP2 PUSH1 0xFF MUL NOT AND SWAP1 DUP4 PUSH1 0x5 DUP2 GT ISZERO PUSH2 0x1D3A JUMPI PUSH2 0x1D39 PUSH2 0x3CBB JUMP JUMPDEST JUMPDEST MUL OR SWAP1 SSTORE POP PUSH2 0x1D48 DUP4 PUSH2 0x341E JUMP JUMPDEST PUSH1 0x1 SWAP1 POP PUSH2 0x1DE2 JUMP JUMPDEST PUSH1 0x6 DUP4 DUP2 SLOAD DUP2 LT PUSH2 0x1D65 JUMPI PUSH2 0x1D64 PUSH2 0x4834 JUMP JUMPDEST JUMPDEST SWAP1 PUSH1 0x0 MSTORE PUSH1 0x20 PUSH1 0x0 KECCAK256 SWAP1 PUSH1 0xD MUL ADD PUSH1 0x8 ADD SLOAD TIMESTAMP LT PUSH2 0x1DDD JUMPI PUSH1 0x2 PUSH1 0x6 DUP5 DUP2 SLOAD DUP2 LT PUSH2 0x1D93 JUMPI PUSH2 0x1D92 PUSH2 0x4834 JUMP JUMPDEST JUMPDEST SWAP1 PUSH1 0x0 MSTORE PUSH1 0x20 PUSH1 0x0 KECCAK256 SWAP1 PUSH1 0xD MUL ADD PUSH1 0xB ADD PUSH1 0x0 PUSH2 0x100 EXP DUP2 SLOAD DUP2 PUSH1 0xFF MUL NOT AND SWAP1 DUP4 PUSH1 0x5 DUP2 GT ISZERO PUSH2 0x1DC6 JUMPI PUSH2 0x1DC5 PUSH2 0x3CBB JUMP JUMPDEST JUMPDEST MUL OR SWAP1 SSTORE POP PUSH2 0x1DD4 DUP4 PUSH2 0x3287 JUMP JUMPDEST PUSH1 0x1 SWAP1 POP PUSH2 0x1DE2 JUMP JUMPDEST PUSH1 0x1 SWAP1 POP JUMPDEST SWAP3 SWAP2 POP POP JUMP JUMPDEST PUSH1 0x0 PUSH1 0x2 PUSH1 0x5 DUP2 GT ISZERO PUSH2 0x1DFE JUMPI PUSH2 0x1DFD PUSH2 0x3CBB JUMP JUMPDEST JUMPDEST PUSH1 0x6 DUP4 DUP2 SLOAD DUP2 LT PUSH2 0x1E12 JUMPI PUSH2 0x1E11 PUSH2 0x4834 JUMP JUMPDEST JUMPDEST SWAP1 PUSH1 0x0 MSTORE PUSH1 0x20 PUSH1 0x0 KECCAK256 SWAP1 PUSH1 0xD MUL ADD PUSH1 0xB ADD PUSH1 0x0 SWAP1 SLOAD SWAP1 PUSH2 0x100 EXP SWAP1 DIV PUSH1 0xFF AND PUSH1 0x5 DUP2 GT ISZERO PUSH2 0x1E43 JUMPI PUSH2 0x1E42 PUSH2 0x3CBB JUMP JUMPDEST JUMPDEST EQ ISZERO DUP1 ISZERO PUSH2 0x1EA8 JUMPI POP PUSH1 0x3 PUSH1 0x5 DUP2 GT ISZERO PUSH2 0x1E60 JUMPI PUSH2 0x1E5F PUSH2 0x3CBB JUMP JUMPDEST JUMPDEST PUSH1 0x6 DUP4 DUP2 SLOAD DUP2 LT PUSH2 0x1E74 JUMPI PUSH2 0x1E73 PUSH2 0x4834 JUMP JUMPDEST JUMPDEST SWAP1 PUSH1 0x0 MSTORE PUSH1 0x20 PUSH1 0x0 KECCAK256 SWAP1 PUSH1 0xD MUL ADD PUSH1 0xB ADD PUSH1 0x0 SWAP1 SLOAD SWAP1 PUSH2 0x100 EXP SWAP1 DIV PUSH1 0xFF AND PUSH1 0x5 DUP2 GT ISZERO PUSH2 0x1EA5 JUMPI PUSH2 0x1EA4 PUSH2 0x3CBB JUMP JUMPDEST JUMPDEST EQ ISZERO JUMPDEST PUSH2 0x1EE7 JUMPI PUSH1 0x40 MLOAD PUSH32 0x8C379A000000000000000000000000000000000000000000000000000000000 DUP2 MSTORE PUSH1 0x4 ADD PUSH2 0x1EDE SWAP1 PUSH2 0x54EA JUMP JUMPDEST PUSH1 0x40 MLOAD DUP1 SWAP2 SUB SWAP1 REVERT JUMPDEST PUSH1 0x2 PUSH1 0x6 DUP4 DUP2 SLOAD DUP2 LT PUSH2 0x1EFD JUMPI PUSH2 0x1EFC PUSH2 0x4834 JUMP JUMPDEST JUMPDEST SWAP1 PUSH1 0x0 MSTORE PUSH1 0x20 PUSH1 0x0 KECCAK256 SWAP1 PUSH1 0xD MUL ADD PUSH1 0xB ADD PUSH1 0x0 PUSH2 0x100 EXP DUP2 SLOAD DUP2 PUSH1 0xFF MUL NOT AND SWAP1 DUP4 PUSH1 0x5 DUP2 GT ISZERO PUSH2 0x1F30 JUMPI PUSH2 0x1F2F PUSH2 0x3CBB JUMP JUMPDEST JUMPDEST MUL OR SWAP1 SSTORE POP PUSH2 0x1F3E DUP3 PUSH2 0x3287 JUMP JUMPDEST PUSH1 0x1 SWAP1 POP SWAP2 SWAP1 POP JUMP JUMPDEST PUSH1 0x0 PUSH1 0x1 PUSH1 0x5 DUP2 GT ISZERO PUSH2 0x1F5D JUMPI PUSH2 0x1F5C PUSH2 0x3CBB JUMP JUMPDEST JUMPDEST PUSH1 0x6 DUP4 DUP2 SLOAD DUP2 LT PUSH2 0x1F71 JUMPI PUSH2 0x1F70 PUSH2 0x4834 JUMP JUMPDEST JUMPDEST SWAP1 PUSH1 0x0 MSTORE PUSH1 0x20 PUSH1 0x0 KECCAK256 SWAP1 PUSH1 0xD MUL ADD PUSH1 0xB ADD PUSH1 0x0 SWAP1 SLOAD SWAP1 PUSH2 0x100 EXP SWAP1 DIV PUSH1 0xFF AND PUSH1 0x5 DUP2 GT ISZERO PUSH2 0x1FA2 JUMPI PUSH2 0x1FA1 PUSH2 0x3CBB JUMP JUMPDEST JUMPDEST EQ PUSH2 0x1FE2 JUMPI PUSH1 0x40 MLOAD PUSH32 0x8C379A000000000000000000000000000000000000000000000000000000000 DUP2 MSTORE PUSH1 0x4 ADD PUSH2 0x1FD9 SWAP1 PUSH2 0x5556 JUMP JUMPDEST PUSH1 0x40 MLOAD DUP1 SWAP2 SUB SWAP1 REVERT JUMPDEST PUSH1 0x6 DUP3 DUP2 SLOAD DUP2 LT PUSH2 0x1FF6 JUMPI PUSH2 0x1FF5 PUSH2 0x4834 JUMP JUMPDEST JUMPDEST SWAP1 PUSH1 0x0 MSTORE PUSH1 0x20 PUSH1 0x0 KECCAK256 SWAP1 PUSH1 0xD MUL ADD PUSH1 0x1 ADD PUSH1 0x0 SWAP1 SLOAD SWAP1 PUSH2 0x100 EXP SWAP1 DIV PUSH20 0xFFFFFFFFFFFFFFFFFFFFFFFFFFFFFFFFFFFFFFFF AND PUSH20 0xFFFFFFFFFFFFFFFFFFFFFFFFFFFFFFFFFFFFFFFF AND CALLER PUSH20 0xFFFFFFFFFFFFFFFFFFFFFFFFFFFFFFFFFFFFFFFF AND EQ DUP1 PUSH2 0x20AC JUMPI POP PUSH1 0x0 DUP1 SLOAD SWAP1 PUSH2 0x100 EXP SWAP1 DIV PUSH20 0xFFFFFFFFFFFFFFFFFFFFFFFFFFFFFFFFFFFFFFFF AND PUSH20 0xFFFFFFFFFFFFFFFFFFFFFFFFFFFFFFFFFFFFFFFF AND CALLER PUSH20 0xFFFFFFFFFFFFFFFFFFFFFFFFFFFFFFFFFFFFFFFF AND EQ JUMPDEST PUSH2 0x20EB JUMPI PUSH1 0x40 MLOAD PUSH32 0x8C379A000000000000000000000000000000000000000000000000000000000 DUP2 MSTORE PUSH1 0x4 ADD PUSH2 0x20E2 SWAP1 PUSH2 0x48AF JUMP JUMPDEST PUSH1 0x40 MLOAD DUP1 SWAP2 SUB SWAP1 REVERT JUMPDEST PUSH2 0x20F4 DUP3 PUSH2 0x341E JUMP JUMPDEST PUSH1 0x1 SWAP1 POP SWAP2 SWAP1 POP JUMP JUMPDEST PUSH2 0x2105 PUSH2 0x378A JUMP JUMPDEST PUSH1 0x3 PUSH1 0x40 MLOAD DUP1 PUSH1 0x60 ADD PUSH1 0x40 MSTORE SWAP1 DUP2 PUSH1 0x0 DUP3 ADD SLOAD DUP2 MSTORE PUSH1 0x20 ADD PUSH1 0x1 DUP3 ADD SLOAD DUP2 MSTORE PUSH1 0x20 ADD PUSH1 0x2 DUP3 ADD SLOAD DUP2 MSTORE POP POP SWAP1 POP SWAP1 JUMP JUMPDEST PUSH1 0x7 DUP2 DUP2 SLOAD DUP2 LT PUSH2 0x2145 JUMPI PUSH1 0x0 DUP1 REVERT JUMPDEST SWAP1 PUSH1 0x0 MSTORE PUSH1 0x20 PUSH1 0x0 KECCAK256 SWAP1 PUSH1 0x2 MUL ADD PUSH1 0x0 SWAP2 POP SWAP1 POP DUP1 PUSH1 0x0 ADD SLOAD SWAP1 DUP1 PUSH1 0x1 ADD DUP1 SLOAD PUSH2 0x216E SWAP1 PUSH2 0x49D6 JUMP JUMPDEST DUP1 PUSH1 0x1F ADD PUSH1 0x20 DUP1 SWAP2 DIV MUL PUSH1 0x20 ADD PUSH1 0x40 MLOAD SWAP1 DUP2 ADD PUSH1 0x40 MSTORE DUP1 SWAP3 SWAP2 SWAP1 DUP2 DUP2 MSTORE PUSH1 0x20 ADD DUP3 DUP1 SLOAD PUSH2 0x219A SWAP1 PUSH2 0x49D6 JUMP JUMPDEST DUP1 ISZERO PUSH2 0x21E7 JUMPI DUP1 PUSH1 0x1F LT PUSH2 0x21BC JUMPI PUSH2 0x100 DUP1 DUP4 SLOAD DIV MUL DUP4 MSTORE SWAP2 PUSH1 0x20 ADD SWAP2 PUSH2 0x21E7 JUMP JUMPDEST DUP3 ADD SWAP2 SWAP1 PUSH1 0x0 MSTORE PUSH1 0x20 PUSH1 0x0 KECCAK256 SWAP1 JUMPDEST DUP2 SLOAD DUP2 MSTORE SWAP1 PUSH1 0x1 ADD SWAP1 PUSH1 0x20 ADD DUP1 DUP4 GT PUSH2 0x21CA JUMPI DUP3 SWAP1 SUB PUSH1 0x1F AND DUP3 ADD SWAP2 JUMPDEST POP POP POP POP POP SWAP1 POP DUP3 JUMP JUMPDEST PUSH1 0x60 PUSH1 0x9 PUSH1 0x0 DUP4 DUP2 MSTORE PUSH1 0x20 ADD SWAP1 DUP2 MSTORE PUSH1 0x20 ADD PUSH1 0x0 KECCAK256 DUP1 SLOAD DUP1 PUSH1 0x20 MUL PUSH1 0x20 ADD PUSH1 0x40 MLOAD SWAP1 DUP2 ADD PUSH1 0x40 MSTORE DUP1 SWAP3 SWAP2 SWAP1 DUP2 DUP2 MSTORE PUSH1 0x20 ADD PUSH1 0x0 SWAP1 JUMPDEST DUP3 DUP3 LT ISZERO PUSH2 0x236F JUMPI DUP4 DUP3 SWAP1 PUSH1 0x0 MSTORE PUSH1 0x20 PUSH1 0x0 KECCAK256 SWAP1 PUSH1 0x5 MUL ADD PUSH1 0x40 MLOAD DUP1 PUSH1 0xA0 ADD PUSH1 0x40 MSTORE SWAP1 DUP2 PUSH1 0x0 DUP3 ADD PUSH1 0x0 SWAP1 SLOAD SWAP1 PUSH2 0x100 EXP SWAP1 DIV PUSH20 0xFFFFFFFFFFFFFFFFFFFFFFFFFFFFFFFFFFFFFFFF AND PUSH20 0xFFFFFFFFFFFFFFFFFFFFFFFFFFFFFFFFFFFFFFFF AND PUSH20 0xFFFFFFFFFFFFFFFFFFFFFFFFFFFFFFFFFFFFFFFF AND DUP2 MSTORE PUSH1 0x20 ADD PUSH1 0x1 DUP3 ADD SLOAD DUP2 MSTORE PUSH1 0x20 ADD PUSH1 0x2 DUP3 ADD SLOAD DUP2 MSTORE PUSH1 0x20 ADD PUSH1 0x3 DUP3 ADD DUP1 SLOAD PUSH2 0x22C3 SWAP1 PUSH2 0x49D6 JUMP JUMPDEST DUP1 PUSH1 0x1F ADD PUSH1 0x20 DUP1 SWAP2 DIV MUL PUSH1 0x20 ADD PUSH1 0x40 MLOAD SWAP1 DUP2 ADD PUSH1 0x40 MSTORE DUP1 SWAP3 SWAP2 SWAP1 DUP2 DUP2 MSTORE PUSH1 0x20 ADD DUP3 DUP1 SLOAD PUSH2 0x22EF SWAP1 PUSH2 0x49D6 JUMP JUMPDEST DUP1 ISZERO PUSH2 0x233C JUMPI DUP1 PUSH1 0x1F LT PUSH2 0x2311 JUMPI PUSH2 0x100 DUP1 DUP4 SLOAD DIV MUL DUP4 MSTORE SWAP2 PUSH1 0x20 ADD SWAP2 PUSH2 0x233C JUMP JUMPDEST DUP3 ADD SWAP2 SWAP1 PUSH1 0x0 MSTORE PUSH1 0x20 PUSH1 0x0 KECCAK256 SWAP1 JUMPDEST DUP2 SLOAD DUP2 MSTORE SWAP1 PUSH1 0x1 ADD SWAP1 PUSH1 0x20 ADD DUP1 DUP4 GT PUSH2 0x231F JUMPI DUP3 SWAP1 SUB PUSH1 0x1F AND DUP3 ADD SWAP2 JUMPDEST POP POP POP POP POP DUP2 MSTORE PUSH1 0x20 ADD PUSH1 0x4 DUP3 ADD PUSH1 0x0 SWAP1 SLOAD SWAP1 PUSH2 0x100 EXP SWAP1 DIV PUSH1 0xFF AND ISZERO ISZERO ISZERO ISZERO DUP2 MSTORE POP POP DUP2 MSTORE PUSH1 0x20 ADD SWAP1 PUSH1 0x1 ADD SWAP1 PUSH2 0x2226 JUMP JUMPDEST POP POP POP POP SWAP1 POP SWAP2 SWAP1 POP JUMP JUMPDEST PUSH1 0x1 SLOAD DUP2 JUMP JUMPDEST PUSH1 0x3 DUP1 PUSH1 0x0 ADD SLOAD SWAP1 DUP1 PUSH1 0x1 ADD SLOAD SWAP1 DUP1 PUSH1 0x2 ADD SLOAD SWAP1 POP DUP4 JUMP JUMPDEST PUSH1 0x60 PUSH1 0x6 DUP1 SLOAD DUP1 PUSH1 0x20 MUL PUSH1 0x20 ADD PUSH1 0x40 MLOAD SWAP1 DUP2 ADD PUSH1 0x40 MSTORE DUP1 SWAP3 SWAP2 SWAP1 DUP2 DUP2 MSTORE PUSH1 0x20 ADD PUSH1 0x0 SWAP1 JUMPDEST DUP3 DUP3 LT ISZERO PUSH2 0x2755 JUMPI DUP4 DUP3 SWAP1 PUSH1 0x0 MSTORE PUSH1 0x20 PUSH1 0x0 KECCAK256 SWAP1 PUSH1 0xD MUL ADD PUSH1 0x40 MLOAD DUP1 PUSH2 0x1A0 ADD PUSH1 0x40 MSTORE SWAP1 DUP2 PUSH1 0x0 DUP3 ADD SLOAD DUP2 MSTORE PUSH1 0x20 ADD PUSH1 0x1 DUP3 ADD PUSH1 0x0 SWAP1 SLOAD SWAP1 PUSH2 0x100 EXP SWAP1 DIV PUSH20 0xFFFFFFFFFFFFFFFFFFFFFFFFFFFFFFFFFFFFFFFF AND PUSH20 0xFFFFFFFFFFFFFFFFFFFFFFFFFFFFFFFFFFFFFFFF AND PUSH20 0xFFFFFFFFFFFFFFFFFFFFFFFFFFFFFFFFFFFFFFFF AND DUP2 MSTORE PUSH1 0x20 ADD PUSH1 0x2 DUP3 ADD DUP1 SLOAD PUSH2 0x2450 SWAP1 PUSH2 0x49D6 JUMP JUMPDEST DUP1 PUSH1 0x1F ADD PUSH1 0x20 DUP1 SWAP2 DIV MUL PUSH1 0x20 ADD PUSH1 0x40 MLOAD SWAP1 DUP2 ADD PUSH1 0x40 MSTORE DUP1 SWAP3 SWAP2 SWAP1 DUP2 DUP2 MSTORE PUSH1 0x20 ADD DUP3 DUP1 SLOAD PUSH2 0x247C SWAP1 PUSH2 0x49D6 JUMP JUMPDEST DUP1 ISZERO PUSH2 0x24C9 JUMPI DUP1 PUSH1 0x1F LT PUSH2 0x249E JUMPI PUSH2 0x100 DUP1 DUP4 SLOAD DIV MUL DUP4 MSTORE SWAP2 PUSH1 0x20 ADD SWAP2 PUSH2 0x24C9 JUMP JUMPDEST DUP3 ADD SWAP2 SWAP1 PUSH1 0x0 MSTORE PUSH1 0x20 PUSH1 0x0 KECCAK256 SWAP1 JUMPDEST DUP2 SLOAD DUP2 MSTORE SWAP1 PUSH1 0x1 ADD SWAP1 PUSH1 0x20 ADD DUP1 DUP4 GT PUSH2 0x24AC JUMPI DUP3 SWAP1 SUB PUSH1 0x1F AND DUP3 ADD SWAP2 JUMPDEST POP POP POP POP POP DUP2 MSTORE PUSH1 0x20 ADD PUSH1 0x3 DUP3 ADD DUP1 SLOAD PUSH2 0x24E2 SWAP1 PUSH2 0x49D6 JUMP JUMPDEST DUP1 PUSH1 0x1F ADD PUSH1 0x20 DUP1 SWAP2 DIV MUL PUSH1 0x20 ADD PUSH1 0x40 MLOAD SWAP1 DUP2 ADD PUSH1 0x40 MSTORE DUP1 SWAP3 SWAP2 SWAP1 DUP2 DUP2 MSTORE PUSH1 0x20 ADD DUP3 DUP1 SLOAD PUSH2 0x250E SWAP1 PUSH2 0x49D6 JUMP JUMPDEST DUP1 ISZERO PUSH2 0x255B JUMPI DUP1 PUSH1 0x1F LT PUSH2 0x2530 JUMPI PUSH2 0x100 DUP1 DUP4 SLOAD DIV MUL DUP4 MSTORE SWAP2 PUSH1 0x20 ADD SWAP2 PUSH2 0x255B JUMP JUMPDEST DUP3 ADD SWAP2 SWAP1 PUSH1 0x0 MSTORE PUSH1 0x20 PUSH1 0x0 KECCAK256 SWAP1 JUMPDEST DUP2 SLOAD DUP2 MSTORE SWAP1 PUSH1 0x1 ADD SWAP1 PUSH1 0x20 ADD DUP1 DUP4 GT PUSH2 0x253E JUMPI DUP3 SWAP1 SUB PUSH1 0x1F AND DUP3 ADD SWAP2 JUMPDEST POP POP POP POP POP DUP2 MSTORE PUSH1 0x20 ADD PUSH1 0x4 DUP3 ADD DUP1 SLOAD DUP1 PUSH1 0x20 MUL PUSH1 0x20 ADD PUSH1 0x40 MLOAD SWAP1 DUP2 ADD PUSH1 0x40 MSTORE DUP1 SWAP3 SWAP2 SWAP1 DUP2 DUP2 MSTORE PUSH1 0x20 ADD PUSH1 0x0 SWAP1 JUMPDEST DUP3 DUP3 LT ISZERO PUSH2 0x2635 JUMPI DUP4 DUP3 SWAP1 PUSH1 0x0 MSTORE PUSH1 0x20 PUSH1 0x0 KECCAK256 ADD DUP1 SLOAD PUSH2 0x25A8 SWAP1 PUSH2 0x49D6 JUMP JUMPDEST DUP1 PUSH1 0x1F ADD PUSH1 0x20 DUP1 SWAP2 DIV MUL PUSH1 0x20 ADD PUSH1 0x40 MLOAD SWAP1 DUP2 ADD PUSH1 0x40 MSTORE DUP1 SWAP3 SWAP2 SWAP1 DUP2 DUP2 MSTORE PUSH1 0x20 ADD DUP3 DUP1 SLOAD PUSH2 0x25D4 SWAP1 PUSH2 0x49D6 JUMP JUMPDEST DUP1 ISZERO PUSH2 0x2621 JUMPI DUP1 PUSH1 0x1F LT PUSH2 0x25F6 JUMPI PUSH2 0x100 DUP1 DUP4 SLOAD DIV MUL DUP4 MSTORE SWAP2 PUSH1 0x20 ADD SWAP2 PUSH2 0x2621 JUMP JUMPDEST DUP3 ADD SWAP2 SWAP1 PUSH1 0x0 MSTORE PUSH1 0x20 PUSH1 0x0 KECCAK256 SWAP1 JUMPDEST DUP2 SLOAD DUP2 MSTORE SWAP1 PUSH1 0x1 ADD SWAP1 PUSH1 0x20 ADD DUP1 DUP4 GT PUSH2 0x2604 JUMPI DUP3 SWAP1 SUB PUSH1 0x1F AND DUP3 ADD SWAP2 JUMPDEST POP POP POP POP POP DUP2 MSTORE PUSH1 0x20 ADD SWAP1 PUSH1 0x1 ADD SWAP1 PUSH2 0x2589 JUMP JUMPDEST POP POP POP POP DUP2 MSTORE PUSH1 0x20 ADD PUSH1 0x5 DUP3 ADD SLOAD DUP2 MSTORE PUSH1 0x20 ADD PUSH1 0x6 DUP3 ADD SLOAD DUP2 MSTORE PUSH1 0x20 ADD PUSH1 0x7 DUP3 ADD SLOAD DUP2 MSTORE PUSH1 0x20 ADD PUSH1 0x8 DUP3 ADD SLOAD DUP2 MSTORE PUSH1 0x20 ADD PUSH1 0x9 DUP3 ADD SLOAD DUP2 MSTORE PUSH1 0x20 ADD PUSH1 0xA DUP3 ADD SLOAD DUP2 MSTORE PUSH1 0x20 ADD PUSH1 0xB DUP3 ADD PUSH1 0x0 SWAP1 SLOAD SWAP1 PUSH2 0x100 EXP SWAP1 DIV PUSH1 0xFF AND PUSH1 0x5 DUP2 GT ISZERO PUSH2 0x269E JUMPI PUSH2 0x269D PUSH2 0x3CBB JUMP JUMPDEST JUMPDEST PUSH1 0x5 DUP2 GT ISZERO PUSH2 0x26B0 JUMPI PUSH2 0x26AF PUSH2 0x3CBB JUMP JUMPDEST JUMPDEST DUP2 MSTORE PUSH1 0x20 ADD PUSH1 0xC DUP3 ADD DUP1 SLOAD PUSH2 0x26C4 SWAP1 PUSH2 0x49D6 JUMP JUMPDEST DUP1 PUSH1 0x1F ADD PUSH1 0x20 DUP1 SWAP2 DIV MUL PUSH1 0x20 ADD PUSH1 0x40 MLOAD SWAP1 DUP2 ADD PUSH1 0x40 MSTORE DUP1 SWAP3 SWAP2 SWAP1 DUP2 DUP2 MSTORE PUSH1 0x20 ADD DUP3 DUP1 SLOAD PUSH2 0x26F0 SWAP1 PUSH2 0x49D6 JUMP JUMPDEST DUP1 ISZERO PUSH2 0x273D JUMPI DUP1 PUSH1 0x1F LT PUSH2 0x2712 JUMPI PUSH2 0x100 DUP1 DUP4 SLOAD DIV MUL DUP4 MSTORE SWAP2 PUSH1 0x20 ADD SWAP2 PUSH2 0x273D JUMP JUMPDEST DUP3 ADD SWAP2 SWAP1 PUSH1 0x0 MSTORE PUSH1 0x20 PUSH1 0x0 KECCAK256 SWAP1 JUMPDEST DUP2 SLOAD DUP2 MSTORE SWAP1 PUSH1 0x1 ADD SWAP1 PUSH1 0x20 ADD DUP1 DUP4 GT PUSH2 0x2720 JUMPI DUP3 SWAP1 SUB PUSH1 0x1F AND DUP3 ADD SWAP2 JUMPDEST POP POP POP POP POP DUP2 MSTORE POP POP DUP2 MSTORE PUSH1 0x20 ADD SWAP1 PUSH1 0x1 ADD SWAP1 PUSH2 0x23BC JUMP JUMPDEST POP POP POP POP SWAP1 POP SWAP1 JUMP JUMPDEST PUSH1 0x60 PUSH1 0x8 PUSH1 0x0 DUP4 PUSH20 0xFFFFFFFFFFFFFFFFFFFFFFFFFFFFFFFFFFFFFFFF AND PUSH20 0xFFFFFFFFFFFFFFFFFFFFFFFFFFFFFFFFFFFFFFFF AND DUP2 MSTORE PUSH1 0x20 ADD SWAP1 DUP2 MSTORE PUSH1 0x20 ADD PUSH1 0x0 KECCAK256 DUP1 SLOAD DUP1 PUSH1 0x20 MUL PUSH1 0x20 ADD PUSH1 0x40 MLOAD SWAP1 DUP2 ADD PUSH1 0x40 MSTORE DUP1 SWAP3 SWAP2 SWAP1 DUP2 DUP2 MSTORE PUSH1 0x20 ADD PUSH1 0x0 SWAP1 JUMPDEST DUP3 DUP3 LT ISZERO PUSH2 0x2B58 JUMPI DUP4 DUP3 SWAP1 PUSH1 0x0 MSTORE PUSH1 0x20 PUSH1 0x0 KECCAK256 SWAP1 PUSH1 0xD MUL ADD PUSH1 0x40 MLOAD DUP1 PUSH2 0x1A0 ADD PUSH1 0x40 MSTORE SWAP1 DUP2 PUSH1 0x0 DUP3 ADD SLOAD DUP2 MSTORE PUSH1 0x20 ADD PUSH1 0x1 DUP3 ADD PUSH1 0x0 SWAP1 SLOAD SWAP1 PUSH2 0x100 EXP SWAP1 DIV PUSH20 0xFFFFFFFFFFFFFFFFFFFFFFFFFFFFFFFFFFFFFFFF AND PUSH20 0xFFFFFFFFFFFFFFFFFFFFFFFFFFFFFFFFFFFFFFFF AND PUSH20 0xFFFFFFFFFFFFFFFFFFFFFFFFFFFFFFFFFFFFFFFF AND DUP2 MSTORE PUSH1 0x20 ADD PUSH1 0x2 DUP3 ADD DUP1 SLOAD PUSH2 0x2853 SWAP1 PUSH2 0x49D6 JUMP JUMPDEST DUP1 PUSH1 0x1F ADD PUSH1 0x20 DUP1 SWAP2 DIV MUL PUSH1 0x20 ADD PUSH1 0x40 MLOAD SWAP1 DUP2 ADD PUSH1 0x40 MSTORE DUP1 SWAP3 SWAP2 SWAP1 DUP2 DUP2 MSTORE PUSH1 0x20 ADD DUP3 DUP1 SLOAD PUSH2 0x287F SWAP1 PUSH2 0x49D6 JUMP JUMPDEST DUP1 ISZERO PUSH2 0x28CC JUMPI DUP1 PUSH1 0x1F LT PUSH2 0x28A1 JUMPI PUSH2 0x100 DUP1 DUP4 SLOAD DIV MUL DUP4 MSTORE SWAP2 PUSH1 0x20 ADD SWAP2 PUSH2 0x28CC JUMP JUMPDEST DUP3 ADD SWAP2 SWAP1 PUSH1 0x0 MSTORE PUSH1 0x20 PUSH1 0x0 KECCAK256 SWAP1 JUMPDEST DUP2 SLOAD DUP2 MSTORE SWAP1 PUSH1 0x1 ADD SWAP1 PUSH1 0x20 ADD DUP1 DUP4 GT PUSH2 0x28AF JUMPI DUP3 SWAP1 SUB PUSH1 0x1F AND DUP3 ADD SWAP2 JUMPDEST POP POP POP POP POP DUP2 MSTORE PUSH1 0x20 ADD PUSH1 0x3 DUP3 ADD DUP1 SLOAD PUSH2 0x28E5 SWAP1 PUSH2 0x49D6 JUMP JUMPDEST DUP1 PUSH1 0x1F ADD PUSH1 0x20 DUP1 SWAP2 DIV MUL PUSH1 0x20 ADD PUSH1 0x40 MLOAD SWAP1 DUP2 ADD PUSH1 0x40 MSTORE DUP1 SWAP3 SWAP2 SWAP1 DUP2 DUP2 MSTORE PUSH1 0x20 ADD DUP3 DUP1 SLOAD PUSH2 0x2911 SWAP1 PUSH2 0x49D6 JUMP JUMPDEST DUP1 ISZERO PUSH2 0x295E JUMPI DUP1 PUSH1 0x1F LT PUSH2 0x2933 JUMPI PUSH2 0x100 DUP1 DUP4 SLOAD DIV MUL DUP4 MSTORE SWAP2 PUSH1 0x20 ADD SWAP2 PUSH2 0x295E JUMP JUMPDEST DUP3 ADD SWAP2 SWAP1 PUSH1 0x0 MSTORE PUSH1 0x20 PUSH1 0x0 KECCAK256 SWAP1 JUMPDEST DUP2 SLOAD DUP2 MSTORE SWAP1 PUSH1 0x1 ADD SWAP1 PUSH1 0x20 ADD DUP1 DUP4 GT PUSH2 0x2941 JUMPI DUP3 SWAP1 SUB PUSH1 0x1F AND DUP3 ADD SWAP2 JUMPDEST POP POP POP POP POP DUP2 MSTORE PUSH1 0x20 ADD PUSH1 0x4 DUP3 ADD DUP1 SLOAD DUP1 PUSH1 0x20 MUL PUSH1 0x20 ADD PUSH1 0x40 MLOAD SWAP1 DUP2 ADD PUSH1 0x40 MSTORE DUP1 SWAP3 SWAP2 SWAP1 DUP2 DUP2 MSTORE PUSH1 0x20 ADD PUSH1 0x0 SWAP1 JUMPDEST DUP3 DUP3 LT ISZERO PUSH2 0x2A38 JUMPI DUP4 DUP3 SWAP1 PUSH1 0x0 MSTORE PUSH1 0x20 PUSH1 0x0 KECCAK256 ADD DUP1 SLOAD PUSH2 0x29AB SWAP1 PUSH2 0x49D6 JUMP JUMPDEST DUP1 PUSH1 0x1F ADD PUSH1 0x20 DUP1 SWAP2 DIV MUL PUSH1 0x20 ADD PUSH1 0x40 MLOAD SWAP1 DUP2 ADD PUSH1 0x40 MSTORE DUP1 SWAP3 SWAP2 SWAP1 DUP2 DUP2 MSTORE PUSH1 0x20 ADD DUP3 DUP1 SLOAD PUSH2 0x29D7 SWAP1 PUSH2 0x49D6 JUMP JUMPDEST DUP1 ISZERO PUSH2 0x2A24 JUMPI DUP1 PUSH1 0x1F LT PUSH2 0x29F9 JUMPI PUSH2 0x100 DUP1 DUP4 SLOAD DIV MUL DUP4 MSTORE SWAP2 PUSH1 0x20 ADD SWAP2 PUSH2 0x2A24 JUMP JUMPDEST DUP3 ADD SWAP2 SWAP1 PUSH1 0x0 MSTORE PUSH1 0x20 PUSH1 0x0 KECCAK256 SWAP1 JUMPDEST DUP2 SLOAD DUP2 MSTORE SWAP1 PUSH1 0x1 ADD SWAP1 PUSH1 0x20 ADD DUP1 DUP4 GT PUSH2 0x2A07 JUMPI DUP3 SWAP1 SUB PUSH1 0x1F AND DUP3 ADD SWAP2 JUMPDEST POP POP POP POP POP DUP2 MSTORE PUSH1 0x20 ADD SWAP1 PUSH1 0x1 ADD SWAP1 PUSH2 0x298C JUMP JUMPDEST POP POP POP POP DUP2 MSTORE PUSH1 0x20 ADD PUSH1 0x5 DUP3 ADD SLOAD DUP2 MSTORE PUSH1 0x20 ADD PUSH1 0x6 DUP3 ADD SLOAD DUP2 MSTORE PUSH1 0x20 ADD PUSH1 0x7 DUP3 ADD SLOAD DUP2 MSTORE PUSH1 0x20 ADD PUSH1 0x8 DUP3 ADD SLOAD DUP2 MSTORE PUSH1 0x20 ADD PUSH1 0x9 DUP3 ADD SLOAD DUP2 MSTORE PUSH1 0x20 ADD PUSH1 0xA DUP3 ADD SLOAD DUP2 MSTORE PUSH1 0x20 ADD PUSH1 0xB DUP3 ADD PUSH1 0x0 SWAP1 SLOAD SWAP1 PUSH2 0x100 EXP SWAP1 DIV PUSH1 0xFF AND PUSH1 0x5 DUP2 GT ISZERO PUSH2 0x2AA1 JUMPI PUSH2 0x2AA0 PUSH2 0x3CBB JUMP JUMPDEST JUMPDEST PUSH1 0x5 DUP2 GT ISZERO PUSH2 0x2AB3 JUMPI PUSH2 0x2AB2 PUSH2 0x3CBB JUMP JUMPDEST JUMPDEST DUP2 MSTORE PUSH1 0x20 ADD PUSH1 0xC DUP3 ADD DUP1 SLOAD PUSH2 0x2AC7 SWAP1 PUSH2 0x49D6 JUMP JUMPDEST DUP1 PUSH1 0x1F ADD PUSH1 0x20 DUP1 SWAP2 DIV MUL PUSH1 0x20 ADD PUSH1 0x40 MLOAD SWAP1 DUP2 ADD PUSH1 0x40 MSTORE DUP1 SWAP3 SWAP2 SWAP1 DUP2 DUP2 MSTORE PUSH1 0x20 ADD DUP3 DUP1 SLOAD PUSH2 0x2AF3 SWAP1 PUSH2 0x49D6 JUMP JUMPDEST DUP1 ISZERO PUSH2 0x2B40 JUMPI DUP1 PUSH1 0x1F LT PUSH2 0x2B15 JUMPI PUSH2 0x100 DUP1 DUP4 SLOAD DIV MUL DUP4 MSTORE SWAP2 PUSH1 0x20 ADD SWAP2 PUSH2 0x2B40 JUMP JUMPDEST DUP3 ADD SWAP2 SWAP1 PUSH1 0x0 MSTORE PUSH1 0x20 PUSH1 0x0 KECCAK256 SWAP1 JUMPDEST DUP2 SLOAD DUP2 MSTORE SWAP1 PUSH1 0x1 ADD SWAP1 PUSH1 0x20 ADD DUP1 DUP4 GT PUSH2 0x2B23 JUMPI DUP3 SWAP1 SUB PUSH1 0x1F AND DUP3 ADD SWAP2 JUMPDEST POP POP POP POP POP DUP2 MSTORE POP POP DUP2 MSTORE PUSH1 0x20 ADD SWAP1 PUSH1 0x1 ADD SWAP1 PUSH2 0x27BF JUMP JUMPDEST POP POP POP POP SWAP1 POP SWAP2 SWAP1 POP JUMP JUMPDEST PUSH2 0x2B6B PUSH2 0x36FA JUMP JUMPDEST PUSH1 0xA PUSH1 0x0 DUP4 DUP2 MSTORE PUSH1 0x20 ADD SWAP1 DUP2 MSTORE PUSH1 0x20 ADD PUSH1 0x0 KECCAK256 PUSH1 0x0 SWAP1 SLOAD SWAP1 PUSH2 0x100 EXP SWAP1 DIV PUSH1 0xFF AND PUSH2 0x2BCB JUMPI PUSH1 0x40 MLOAD PUSH32 0x8C379A000000000000000000000000000000000000000000000000000000000 DUP2 MSTORE PUSH1 0x4 ADD PUSH2 0x2BC2 SWAP1 PUSH2 0x4F5E JUMP JUMPDEST PUSH1 0x40 MLOAD DUP1 SWAP2 SUB SWAP1 REVERT JUMPDEST PUSH1 0x6 DUP3 DUP2 SLOAD DUP2 LT PUSH2 0x2BDF JUMPI PUSH2 0x2BDE PUSH2 0x4834 JUMP JUMPDEST JUMPDEST SWAP1 PUSH1 0x0 MSTORE PUSH1 0x20 PUSH1 0x0 KECCAK256 SWAP1 PUSH1 0xD MUL ADD PUSH1 0x40 MLOAD DUP1 PUSH2 0x1A0 ADD PUSH1 0x40 MSTORE SWAP1 DUP2 PUSH1 0x0 DUP3 ADD SLOAD DUP2 MSTORE PUSH1 0x20 ADD PUSH1 0x1 DUP3 ADD PUSH1 0x0 SWAP1 SLOAD SWAP1 PUSH2 0x100 EXP SWAP1 DIV PUSH20 0xFFFFFFFFFFFFFFFFFFFFFFFFFFFFFFFFFFFFFFFF AND PUSH20 0xFFFFFFFFFFFFFFFFFFFFFFFFFFFFFFFFFFFFFFFF AND PUSH20 0xFFFFFFFFFFFFFFFFFFFFFFFFFFFFFFFFFFFFFFFF AND DUP2 MSTORE PUSH1 0x20 ADD PUSH1 0x2 DUP3 ADD DUP1 SLOAD PUSH2 0x2C69 SWAP1 PUSH2 0x49D6 JUMP JUMPDEST DUP1 PUSH1 0x1F ADD PUSH1 0x20 DUP1 SWAP2 DIV MUL PUSH1 0x20 ADD PUSH1 0x40 MLOAD SWAP1 DUP2 ADD PUSH1 0x40 MSTORE DUP1 SWAP3 SWAP2 SWAP1 DUP2 DUP2 MSTORE PUSH1 0x20 ADD DUP3 DUP1 SLOAD PUSH2 0x2C95 SWAP1 PUSH2 0x49D6 JUMP JUMPDEST DUP1 ISZERO PUSH2 0x2CE2 JUMPI DUP1 PUSH1 0x1F LT PUSH2 0x2CB7 JUMPI PUSH2 0x100 DUP1 DUP4 SLOAD DIV MUL DUP4 MSTORE SWAP2 PUSH1 0x20 ADD SWAP2 PUSH2 0x2CE2 JUMP JUMPDEST DUP3 ADD SWAP2 SWAP1 PUSH1 0x0 MSTORE PUSH1 0x20 PUSH1 0x0 KECCAK256 SWAP1 JUMPDEST DUP2 SLOAD DUP2 MSTORE SWAP1 PUSH1 0x1 ADD SWAP1 PUSH1 0x20 ADD DUP1 DUP4 GT PUSH2 0x2CC5 JUMPI DUP3 SWAP1 SUB PUSH1 0x1F AND DUP3 ADD SWAP2 JUMPDEST POP POP POP POP POP DUP2 MSTORE PUSH1 0x20 ADD PUSH1 0x3 DUP3 ADD DUP1 SLOAD PUSH2 0x2CFB SWAP1 PUSH2 0x49D6 JUMP JUMPDEST DUP1 PUSH1 0x1F ADD PUSH1 0x20 DUP1 SWAP2 DIV MUL PUSH1 0x20 ADD PUSH1 0x40 MLOAD SWAP1 DUP2 ADD PUSH1 0x40 MSTORE DUP1 SWAP3 SWAP2 SWAP1 DUP2 DUP2 MSTORE PUSH1 0x20 ADD DUP3 DUP1 SLOAD PUSH2 0x2D27 SWAP1 PUSH2 0x49D6 JUMP JUMPDEST DUP1 ISZERO PUSH2 0x2D74 JUMPI DUP1 PUSH1 0x1F LT PUSH2 0x2D49 JUMPI PUSH2 0x100 DUP1 DUP4 SLOAD DIV MUL DUP4 MSTORE SWAP2 PUSH1 0x20 ADD SWAP2 PUSH2 0x2D74 JUMP JUMPDEST DUP3 ADD SWAP2 SWAP1 PUSH1 0x0 MSTORE PUSH1 0x20 PUSH1 0x0 KECCAK256 SWAP1 JUMPDEST DUP2 SLOAD DUP2 MSTORE SWAP1 PUSH1 0x1 ADD SWAP1 PUSH1 0x20 ADD DUP1 DUP4 GT PUSH2 0x2D57 JUMPI DUP3 SWAP1 SUB PUSH1 0x1F AND DUP3 ADD SWAP2 JUMPDEST POP POP POP POP POP DUP2 MSTORE PUSH1 0x20 ADD PUSH1 0x4 DUP3 ADD DUP1 SLOAD DUP1 PUSH1 0x20 MUL PUSH1 0x20 ADD PUSH1 0x40 MLOAD SWAP1 DUP2 ADD PUSH1 0x40 MSTORE DUP1 SWAP3 SWAP2 SWAP1 DUP2 DUP2 MSTORE PUSH1 0x20 ADD PUSH1 0x0 SWAP1 JUMPDEST DUP3 DUP3 LT ISZERO PUSH2 0x2E4E JUMPI DUP4 DUP3 SWAP1 PUSH1 0x0 MSTORE PUSH1 0x20 PUSH1 0x0 KECCAK256 ADD DUP1 SLOAD PUSH2 0x2DC1 SWAP1 PUSH2 0x49D6 JUMP JUMPDEST DUP1 PUSH1 0x1F ADD PUSH1 0x20 DUP1 SWAP2 DIV MUL PUSH1 0x20 ADD PUSH1 0x40 MLOAD SWAP1 DUP2 ADD PUSH1 0x40 MSTORE DUP1 SWAP3 SWAP2 SWAP1 DUP2 DUP2 MSTORE PUSH1 0x20 ADD DUP3 DUP1 SLOAD PUSH2 0x2DED SWAP1 PUSH2 0x49D6 JUMP JUMPDEST DUP1 ISZERO PUSH2 0x2E3A JUMPI DUP1 PUSH1 0x1F LT PUSH2 0x2E0F JUMPI PUSH2 0x100 DUP1 DUP4 SLOAD DIV MUL DUP4 MSTORE SWAP2 PUSH1 0x20 ADD SWAP2 PUSH2 0x2E3A JUMP JUMPDEST DUP3 ADD SWAP2 SWAP1 PUSH1 0x0 MSTORE PUSH1 0x20 PUSH1 0x0 KECCAK256 SWAP1 JUMPDEST DUP2 SLOAD DUP2 MSTORE SWAP1 PUSH1 0x1 ADD SWAP1 PUSH1 0x20 ADD DUP1 DUP4 GT PUSH2 0x2E1D JUMPI DUP3 SWAP1 SUB PUSH1 0x1F AND DUP3 ADD SWAP2 JUMPDEST POP POP POP POP POP DUP2 MSTORE PUSH1 0x20 ADD SWAP1 PUSH1 0x1 ADD SWAP1 PUSH2 0x2DA2 JUMP JUMPDEST POP POP POP POP DUP2 MSTORE PUSH1 0x20 ADD PUSH1 0x5 DUP3 ADD SLOAD DUP2 MSTORE PUSH1 0x20 ADD PUSH1 0x6 DUP3 ADD SLOAD DUP2 MSTORE PUSH1 0x20 ADD PUSH1 0x7 DUP3 ADD SLOAD DUP2 MSTORE PUSH1 0x20 ADD PUSH1 0x8 DUP3 ADD SLOAD DUP2 MSTORE PUSH1 0x20 ADD PUSH1 0x9 DUP3 ADD SLOAD DUP2 MSTORE PUSH1 0x20 ADD PUSH1 0xA DUP3 ADD SLOAD DUP2 MSTORE PUSH1 0x20 ADD PUSH1 0xB DUP3 ADD PUSH1 0x0 SWAP1 SLOAD SWAP1 PUSH2 0x100 EXP SWAP1 DIV PUSH1 0xFF AND PUSH1 0x5 DUP2 GT ISZERO PUSH2 0x2EB7 JUMPI PUSH2 0x2EB6 PUSH2 0x3CBB JUMP JUMPDEST JUMPDEST PUSH1 0x5 DUP2 GT ISZERO PUSH2 0x2EC9 JUMPI PUSH2 0x2EC8 PUSH2 0x3CBB JUMP JUMPDEST JUMPDEST DUP2 MSTORE PUSH1 0x20 ADD PUSH1 0xC DUP3 ADD DUP1 SLOAD PUSH2 0x2EDD SWAP1 PUSH2 0x49D6 JUMP JUMPDEST DUP1 PUSH1 0x1F ADD PUSH1 0x20 DUP1 SWAP2 DIV MUL PUSH1 0x20 ADD PUSH1 0x40 MLOAD SWAP1 DUP2 ADD PUSH1 0x40 MSTORE DUP1 SWAP3 SWAP2 SWAP1 DUP2 DUP2 MSTORE PUSH1 0x20 ADD DUP3 DUP1 SLOAD PUSH2 0x2F09 SWAP1 PUSH2 0x49D6 JUMP JUMPDEST DUP1 ISZERO PUSH2 0x2F56 JUMPI DUP1 PUSH1 0x1F LT PUSH2 0x2F2B JUMPI PUSH2 0x100 DUP1 DUP4 SLOAD DIV MUL DUP4 MSTORE SWAP2 PUSH1 0x20 ADD SWAP2 PUSH2 0x2F56 JUMP JUMPDEST DUP3 ADD SWAP2 SWAP1 PUSH1 0x0 MSTORE PUSH1 0x20 PUSH1 0x0 KECCAK256 SWAP1 JUMPDEST DUP2 SLOAD DUP2 MSTORE SWAP1 PUSH1 0x1 ADD SWAP1 PUSH1 0x20 ADD DUP1 DUP4 GT PUSH2 0x2F39 JUMPI DUP3 SWAP1 SUB PUSH1 0x1F AND DUP3 ADD SWAP2 JUMPDEST POP POP POP POP POP DUP2 MSTORE POP POP SWAP1 POP SWAP2 SWAP1 POP JUMP JUMPDEST PUSH1 0x9 PUSH1 0x20 MSTORE DUP2 PUSH1 0x0 MSTORE PUSH1 0x40 PUSH1 0x0 KECCAK256 DUP2 DUP2 SLOAD DUP2 LT PUSH2 0x2F82 JUMPI PUSH1 0x0 DUP1 REVERT JUMPDEST SWAP1 PUSH1 0x0 MSTORE PUSH1 0x20 PUSH1 0x0 KECCAK256 SWAP1 PUSH1 0x5 MUL ADD PUSH1 0x0 SWAP2 POP SWAP2 POP POP DUP1 PUSH1 0x0 ADD PUSH1 0x0 SWAP1 SLOAD SWAP1 PUSH2 0x100 EXP SWAP1 DIV PUSH20 0xFFFFFFFFFFFFFFFFFFFFFFFFFFFFFFFFFFFFFFFF AND SWAP1 DUP1 PUSH1 0x1 ADD SLOAD SWAP1 DUP1 PUSH1 0x2 ADD SLOAD SWAP1 DUP1 PUSH1 0x3 ADD DUP1 SLOAD PUSH2 0x2FD8 SWAP1 PUSH2 0x49D6 JUMP JUMPDEST DUP1 PUSH1 0x1F ADD PUSH1 0x20 DUP1 SWAP2 DIV MUL PUSH1 0x20 ADD PUSH1 0x40 MLOAD SWAP1 DUP2 ADD PUSH1 0x40 MSTORE DUP1 SWAP3 SWAP2 SWAP1 DUP2 DUP2 MSTORE PUSH1 0x20 ADD DUP3 DUP1 SLOAD PUSH2 0x3004 SWAP1 PUSH2 0x49D6 JUMP JUMPDEST DUP1 ISZERO PUSH2 0x3051 JUMPI DUP1 PUSH1 0x1F LT PUSH2 0x3026 JUMPI PUSH2 0x100 DUP1 DUP4 SLOAD DIV MUL DUP4 MSTORE SWAP2 PUSH1 0x20 ADD SWAP2 PUSH2 0x3051 JUMP JUMPDEST DUP3 ADD SWAP2 SWAP1 PUSH1 0x0 MSTORE PUSH1 0x20 PUSH1 0x0 KECCAK256 SWAP1 JUMPDEST DUP2 SLOAD DUP2 MSTORE SWAP1 PUSH1 0x1 ADD SWAP1 PUSH1 0x20 ADD DUP1 DUP4 GT PUSH2 0x3034 JUMPI DUP3 SWAP1 SUB PUSH1 0x1F AND DUP3 ADD SWAP2 JUMPDEST POP POP POP POP POP SWAP1 DUP1 PUSH1 0x4 ADD PUSH1 0x0 SWAP1 SLOAD SWAP1 PUSH2 0x100 EXP SWAP1 DIV PUSH1 0xFF AND SWAP1 POP DUP6 JUMP JUMPDEST PUSH1 0x0 DUP1 PUSH1 0x0 SWAP1 SLOAD SWAP1 PUSH2 0x100 EXP SWAP1 DIV PUSH20 0xFFFFFFFFFFFFFFFFFFFFFFFFFFFFFFFFFFFFFFFF AND PUSH20 0xFFFFFFFFFFFFFFFFFFFFFFFFFFFFFFFFFFFFFFFF AND CALLER PUSH20 0xFFFFFFFFFFFFFFFFFFFFFFFFFFFFFFFFFFFFFFFF AND EQ PUSH2 0x30FF JUMPI PUSH1 0x40 MLOAD PUSH32 0x8C379A000000000000000000000000000000000000000000000000000000000 DUP2 MSTORE PUSH1 0x4 ADD PUSH2 0x30F6 SWAP1 PUSH2 0x4EF2 JUMP JUMPDEST PUSH1 0x40 MLOAD DUP1 SWAP2 SUB SWAP1 REVERT JUMPDEST PUSH1 0xA PUSH1 0x0 DUP4 DUP2 MSTORE PUSH1 0x20 ADD SWAP1 DUP2 MSTORE PUSH1 0x20 ADD PUSH1 0x0 KECCAK256 PUSH1 0x0 SWAP1 SLOAD SWAP1 PUSH2 0x100 EXP SWAP1 DIV PUSH1 0xFF AND PUSH2 0x315F JUMPI PUSH1 0x40 MLOAD PUSH32 0x8C379A000000000000000000000000000000000000000000000000000000000 DUP2 MSTORE PUSH1 0x4 ADD PUSH2 0x3156 SWAP1 PUSH2 0x4F5E JUMP JUMPDEST PUSH1 0x40 MLOAD DUP1 SWAP2 SUB SWAP1 REVERT JUMPDEST PUSH1 0x5 DUP1 DUP2 GT ISZERO PUSH2 0x3172 JUMPI PUSH2 0x3171 PUSH2 0x3CBB JUMP JUMPDEST JUMPDEST PUSH1 0x6 DUP4 DUP2 SLOAD DUP2 LT PUSH2 0x3186 JUMPI PUSH2 0x3185 PUSH2 0x4834 JUMP JUMPDEST JUMPDEST SWAP1 PUSH1 0x0 MSTORE PUSH1 0x20 PUSH1 0x0 KECCAK256 SWAP1 PUSH1 0xD MUL ADD PUSH1 0xB ADD PUSH1 0x0 SWAP1 SLOAD SWAP1 PUSH2 0x100 EXP SWAP1 DIV PUSH1 0xFF AND PUSH1 0x5 DUP2 GT ISZERO PUSH2 0x31B7 JUMPI PUSH2 0x31B6 PUSH2 0x3CBB JUMP JUMPDEST JUMPDEST EQ PUSH2 0x31F7 JUMPI PUSH1 0x40 MLOAD PUSH32 0x8C379A000000000000000000000000000000000000000000000000000000000 DUP2 MSTORE PUSH1 0x4 ADD PUSH2 0x31EE SWAP1 PUSH2 0x4FCA JUMP JUMPDEST PUSH1 0x40 MLOAD DUP1 SWAP2 SUB SWAP1 REVERT JUMPDEST PUSH1 0x0 PUSH1 0x6 DUP4 DUP2 SLOAD DUP2 LT PUSH2 0x320D JUMPI PUSH2 0x320C PUSH2 0x4834 JUMP JUMPDEST JUMPDEST SWAP1 PUSH1 0x0 MSTORE PUSH1 0x20 PUSH1 0x0 KECCAK256 SWAP1 PUSH1 0xD MUL ADD PUSH1 0xB ADD PUSH1 0x0 PUSH2 0x100 EXP DUP2 SLOAD DUP2 PUSH1 0xFF MUL NOT AND SWAP1 DUP4 PUSH1 0x5 DUP2 GT ISZERO PUSH2 0x3240 JUMPI PUSH2 0x323F PUSH2 0x3CBB JUMP JUMPDEST JUMPDEST MUL OR SWAP1 SSTORE POP PUSH32 0xD253FFDFF2C15C0FC0F805A6A2F2A45AE8DAE3BEBEA5B01FD1E706DF8798DA20 DUP3 TIMESTAMP PUSH1 0x40 MLOAD PUSH2 0x3276 SWAP3 SWAP2 SWAP1 PUSH2 0x4FEA JUMP JUMPDEST PUSH1 0x40 MLOAD DUP1 SWAP2 SUB SWAP1 LOG1 PUSH1 0x1 SWAP1 POP SWAP2 SWAP1 POP JUMP JUMPDEST PUSH1 0x0 JUMPDEST PUSH1 0x9 PUSH1 0x0 DUP4 DUP2 MSTORE PUSH1 0x20 ADD SWAP1 DUP2 MSTORE PUSH1 0x20 ADD PUSH1 0x0 KECCAK256 DUP1 SLOAD SWAP1 POP DUP2 LT ISZERO PUSH2 0x341A JUMPI PUSH1 0x0 PUSH1 0x9 PUSH1 0x0 DUP5 DUP2 MSTORE PUSH1 0x20 ADD SWAP1 DUP2 MSTORE PUSH1 0x20 ADD PUSH1 0x0 KECCAK256 DUP3 DUP2 SLOAD DUP2 LT PUSH2 0x32CF JUMPI PUSH2 0x32CE PUSH2 0x4834 JUMP JUMPDEST JUMPDEST SWAP1 PUSH1 0x0 MSTORE PUSH1 0x20 PUSH1 0x0 KECCAK256 SWAP1 PUSH1 0x5 MUL ADD PUSH1 0x0 ADD PUSH1 0x0 SWAP1 SLOAD SWAP1 PUSH2 0x100 EXP SWAP1 DIV PUSH20 0xFFFFFFFFFFFFFFFFFFFFFFFFFFFFFFFFFFFFFFFF AND SWAP1 POP PUSH1 0x0 PUSH1 0x9 PUSH1 0x0 DUP6 DUP2 MSTORE PUSH1 0x20 ADD SWAP1 DUP2 MSTORE PUSH1 0x20 ADD PUSH1 0x0 KECCAK256 DUP4 DUP2 SLOAD DUP2 LT PUSH2 0x332A JUMPI PUSH2 0x3329 PUSH2 0x4834 JUMP JUMPDEST JUMPDEST SWAP1 PUSH1 0x0 MSTORE PUSH1 0x20 PUSH1 0x0 KECCAK256 SWAP1 PUSH1 0x5 MUL ADD PUSH1 0x1 ADD SLOAD SWAP1 POP PUSH1 0x1 PUSH1 0x9 PUSH1 0x0 DUP7 DUP2 MSTORE PUSH1 0x20 ADD SWAP1 DUP2 MSTORE PUSH1 0x20 ADD PUSH1 0x0 KECCAK256 DUP5 DUP2 SLOAD DUP2 LT PUSH2 0x3365 JUMPI PUSH2 0x3364 PUSH2 0x4834 JUMP JUMPDEST JUMPDEST SWAP1 PUSH1 0x0 MSTORE PUSH1 0x20 PUSH1 0x0 KECCAK256 SWAP1 PUSH1 0x5 MUL ADD PUSH1 0x4 ADD PUSH1 0x0 PUSH2 0x100 EXP DUP2 SLOAD DUP2 PUSH1 0xFF MUL NOT AND SWAP1 DUP4 ISZERO ISZERO MUL OR SWAP1 SSTORE POP TIMESTAMP PUSH1 0x9 PUSH1 0x0 DUP7 DUP2 MSTORE PUSH1 0x20 ADD SWAP1 DUP2 MSTORE PUSH1 0x20 ADD PUSH1 0x0 KECCAK256 DUP5 DUP2 SLOAD DUP2 LT PUSH2 0x33B3 JUMPI PUSH2 0x33B2 PUSH2 0x4834 JUMP JUMPDEST JUMPDEST SWAP1 PUSH1 0x0 MSTORE PUSH1 0x20 PUSH1 0x0 KECCAK256 SWAP1 PUSH1 0x5 MUL ADD PUSH1 0x2 ADD DUP2 SWAP1 SSTORE POP PUSH2 0x33D2 DUP3 DUP3 PUSH2 0x35F0 JUMP JUMPDEST PUSH1 0x1 PUSH1 0x3 PUSH1 0x1 ADD PUSH1 0x0 DUP3 DUP3 SLOAD PUSH2 0x33E8 SWAP2 SWAP1 PUSH2 0x5576 JUMP JUMPDEST SWAP3 POP POP DUP2 SWAP1 SSTORE POP DUP1 PUSH1 0x3 PUSH1 0x2 ADD PUSH1 0x0 DUP3 DUP3 SLOAD PUSH2 0x3404 SWAP2 SWAP1 PUSH2 0x5576 JUMP JUMPDEST SWAP3 POP POP DUP2 SWAP1 SSTORE POP POP POP DUP1 DUP1 PUSH1 0x1 ADD SWAP2 POP POP PUSH2 0x328A JUMP JUMPDEST POP POP JUMP JUMPDEST PUSH1 0x0 PUSH1 0x6 DUP3 DUP2 SLOAD DUP2 LT PUSH2 0x3434 JUMPI PUSH2 0x3433 PUSH2 0x4834 JUMP JUMPDEST JUMPDEST SWAP1 PUSH1 0x0 MSTORE PUSH1 0x20 PUSH1 0x0 KECCAK256 SWAP1 PUSH1 0xD MUL ADD PUSH1 0x6 ADD SLOAD SWAP1 POP PUSH1 0x0 PUSH1 0x64 PUSH1 0x1 SLOAD DUP4 PUSH2 0x345A SWAP2 SWAP1 PUSH2 0x55AA JUMP JUMPDEST PUSH2 0x3464 SWAP2 SWAP1 PUSH2 0x561B JUMP JUMPDEST SWAP1 POP PUSH1 0x4 PUSH1 0x6 DUP5 DUP2 SLOAD DUP2 LT PUSH2 0x347C JUMPI PUSH2 0x347B PUSH2 0x4834 JUMP JUMPDEST JUMPDEST SWAP1 PUSH1 0x0 MSTORE PUSH1 0x20 PUSH1 0x0 KECCAK256 SWAP1 PUSH1 0xD MUL ADD PUSH1 0xB ADD PUSH1 0x0 PUSH2 0x100 EXP DUP2 SLOAD DUP2 PUSH1 0xFF MUL NOT AND SWAP1 DUP4 PUSH1 0x5 DUP2 GT ISZERO PUSH2 0x34AF JUMPI PUSH2 0x34AE PUSH2 0x3CBB JUMP JUMPDEST JUMPDEST MUL OR SWAP1 SSTORE POP PUSH2 0x350E PUSH1 0x6 DUP5 DUP2 SLOAD DUP2 LT PUSH2 0x34CB JUMPI PUSH2 0x34CA PUSH2 0x4834 JUMP JUMPDEST JUMPDEST SWAP1 PUSH1 0x0 MSTORE PUSH1 0x20 PUSH1 0x0 KECCAK256 SWAP1 PUSH1 0xD MUL ADD PUSH1 0x1 ADD PUSH1 0x0 SWAP1 SLOAD SWAP1 PUSH2 0x100 EXP SWAP1 DIV PUSH20 0xFFFFFFFFFFFFFFFFFFFFFFFFFFFFFFFFFFFFFFFF AND DUP3 DUP5 PUSH2 0x3509 SWAP2 SWAP1 PUSH2 0x5576 JUMP JUMPDEST PUSH2 0x35F0 JUMP JUMPDEST PUSH2 0x3538 PUSH1 0x0 DUP1 SLOAD SWAP1 PUSH2 0x100 EXP SWAP1 DIV PUSH20 0xFFFFFFFFFFFFFFFFFFFFFFFFFFFFFFFFFFFFFFFF AND DUP3 PUSH2 0x35F0 JUMP JUMPDEST PUSH32 0xD0F3FCF4A25B042CCD70C831F5AC8043FB63FCE36DA13E2C72148843EE201846 DUP4 PUSH1 0x6 DUP6 DUP2 SLOAD DUP2 LT PUSH2 0x356E JUMPI PUSH2 0x356D PUSH2 0x4834 JUMP JUMPDEST JUMPDEST SWAP1 PUSH1 0x0 MSTORE PUSH1 0x20 PUSH1 0x0 KECCAK256 SWAP1 PUSH1 0xD MUL ADD PUSH1 0x2 ADD PUSH1 0x6 DUP7 DUP2 SLOAD DUP2 LT PUSH2 0x3593 JUMPI PUSH2 0x3592 PUSH2 0x4834 JUMP JUMPDEST JUMPDEST SWAP1 PUSH1 0x0 MSTORE PUSH1 0x20 PUSH1 0x0 KECCAK256 SWAP1 PUSH1 0xD MUL ADD PUSH1 0x1 ADD PUSH1 0x0 SWAP1 SLOAD SWAP1 PUSH2 0x100 EXP SWAP1 DIV PUSH20 0xFFFFFFFFFFFFFFFFFFFFFFFFFFFFFFFFFFFFFFFF AND DUP5 DUP7 PUSH2 0x35D1 SWAP2 SWAP1 PUSH2 0x5576 JUMP JUMPDEST TIMESTAMP PUSH1 0x40 MLOAD PUSH2 0x35E3 SWAP6 SWAP5 SWAP4 SWAP3 SWAP2 SWAP1 PUSH2 0x564C JUMP JUMPDEST PUSH1 0x40 MLOAD DUP1 SWAP2 SUB SWAP1 LOG1 POP POP POP JUMP JUMPDEST PUSH1 0x0 DUP3 PUSH20 0xFFFFFFFFFFFFFFFFFFFFFFFFFFFFFFFFFFFFFFFF AND DUP3 PUSH1 0x40 MLOAD PUSH2 0x3616 SWAP1 PUSH2 0x56D7 JUMP JUMPDEST PUSH1 0x0 PUSH1 0x40 MLOAD DUP1 DUP4 SUB DUP2 DUP6 DUP8 GAS CALL SWAP3 POP POP POP RETURNDATASIZE DUP1 PUSH1 0x0 DUP2 EQ PUSH2 0x3653 JUMPI PUSH1 0x40 MLOAD SWAP2 POP PUSH1 0x1F NOT PUSH1 0x3F RETURNDATASIZE ADD AND DUP3 ADD PUSH1 0x40 MSTORE RETURNDATASIZE DUP3 MSTORE RETURNDATASIZE PUSH1 0x0 PUSH1 0x20 DUP5 ADD RETURNDATACOPY PUSH2 0x3658 JUMP JUMPDEST PUSH1 0x60 SWAP2 POP JUMPDEST POP POP SWAP1 POP DUP1 PUSH2 0x369C JUMPI PUSH1 0x40 MLOAD PUSH32 0x8C379A000000000000000000000000000000000000000000000000000000000 DUP2 MSTORE PUSH1 0x4 ADD PUSH2 0x3693 SWAP1 PUSH2 0x5738 JUMP JUMPDEST PUSH1 0x40 MLOAD DUP1 SWAP2 SUB SWAP1 REVERT JUMPDEST POP POP POP JUMP JUMPDEST DUP3 DUP1 SLOAD DUP3 DUP3 SSTORE SWAP1 PUSH1 0x0 MSTORE PUSH1 0x20 PUSH1 0x0 KECCAK256 SWAP1 DUP2 ADD SWAP3 DUP3 ISZERO PUSH2 0x36E9 JUMPI SWAP2 PUSH1 0x20 MUL DUP3 ADD JUMPDEST DUP3 DUP2 GT ISZERO PUSH2 0x36E8 JUMPI DUP3 MLOAD DUP3 SWAP1 DUP2 PUSH2 0x36D8 SWAP2 SWAP1 PUSH2 0x4BB3 JUMP JUMPDEST POP SWAP2 PUSH1 0x20 ADD SWAP2 SWAP1 PUSH1 0x1 ADD SWAP1 PUSH2 0x36C1 JUMP JUMPDEST JUMPDEST POP SWAP1 POP PUSH2 0x36F6 SWAP2 SWAP1 PUSH2 0x37AB JUMP JUMPDEST POP SWAP1 JUMP JUMPDEST PUSH1 0x40 MLOAD DUP1 PUSH2 0x1A0 ADD PUSH1 0x40 MSTORE DUP1 PUSH1 0x0 DUP2 MSTORE PUSH1 0x20 ADD PUSH1 0x0 PUSH20 0xFFFFFFFFFFFFFFFFFFFFFFFFFFFFFFFFFFFFFFFF AND DUP2 MSTORE PUSH1 0x20 ADD PUSH1 0x60 DUP2 MSTORE PUSH1 0x20 ADD PUSH1 0x60 DUP2 MSTORE PUSH1 0x20 ADD PUSH1 0x60 DUP2 MSTORE PUSH1 0x20 ADD PUSH1 0x0 DUP2 MSTORE PUSH1 0x20 ADD PUSH1 0x0 DUP2 MSTORE PUSH1 0x20 ADD PUSH1 0x0 DUP2 MSTORE PUSH1 0x20 ADD PUSH1 0x0 DUP2 MSTORE PUSH1 0x20 ADD PUSH1 0x0 DUP2 MSTORE PUSH1 0x20 ADD PUSH1 0x0 DUP2 MSTORE PUSH1 0x20 ADD PUSH1 0x0 PUSH1 0x5 DUP2 GT ISZERO PUSH2 0x377D JUMPI PUSH2 0x377C PUSH2 0x3CBB JUMP JUMPDEST JUMPDEST DUP2 MSTORE PUSH1 0x20 ADD PUSH1 0x60 DUP2 MSTORE POP SWAP1 JUMP JUMPDEST PUSH1 0x40 MLOAD DUP1 PUSH1 0x60 ADD PUSH1 0x40 MSTORE DUP1 PUSH1 0x0 DUP2 MSTORE PUSH1 0x20 ADD PUSH1 0x0 DUP2 MSTORE PUSH1 0x20 ADD PUSH1 0x0 DUP2 MSTORE POP SWAP1 JUMP JUMPDEST JUMPDEST DUP1 DUP3 GT ISZERO PUSH2 0x37CB JUMPI PUSH1 0x0 DUP2 DUP2 PUSH2 0x37C2 SWAP2 SWAP1 PUSH2 0x37CF JUMP JUMPDEST POP PUSH1 0x1 ADD PUSH2 0x37AC JUMP JUMPDEST POP SWAP1 JUMP JUMPDEST POP DUP1 SLOAD PUSH2 0x37DB SWAP1 PUSH2 0x49D6 JUMP JUMPDEST PUSH1 0x0 DUP3 SSTORE DUP1 PUSH1 0x1F LT PUSH2 0x37ED JUMPI POP PUSH2 0x380C JUMP JUMPDEST PUSH1 0x1F ADD PUSH1 0x20 SWAP1 DIV SWAP1 PUSH1 0x0 MSTORE PUSH1 0x20 PUSH1 0x0 KECCAK256 SWAP1 DUP2 ADD SWAP1 PUSH2 0x380B SWAP2 SWAP1 PUSH2 0x380F JUMP JUMPDEST JUMPDEST POP JUMP JUMPDEST JUMPDEST DUP1 DUP3 GT ISZERO PUSH2 0x3828 JUMPI PUSH1 0x0 DUP2 PUSH1 0x0 SWAP1 SSTORE POP PUSH1 0x1 ADD PUSH2 0x3810 JUMP JUMPDEST POP SWAP1 JUMP JUMPDEST PUSH1 0x0 PUSH1 0x40 MLOAD SWAP1 POP SWAP1 JUMP JUMPDEST PUSH1 0x0 DUP1 REVERT JUMPDEST PUSH1 0x0 DUP1 REVERT JUMPDEST PUSH1 0x0 DUP2 SWAP1 POP SWAP2 SWAP1 POP JUMP JUMPDEST PUSH2 0x3853 DUP2 PUSH2 0x3840 JUMP JUMPDEST DUP2 EQ PUSH2 0x385E JUMPI PUSH1 0x0 DUP1 REVERT JUMPDEST POP JUMP JUMPDEST PUSH1 0x0 DUP2 CALLDATALOAD SWAP1 POP PUSH2 0x3870 DUP2 PUSH2 0x384A JUMP JUMPDEST SWAP3 SWAP2 POP POP JUMP JUMPDEST PUSH1 0x0 DUP1 REVERT JUMPDEST PUSH1 0x0 DUP1 REVERT JUMPDEST PUSH1 0x0 PUSH1 0x1F NOT PUSH1 0x1F DUP4 ADD AND SWAP1 POP SWAP2 SWAP1 POP JUMP JUMPDEST PUSH32 0x4E487B7100000000000000000000000000000000000000000000000000000000 PUSH1 0x0 MSTORE PUSH1 0x41 PUSH1 0x4 MSTORE PUSH1 0x24 PUSH1 0x0 REVERT JUMPDEST PUSH2 0x38C9 DUP3 PUSH2 0x3880 JUMP JUMPDEST DUP2 ADD DUP2 DUP2 LT PUSH8 0xFFFFFFFFFFFFFFFF DUP3 GT OR ISZERO PUSH2 0x38E8 JUMPI PUSH2 0x38E7 PUSH2 0x3891 JUMP JUMPDEST JUMPDEST DUP1 PUSH1 0x40 MSTORE POP POP POP JUMP JUMPDEST PUSH1 0x0 PUSH2 0x38FB PUSH2 0x382C JUMP JUMPDEST SWAP1 POP PUSH2 0x3907 DUP3 DUP3 PUSH2 0x38C0 JUMP JUMPDEST SWAP2 SWAP1 POP JUMP JUMPDEST PUSH1 0x0 PUSH8 0xFFFFFFFFFFFFFFFF DUP3 GT ISZERO PUSH2 0x3927 JUMPI PUSH2 0x3926 PUSH2 0x3891 JUMP JUMPDEST JUMPDEST PUSH2 0x3930 DUP3 PUSH2 0x3880 JUMP JUMPDEST SWAP1 POP PUSH1 0x20 DUP2 ADD SWAP1 POP SWAP2 SWAP1 POP JUMP JUMPDEST DUP3 DUP2 DUP4 CALLDATACOPY PUSH1 0x0 DUP4 DUP4 ADD MSTORE POP POP POP JUMP JUMPDEST PUSH1 0x0 PUSH2 0x395F PUSH2 0x395A DUP5 PUSH2 0x390C JUMP JUMPDEST PUSH2 0x38F1 JUMP JUMPDEST SWAP1 POP DUP3 DUP2 MSTORE PUSH1 0x20 DUP2 ADD DUP5 DUP5 DUP5 ADD GT ISZERO PUSH2 0x397B JUMPI PUSH2 0x397A PUSH2 0x387B JUMP JUMPDEST JUMPDEST PUSH2 0x3986 DUP5 DUP3 DUP6 PUSH2 0x393D JUMP JUMPDEST POP SWAP4 SWAP3 POP POP POP JUMP JUMPDEST PUSH1 0x0 DUP3 PUSH1 0x1F DUP4 ADD SLT PUSH2 0x39A3 JUMPI PUSH2 0x39A2 PUSH2 0x3876 JUMP JUMPDEST JUMPDEST DUP2 CALLDATALOAD PUSH2 0x39B3 DUP5 DUP3 PUSH1 0x20 DUP7 ADD PUSH2 0x394C JUMP JUMPDEST SWAP2 POP POP SWAP3 SWAP2 POP POP JUMP JUMPDEST PUSH1 0x0 PUSH8 0xFFFFFFFFFFFFFFFF DUP3 GT ISZERO PUSH2 0x39D7 JUMPI PUSH2 0x39D6 PUSH2 0x3891 JUMP JUMPDEST JUMPDEST PUSH1 0x20 DUP3 MUL SWAP1 POP PUSH1 0x20 DUP2 ADD SWAP1 POP SWAP2 SWAP1 POP JUMP JUMPDEST PUSH1 0x0 DUP1 REVERT JUMPDEST PUSH1 0x0 PUSH2 0x3A00 PUSH2 0x39FB DUP5 PUSH2 0x39BC JUMP JUMPDEST PUSH2 0x38F1 JUMP JUMPDEST SWAP1 POP DUP1 DUP4 DUP3 MSTORE PUSH1 0x20 DUP3 ADD SWAP1 POP PUSH1 0x20 DUP5 MUL DUP4 ADD DUP6 DUP2 GT ISZERO PUSH2 0x3A23 JUMPI PUSH2 0x3A22 PUSH2 0x39E8 JUMP JUMPDEST JUMPDEST DUP4 JUMPDEST DUP2 DUP2 LT ISZERO PUSH2 0x3A6A JUMPI DUP1 CALLDATALOAD PUSH8 0xFFFFFFFFFFFFFFFF DUP2 GT ISZERO PUSH2 0x3A48 JUMPI PUSH2 0x3A47 PUSH2 0x3876 JUMP JUMPDEST JUMPDEST DUP1 DUP7 ADD PUSH2 0x3A55 DUP10 DUP3 PUSH2 0x398E JUMP JUMPDEST DUP6 MSTORE PUSH1 0x20 DUP6 ADD SWAP5 POP POP POP PUSH1 0x20 DUP2 ADD SWAP1 POP PUSH2 0x3A25 JUMP JUMPDEST POP POP POP SWAP4 SWAP3 POP POP POP JUMP JUMPDEST PUSH1 0x0 DUP3 PUSH1 0x1F DUP4 ADD SLT PUSH2 0x3A89 JUMPI PUSH2 0x3A88 PUSH2 0x3876 JUMP JUMPDEST JUMPDEST DUP2 CALLDATALOAD PUSH2 0x3A99 DUP5 DUP3 PUSH1 0x20 DUP7 ADD PUSH2 0x39ED JUMP JUMPDEST SWAP2 POP POP SWAP3 SWAP2 POP POP JUMP JUMPDEST PUSH1 0x0 DUP1 PUSH1 0x0 PUSH1 0x60 DUP5 DUP7 SUB SLT ISZERO PUSH2 0x3ABB JUMPI PUSH2 0x3ABA PUSH2 0x3836 JUMP JUMPDEST JUMPDEST PUSH1 0x0 PUSH2 0x3AC9 DUP7 DUP3 DUP8 ADD PUSH2 0x3861 JUMP JUMPDEST SWAP4 POP POP PUSH1 0x20 DUP5 ADD CALLDATALOAD PUSH8 0xFFFFFFFFFFFFFFFF DUP2 GT ISZERO PUSH2 0x3AEA JUMPI PUSH2 0x3AE9 PUSH2 0x383B JUMP JUMPDEST JUMPDEST PUSH2 0x3AF6 DUP7 DUP3 DUP8 ADD PUSH2 0x398E JUMP JUMPDEST SWAP3 POP POP PUSH1 0x40 DUP5 ADD CALLDATALOAD PUSH8 0xFFFFFFFFFFFFFFFF DUP2 GT ISZERO PUSH2 0x3B17 JUMPI PUSH2 0x3B16 PUSH2 0x383B JUMP JUMPDEST JUMPDEST PUSH2 0x3B23 DUP7 DUP3 DUP8 ADD PUSH2 0x3A74 JUMP JUMPDEST SWAP2 POP POP SWAP3 POP SWAP3 POP SWAP3 JUMP JUMPDEST PUSH1 0x0 DUP2 ISZERO ISZERO SWAP1 POP SWAP2 SWAP1 POP JUMP JUMPDEST PUSH2 0x3B42 DUP2 PUSH2 0x3B2D JUMP JUMPDEST DUP3 MSTORE POP POP JUMP JUMPDEST PUSH1 0x0 PUSH1 0x20 DUP3 ADD SWAP1 POP PUSH2 0x3B5D PUSH1 0x0 DUP4 ADD DUP5 PUSH2 0x3B39 JUMP JUMPDEST SWAP3 SWAP2 POP POP JUMP JUMPDEST PUSH1 0x0 DUP1 PUSH1 0x40 DUP4 DUP6 SUB SLT ISZERO PUSH2 0x3B7A JUMPI PUSH2 0x3B79 PUSH2 0x3836 JUMP JUMPDEST JUMPDEST PUSH1 0x0 PUSH2 0x3B88 DUP6 DUP3 DUP7 ADD PUSH2 0x3861 JUMP JUMPDEST SWAP3 POP POP PUSH1 0x20 DUP4 ADD CALLDATALOAD PUSH8 0xFFFFFFFFFFFFFFFF DUP2 GT ISZERO PUSH2 0x3BA9 JUMPI PUSH2 0x3BA8 PUSH2 0x383B JUMP JUMPDEST JUMPDEST PUSH2 0x3BB5 DUP6 DUP3 DUP7 ADD PUSH2 0x398E JUMP JUMPDEST SWAP2 POP POP SWAP3 POP SWAP3 SWAP1 POP JUMP JUMPDEST PUSH1 0x0 PUSH1 0x20 DUP3 DUP5 SUB SLT ISZERO PUSH2 0x3BD5 JUMPI PUSH2 0x3BD4 PUSH2 0x3836 JUMP JUMPDEST JUMPDEST PUSH1 0x0 PUSH2 0x3BE3 DUP5 DUP3 DUP6 ADD PUSH2 0x3861 JUMP JUMPDEST SWAP2 POP POP SWAP3 SWAP2 POP POP JUMP JUMPDEST PUSH2 0x3BF5 DUP2 PUSH2 0x3840 JUMP JUMPDEST DUP3 MSTORE POP POP JUMP JUMPDEST PUSH1 0x0 PUSH20 0xFFFFFFFFFFFFFFFFFFFFFFFFFFFFFFFFFFFFFFFF DUP3 AND SWAP1 POP SWAP2 SWAP1 POP JUMP JUMPDEST PUSH1 0x0 PUSH2 0x3C26 DUP3 PUSH2 0x3BFB JUMP JUMPDEST SWAP1 POP SWAP2 SWAP1 POP JUMP JUMPDEST PUSH2 0x3C36 DUP2 PUSH2 0x3C1B JUMP JUMPDEST DUP3 MSTORE POP POP JUMP JUMPDEST PUSH1 0x0 DUP2 MLOAD SWAP1 POP SWAP2 SWAP1 POP JUMP JUMPDEST PUSH1 0x0 DUP3 DUP3 MSTORE PUSH1 0x20 DUP3 ADD SWAP1 POP SWAP3 SWAP2 POP POP JUMP JUMPDEST PUSH1 0x0 JUMPDEST DUP4 DUP2 LT ISZERO PUSH2 0x3C76 JUMPI DUP1 DUP3 ADD MLOAD DUP2 DUP5 ADD MSTORE PUSH1 0x20 DUP2 ADD SWAP1 POP PUSH2 0x3C5B JUMP JUMPDEST PUSH1 0x0 DUP5 DUP5 ADD MSTORE POP POP POP POP JUMP JUMPDEST PUSH1 0x0 PUSH2 0x3C8D DUP3 PUSH2 0x3C3C JUMP JUMPDEST PUSH2 0x3C97 DUP2 DUP6 PUSH2 0x3C47 JUMP JUMPDEST SWAP4 POP PUSH2 0x3CA7 DUP2 DUP6 PUSH1 0x20 DUP7 ADD PUSH2 0x3C58 JUMP JUMPDEST PUSH2 0x3CB0 DUP2 PUSH2 0x3880 JUMP JUMPDEST DUP5 ADD SWAP2 POP POP SWAP3 SWAP2 POP POP JUMP JUMPDEST PUSH32 0x4E487B7100000000000000000000000000000000000000000000000000000000 PUSH1 0x0 MSTORE PUSH1 0x21 PUSH1 0x4 MSTORE PUSH1 0x24 PUSH1 0x0 REVERT JUMPDEST PUSH1 0x6 DUP2 LT PUSH2 0x3CFB JUMPI PUSH2 0x3CFA PUSH2 0x3CBB JUMP JUMPDEST JUMPDEST POP JUMP JUMPDEST PUSH1 0x0 DUP2 SWAP1 POP PUSH2 0x3D0C DUP3 PUSH2 0x3CEA JUMP JUMPDEST SWAP2 SWAP1 POP JUMP JUMPDEST PUSH1 0x0 PUSH2 0x3D1C DUP3 PUSH2 0x3CFE JUMP JUMPDEST SWAP1 POP SWAP2 SWAP1 POP JUMP JUMPDEST PUSH2 0x3D2C DUP2 PUSH2 0x3D11 JUMP JUMPDEST DUP3 MSTORE POP POP JUMP JUMPDEST PUSH1 0x0 PUSH2 0x180 DUP3 ADD SWAP1 POP PUSH2 0x3D48 PUSH1 0x0 DUP4 ADD DUP16 PUSH2 0x3BEC JUMP JUMPDEST PUSH2 0x3D55 PUSH1 0x20 DUP4 ADD DUP15 PUSH2 0x3C2D JUMP JUMPDEST DUP2 DUP2 SUB PUSH1 0x40 DUP4 ADD MSTORE PUSH2 0x3D67 DUP2 DUP14 PUSH2 0x3C82 JUMP JUMPDEST SWAP1 POP DUP2 DUP2 SUB PUSH1 0x60 DUP4 ADD MSTORE PUSH2 0x3D7B DUP2 DUP13 PUSH2 0x3C82 JUMP JUMPDEST SWAP1 POP PUSH2 0x3D8A PUSH1 0x80 DUP4 ADD DUP12 PUSH2 0x3BEC JUMP JUMPDEST PUSH2 0x3D97 PUSH1 0xA0 DUP4 ADD DUP11 PUSH2 0x3BEC JUMP JUMPDEST PUSH2 0x3DA4 PUSH1 0xC0 DUP4 ADD DUP10 PUSH2 0x3BEC JUMP JUMPDEST PUSH2 0x3DB1 PUSH1 0xE0 DUP4 ADD DUP9 PUSH2 0x3BEC JUMP JUMPDEST PUSH2 0x3DBF PUSH2 0x100 DUP4 ADD DUP8 PUSH2 0x3BEC JUMP JUMPDEST PUSH2 0x3DCD PUSH2 0x120 DUP4 ADD DUP7 PUSH2 0x3BEC JUMP JUMPDEST PUSH2 0x3DDB PUSH2 0x140 DUP4 ADD DUP6 PUSH2 0x3D23 JUMP JUMPDEST DUP2 DUP2 SUB PUSH2 0x160 DUP4 ADD MSTORE PUSH2 0x3DEE DUP2 DUP5 PUSH2 0x3C82 JUMP JUMPDEST SWAP1 POP SWAP14 SWAP13 POP POP POP POP POP POP POP POP POP POP POP POP POP JUMP JUMPDEST PUSH1 0x0 PUSH1 0x20 DUP3 ADD SWAP1 POP PUSH2 0x3E16 PUSH1 0x0 DUP4 ADD DUP5 PUSH2 0x3BEC JUMP JUMPDEST SWAP3 SWAP2 POP POP JUMP JUMPDEST PUSH1 0x0 DUP2 MLOAD SWAP1 POP SWAP2 SWAP1 POP JUMP JUMPDEST PUSH1 0x0 DUP3 DUP3 MSTORE PUSH1 0x20 DUP3 ADD SWAP1 POP SWAP3 SWAP2 POP POP JUMP JUMPDEST PUSH1 0x0 DUP2 SWAP1 POP PUSH1 0x20 DUP3 ADD SWAP1 POP SWAP2 SWAP1 POP JUMP JUMPDEST PUSH2 0x3E51 DUP2 PUSH2 0x3840 JUMP JUMPDEST DUP3 MSTORE POP POP JUMP JUMPDEST PUSH1 0x0 DUP3 DUP3 MSTORE PUSH1 0x20 DUP3 ADD SWAP1 POP SWAP3 SWAP2 POP POP JUMP JUMPDEST PUSH1 0x0 PUSH2 0x3E73 DUP3 PUSH2 0x3C3C JUMP JUMPDEST PUSH2 0x3E7D DUP2 DUP6 PUSH2 0x3E57 JUMP JUMPDEST SWAP4 POP PUSH2 0x3E8D DUP2 DUP6 PUSH1 0x20 DUP7 ADD PUSH2 0x3C58 JUMP JUMPDEST PUSH2 0x3E96 DUP2 PUSH2 0x3880 JUMP JUMPDEST DUP5 ADD SWAP2 POP POP SWAP3 SWAP2 POP POP JUMP JUMPDEST PUSH1 0x0 PUSH1 0x40 DUP4 ADD PUSH1 0x0 DUP4 ADD MLOAD PUSH2 0x3EB9 PUSH1 0x0 DUP7 ADD DUP3 PUSH2 0x3E48 JUMP JUMPDEST POP PUSH1 0x20 DUP4 ADD MLOAD DUP5 DUP3 SUB PUSH1 0x20 DUP7 ADD MSTORE PUSH2 0x3ED1 DUP3 DUP3 PUSH2 0x3E68 JUMP JUMPDEST SWAP2 POP POP DUP1 SWAP2 POP POP SWAP3 SWAP2 POP POP JUMP JUMPDEST PUSH1 0x0 PUSH2 0x3EEA DUP4 DUP4 PUSH2 0x3EA1 JUMP JUMPDEST SWAP1 POP SWAP3 SWAP2 POP POP JUMP JUMPDEST PUSH1 0x0 PUSH1 0x20 DUP3 ADD SWAP1 POP SWAP2 SWAP1 POP JUMP JUMPDEST PUSH1 0x0 PUSH2 0x3F0A DUP3 PUSH2 0x3E1C JUMP JUMPDEST PUSH2 0x3F14 DUP2 DUP6 PUSH2 0x3E27 JUMP JUMPDEST SWAP4 POP DUP4 PUSH1 0x20 DUP3 MUL DUP6 ADD PUSH2 0x3F26 DUP6 PUSH2 0x3E38 JUMP JUMPDEST DUP1 PUSH1 0x0 JUMPDEST DUP6 DUP2 LT ISZERO PUSH2 0x3F62 JUMPI DUP5 DUP5 SUB DUP10 MSTORE DUP2 MLOAD PUSH2 0x3F43 DUP6 DUP3 PUSH2 0x3EDE JUMP JUMPDEST SWAP5 POP PUSH2 0x3F4E DUP4 PUSH2 0x3EF2 JUMP JUMPDEST SWAP3 POP PUSH1 0x20 DUP11 ADD SWAP10 POP POP PUSH1 0x1 DUP2 ADD SWAP1 POP PUSH2 0x3F2A JUMP JUMPDEST POP DUP3 SWAP8 POP DUP8 SWAP6 POP POP POP POP POP POP SWAP3 SWAP2 POP POP JUMP JUMPDEST PUSH1 0x0 PUSH1 0x20 DUP3 ADD SWAP1 POP DUP2 DUP2 SUB PUSH1 0x0 DUP4 ADD MSTORE PUSH2 0x3F8E DUP2 DUP5 PUSH2 0x3EFF JUMP JUMPDEST SWAP1 POP SWAP3 SWAP2 POP POP JUMP JUMPDEST PUSH1 0x0 DUP1 PUSH1 0x0 DUP1 PUSH1 0x0 DUP1 PUSH1 0xC0 DUP8 DUP10 SUB SLT ISZERO PUSH2 0x3FB3 JUMPI PUSH2 0x3FB2 PUSH2 0x3836 JUMP JUMPDEST JUMPDEST PUSH1 0x0 DUP8 ADD CALLDATALOAD PUSH8 0xFFFFFFFFFFFFFFFF DUP2 GT ISZERO PUSH2 0x3FD1 JUMPI PUSH2 0x3FD0 PUSH2 0x383B JUMP JUMPDEST JUMPDEST PUSH2 0x3FDD DUP10 DUP3 DUP11 ADD PUSH2 0x398E JUMP JUMPDEST SWAP7 POP POP PUSH1 0x20 DUP8 ADD CALLDATALOAD PUSH8 0xFFFFFFFFFFFFFFFF DUP2 GT ISZERO PUSH2 0x3FFE JUMPI PUSH2 0x3FFD PUSH2 0x383B JUMP JUMPDEST JUMPDEST PUSH2 0x400A DUP10 DUP3 DUP11 ADD PUSH2 0x398E JUMP JUMPDEST SWAP6 POP POP PUSH1 0x40 DUP8 ADD CALLDATALOAD PUSH8 0xFFFFFFFFFFFFFFFF DUP2 GT ISZERO PUSH2 0x402B JUMPI PUSH2 0x402A PUSH2 0x383B JUMP JUMPDEST JUMPDEST PUSH2 0x4037 DUP10 DUP3 DUP11 ADD PUSH2 0x3A74 JUMP JUMPDEST SWAP5 POP POP PUSH1 0x60 PUSH2 0x4048 DUP10 DUP3 DUP11 ADD PUSH2 0x3861 JUMP JUMPDEST SWAP4 POP POP PUSH1 0x80 PUSH2 0x4059 DUP10 DUP3 DUP11 ADD PUSH2 0x3861 JUMP JUMPDEST SWAP3 POP POP PUSH1 0xA0 PUSH2 0x406A DUP10 DUP3 DUP11 ADD PUSH2 0x3861 JUMP JUMPDEST SWAP2 POP POP SWAP3 SWAP6 POP SWAP3 SWAP6 POP SWAP3 SWAP6 JUMP JUMPDEST PUSH1 0x0 PUSH1 0x20 DUP3 ADD SWAP1 POP PUSH2 0x408C PUSH1 0x0 DUP4 ADD DUP5 PUSH2 0x3C2D JUMP JUMPDEST SWAP3 SWAP2 POP POP JUMP JUMPDEST PUSH2 0x409B DUP2 PUSH2 0x3C1B JUMP JUMPDEST DUP2 EQ PUSH2 0x40A6 JUMPI PUSH1 0x0 DUP1 REVERT JUMPDEST POP JUMP JUMPDEST PUSH1 0x0 DUP2 CALLDATALOAD SWAP1 POP PUSH2 0x40B8 DUP2 PUSH2 0x4092 JUMP JUMPDEST SWAP3 SWAP2 POP POP JUMP JUMPDEST PUSH1 0x0 DUP1 PUSH1 0x40 DUP4 DUP6 SUB SLT ISZERO PUSH2 0x40D5 JUMPI PUSH2 0x40D4 PUSH2 0x3836 JUMP JUMPDEST JUMPDEST PUSH1 0x0 PUSH2 0x40E3 DUP6 DUP3 DUP7 ADD PUSH2 0x40A9 JUMP JUMPDEST SWAP3 POP POP PUSH1 0x20 PUSH2 0x40F4 DUP6 DUP3 DUP7 ADD PUSH2 0x3861 JUMP JUMPDEST SWAP2 POP POP SWAP3 POP SWAP3 SWAP1 POP JUMP JUMPDEST PUSH1 0x60 DUP3 ADD PUSH1 0x0 DUP3 ADD MLOAD PUSH2 0x4114 PUSH1 0x0 DUP6 ADD DUP3 PUSH2 0x3E48 JUMP JUMPDEST POP PUSH1 0x20 DUP3 ADD MLOAD PUSH2 0x4127 PUSH1 0x20 DUP6 ADD DUP3 PUSH2 0x3E48 JUMP JUMPDEST POP PUSH1 0x40 DUP3 ADD MLOAD PUSH2 0x413A PUSH1 0x40 DUP6 ADD DUP3 PUSH2 0x3E48 JUMP JUMPDEST POP POP POP POP JUMP JUMPDEST PUSH1 0x0 PUSH1 0x60 DUP3 ADD SWAP1 POP PUSH2 0x4155 PUSH1 0x0 DUP4 ADD DUP5 PUSH2 0x40FE JUMP JUMPDEST SWAP3 SWAP2 POP POP JUMP JUMPDEST PUSH1 0x0 PUSH1 0x40 DUP3 ADD SWAP1 POP PUSH2 0x4170 PUSH1 0x0 DUP4 ADD DUP6 PUSH2 0x3BEC JUMP JUMPDEST DUP2 DUP2 SUB PUSH1 0x20 DUP4 ADD MSTORE PUSH2 0x4182 DUP2 DUP5 PUSH2 0x3C82 JUMP JUMPDEST SWAP1 POP SWAP4 SWAP3 POP POP POP JUMP JUMPDEST PUSH1 0x0 DUP2 MLOAD SWAP1 POP SWAP2 SWAP1 POP JUMP JUMPDEST PUSH1 0x0 DUP3 DUP3 MSTORE PUSH1 0x20 DUP3 ADD SWAP1 POP SWAP3 SWAP2 POP POP JUMP JUMPDEST PUSH1 0x0 DUP2 SWAP1 POP PUSH1 0x20 DUP3 ADD SWAP1 POP SWAP2 SWAP1 POP JUMP JUMPDEST PUSH2 0x41C0 DUP2 PUSH2 0x3C1B JUMP JUMPDEST DUP3 MSTORE POP POP JUMP JUMPDEST PUSH2 0x41CF DUP2 PUSH2 0x3B2D JUMP JUMPDEST DUP3 MSTORE POP POP JUMP JUMPDEST PUSH1 0x0 PUSH1 0xA0 DUP4 ADD PUSH1 0x0 DUP4 ADD MLOAD PUSH2 0x41ED PUSH1 0x0 DUP7 ADD DUP3 PUSH2 0x41B7 JUMP JUMPDEST POP PUSH1 0x20 DUP4 ADD MLOAD PUSH2 0x4200 PUSH1 0x20 DUP7 ADD DUP3 PUSH2 0x3E48 JUMP JUMPDEST POP PUSH1 0x40 DUP4 ADD MLOAD PUSH2 0x4213 PUSH1 0x40 DUP7 ADD DUP3 PUSH2 0x3E48 JUMP JUMPDEST POP PUSH1 0x60 DUP4 ADD MLOAD DUP5 DUP3 SUB PUSH1 0x60 DUP7 ADD MSTORE PUSH2 0x422B DUP3 DUP3 PUSH2 0x3E68 JUMP JUMPDEST SWAP2 POP POP PUSH1 0x80 DUP4 ADD MLOAD PUSH2 0x4240 PUSH1 0x80 DUP7 ADD DUP3 PUSH2 0x41C6 JUMP JUMPDEST POP DUP1 SWAP2 POP POP SWAP3 SWAP2 POP POP JUMP JUMPDEST PUSH1 0x0 PUSH2 0x4257 DUP4 DUP4 PUSH2 0x41D5 JUMP JUMPDEST SWAP1 POP SWAP3 SWAP2 POP POP JUMP JUMPDEST PUSH1 0x0 PUSH1 0x20 DUP3 ADD SWAP1 POP SWAP2 SWAP1 POP JUMP JUMPDEST PUSH1 0x0 PUSH2 0x4277 DUP3 PUSH2 0x418B JUMP JUMPDEST PUSH2 0x4281 DUP2 DUP6 PUSH2 0x4196 JUMP JUMPDEST SWAP4 POP DUP4 PUSH1 0x20 DUP3 MUL DUP6 ADD PUSH2 0x4293 DUP6 PUSH2 0x41A7 JUMP JUMPDEST DUP1 PUSH1 0x0 JUMPDEST DUP6 DUP2 LT ISZERO PUSH2 0x42CF JUMPI DUP5 DUP5 SUB DUP10 MSTORE DUP2 MLOAD PUSH2 0x42B0 DUP6 DUP3 PUSH2 0x424B JUMP JUMPDEST SWAP5 POP PUSH2 0x42BB DUP4 PUSH2 0x425F JUMP JUMPDEST SWAP3 POP PUSH1 0x20 DUP11 ADD SWAP10 POP POP PUSH1 0x1 DUP2 ADD SWAP1 POP PUSH2 0x4297 JUMP JUMPDEST POP DUP3 SWAP8 POP DUP8 SWAP6 POP POP POP POP POP POP SWAP3 SWAP2 POP POP JUMP JUMPDEST PUSH1 0x0 PUSH1 0x20 DUP3 ADD SWAP1 POP DUP2 DUP2 SUB PUSH1 0x0 DUP4 ADD MSTORE PUSH2 0x42FB DUP2 DUP5 PUSH2 0x426C JUMP JUMPDEST SWAP1 POP SWAP3 SWAP2 POP POP JUMP JUMPDEST PUSH1 0x0 PUSH1 0x60 DUP3 ADD SWAP1 POP PUSH2 0x4318 PUSH1 0x0 DUP4 ADD DUP7 PUSH2 0x3BEC JUMP JUMPDEST PUSH2 0x4325 PUSH1 0x20 DUP4 ADD DUP6 PUSH2 0x3BEC JUMP JUMPDEST PUSH2 0x4332 PUSH1 0x40 DUP4 ADD DUP5 PUSH2 0x3BEC JUMP JUMPDEST SWAP5 SWAP4 POP POP POP POP JUMP JUMPDEST PUSH1 0x0 DUP2 MLOAD SWAP1 POP SWAP2 SWAP1 POP JUMP JUMPDEST PUSH1 0x0 DUP3 DUP3 MSTORE PUSH1 0x20 DUP3 ADD SWAP1 POP SWAP3 SWAP2 POP POP JUMP JUMPDEST PUSH1 0x0 DUP2 SWAP1 POP PUSH1 0x20 DUP3 ADD SWAP1 POP SWAP2 SWAP1 POP JUMP JUMPDEST PUSH1 0x0 DUP2 MLOAD SWAP1 POP SWAP2 SWAP1 POP JUMP JUMPDEST PUSH1 0x0 DUP3 DUP3 MSTORE PUSH1 0x20 DUP3 ADD SWAP1 POP SWAP3 SWAP2 POP POP JUMP JUMPDEST PUSH1 0x0 DUP2 SWAP1 POP PUSH1 0x20 DUP3 ADD SWAP1 POP SWAP2 SWAP1 POP JUMP JUMPDEST PUSH1 0x0 PUSH2 0x439E DUP4 DUP4 PUSH2 0x3E68 JUMP JUMPDEST SWAP1 POP SWAP3 SWAP2 POP POP JUMP JUMPDEST PUSH1 0x0 PUSH1 0x20 DUP3 ADD SWAP1 POP SWAP2 SWAP1 POP JUMP JUMPDEST PUSH1 0x0 PUSH2 0x43BE DUP3 PUSH2 0x4366 JUMP JUMPDEST PUSH2 0x43C8 DUP2 DUP6 PUSH2 0x4371 JUMP JUMPDEST SWAP4 POP DUP4 PUSH1 0x20 DUP3 MUL DUP6 ADD PUSH2 0x43DA DUP6 PUSH2 0x4382 JUMP JUMPDEST DUP1 PUSH1 0x0 JUMPDEST DUP6 DUP2 LT ISZERO PUSH2 0x4416 JUMPI DUP5 DUP5 SUB DUP10 MSTORE DUP2 MLOAD PUSH2 0x43F7 DUP6 DUP3 PUSH2 0x4392 JUMP JUMPDEST SWAP5 POP PUSH2 0x4402 DUP4 PUSH2 0x43A6 JUMP JUMPDEST SWAP3 POP PUSH1 0x20 DUP11 ADD SWAP10 POP POP PUSH1 0x1 DUP2 ADD SWAP1 POP PUSH2 0x43DE JUMP JUMPDEST POP DUP3 SWAP8 POP DUP8 SWAP6 POP POP POP POP POP POP SWAP3 SWAP2 POP POP JUMP JUMPDEST PUSH2 0x4431 DUP2 PUSH2 0x3D11 JUMP JUMPDEST DUP3 MSTORE POP POP JUMP JUMPDEST PUSH1 0x0 PUSH2 0x1A0 DUP4 ADD PUSH1 0x0 DUP4 ADD MLOAD PUSH2 0x4450 PUSH1 0x0 DUP7 ADD DUP3 PUSH2 0x3E48 JUMP JUMPDEST POP PUSH1 0x20 DUP4 ADD MLOAD PUSH2 0x4463 PUSH1 0x20 DUP7 ADD DUP3 PUSH2 0x41B7 JUMP JUMPDEST POP PUSH1 0x40 DUP4 ADD MLOAD DUP5 DUP3 SUB PUSH1 0x40 DUP7 ADD MSTORE PUSH2 0x447B DUP3 DUP3 PUSH2 0x3E68 JUMP JUMPDEST SWAP2 POP POP PUSH1 0x60 DUP4 ADD MLOAD DUP5 DUP3 SUB PUSH1 0x60 DUP7 ADD MSTORE PUSH2 0x4495 DUP3 DUP3 PUSH2 0x3E68 JUMP JUMPDEST SWAP2 POP POP PUSH1 0x80 DUP4 ADD MLOAD DUP5 DUP3 SUB PUSH1 0x80 DUP7 ADD MSTORE PUSH2 0x44AF DUP3 DUP3 PUSH2 0x43B3 JUMP JUMPDEST SWAP2 POP POP PUSH1 0xA0 DUP4 ADD MLOAD PUSH2 0x44C4 PUSH1 0xA0 DUP7 ADD DUP3 PUSH2 0x3E48 JUMP JUMPDEST POP PUSH1 0xC0 DUP4 ADD MLOAD PUSH2 0x44D7 PUSH1 0xC0 DUP7 ADD DUP3 PUSH2 0x3E48 JUMP JUMPDEST POP PUSH1 0xE0 DUP4 ADD MLOAD PUSH2 0x44EA PUSH1 0xE0 DUP7 ADD DUP3 PUSH2 0x3E48 JUMP JUMPDEST POP PUSH2 0x100 DUP4 ADD MLOAD PUSH2 0x44FF PUSH2 0x100 DUP7 ADD DUP3 PUSH2 0x3E48 JUMP JUMPDEST POP PUSH2 0x120 DUP4 ADD MLOAD PUSH2 0x4514 PUSH2 0x120 DUP7 ADD DUP3 PUSH2 0x3E48 JUMP JUMPDEST POP PUSH2 0x140 DUP4 ADD MLOAD PUSH2 0x4529 PUSH2 0x140 DUP7 ADD DUP3 PUSH2 0x3E48 JUMP JUMPDEST POP PUSH2 0x160 DUP4 ADD MLOAD PUSH2 0x453E PUSH2 0x160 DUP7 ADD DUP3 PUSH2 0x4428 JUMP JUMPDEST POP PUSH2 0x180 DUP4 ADD MLOAD DUP5 DUP3 SUB PUSH2 0x180 DUP7 ADD MSTORE PUSH2 0x4558 DUP3 DUP3 PUSH2 0x3E68 JUMP JUMPDEST SWAP2 POP POP DUP1 SWAP2 POP POP SWAP3 SWAP2 POP POP JUMP JUMPDEST PUSH1 0x0 PUSH2 0x4571 DUP4 DUP4 PUSH2 0x4437 JUMP JUMPDEST SWAP1 POP SWAP3 SWAP2 POP POP JUMP JUMPDEST PUSH1 0x0 PUSH1 0x20 DUP3 ADD SWAP1 POP SWAP2 SWAP1 POP JUMP JUMPDEST PUSH1 0x0 PUSH2 0x4591 DUP3 PUSH2 0x433A JUMP JUMPDEST PUSH2 0x459B DUP2 DUP6 PUSH2 0x4345 JUMP JUMPDEST SWAP4 POP DUP4 PUSH1 0x20 DUP3 MUL DUP6 ADD PUSH2 0x45AD DUP6 PUSH2 0x4356 JUMP JUMPDEST DUP1 PUSH1 0x0 JUMPDEST DUP6 DUP2 LT ISZERO PUSH2 0x45E9 JUMPI DUP5 DUP5 SUB DUP10 MSTORE DUP2 MLOAD PUSH2 0x45CA DUP6 DUP3 PUSH2 0x4565 JUMP JUMPDEST SWAP5 POP PUSH2 0x45D5 DUP4 PUSH2 0x4579 JUMP JUMPDEST SWAP3 POP PUSH1 0x20 DUP11 ADD SWAP10 POP POP PUSH1 0x1 DUP2 ADD SWAP1 POP PUSH2 0x45B1 JUMP JUMPDEST POP DUP3 SWAP8 POP DUP8 SWAP6 POP POP POP POP POP POP SWAP3 SWAP2 POP POP JUMP JUMPDEST PUSH1 0x0 PUSH1 0x20 DUP3 ADD SWAP1 POP DUP2 DUP2 SUB PUSH1 0x0 DUP4 ADD MSTORE PUSH2 0x4615 DUP2 DUP5 PUSH2 0x4586 JUMP JUMPDEST SWAP1 POP SWAP3 SWAP2 POP POP JUMP JUMPDEST PUSH1 0x0 PUSH1 0x20 DUP3 DUP5 SUB SLT ISZERO PUSH2 0x4633 JUMPI PUSH2 0x4632 PUSH2 0x3836 JUMP JUMPDEST JUMPDEST PUSH1 0x0 PUSH2 0x4641 DUP5 DUP3 DUP6 ADD PUSH2 0x40A9 JUMP JUMPDEST SWAP2 POP POP SWAP3 SWAP2 POP POP JUMP JUMPDEST PUSH1 0x0 PUSH2 0x1A0 DUP4 ADD PUSH1 0x0 DUP4 ADD MLOAD PUSH2 0x4663 PUSH1 0x0 DUP7 ADD DUP3 PUSH2 0x3E48 JUMP JUMPDEST POP PUSH1 0x20 DUP4 ADD MLOAD PUSH2 0x4676 PUSH1 0x20 DUP7 ADD DUP3 PUSH2 0x41B7 JUMP JUMPDEST POP PUSH1 0x40 DUP4 ADD MLOAD DUP5 DUP3 SUB PUSH1 0x40 DUP7 ADD MSTORE PUSH2 0x468E DUP3 DUP3 PUSH2 0x3E68 JUMP JUMPDEST SWAP2 POP POP PUSH1 0x60 DUP4 ADD MLOAD DUP5 DUP3 SUB PUSH1 0x60 DUP7 ADD MSTORE PUSH2 0x46A8 DUP3 DUP3 PUSH2 0x3E68 JUMP JUMPDEST SWAP2 POP POP PUSH1 0x80 DUP4 ADD MLOAD DUP5 DUP3 SUB PUSH1 0x80 DUP7 ADD MSTORE PUSH2 0x46C2 DUP3 DUP3 PUSH2 0x43B3 JUMP JUMPDEST SWAP2 POP POP PUSH1 0xA0 DUP4 ADD MLOAD PUSH2 0x46D7 PUSH1 0xA0 DUP7 ADD DUP3 PUSH2 0x3E48 JUMP JUMPDEST POP PUSH1 0xC0 DUP4 ADD MLOAD PUSH2 0x46EA PUSH1 0xC0 DUP7 ADD DUP3 PUSH2 0x3E48 JUMP JUMPDEST POP PUSH1 0xE0 DUP4 ADD MLOAD PUSH2 0x46FD PUSH1 0xE0 DUP7 ADD DUP3 PUSH2 0x3E48 JUMP JUMPDEST POP PUSH2 0x100 DUP4 ADD MLOAD PUSH2 0x4712 PUSH2 0x100 DUP7 ADD DUP3 PUSH2 0x3E48 JUMP JUMPDEST POP PUSH2 0x120 DUP4 ADD MLOAD PUSH2 0x4727 PUSH2 0x120 DUP7 ADD DUP3 PUSH2 0x3E48 JUMP JUMPDEST POP PUSH2 0x140 DUP4 ADD MLOAD PUSH2 0x473C PUSH2 0x140 DUP7 ADD DUP3 PUSH2 0x3E48 JUMP JUMPDEST POP PUSH2 0x160 DUP4 ADD MLOAD PUSH2 0x4751 PUSH2 0x160 DUP7 ADD DUP3 PUSH2 0x4428 JUMP JUMPDEST POP PUSH2 0x180 DUP4 ADD MLOAD DUP5 DUP3 SUB PUSH2 0x180 DUP7 ADD MSTORE PUSH2 0x476B DUP3 DUP3 PUSH2 0x3E68 JUMP JUMPDEST SWAP2 POP POP DUP1 SWAP2 POP POP SWAP3 SWAP2 POP POP JUMP JUMPDEST PUSH1 0x0 PUSH1 0x20 DUP3 ADD SWAP1 POP DUP2 DUP2 SUB PUSH1 0x0 DUP4 ADD MSTORE PUSH2 0x4792 DUP2 DUP5 PUSH2 0x464A JUMP JUMPDEST SWAP1 POP SWAP3 SWAP2 POP POP JUMP JUMPDEST PUSH1 0x0 DUP1 PUSH1 0x40 DUP4 DUP6 SUB SLT ISZERO PUSH2 0x47B1 JUMPI PUSH2 0x47B0 PUSH2 0x3836 JUMP JUMPDEST JUMPDEST PUSH1 0x0 PUSH2 0x47BF DUP6 DUP3 DUP7 ADD PUSH2 0x3861 JUMP JUMPDEST SWAP3 POP POP PUSH1 0x20 PUSH2 0x47D0 DUP6 DUP3 DUP7 ADD PUSH2 0x3861 JUMP JUMPDEST SWAP2 POP POP SWAP3 POP SWAP3 SWAP1 POP JUMP JUMPDEST PUSH1 0x0 PUSH1 0xA0 DUP3 ADD SWAP1 POP PUSH2 0x47EF PUSH1 0x0 DUP4 ADD DUP9 PUSH2 0x3C2D JUMP JUMPDEST PUSH2 0x47FC PUSH1 0x20 DUP4 ADD DUP8 PUSH2 0x3BEC JUMP JUMPDEST PUSH2 0x4809 PUSH1 0x40 DUP4 ADD DUP7 PUSH2 0x3BEC JUMP JUMPDEST DUP2 DUP2 SUB PUSH1 0x60 DUP4 ADD MSTORE PUSH2 0x481B DUP2 DUP6 PUSH2 0x3C82 JUMP JUMPDEST SWAP1 POP PUSH2 0x482A PUSH1 0x80 DUP4 ADD DUP5 PUSH2 0x3B39 JUMP JUMPDEST SWAP7 SWAP6 POP POP POP POP POP POP JUMP JUMPDEST PUSH32 0x4E487B7100000000000000000000000000000000000000000000000000000000 PUSH1 0x0 MSTORE PUSH1 0x32 PUSH1 0x4 MSTORE PUSH1 0x24 PUSH1 0x0 REVERT JUMPDEST PUSH32 0x556E617574686F72697A656420456E7469747900000000000000000000000000 PUSH1 0x0 DUP3 ADD MSTORE POP JUMP JUMPDEST PUSH1 0x0 PUSH2 0x4899 PUSH1 0x13 DUP4 PUSH2 0x3C47 JUMP JUMPDEST SWAP2 POP PUSH2 0x48A4 DUP3 PUSH2 0x4863 JUMP JUMPDEST PUSH1 0x20 DUP3 ADD SWAP1 POP SWAP2 SWAP1 POP JUMP JUMPDEST PUSH1 0x0 PUSH1 0x20 DUP3 ADD SWAP1 POP DUP2 DUP2 SUB PUSH1 0x0 DUP4 ADD MSTORE PUSH2 0x48C8 DUP2 PUSH2 0x488C JUMP JUMPDEST SWAP1 POP SWAP2 SWAP1 POP JUMP JUMPDEST PUSH32 0x4465736372697074696F6E2063616E6E6F7420626520656D7074790000000000 PUSH1 0x0 DUP3 ADD MSTORE POP JUMP JUMPDEST PUSH1 0x0 PUSH2 0x4905 PUSH1 0x1B DUP4 PUSH2 0x3C47 JUMP JUMPDEST SWAP2 POP PUSH2 0x4910 DUP3 PUSH2 0x48CF JUMP JUMPDEST PUSH1 0x20 DUP3 ADD SWAP1 POP SWAP2 SWAP1 POP JUMP JUMPDEST PUSH1 0x0 PUSH1 0x20 DUP3 ADD SWAP1 POP DUP2 DUP2 SUB PUSH1 0x0 DUP4 ADD MSTORE PUSH2 0x4934 DUP2 PUSH2 0x48F8 JUMP JUMPDEST SWAP1 POP SWAP2 SWAP1 POP JUMP JUMPDEST PUSH32 0x496D61676555726C732063616E6E6F7420626520656D70747900000000000000 PUSH1 0x0 DUP3 ADD MSTORE POP JUMP JUMPDEST PUSH1 0x0 PUSH2 0x4971 PUSH1 0x19 DUP4 PUSH2 0x3C47 JUMP JUMPDEST SWAP2 POP PUSH2 0x497C DUP3 PUSH2 0x493B JUMP JUMPDEST PUSH1 0x20 DUP3 ADD SWAP1 POP SWAP2 SWAP1 POP JUMP JUMPDEST PUSH1 0x0 PUSH1 0x20 DUP3 ADD SWAP1 POP DUP2 DUP2 SUB PUSH1 0x0 DUP4 ADD MSTORE PUSH2 0x49A0 DUP2 PUSH2 0x4964 JUMP JUMPDEST SWAP1 POP SWAP2 SWAP1 POP JUMP JUMPDEST PUSH32 0x4E487B7100000000000000000000000000000000000000000000000000000000 PUSH1 0x0 MSTORE PUSH1 0x22 PUSH1 0x4 MSTORE PUSH1 0x24 PUSH1 0x0 REVERT JUMPDEST PUSH1 0x0 PUSH1 0x2 DUP3 DIV SWAP1 POP PUSH1 0x1 DUP3 AND DUP1 PUSH2 0x49EE JUMPI PUSH1 0x7F DUP3 AND SWAP2 POP JUMPDEST PUSH1 0x20 DUP3 LT DUP2 SUB PUSH2 0x4A01 JUMPI PUSH2 0x4A00 PUSH2 0x49A7 JUMP JUMPDEST JUMPDEST POP SWAP2 SWAP1 POP JUMP JUMPDEST PUSH1 0x0 DUP2 SWAP1 POP DUP2 PUSH1 0x0 MSTORE PUSH1 0x20 PUSH1 0x0 KECCAK256 SWAP1 POP SWAP2 SWAP1 POP JUMP JUMPDEST PUSH1 0x0 PUSH1 0x20 PUSH1 0x1F DUP4 ADD DIV SWAP1 POP SWAP2 SWAP1 POP JUMP JUMPDEST PUSH1 0x0 DUP3 DUP3 SHL SWAP1 POP SWAP3 SWAP2 POP POP JUMP JUMPDEST PUSH1 0x0 PUSH1 0x8 DUP4 MUL PUSH2 0x4A69 PUSH32 0xFFFFFFFFFFFFFFFFFFFFFFFFFFFFFFFFFFFFFFFFFFFFFFFFFFFFFFFFFFFFFFFF DUP3 PUSH2 0x4A2C JUMP JUMPDEST PUSH2 0x4A73 DUP7 DUP4 PUSH2 0x4A2C JUMP JUMPDEST SWAP6 POP DUP1 NOT DUP5 AND SWAP4 POP DUP1 DUP7 AND DUP5 OR SWAP3 POP POP POP SWAP4 SWAP3 POP POP POP JUMP JUMPDEST PUSH1 0x0 DUP2 SWAP1 POP SWAP2 SWAP1 POP JUMP JUMPDEST PUSH1 0x0 PUSH2 0x4AB0 PUSH2 0x4AAB PUSH2 0x4AA6 DUP5 PUSH2 0x3840 JUMP JUMPDEST PUSH2 0x4A8B JUMP JUMPDEST PUSH2 0x3840 JUMP JUMPDEST SWAP1 POP SWAP2 SWAP1 POP JUMP JUMPDEST PUSH1 0x0 DUP2 SWAP1 POP SWAP2 SWAP1 POP JUMP JUMPDEST PUSH2 0x4ACA DUP4 PUSH2 0x4A95 JUMP JUMPDEST PUSH2 0x4ADE PUSH2 0x4AD6 DUP3 PUSH2 0x4AB7 JUMP JUMPDEST DUP5 DUP5 SLOAD PUSH2 0x4A39 JUMP JUMPDEST DUP3 SSTORE POP POP POP POP JUMP JUMPDEST PUSH1 0x0 SWAP1 JUMP JUMPDEST PUSH2 0x4AF3 PUSH2 0x4AE6 JUMP JUMPDEST PUSH2 0x4AFE DUP2 DUP5 DUP5 PUSH2 0x4AC1 JUMP JUMPDEST POP POP POP JUMP JUMPDEST JUMPDEST DUP2 DUP2 LT ISZERO PUSH2 0x4B22 JUMPI PUSH2 0x4B17 PUSH1 0x0 DUP3 PUSH2 0x4AEB JUMP JUMPDEST PUSH1 0x1 DUP2 ADD SWAP1 POP PUSH2 0x4B04 JUMP JUMPDEST POP POP JUMP JUMPDEST PUSH1 0x1F DUP3 GT ISZERO PUSH2 0x4B67 JUMPI PUSH2 0x4B38 DUP2 PUSH2 0x4A07 JUMP JUMPDEST PUSH2 0x4B41 DUP5 PUSH2 0x4A1C JUMP JUMPDEST DUP2 ADD PUSH1 0x20 DUP6 LT ISZERO PUSH2 0x4B50 JUMPI DUP2 SWAP1 POP JUMPDEST PUSH2 0x4B64 PUSH2 0x4B5C DUP6 PUSH2 0x4A1C JUMP JUMPDEST DUP4 ADD DUP3 PUSH2 0x4B03 JUMP JUMPDEST POP POP JUMPDEST POP POP POP JUMP JUMPDEST PUSH1 0x0 DUP3 DUP3 SHR SWAP1 POP SWAP3 SWAP2 POP POP JUMP JUMPDEST PUSH1 0x0 PUSH2 0x4B8A PUSH1 0x0 NOT DUP5 PUSH1 0x8 MUL PUSH2 0x4B6C JUMP JUMPDEST NOT DUP1 DUP4 AND SWAP2 POP POP SWAP3 SWAP2 POP POP JUMP JUMPDEST PUSH1 0x0 PUSH2 0x4BA3 DUP4 DUP4 PUSH2 0x4B79 JUMP JUMPDEST SWAP2 POP DUP3 PUSH1 0x2 MUL DUP3 OR SWAP1 POP SWAP3 SWAP2 POP POP JUMP JUMPDEST PUSH2 0x4BBC DUP3 PUSH2 0x3C3C JUMP JUMPDEST PUSH8 0xFFFFFFFFFFFFFFFF DUP2 GT ISZERO PUSH2 0x4BD5 JUMPI PUSH2 0x4BD4 PUSH2 0x3891 JUMP JUMPDEST JUMPDEST PUSH2 0x4BDF DUP3 SLOAD PUSH2 0x49D6 JUMP JUMPDEST PUSH2 0x4BEA DUP3 DUP3 DUP6 PUSH2 0x4B26 JUMP JUMPDEST PUSH1 0x0 PUSH1 0x20 SWAP1 POP PUSH1 0x1F DUP4 GT PUSH1 0x1 DUP2 EQ PUSH2 0x4C1D JUMPI PUSH1 0x0 DUP5 ISZERO PUSH2 0x4C0B JUMPI DUP3 DUP8 ADD MLOAD SWAP1 POP JUMPDEST PUSH2 0x4C15 DUP6 DUP3 PUSH2 0x4B97 JUMP JUMPDEST DUP7 SSTORE POP PUSH2 0x4C7D JUMP JUMPDEST PUSH1 0x1F NOT DUP5 AND PUSH2 0x4C2B DUP7 PUSH2 0x4A07 JUMP JUMPDEST PUSH1 0x0 JUMPDEST DUP3 DUP2 LT ISZERO PUSH2 0x4C53 JUMPI DUP5 DUP10 ADD MLOAD DUP3 SSTORE PUSH1 0x1 DUP3 ADD SWAP2 POP PUSH1 0x20 DUP6 ADD SWAP5 POP PUSH1 0x20 DUP2 ADD SWAP1 POP PUSH2 0x4C2E JUMP JUMPDEST DUP7 DUP4 LT ISZERO PUSH2 0x4C70 JUMPI DUP5 DUP10 ADD MLOAD PUSH2 0x4C6C PUSH1 0x1F DUP10 AND DUP3 PUSH2 0x4B79 JUMP JUMPDEST DUP4 SSTORE POP JUMPDEST PUSH1 0x1 PUSH1 0x2 DUP9 MUL ADD DUP9 SSTORE POP POP POP JUMPDEST POP POP POP POP POP POP JUMP JUMPDEST PUSH1 0x0 DUP2 SLOAD PUSH2 0x4C92 DUP2 PUSH2 0x49D6 JUMP JUMPDEST PUSH2 0x4C9C DUP2 DUP7 PUSH2 0x3C47 JUMP JUMPDEST SWAP5 POP PUSH1 0x1 DUP3 AND PUSH1 0x0 DUP2 EQ PUSH2 0x4CB7 JUMPI PUSH1 0x1 DUP2 EQ PUSH2 0x4CCD JUMPI PUSH2 0x4D00 JUMP JUMPDEST PUSH1 0xFF NOT DUP4 AND DUP7 MSTORE DUP2 ISZERO ISZERO PUSH1 0x20 MUL DUP7 ADD SWAP4 POP PUSH2 0x4D00 JUMP JUMPDEST PUSH2 0x4CD6 DUP6 PUSH2 0x4A07 JUMP JUMPDEST PUSH1 0x0 JUMPDEST DUP4 DUP2 LT ISZERO PUSH2 0x4CF8 JUMPI DUP2 SLOAD DUP2 DUP10 ADD MSTORE PUSH1 0x1 DUP3 ADD SWAP2 POP PUSH1 0x20 DUP2 ADD SWAP1 POP PUSH2 0x4CD9 JUMP JUMPDEST DUP1 DUP9 ADD SWAP6 POP POP POP JUMPDEST POP POP POP SWAP3 SWAP2 POP POP JUMP JUMPDEST PUSH1 0x0 DUP2 SLOAD SWAP1 POP SWAP2 SWAP1 POP JUMP JUMPDEST PUSH1 0x0 DUP3 DUP3 MSTORE PUSH1 0x20 DUP3 ADD SWAP1 POP SWAP3 SWAP2 POP POP JUMP JUMPDEST PUSH1 0x0 DUP2 SWAP1 POP DUP2 PUSH1 0x0 MSTORE PUSH1 0x20 PUSH1 0x0 KECCAK256 SWAP1 POP SWAP2 SWAP1 POP JUMP JUMPDEST PUSH1 0x0 DUP2 SLOAD PUSH2 0x4D47 DUP2 PUSH2 0x49D6 JUMP JUMPDEST PUSH2 0x4D51 DUP2 DUP7 PUSH2 0x3E57 JUMP JUMPDEST SWAP5 POP PUSH1 0x1 DUP3 AND PUSH1 0x0 DUP2 EQ PUSH2 0x4D6C JUMPI PUSH1 0x1 DUP2 EQ PUSH2 0x4D82 JUMPI PUSH2 0x4DB5 JUMP JUMPDEST PUSH1 0xFF NOT DUP4 AND DUP7 MSTORE DUP2 ISZERO ISZERO PUSH1 0x20 MUL DUP7 ADD SWAP4 POP PUSH2 0x4DB5 JUMP JUMPDEST PUSH2 0x4D8B DUP6 PUSH2 0x4A07 JUMP JUMPDEST PUSH1 0x0 JUMPDEST DUP4 DUP2 LT ISZERO PUSH2 0x4DAD JUMPI DUP2 SLOAD DUP2 DUP10 ADD MSTORE PUSH1 0x1 DUP3 ADD SWAP2 POP PUSH1 0x20 DUP2 ADD SWAP1 POP PUSH2 0x4D8E JUMP JUMPDEST DUP1 DUP9 ADD SWAP6 POP POP POP JUMPDEST POP POP POP SWAP3 SWAP2 POP POP JUMP JUMPDEST PUSH1 0x0 PUSH2 0x4DCA DUP4 DUP4 PUSH2 0x4D3A JUMP JUMPDEST SWAP1 POP SWAP3 SWAP2 POP POP JUMP JUMPDEST PUSH1 0x0 PUSH1 0x1 DUP3 ADD SWAP1 POP SWAP2 SWAP1 POP JUMP JUMPDEST PUSH1 0x0 PUSH2 0x4DEA DUP3 PUSH2 0x4D09 JUMP JUMPDEST PUSH2 0x4DF4 DUP2 DUP6 PUSH2 0x4D14 JUMP JUMPDEST SWAP4 POP DUP4 PUSH1 0x20 DUP3 MUL DUP6 ADD PUSH2 0x4E06 DUP6 PUSH2 0x4D25 JUMP JUMPDEST DUP1 PUSH1 0x0 JUMPDEST DUP6 DUP2 LT ISZERO PUSH2 0x4E41 JUMPI DUP5 DUP5 SUB DUP10 MSTORE DUP2 PUSH2 0x4E22 DUP6 DUP3 PUSH2 0x4DBE JUMP JUMPDEST SWAP5 POP PUSH2 0x4E2D DUP4 PUSH2 0x4DD2 JUMP JUMPDEST SWAP3 POP PUSH1 0x20 DUP11 ADD SWAP10 POP POP PUSH1 0x1 DUP2 ADD SWAP1 POP PUSH2 0x4E0A JUMP JUMPDEST POP DUP3 SWAP8 POP DUP8 SWAP6 POP POP POP POP POP POP SWAP3 SWAP2 POP POP JUMP JUMPDEST PUSH1 0x0 PUSH1 0x80 DUP3 ADD SWAP1 POP PUSH2 0x4E68 PUSH1 0x0 DUP4 ADD DUP8 PUSH2 0x3BEC JUMP JUMPDEST DUP2 DUP2 SUB PUSH1 0x20 DUP4 ADD MSTORE PUSH2 0x4E7A DUP2 DUP7 PUSH2 0x4C85 JUMP JUMPDEST SWAP1 POP DUP2 DUP2 SUB PUSH1 0x40 DUP4 ADD MSTORE PUSH2 0x4E8E DUP2 DUP6 PUSH2 0x4DDF JUMP JUMPDEST SWAP1 POP PUSH2 0x4E9D PUSH1 0x60 DUP4 ADD DUP5 PUSH2 0x3BEC JUMP JUMPDEST SWAP6 SWAP5 POP POP POP POP POP JUMP JUMPDEST PUSH32 0x41636365737320526573657276656420746F204F776E65720000000000000000 PUSH1 0x0 DUP3 ADD MSTORE POP JUMP JUMPDEST PUSH1 0x0 PUSH2 0x4EDC PUSH1 0x18 DUP4 PUSH2 0x3C47 JUMP JUMPDEST SWAP2 POP PUSH2 0x4EE7 DUP3 PUSH2 0x4EA6 JUMP JUMPDEST PUSH1 0x20 DUP3 ADD SWAP1 POP SWAP2 SWAP1 POP JUMP JUMPDEST PUSH1 0x0 PUSH1 0x20 DUP3 ADD SWAP1 POP DUP2 DUP2 SUB PUSH1 0x0 DUP4 ADD MSTORE PUSH2 0x4F0B DUP2 PUSH2 0x4ECF JUMP JUMPDEST SWAP1 POP SWAP2 SWAP1 POP JUMP JUMPDEST PUSH32 0x50726F6A656374206E6F7420666F756E64000000000000000000000000000000 PUSH1 0x0 DUP3 ADD MSTORE POP JUMP JUMPDEST PUSH1 0x0 PUSH2 0x4F48 PUSH1 0x11 DUP4 PUSH2 0x3C47 JUMP JUMPDEST SWAP2 POP PUSH2 0x4F53 DUP3 PUSH2 0x4F12 JUMP JUMPDEST PUSH1 0x20 DUP3 ADD SWAP1 POP SWAP2 SWAP1 POP JUMP JUMPDEST PUSH1 0x0 PUSH1 0x20 DUP3 ADD SWAP1 POP DUP2 DUP2 SUB PUSH1 0x0 DUP4 ADD MSTORE PUSH2 0x4F77 DUP2 PUSH2 0x4F3B JUMP JUMPDEST SWAP1 POP SWAP2 SWAP1 POP JUMP JUMPDEST PUSH32 0x50726F6A656374206E6F742070656E64696E6720617070726F76616C00000000 PUSH1 0x0 DUP3 ADD MSTORE POP JUMP JUMPDEST PUSH1 0x0 PUSH2 0x4FB4 PUSH1 0x1C DUP4 PUSH2 0x3C47 JUMP JUMPDEST SWAP2 POP PUSH2 0x4FBF DUP3 PUSH2 0x4F7E JUMP JUMPDEST PUSH1 0x20 DUP3 ADD SWAP1 POP SWAP2 SWAP1 POP JUMP JUMPDEST PUSH1 0x0 PUSH1 0x20 DUP3 ADD SWAP1 POP DUP2 DUP2 SUB PUSH1 0x0 DUP4 ADD MSTORE PUSH2 0x4FE3 DUP2 PUSH2 0x4FA7 JUMP JUMPDEST SWAP1 POP SWAP2 SWAP1 POP JUMP JUMPDEST PUSH1 0x0 PUSH1 0x40 DUP3 ADD SWAP1 POP PUSH2 0x4FFF PUSH1 0x0 DUP4 ADD DUP6 PUSH2 0x3BEC JUMP JUMPDEST PUSH2 0x500C PUSH1 0x20 DUP4 ADD DUP5 PUSH2 0x3BEC JUMP JUMPDEST SWAP4 SWAP3 POP POP POP JUMP JUMPDEST PUSH32 0x50726F6A656374206E6F206C6F6E676572206F70656E65640000000000000000 PUSH1 0x0 DUP3 ADD MSTORE POP JUMP JUMPDEST PUSH1 0x0 PUSH2 0x5049 PUSH1 0x18 DUP4 PUSH2 0x3C47 JUMP JUMPDEST SWAP2 POP PUSH2 0x5054 DUP3 PUSH2 0x5013 JUMP JUMPDEST PUSH1 0x20 DUP3 ADD SWAP1 POP SWAP2 SWAP1 POP JUMP JUMPDEST PUSH1 0x0 PUSH1 0x20 DUP3 ADD SWAP1 POP DUP2 DUP2 SUB PUSH1 0x0 DUP4 ADD MSTORE PUSH2 0x5078 DUP2 PUSH2 0x503C JUMP JUMPDEST SWAP1 POP SWAP2 SWAP1 POP JUMP JUMPDEST PUSH32 0x5469746C652063616E6E6F7420626520656D7074790000000000000000000000 PUSH1 0x0 DUP3 ADD MSTORE POP JUMP JUMPDEST PUSH1 0x0 PUSH2 0x50B5 PUSH1 0x15 DUP4 PUSH2 0x3C47 JUMP JUMPDEST SWAP2 POP PUSH2 0x50C0 DUP3 PUSH2 0x507F JUMP JUMPDEST PUSH1 0x20 DUP3 ADD SWAP1 POP SWAP2 SWAP1 POP JUMP JUMPDEST PUSH1 0x0 PUSH1 0x20 DUP3 ADD SWAP1 POP DUP2 DUP2 SUB PUSH1 0x0 DUP4 ADD MSTORE PUSH2 0x50E4 DUP2 PUSH2 0x50A8 JUMP JUMPDEST SWAP1 POP SWAP2 SWAP1 POP JUMP JUMPDEST PUSH32 0x436F73742063616E6E6F74206265207A65726F00000000000000000000000000 PUSH1 0x0 DUP3 ADD MSTORE POP JUMP JUMPDEST PUSH1 0x0 PUSH2 0x5121 PUSH1 0x13 DUP4 PUSH2 0x3C47 JUMP JUMPDEST SWAP2 POP PUSH2 0x512C DUP3 PUSH2 0x50EB JUMP JUMPDEST PUSH1 0x20 DUP3 ADD SWAP1 POP SWAP2 SWAP1 POP JUMP JUMPDEST PUSH1 0x0 PUSH1 0x20 DUP3 ADD SWAP1 POP DUP2 DUP2 SUB PUSH1 0x0 DUP4 ADD MSTORE PUSH2 0x5150 DUP2 PUSH2 0x5114 JUMP JUMPDEST SWAP1 POP SWAP2 SWAP1 POP JUMP JUMPDEST PUSH32 0x496E76616C69642063617465676F727920494400000000000000000000000000 PUSH1 0x0 DUP3 ADD MSTORE POP JUMP JUMPDEST PUSH1 0x0 PUSH2 0x518D PUSH1 0x13 DUP4 PUSH2 0x3C47 JUMP JUMPDEST SWAP2 POP PUSH2 0x5198 DUP3 PUSH2 0x5157 JUMP JUMPDEST PUSH1 0x20 DUP3 ADD SWAP1 POP SWAP2 SWAP1 POP JUMP JUMPDEST PUSH1 0x0 PUSH1 0x20 DUP3 ADD SWAP1 POP DUP2 DUP2 SUB PUSH1 0x0 DUP4 ADD MSTORE PUSH2 0x51BC DUP2 PUSH2 0x5180 JUMP JUMPDEST SWAP1 POP SWAP2 SWAP1 POP JUMP JUMPDEST PUSH32 0x4E487B7100000000000000000000000000000000000000000000000000000000 PUSH1 0x0 MSTORE PUSH1 0x11 PUSH1 0x4 MSTORE PUSH1 0x24 PUSH1 0x0 REVERT JUMPDEST PUSH1 0x0 PUSH2 0x51FD DUP3 PUSH2 0x3840 JUMP JUMPDEST SWAP2 POP PUSH2 0x5208 DUP4 PUSH2 0x3840 JUMP JUMPDEST SWAP3 POP DUP3 DUP3 ADD SWAP1 POP DUP1 DUP3 GT ISZERO PUSH2 0x5220 JUMPI PUSH2 0x521F PUSH2 0x51C3 JUMP JUMPDEST JUMPDEST SWAP3 SWAP2 POP POP JUMP JUMPDEST PUSH1 0x0 PUSH2 0x5231 DUP3 PUSH2 0x4366 JUMP JUMPDEST PUSH2 0x523B DUP2 DUP6 PUSH2 0x4D14 JUMP JUMPDEST SWAP4 POP DUP4 PUSH1 0x20 DUP3 MUL DUP6 ADD PUSH2 0x524D DUP6 PUSH2 0x4382 JUMP JUMPDEST DUP1 PUSH1 0x0 JUMPDEST DUP6 DUP2 LT ISZERO PUSH2 0x5289 JUMPI DUP5 DUP5 SUB DUP10 MSTORE DUP2 MLOAD PUSH2 0x526A DUP6 DUP3 PUSH2 0x4392 JUMP JUMPDEST SWAP5 POP PUSH2 0x5275 DUP4 PUSH2 0x43A6 JUMP JUMPDEST SWAP3 POP PUSH1 0x20 DUP11 ADD SWAP10 POP POP PUSH1 0x1 DUP2 ADD SWAP1 POP PUSH2 0x5251 JUMP JUMPDEST POP DUP3 SWAP8 POP DUP8 SWAP6 POP POP POP POP POP POP SWAP3 SWAP2 POP POP JUMP JUMPDEST PUSH1 0x0 PUSH2 0x180 DUP3 ADD SWAP1 POP PUSH2 0x52B1 PUSH1 0x0 DUP4 ADD DUP16 PUSH2 0x3BEC JUMP JUMPDEST PUSH2 0x52BE PUSH1 0x20 DUP4 ADD DUP15 PUSH2 0x3C2D JUMP JUMPDEST DUP2 DUP2 SUB PUSH1 0x40 DUP4 ADD MSTORE PUSH2 0x52D0 DUP2 DUP14 PUSH2 0x3C82 JUMP JUMPDEST SWAP1 POP DUP2 DUP2 SUB PUSH1 0x60 DUP4 ADD MSTORE PUSH2 0x52E4 DUP2 DUP13 PUSH2 0x3C82 JUMP JUMPDEST SWAP1 POP DUP2 DUP2 SUB PUSH1 0x80 DUP4 ADD MSTORE PUSH2 0x52F8 DUP2 DUP12 PUSH2 0x5226 JUMP JUMPDEST SWAP1 POP PUSH2 0x5307 PUSH1 0xA0 DUP4 ADD DUP11 PUSH2 0x3BEC JUMP JUMPDEST PUSH2 0x5314 PUSH1 0xC0 DUP4 ADD DUP10 PUSH2 0x3BEC JUMP JUMPDEST PUSH2 0x5321 PUSH1 0xE0 DUP4 ADD DUP9 PUSH2 0x3BEC JUMP JUMPDEST PUSH2 0x532F PUSH2 0x100 DUP4 ADD DUP8 PUSH2 0x3BEC JUMP JUMPDEST PUSH2 0x533D PUSH2 0x120 DUP4 ADD DUP7 PUSH2 0x3BEC JUMP JUMPDEST PUSH2 0x534B PUSH2 0x140 DUP4 ADD DUP6 PUSH2 0x3BEC JUMP JUMPDEST PUSH2 0x5359 PUSH2 0x160 DUP4 ADD DUP5 PUSH2 0x3D23 JUMP JUMPDEST SWAP14 SWAP13 POP POP POP POP POP POP POP POP POP POP POP POP POP JUMP JUMPDEST PUSH1 0x0 PUSH2 0x5375 DUP3 PUSH2 0x3840 JUMP JUMPDEST SWAP2 POP PUSH32 0xFFFFFFFFFFFFFFFFFFFFFFFFFFFFFFFFFFFFFFFFFFFFFFFFFFFFFFFFFFFFFFFF DUP3 SUB PUSH2 0x53A7 JUMPI PUSH2 0x53A6 PUSH2 0x51C3 JUMP JUMPDEST JUMPDEST PUSH1 0x1 DUP3 ADD SWAP1 POP SWAP2 SWAP1 POP JUMP JUMPDEST PUSH32 0x4574686572206D7573742062652067726561746572207468616E207A65726F00 PUSH1 0x0 DUP3 ADD MSTORE POP JUMP JUMPDEST PUSH1 0x0 PUSH2 0x53E8 PUSH1 0x1F DUP4 PUSH2 0x3C47 JUMP JUMPDEST SWAP2 POP PUSH2 0x53F3 DUP3 PUSH2 0x53B2 JUMP JUMPDEST PUSH1 0x20 DUP3 ADD SWAP1 POP SWAP2 SWAP1 POP JUMP JUMPDEST PUSH1 0x0 PUSH1 0x20 DUP3 ADD SWAP1 POP DUP2 DUP2 SUB PUSH1 0x0 DUP4 ADD MSTORE PUSH2 0x5417 DUP2 PUSH2 0x53DB JUMP JUMPDEST SWAP1 POP SWAP2 SWAP1 POP JUMP JUMPDEST PUSH1 0x0 PUSH1 0xA0 DUP3 ADD SWAP1 POP PUSH2 0x5433 PUSH1 0x0 DUP4 ADD DUP9 PUSH2 0x3BEC JUMP JUMPDEST PUSH2 0x5440 PUSH1 0x20 DUP4 ADD DUP8 PUSH2 0x3C2D JUMP JUMPDEST PUSH2 0x544D PUSH1 0x40 DUP4 ADD DUP7 PUSH2 0x3BEC JUMP JUMPDEST DUP2 DUP2 SUB PUSH1 0x60 DUP4 ADD MSTORE PUSH2 0x545F DUP2 DUP6 PUSH2 0x3C82 JUMP JUMPDEST SWAP1 POP PUSH2 0x546E PUSH1 0x80 DUP4 ADD DUP5 PUSH2 0x3BEC JUMP JUMPDEST SWAP7 SWAP6 POP POP POP POP POP POP JUMP JUMPDEST PUSH32 0x50726F6A65637420616C7265616479206D61726B656420617320726576657274 PUSH1 0x0 DUP3 ADD MSTORE PUSH32 0x65642F64656C6574656400000000000000000000000000000000000000000000 PUSH1 0x20 DUP3 ADD MSTORE POP JUMP JUMPDEST PUSH1 0x0 PUSH2 0x54D4 PUSH1 0x2A DUP4 PUSH2 0x3C47 JUMP JUMPDEST SWAP2 POP PUSH2 0x54DF DUP3 PUSH2 0x5478 JUMP JUMPDEST PUSH1 0x40 DUP3 ADD SWAP1 POP SWAP2 SWAP1 POP JUMP JUMPDEST PUSH1 0x0 PUSH1 0x20 DUP3 ADD SWAP1 POP DUP2 DUP2 SUB PUSH1 0x0 DUP4 ADD MSTORE PUSH2 0x5503 DUP2 PUSH2 0x54C7 JUMP JUMPDEST SWAP1 POP SWAP2 SWAP1 POP JUMP JUMPDEST PUSH32 0x50726F6A656374206E6F7420415050524F564544000000000000000000000000 PUSH1 0x0 DUP3 ADD MSTORE POP JUMP JUMPDEST PUSH1 0x0 PUSH2 0x5540 PUSH1 0x14 DUP4 PUSH2 0x3C47 JUMP JUMPDEST SWAP2 POP PUSH2 0x554B DUP3 PUSH2 0x550A JUMP JUMPDEST PUSH1 0x20 DUP3 ADD SWAP1 POP SWAP2 SWAP1 POP JUMP JUMPDEST PUSH1 0x0 PUSH1 0x20 DUP3 ADD SWAP1 POP DUP2 DUP2 SUB PUSH1 0x0 DUP4 ADD MSTORE PUSH2 0x556F DUP2 PUSH2 0x5533 JUMP JUMPDEST SWAP1 POP SWAP2 SWAP1 POP JUMP JUMPDEST PUSH1 0x0 PUSH2 0x5581 DUP3 PUSH2 0x3840 JUMP JUMPDEST SWAP2 POP PUSH2 0x558C DUP4 PUSH2 0x3840 JUMP JUMPDEST SWAP3 POP DUP3 DUP3 SUB SWAP1 POP DUP2 DUP2 GT ISZERO PUSH2 0x55A4 JUMPI PUSH2 0x55A3 PUSH2 0x51C3 JUMP JUMPDEST JUMPDEST SWAP3 SWAP2 POP POP JUMP JUMPDEST PUSH1 0x0 PUSH2 0x55B5 DUP3 PUSH2 0x3840 JUMP JUMPDEST SWAP2 POP PUSH2 0x55C0 DUP4 PUSH2 0x3840 JUMP JUMPDEST SWAP3 POP DUP3 DUP3 MUL PUSH2 0x55CE DUP2 PUSH2 0x3840 JUMP JUMPDEST SWAP2 POP DUP3 DUP3 DIV DUP5 EQ DUP4 ISZERO OR PUSH2 0x55E5 JUMPI PUSH2 0x55E4 PUSH2 0x51C3 JUMP JUMPDEST JUMPDEST POP SWAP3 SWAP2 POP POP JUMP JUMPDEST PUSH32 0x4E487B7100000000000000000000000000000000000000000000000000000000 PUSH1 0x0 MSTORE PUSH1 0x12 PUSH1 0x4 MSTORE PUSH1 0x24 PUSH1 0x0 REVERT JUMPDEST PUSH1 0x0 PUSH2 0x5626 DUP3 PUSH2 0x3840 JUMP JUMPDEST SWAP2 POP PUSH2 0x5631 DUP4 PUSH2 0x3840 JUMP JUMPDEST SWAP3 POP DUP3 PUSH2 0x5641 JUMPI PUSH2 0x5640 PUSH2 0x55EC JUMP JUMPDEST JUMPDEST DUP3 DUP3 DIV SWAP1 POP SWAP3 SWAP2 POP POP JUMP JUMPDEST PUSH1 0x0 PUSH1 0xA0 DUP3 ADD SWAP1 POP PUSH2 0x5661 PUSH1 0x0 DUP4 ADD DUP9 PUSH2 0x3BEC JUMP JUMPDEST DUP2 DUP2 SUB PUSH1 0x20 DUP4 ADD MSTORE PUSH2 0x5673 DUP2 DUP8 PUSH2 0x4C85 JUMP JUMPDEST SWAP1 POP PUSH2 0x5682 PUSH1 0x40 DUP4 ADD DUP7 PUSH2 0x3C2D JUMP JUMPDEST PUSH2 0x568F PUSH1 0x60 DUP4 ADD DUP6 PUSH2 0x3BEC JUMP JUMPDEST PUSH2 0x569C PUSH1 0x80 DUP4 ADD DUP5 PUSH2 0x3BEC JUMP JUMPDEST SWAP7 SWAP6 POP POP POP POP POP POP JUMP JUMPDEST PUSH1 0x0 DUP2 SWAP1 POP SWAP3 SWAP2 POP POP JUMP JUMPDEST POP JUMP JUMPDEST PUSH1 0x0 PUSH2 0x56C1 PUSH1 0x0 DUP4 PUSH2 0x56A6 JUMP JUMPDEST SWAP2 POP PUSH2 0x56CC DUP3 PUSH2 0x56B1 JUMP JUMPDEST PUSH1 0x0 DUP3 ADD SWAP1 POP SWAP2 SWAP1 POP JUMP JUMPDEST PUSH1 0x0 PUSH2 0x56E2 DUP3 PUSH2 0x56B4 JUMP JUMPDEST SWAP2 POP DUP2 SWAP1 POP SWAP2 SWAP1 POP JUMP JUMPDEST PUSH32 0x5061796D656E74206661696C6564000000000000000000000000000000000000 PUSH1 0x0 DUP3 ADD MSTORE POP JUMP JUMPDEST PUSH1 0x0 PUSH2 0x5722 PUSH1 0xE DUP4 PUSH2 0x3C47 JUMP JUMPDEST SWAP2 POP PUSH2 0x572D DUP3 PUSH2 0x56EC JUMP JUMPDEST PUSH1 0x20 DUP3 ADD SWAP1 POP SWAP2 SWAP1 POP JUMP JUMPDEST PUSH1 0x0 PUSH1 0x20 DUP3 ADD SWAP1 POP DUP2 DUP2 SUB PUSH1 0x0 DUP4 ADD MSTORE PUSH2 0x5751 DUP2 PUSH2 0x5715 JUMP JUMPDEST SWAP1 POP SWAP2 SWAP1 POP JUMP INVALID LOG2 PUSH5 0x6970667358 0x22 SLT KECCAK256 0xDC 0xF LOG4 BLOBHASH KECCAK256 0xBF 0x2B BYTE LOG3 KECCAK256 0xE3 0xC6 CALLCODE 0xBB SLOAD 0xA7 PUSH11 0x746ABBAFA53B5E84A53B28 0x24 0xE7 DUP5 0x4F PUSH5 0x736F6C6343 STOP ADDMOD XOR STOP CALLER "},"methodIdentifiers":{"acceptProject(uint256)":"fd1d5ea9","backProject(uint256,string)":"944173df","backersOf(uint256,uint256)":"f9285aa0","categories(uint256)":"c6cdbe5e","changeTax(uint256)":"3e45c8af","createProject(string,string,string[],uint256,uint256,uint256)":"7326c718","deleteProject(uint256,string)":"486ee331","getBackers(uint256)":"c9168b72","getCategories()":"4db0412c","getProject(uint256)":"f0f3f2c8","getProjects()":"dcc60128","getStats()":"c59d4847","getUserProjects(address)":"e32e723c","owner()":"8da5cb5b","payOutProject(uint256)":"b531dcba","projectCount()":"36fbad26","projectExists(uint256)":"703d52af","projectTax()":"d24cd3ec","projects(uint256)":"107046bd","projectsOf(address,uint256)":"8e555632","rejectProject(uint256,string)":"086a8a87","requestRefund(uint256)":"a4b2409e","stats()":"d80528ae","updateProject(uint256,string,string[])":"013feda9"}}}}}